:020000040000FA
:10000000B813002051010000590100005B010000FD
:1000100000000000000000000000000000000000E0
:10002000000000000000000000000000C508000003
:1000300000000000000000000F010000C7080000E1
:100040003D04000051040000710400009104000010
:10005000B1040000D1040000F1040000110500000B
:100060002505000039050000590500006D05000058
:1000700081050000A1050000B5050000C9050000CC
:10008000E9050000090600001D0600003106000019
:1000900045060000590600006D0600008D060000B0
:1000A000AD060000CD060000ED06000001070000CF
:1000B00015070000290700003D0700005107000058
:1000C000EF3FE9FF0348854600F09CF800480047F1
:1000D000D52D0000B8130020084B1968086820309F
:1000E00080F30988022080F31488BFF36F8F3FBC30
:1000F000AE4608BC04BC62B618470000EC00002005
:10010000EFF3108072B6704780F310887047EFF3FA
:1001100009800E4B1A6820381060F0C044464D46E6
:1001200056465F46F0C008B572B603F03DF862B6B9
:100130000CBC116808681030F0C8A046A946B24649
:10014000BB4680F309882038F0C81847EC0000202F
:100150001648804716480047FEE7FEE7FEE7FEE741
:10016000FEE7FEE7FEE7FEE7FEE7FEE7FEE7FEE767
:10017000FEE7FEE7FEE7FEE7FEE7FEE7FEE7FEE757
:10018000FEE7FEE7FEE7FEE7FEE7FEE7FEE7FEE747
:10019000FEE7FEE7FEE7FEE7FEE7FEE7FEE7FEE737
:1001A000FEE7FEE7FEE7FEE7FEE700003909000094
:1001B000C500000030B50B46014600202022012476
:1001C00009E00D46D5409D4205D31D469540491B8B
:1001D0002546954040191546521E002DF1DC30BDD4
:1001E00003460B439B0703D009E008C9121F08C050
:1001F000042AFAD203E00B780370401C491C521EFB
:10020000F9D27047064C0125064E05E0E36807CC9D
:100210002B430C3C98471034B442F7D3FFF756FFFA
:10022000B8350000D835000070B58C180578401C32
:100230006B075B0F01D10378401C2A1106D10278AD
:10024000401C03E006780E70401C491C5B1EF9D16F
:100250002B0705D40023521E0DD40B70491CFAE75E
:100260000378401CCB1A921C03E01D780D70491CCA
:100270005B1C521EF9D5A142D8D3002070BD0000EE
:10028000014900204871704720600040014900206A
:10029000487770474060004001490020487170472E
:1002A0006060004001490020487070476060004075
:1002B00000B5C02080781949C0080978C000014302
:1002C00017484201EA2921D009DCE0390B0001F08E
:1002D000FFFA0A171B1F230E0E0E0E13190EED291F
:1002E00005D005DCEB2915D0EC2900D10D4800BD67
:1002F000F02903D0F829FAD1104600BD0A4800BD04
:100300000A4800BD0A4800BD0A4800BD0A4800BDB1
:100310000A4800BD0A4800BD0A4800BD201C024032
:1003200040420F0080841E00006CDC0200366E012B
:100330000024F400001BB70000127A00808D5B00DF
:1003400000093D00C0C62D00054901200877054978
:100350008A8802438A800449002008777047000099
:1003600000610040601504400060004018B511486D
:100370000023037410488188012211438180418940
:100380009143418101899143018101898415214370
:10039000018169460B7004E000BF6B461978491C67
:1003A0001970694609780E29F6D90189114301812E
:1003B00018BD000000000020601504400549012020
:1003C000087005488188022211438180034900207A
:1003D00008707047206100406015044020600040B4
:1003E00008B50E48818802221143818041899143DA
:1003F000418101899143018101894315194301819B
:1004000000216B46197019780E2903D800BF19789E
:10041000491CF7E701891143018108BD60150440BB
:100420000548417C4906490E417400BF00BF00BF2A
:1004300000BF00BF70470000201A044010B50348F9
:100440000078002801D002F0BFFC10BD0060004021
:1004500010B5064C2079002801D002F061FC6079CB
:10046000002801D002F08CFC10BD000000600040AC
:1004700010B5064C207A002801D002F063FC607AA7
:10048000002801D002F082FC10BD00000060004096
:1004900010B5064C207B002801D002F059FC607B8F
:1004A000002801D002F078FC10BD00000060004080
:1004B00010B5064C207C002801D002F04FFC607C77
:1004C000002801D002F06EFC10BD0000006000406A
:1004D00010B5064C207D002801D002F045FC607D5F
:1004E000002801D002F022FC10BD00000060004096
:1004F00010B5064C207E002801D002F03BFC607E47
:10050000002801D002F018FC10BD0000006000407F
:1005100010B50348007F002801D001F0F7FE10BDA0
:100520000060004010B503480078002801D001F0B9
:1005300071FF10BD2060004010B5064C20790028E6
:1005400001D002F0E1FC6079002801D0FFF798FEAD
:1005500010BD00002060004010B50348007A00285C
:1005600001D002F047FD10BD2060004010B50348E7
:10057000007B002801D002F023FD10BD2060004068
:1005800010B5064C207C002801D002F0B1FC607C44
:10059000002801D002F0BEFC10BD00002060004029
:1005A00010B50348007D002801D002F061FD10BDA8
:1005B0002060004010B50348007E002801D002F002
:1005C00023FD10BD2060004010B5064C207F0028A0
:1005D00001D002F093FC607F002801D002F0A0FC63
:1005E00010BD00002060004010B5064C20780028A7
:1005F00001D002F05DFA6078002801D001F03EFAE7
:1006000010BD00004060004010B50348007900288C
:1006100001D002F08BFC10BD4060004010B50348D3
:10062000007A002801D002F087FC10BD4060004035
:1006300010B50348007B002801D002F083FC10BDF8
:100640004060004010B50348007C002801D002F053
:100650007FFC10BD4060004010B50348007D0028BD
:1006600001D001F0F9F910BD4060004010B5064C12
:10067000207E002801D002F035FC607E002801D0E9
:1006800002F096FB10BD00004060004010B5064C23
:10069000207F002801D002F091FB607F002801D06C
:1006A000FFF7F4FD10BD00004060004010B5064C9F
:1006B0002078002801D001F0D5F96078002801D019
:1006C000FFF7F0FD10BD00006060004010B5064C63
:1006D0002079002801D001F0CBF96079002801D001
:1006E000FFF7DAFD10BD00006060004010B5034860
:1006F000007A002801D002F031FC10BD606000409B
:1007000010B50348007B002801D002F04DFC10BD5D
:100710006060004010B50348007C002801D002F062
:1007200049FC10BD6060004010B50348007D002802
:1007300001D002F02DFC10BD6060004010B50348F0
:10074000007E002801D002F029FC10BD606000404E
:1007500010B50348007F002801D001F03BFD10BD1B
:100760006060004070B500F0DFF80E487D21C900E0
:100770000068FFF71FFD0C490024401E88420BD87B
:100780000A4948610A480722C3691B021B0A4D0433
:100790002B43C3618C610A6100F0C6F805484460D0
:1007A00070BD000050020020FFFFFF0000E000E0ED
:1007B00004ED00E0E8010020C106C90E01208840D8
:1007C000014908607047000080E200E0C106C90EE0
:1007D00001208840014908607047000080E200E085
:1007E000C106C90E01208840014908607047000019
:1007F00080E200E0C106C90E01208840014908607E
:100800007047000000E100E070B501238B402B4CE5
:100810002A4ED9B22A4D294B203C403E8619041954
:100820004519C018130001F053F806040D1C2C30B4
:100830003C2B02788A43027028780843287020787D
:10084000884316E002788A430270287808432870AB
:10085000207888432070207C88432074307C0843B3
:100860000DE002788A4302702878084328702078C7
:1008700008432070207C88432074307C8843307487
:1008800070BD02780A43027070BD02788A4302701C
:10089000287888432870207888432070207C8843FB
:1008A0000AE002788A43027028788843287020780A
:1008B00088432070207C0843207470BD6000044091
:1008C00020030440704710B500F002F810BD00008E
:1008D0000F490868401C08600E49012008700E4945
:1008E0000868002801D0401E08600C4908680028EC
:1008F00001D0401E08600A480168002902D0016842
:10090000491E0160074802224179514041717047F8
:10091000EC010020E8010020F40100200C0200207E
:100920003C0200200003044010B5FFF7C1FC014960
:10093000086010BD5002002010B514498020487195
:1009400012481A21203801722B2141723C218172F8
:100950004D21C1720E4900204860FFF7A9FC0D49E6
:10096000086000200C49C04308600C4908600D492C
:100970000B48086048608860C86008614861886109
:10098000C8610949AC20487010BD00002004024035
:1009900000B001405002002080E200E000E100E0F1
:1009A000C0C0C0C000E400E00010024010B50C4A16
:1009B000937E0124234393760A4A1378A34313704A
:1009C000094B1C72094C002323729070402802D1FD
:1009D000074A1020D0700348C030491E018010BD66
:1009E0000008024040220440606100406060004016
:1009F0002004024005490020087205490872054894
:100A000001780122114301707047000060600040CE
:100A100060610040402204400548017849084900CF
:100A200001700449012008720349002008727047D0
:100A300040220440606100406060004038B56A4672
:100A400000F002FA002814D10A4903248C80CA88D5
:100A500012091201CA80CA886B461B781A43CA80E1
:100A60006B465A78044B52021A825A824A882243B1
:100A70004A8038BD2011044000130440F8B5864672
:100A800028488C460178042631430170264A032009
:100A9000D080254B2220203B1882244818836727CA
:100AA00023487F02078223490D7C012425430D74CE
:100AB00007215981FF21233159821F4959834782D8
:100AC000108920431081908AA0439082508920434E
:100AD00050811A48017F202421430177184A517818
:100AE00031435170164920314A78FB231A404A702D
:100AF000144D6A7C1A406A74124A203255781D409F
:100B00005570037F234303774878022318434870C6
:100B10005078FD210840507061467046FFF78EFF07
:100B2000F8BD00002004024020110440978000001E
:100B30000013044060040440974000006008044033
:100B40000003044040000440034841888906FCD566
:100B50000248807C704700000011044000130440EC
:100B600003490874034801884906890FFBD170477F
:100B7000001304400011044038B56A4600F064F9DF
:100B800000280ED1074A0C24948069460978D18048
:100B900069464978044B49029980D980518821439C
:100BA000518038BD2011044040130440F8B58446FC
:100BB0002A48027804231A430270294A90880C2498
:100BC00020439080274C0120207520762077264CEA
:100BD0000020207520762077214C2220203CA08206
:100BE0002248A0836726224F7602BE802148057CDA
:100BF0001D4305740720E081FF202330E0821E485A
:100C0000E083FE80108918431081908A9843908277
:100C1000508918435081194802781A4302701748C6
:100C200020300278FB231A400270154A147C1C40C5
:100C30001474134A203214781C4014700378022470
:100C4000234303701078FD23184010706046FFF7AF
:100C500093FF044600F016F82046F8BD2004024039
:100C60002011044020610040206000409780000077
:100C70004013044060040440974000000003044017
:100C80004000044010B50D48028904210A43028146
:100C900042890A43428141880C221143418008481D
:100CA0000024047504760D20FFF786FD0E20FFF763
:100CB00083FD04480475047610BD00002011044033
:100CC000206000402061004038B56A4600F0BCF862
:100CD00000280ED1074A0324948069460978D18000
:100CE00069464978044B4902198159815188214349
:100CF000518038BD6015044040170440F8B5844663
:100D0000334800780825324A28431070314A9088C9
:100D1000032318439080304B0120187703462E4858
:100D200020300370012303712C4B002018772B4BCC
:100D3000203318701871274B2220203B1882284836
:100D400018836726274F76023E812748047C1023AC
:100D50001C4304741F48072420384481FF24233493
:100D60004482224C44837E811089012420431081D7
:100D7000908AA04390825089204350811C4AD07DA4
:100D8000FD263040D0751B4C607828436070194CAC
:100D900020346078F725284060701748477C2F4042
:100DA0004774154F2037787828407870D07D3040D0
:100DB000D0756078184360707878EF2210407870B2
:100DC0006046FFF781FF044600F018F82046F8BDA2
:100DD00020040240601504400061004000600040B3
:100DE00097800000401704406004044097400000D2
:100DF00060080440000304404000044010B50F4860
:100E0000028901210A43028142890A4342814188C1
:100E10000322114341800A48002404770848203007
:100E200004700720FFF7C8FC0820FFF7C5FC054841
:100E3000047704482030047010BD000060150440A1
:100E40000060004000610040F7B582B003980025C3
:100E5000010264262F4600950298FFF7ABF90122A4
:100E6000401C00E06D1C1146A9408142FAD334E0D9
:100E700021496800095A0298FFF79CF90224019061
:100E8000611C0198FFF796F97D214008C90048438D
:100E90000399FFF78FF97D21C900401A0A214843C1
:100EA000002E01DB314600E07142021E00DA4242B0
:100EB000914202DD064627460095002E01DB3046B2
:100EC00000E07042142804DA049805700498447015
:100ED0000FE0641C802CD3D36D1C102DC8D3002EC2
:100EE00000DA7642142E04DB049900980870049806
:100EF0004770002005B0F0BD98330000002101705C
:100F000041708170C1708030017141718171704791
:100F100000B50548FFF7F2FF0448FFF7EFFF04486C
:100F2000FFF7ECFF00BD0000680700206F080020FD
:100F300076090020F0B5044600208C46671E1AE0B2
:100F40001146F940CD0701114E00C117090F0918CC
:100F500009090901411AED0F9E5B611A491ECE4035
:100F6000F107C90F8D4203D051006246514000E0A5
:100F700051008AB2401C05998842E1D302491046CB
:100F8000A1408843F0BD0000FFFF000038B500F02D
:100F9000A7FB00F051FB0C4C0C4B002081004200E1
:100FA000091949889954090AD218401CC0B25170D5
:100FB0004028F3D33F2000010090044B044A054928
:100FC0001020FFF7B7FF38BDB80E0020000D00203D
:100FD000FFFF00000580000038B50A4CA07800280B
:100FE0000BD1094B4E221A70587098700220009055
:100FF0006C2101205B1C01F057F90120A07000203A
:1010000038BD000020020020A40B002038B50A4C97
:10101000607800280BD1094B4E221A7058709870D6
:10102000022000906C2101205B1C01F03DF90120A1
:101030006070002038BD000020020020A40B0020BA
:1010400038B50B4C207800280DD10A4B22221A709B
:10105000A220587062209870022000906C2101201C
:101060005B1C01F021F901202070002038BD000038
:1010700020020020A40B002010B5104CA069401CD9
:10108000A06101280BD1FFF7A7FFFFF7BFFFFFF714
:10109000D7FF00F025FB00F0CFFA00F04BF800F08E
:1010A00049F80748E1884184218981846189C184A4
:1010B000A1894185E189818510BD000020020020C1
:1010C000E40B0020F8B50D460646002200F04CFA6D
:1010D000012821D100F0EAF8144C4E2222706670EB
:1010E0004C20A0700226631C6C210120009601F0A8
:1010F000DBF84822227000200D4CFF212154401CB7
:10110000C0B20A28FAD30A4B6C210120009601F0E4
:1011100073F8002802D000221046F8BD6078000263
:1011200028802178401828800122F5E7A40B0020B0
:10113000C40B002038B56946222000F05BF82C4C27
:10114000012802D168460088A0806946262000F068
:1011500051F8012802D168460088E08069462820BD
:1011600000F048F8012802D16846008820816946CD
:101170002A2000F03FF8012802D1684600886081EB
:1011800069462E2000F036F8012802D16846008812
:10119000A0816946302000F02DF8012802D1684670
:1011A0000088E0816946322000F024F8012802D14D
:1011B0006846008820826946362000F01BF8012826
:1011C00002D16846008860826946382000F012F833
:1011D000012802D168460088A0826946462000F0B6
:1011E00009F8012802D168460088E082002038BD55
:1011F0002002002038B50D46024600F0C6F901284D
:1012000012D10E48002302700D4CFF20E0545B1CED
:10121000DBB20A2BFAD302200090094B6C2101208B
:1012200000F0EAFF002801D0002038BD60780002FD
:101230002880217840182880012038BDA40B002088
:10124000C40B0020F8B5174F7878012826D1164C2A
:101250004E252570BD2060709820A0700226631C6A
:101260002A466C210120009601F01EF82570BF204F
:1012700060702520A070631C2A466C210120009616
:1012800001F012F82570D82060703620A070631C21
:101290002A466C210120009601F006F800207870A3
:1012A000F8BD000020020020A40B0020F8B5174F65
:1012B0003878012826D1164C222525705A206070D6
:1012C000F720A0700226631C2A466C21012000969C
:1012D00000F0EAFF2570C72060700C20A070631C2E
:1012E0002A466C210120009600F0DEFF25701E20AA
:1012F0006070D220A070631C2A466C2101200096E9
:1013000000F0D2FF00203870F8BD0000200200205D
:10131000A40B0020F8B50D46064600F02DF9012873
:1013200021D1FFF7C3FFFFF78DFF104C4A22227037
:101330006570280AA0700225631C6C2101200095AD
:1013400000F0B2FF4E2222706670A320A070631CD2
:101350006C210120009500F0A7FF05480121C16123
:10136000C1690029FCD10020F8BD0000A40B0020B9
:101370002002002038B50D46044600F006F9012889
:101380000ED1FFF793FF074B280A1C705D70987011
:101390000220009022466C2101205B1C00F084FF9B
:1013A000002038BDA40B002010B501220021072029
:1013B000FFF72AFA042201210720FFF725FA042269
:1013C00002210720FFF720FA042207210120FFF75E
:1013D0001BFA0A4C802160780422084360700121C6
:1013E0000520FFF711FA607902210843FD2108402A
:1013F000607103490020486010BD000000030440F4
:10140000F001002010B5012000F0A0F9022000F04A
:101410009DF9032000F09AF9FFF7B8FD10BD000018
:1014200010B503484188491C4180FFF725FE10BDD7
:1014300018020020054A0028517803D020200143DB
:1014400051707047DF200140FAE7000000030440BC
:10145000054A0028517803D010200143517070478D
:10146000EF200140FAE700000003044010B501221C
:1014700004211046FFF7C8F910BD10B5042211462B
:101480000120FFF7C1F910BD03484078C00601D420
:10149000002070470120704700030440054A0028DF
:1014A000D17803D001200143D17070474808400033
:1014B000D070704700030440054A0028517903D0DA
:1014C0000120014351717047480840005071704736
:1014D0000003044010B5012200210520FFF794F914
:1014E00010BD10B5042200210520FFF78DF910BDB5
:1014F00002484079C00700D0012070470003044033
:10150000054A0028D17903D020200143D1717047CA
:10151000DF200140FAE7000000030440054A0028EC
:10152000D17903D010200143D1717047EF200140E1
:10153000FAE700000003044010B50122042107204F
:10154000FFF762F910BD10B5042211460720FFF71E
:101550005BF910BD0348C079C00601D40020704774
:101560000120704700030440C10701D17E2801D942
:101570000020704701207047C10704D120385E2841
:1015800001D80120704700207047C1070FD12028E3
:101590000DD024280BD0014639390D2907D3123933
:1015A000032904D36039392901D3E42801D9002063
:1015B000704701207047000001229202831A420006
:1015C0004D2B28D80F2B01D817480BE041231B01C6
:1015D000984201D322201BE0144BC318092B03D8D7
:1015E0001148001D101813E0104B0A3BC318022BC2
:1015F00002D80D481030F5E70C4B0D3BC3182E2BCD
:1016000002D809481230EDE7094A904202D3E4209B
:1016100008700120704705231B02C01A3F2801D81B
:101620000448DFE70020704700F8FFFFEFFBFFFFF3
:101630004D04000000F6FFFFFEB50027FFF736FE61
:10164000234E244C00252846FFF78EFF00280FD09C
:101650006846868001A92846FFF734FD012807D196
:10166000B80025540019694689887F1C4180FFB263
:10167000AD1CEDB2F02DE6D3FFF7E2FC0020401CDC
:10168000C0B24028FBD3144D0020810009194B88BB
:1016900041006B541A0A4919401CC0B24A704028D4
:1016A000F3D33F20000100900B4B32460B49102032
:1016B000FFF740FC084900208039820043001219DE
:1016C000401C5288C0B2CA524028F6D3FEBD00006A
:1016D000FFFF0000B80E0020000D00200580000074
:1016E000F8B50025164F174E2C462046FFF74DFF44
:1016F00000280FD06846078069462046FFF77AFD2C
:10170000012807D1A80034548019694609886D1C46
:101710004180EDB2A41CE4B2F02CE6D30020401CC2
:10172000C0B24E28FBD30849002082004300921922
:10173000401C5288C0B2CA524E28F6D3F8BD0000F1
:10174000FFFF0000800D0020E40B002010B50446D0
:10175000012814D104220521FFF756F8042211466E
:101760000120FFF751F80020FFF764FE0120FFF78A
:1017700061FE0A21491EFDD10120FFF75BFE022C0C
:1017800015D1042200210320FFF73EF80422002196
:101790000520FFF739F80020FFF780FE0120FFF752
:1017A0007DFE0A21491EFDD10120FFF777FE032CA3
:1017B00015D1042205210720FFF726F8042211463F
:1017C0000720FFF721F80020FFF79AFE0120FFF71E
:1017D00097FE0A20401EFDD10120FFF791FE10BDAB
:1017E00070B502462848E12100244902274D284EC1
:1017F0000068002A04D0012A16D0022A28D12AE043
:10180000FFF73CF980280ED02C722C730A20FEF7CB
:10181000E7FF0B20FEF7E4FF347234730A20FEF773
:10182000E9FF0B2012E0FEE7FFF7C0F9802811D096
:101830002C752C760D20FEF7D3FF0E20FEF7D0FF7F
:10184000347534760D20FEF7D5FF0E20FEF7D2FF5B
:10185000002070BDFEE7FFF751FA802812D00B4838
:10186000203804772C700720FEF7BAFF0820FEF717
:10187000B7FF07482038047734700720FEF7BAFF17
:101880000820E3E7FEE7000050020020206000404F
:101890002061004010B5054C03490020E160FFF7CE
:1018A0009FFF0020206110BD64C20100FC010020E8
:1018B0000FB410B503A9044B044A029800F024F8B1
:1018C00010BC08BC04B01847E1210000D000002083
:1018D00030B47446641E2578641CAB4200D21D46A9
:1018E000635D5B00E31830BC184702E008C8121FB4
:1018F00008C1002AFAD170477047002001E001C1F9
:10190000121F002AFBD17047FFB58DB00446002599
:1019100006E025280AD0109A0F999047641C6D1C88
:1019200020780028F5D1284611B0F0BD002701210C
:10193000484A009700E00743641C23780846203B90
:1019400098401042F7D120782E2817D10420074361
:101950006078641C2A280CD10E98641C02C800917F
:101960000E900BE000990A22514330394018641C54
:1019700000902078014630390929F3D920780028D1
:10198000D1D0642808D0692806D075281ED0109AB6
:101990000F9990476D1C5BE00A200E99019001C9D8
:1019A0000E91002802DA40422D2102E0390504D5CB
:1019B0002B216A461172012103E0F90704D020218E
:1019C000F7E70BAE0B910DE00021FAE70A200E9924
:1019D000019001C90E91F7E70199FEF7EBFB303159
:1019E000761E31700028F7D103A8801B20300190AB
:1019F000780701D5009801E0012000900199884204
:101A000001DD401A00E000200027009006E002A857
:101A1000109AC05D0F9990476D1C7F1C0B988742F0
:101A2000F5DB04E0109A30200F9990476D1C009967
:101A3000481E00900029F5DC05E03078109A761CED
:101A40000F9990476D1C0199481E01900029F4DC04
:101A5000641C65E7092801000149002008757047EA
:101A600040600040014900200870704760600040FD
:101A70000149002008717047606000400149002062
:101A8000487070474060004070B5064D00242878CB
:101A9000012802D00624204670BD28698047002016
:101AA0002870F8E73C01002070B50C460988002634
:101AB00005292CD14178174D0A0281781143C2784B
:101AC000130202791A43531EAB4220D20023238013
:101AD0000123037023885B1C2380401C530702D022
:101AE000D3085B1C00E0D308DDB205702388401CDE
:101AF0005B1C2380002300F0CFFA002803D001F004
:101B0000DFF9064604E020884019208000E0032623
:101B1000304670BDCF07000070B50C46098800261E
:101B200005292BD14178174D0A0281781143C278DB
:101B3000130202791A43531EAB421FD200232380A3
:101B40000223037023885B1C2380401C530702D0B0
:101B5000D3085B1C00E0D308DDB205702388401C6D
:101B60005B1C238000F09AFA002803D001F0A8F94A
:101B7000064604E020884019208000E00326304615
:101B800070BD0000CF07000070B50C460988002525
:101B9000052921D141780A02817811430279531E27
:101BA0007C2B19D80023238003230370238856003D
:101BB0005B1C238046702388801C5B1C23800023D1
:101BC00000F06EFA002803D001F07AF9054604E02F
:101BD00020888019208000E00325284670BD70B55C
:101BE0000C4609880025052923D141780A0281780D
:101BF0001143C278130202791A43531E7C2B18D268
:101C00000023238004230370238856005B1C238059
:101C100046702388801C5B1C238000F0B7FA0028E4
:101C200003D001F04DF9054604E02088801920809A
:101C300000E00325284670BDF8B504460888002753
:101C40000D460A2844D360780102A0780843401C5E
:101C500080B20090E0782679000206436079227A0B
:101C60000102A079731E0843401C81B2E079000292
:101C70000243607A7C2B2AD8002A28D0792A26D8D9
:101C80005300834223D1204601230A3000F008FA92
:101C9000002814D100212980172121702988601C77
:101CA000491C29807400047029880023491C29805C
:101CB0003246401C009900F0F3F9002803D001F0EF
:101CC000FFF8074604E028880019288000E0032771
:101CD0003846F8BD70B5064C0D4622880549401CB3
:101CE000FEF77EFA2088401C2880002070BD00008E
:101CF000380100204807002038B50988002405294C
:101D00000BD141780A02817811430279002A04D16B
:101D1000C278FF2A04D0002A02D00324204638BD0E
:101D200000226B465A70C078FF280BD01A7001232E
:101D30001A46684600F0B0F90028EFD001F0C0F86C
:101D40000446EBE701201870F1E710B5098800247C
:101D5000052902D00324204610BD417801230A0240
:101D60008178C01C11431A4600F09AF90028F2D07D
:101D700001F0A6F80446EEE7F8B50D460988002400
:101D8000052924D94178827809020A439446C1780A
:101D9000027909020A434379510702D0D108491C4C
:101DA00000E0D1080B4F561EC9B2BE420FD899426F
:101DB0000DD101236146801D00F06EF9002803D08B
:101DC00001F07EF8044603E00520288000E00324AB
:101DD0002046F8BDAF07000070B50D460988002405
:101DE00006291CD341780A0281781143C278130274
:101DF00002791A434379561E772E10D85606360EAE
:101E00009E420CD10123801D00F04AF9002803D026
:101E100001F056F8044603E00520288000E0032482
:101E2000204670BDF8B51C46069B1746054600299E
:101E300006D0F72904D8144E08463171002D01D080
:101E400002241CE011493161114971611149F160AD
:101E50001149B1610021F16110493162104971628B
:101E60001049B1622246394600F07CF8040006D1E0
:101E700001F0D4F9002804D075710120307020469B
:101E8000F8BD0324FBE700003C01002059200000BE
:101E900089200000ED1F0000A11F00008932000012
:101EA00039330000F532000038B52D4C2078002879
:101EB00001D0062038BD684601F0A2F901284DD1B5
:101EC00068460078002849D0012802D0022845D170
:101ED00011E0234AA369921D911CC81F984700284E
:101EE0003CD160782179884201D0002836D1022087
:101EF00001F09CF932E0A06801210578A570E1703D
:101F0000174B00212C33CA009A5C002A0CD0AA423D
:101F100007D1C900C9184A681149891D9047E07066
:101F200002E0491C1029EEDB6078002816D0E27828
:101F3000002A0ED00020E080A17880200143A06814
:101F40000170E188491C89B2E1804254E088401C5C
:101F5000E080E368E2882079A1689847002038BDD6
:101F60003C01002070B51546084600240822294689
:101F700001F06BF901280ED14B200002854201D9F6
:101F8000232003E069000548FEF714F980B201F050
:101F900063F9012800D00324204670BDA07F1700FC
:101FA000F7B5104D0746A88816460024FF2801D92A
:101FB000C046C046A888042805D3A9880A4801F06D
:101FC00073F8002802D005242046FEBD064800789C
:101FD0003870A888C01E308003480199401C0860F2
:101FE000F2E700002C0100204806002070B5164CD6
:101FF000034660780026012802D00526304670BDD1
:10200000491E0125A160084665800B70618889180A
:102010006180618801F048F8014660880B4A131816
:10202000401C608019706088090A1218401C60808A
:10203000117025700121002001F04EF8044805724E
:10204000044900150860D9E72C010020480600204B
:102050002060004000E200E010B506490020487012
:102060000146012001F038F801F086F802A0FFF7E0
:102070001FFC10BD2C0100200A654D4252545553DF
:102080007461727428293B0010B50021084601F0E4
:1020900023F801F063F810BD01207047012070475C
:1020A000F8B50D4601218902691A8C4604460521BE
:1020B0009E46184609026B1A00282BD160464D280F
:1020C00013D800200EE029184E002C4976182C4910
:1020D000761831880F0A4100675409193678401C78
:1020E0004E70C0B29042EED314E03F2B44D8002093
:1020F0000EE029184E0023497618234976183188B6
:102100000F0A4100675409193678401C4E70C0B25E
:102110009042EED3704601282ED160466E004D28C5
:1021200014D869462846FFF747FA012824D12078B9
:1021300061780002081881B210483218104810184F
:10214000018068460078FFF715F915E03F2B13D89A
:1021500069462846FFF730FA01280DD120786178CA
:102160000002081881B20748321807481018018089
:1021700068460078FFF7CEF80020F8BDE40B002099
:1021800000F8FFFF800C002000F6FFFF70B57D23F4
:102190000024DB00994216D3FB258B18AD00AB421F
:1021A00011D80A4B0A4D1B88C91A09E04B00EE5A98
:1021B000521E360A0670EB5C4370801C92B2491CBA
:1021C000002AF3D100E00124204670BD4002002027
:1021D00042020020014900200877704760600040FB
:1021E00010B50446C0B2FEF7BBFC0A2C02D10D208C
:1021F000FEF7B6FC204610BDFFB581B000240A9F53
:102200001E462546002F08D0002E06D0254882788D
:1022100048000090002A03D014E0012005B0F0BD72
:10222000019800F0A1FB0098C1B2019800F0A2FA59
:10223000002800D001240399019800F09BFA00289F
:1022400000D0641C019800F08FFB0098401CC1B2C4
:10225000019800F08FFA002800D0641C1420401E62
:10226000FDD1012F0FD900257F1E0AE0711901222F
:10227000019800F057F9002801D0641CE4B26D1CED
:10228000EDB2BD42F2DB71190022019800F04AF96B
:10229000002801D0641CE4B2019800F0A8FB20469D
:1022A000BCE700001C020020FFB581B00A9F00259A
:1022B0001E460C46002F15D0002E13D0019800F0BA
:1022C00053FB6006010E019800F054FA002800D07C
:1022D00001250399019800F04DFA002800D06D1CEB
:1022E00000240CE0012005B0F0BD315D019800F044
:1022F00041FA002801D06D1CEDB2641CE4B2BC426E
:10230000F3D3019800F073FB2846ECE7F8B53749A2
:102310000888374B800702D51888002862D10888C2
:10232000C00702D0188800285CD1324F38780124C9
:10233000C007314A002811D01888002809D02F4939
:10234000086804781472401C08601888401E1880C1
:1023500048E0FEF70BF82A4804713FE03878FF2385
:10236000450722482030002D1BDB858825438580CA
:102370000D8BAD04AD0C0D830D8B0126B6033543DB
:102380000D834188214341803978042421433970E9
:102390001C490988012924D1418949084900418102
:1023A0001FE019490988174D2E88B1421AD2167AB2
:1023B000164F39680E70491C396013490E88761C17
:1023C0000E800F882E88761EB742E5D008882988AF
:1023D000884206D1FDF7CAFF09484471FDF7B4FFF2
:1023E00000E013720A4900200877F8BD4015044048
:1023F0004A0000201000002040170440B0000020D8
:10240000C60000204E0000204C000020B400002038
:1024100000600040F8B539494888394B800702D53B
:102420001888002865D14888C00702D0188800287D
:102430005FD1344E3078344AC00712D01888002853
:1024400009D03249086804789472401C08601888E2
:10245000401E18804DE0FDF7C3FF2D490120887113
:1024600043E03078FF23440724482030002C1ADB57
:10247000848802273C4384804C8BA404A40C4C83A6
:102480004C8B7D032C434C83418839434180317808
:102490000424214331701F490988012928D1418929
:1024A000B943418124E01C4C21881A4E3588A94249
:1024B0001FD2957A194F39680D70491C39602188EF
:1024C000491C218025883188491E8D4204D14489C8
:1024D00002218C4344810BE020883188884207D157
:1024E000FDF77EFF0A490120C871FDF767FF00E094
:1024F00093720B4900200870F8BD0000401504409D
:10250000500000201100002040170440B8000020B7
:10251000C60000205400002052000020BC00002013
:1025200020600040F8B5924F14460D46064601283B
:1025300044D100207870FEF77DFF1420401EFDD1AD
:10254000FEF794FF00203870787840007870012002
:10255000FEF770FF1420401EFDD1FEF795FF012805
:1025600002D17878401C78703220401EFDD1FEF7F1
:1025700061FF1420401EFDD13878401CC0B2387075
:102580000828E1D3FEF779FF78782870002C18D05E
:102590000020FEF74FFF0A20401EFDD1FEF758FF36
:1025A0000A20401EFDD10120FEF744FF4620401EB8
:1025B000FDD1FEF73FFF1E20401EFDD1022E18D098
:1025C0005CE00020FEF736FF0A20401EFDD101200E
:1025D000FEF73EFF0A20401EFDD10120FEF72AFF34
:1025E0004620401EFDD1FEF725FF1E20401EFDD1D6
:1025F000E4E700207870FEF751FF1420401EFDD163
:10260000FEF768FF0020387078784000787001206D
:10261000FEF744FF1420401EFDD1FEF769FF01289C
:1026200002D17878401C78703220401EFDD1FEF730
:1026300035FF1420401EFDD13878401CC0B23870E0
:102640000828E1D3FEF74DFF78782870002C18D0C9
:102650000020FEF723FF0A20401EFDD1FEF72CFFCD
:102660000A20401EFDD10120FEF718FF4620401E23
:10267000FDD1FEF713FF1E20401EFDD1032E18D002
:102680005CE00020FEF70AFF0A20401EFDD1012079
:10269000FEF712FF0A20401EFDD10120FEF7FEFECC
:1026A0004620401EFDD1FEF7F9FE1E20401EFDD142
:1026B000E4E700267E703046FEF722FF1420401E1D
:1026C000FDD1FEF739FF3E70787840007870012028
:1026D000FEF716FF1420401EFDD1FEF73BFF012838
:1026E00002D17878401C78703220401EFDD1FEF770
:1026F00007FF1420401EFDD13878401CC0B238704E
:102700000828E1D3FEF71FFF78782870002C17D037
:102710000020FEF7F5FE0A20401EFDD1FEF7FEFE6A
:102720000A20401EFDD10120FEF7EAFE4620401E91
:10273000FDD1FEF7E5FE1E20401EFDD10020F8BDB4
:102740000020FEF7DDFE0A20401EFDD10120FEF72D
:10275000E5FE0A20401EFDD10120FEF7D1FE4620F5
:10276000401EFDD1FEF7CCFE1E20401EFDD1E5E748
:102770001C02002010B50B4600218022794C012854
:1027800004D002284FD003287ED0DBE06270217095
:102790006078184000D00120FEF75AFE0A20401E43
:1027A000FDD10120FEF746FE4620401EFDD1FEF77A
:1027B00041FE1420401EFDD16078400860702078F2
:1027C000401CC0B220700828E2D3FEF74FFE0A205A
:1027D000401EFDD10120FEF72DFE1420401EFDD12C
:1027E000FEF752FE012806D0FEF74EFE00280ED05E
:1027F000FEF743FE13E00020FEF71CFEFEF73DFE51
:102800001E20401EFDD10120FEF722FE9AE000208E
:10281000FEF710FEFEF731FE1E20401EFDD1012006
:10282000FEF716FE9BE0627021706078184000D0C1
:102830000120FEF741FE0A20401EFDD10120FEF7D7
:102840002DFE4620401EFDD1FEF728FE1420401E1E
:10285000FDD16078400860702078401CC0B22070C4
:102860000828E2D3FEF736FE0A20401EFDD10120E3
:10287000FEF714FE1420401EFDD1FEF739FE01289C
:1028800008D0FEF735FE00E01CE000280ED0FEF771
:1028900028FE13E00020FEF701FEFEF722FE1E20B8
:1028A000401EFDD10120FEF707FE4BE00020FEF7A1
:1028B000F5FDFEF716FE1E20401EFDD10120FEF79D
:1028C000FBFD4CE0627021706078184000D0012060
:1028D000FEF724FE0A20401EFDD10120FEF710FE67
:1028E0004620401EFDD1FEF70BFE1420401EFDD1F8
:1028F0006078400860702078401CC0B220700828C2
:10290000E2D3FEF719FE0A20401EFDD10120FEF79A
:10291000F7FD1420401EFDD1FEF71CFE012806D055
:10292000FEF718FE00280FD0FEF70DFE14E0002081
:10293000FEF7E6FDFEF707FE1E20401EFDD101203A
:10294000FEF7ECFD012010BD0020FEF7D9FDFEF7DB
:10295000FAFD1E20401EFDD10120FEF7DFFD002004
:1029600010BD00001C02002000B50346012811D153
:10297000FEF76EFD0120FEF75DFD1420401EFDD127
:10298000FEF766FD1E20401EFDD1FEF753FD14210B
:10299000491EFDD1022B14D10120FEF78DFD01202F
:1029A000FEF77CFD1421491EFDD10020FEF784FDB9
:1029B0001E21491EFDD10020FEF770FD1421491E85
:1029C000FDD1032B12D10120FEF7A8FD0120FEF757
:1029D00097FD1420401EFDD1FEF7A0FD1E20401ED5
:1029E000FDD1FEF78DFD1420401EFDD100BD00B5C8
:1029F0000346012813D10A20401EFDD1FEF728FD11
:102A00000A20401EFDD10120FEF714FD0A20401EC1
:102A1000FDD10120FEF71CFD4620401EFDD1022BFA
:102A200014D10A21491EFDD10020FEF745FD0A21DF
:102A3000491EFDD10120FEF731FD0A21491EFDD1BD
:102A40000120FEF739FD4621491EFDD1032B13D18C
:102A50000A20401EFDD1FEF761FD0A20401EFDD177
:102A60000120FEF74DFD0A20401EFDD10120FEF79A
:102A700055FD4620401EFDD100BD00000548017CEB
:102A80000122114301740448417CC907FCD003486A
:102A900002707047201A0440401B0440D6000020FA
:102AA0000248017C2022114301747047201A04401F
:102AB00010B5074900200870FDF7B2FC0548407CBE
:102AC000C00902D000F008F810BD00F08BF810BD6E
:102AD00040600040401B0440F8B53948817C394CC7
:102AE000490602D42188002922D137490978384E75
:102AF0000F063368354920255A1C002F25DB304846
:102B0000407C400714D530480078802738432E4F4A
:102B100038702B48477C3F070ED50D7C08273D4376
:102B20000D741BE01978017432602088401E2080EB
:102B3000F8BDFFF7A3FFF8BD087C0422104308741A
:102B4000087CF722104008742BE0477C3F0709D52A
:102B5000417C490702D421880029ECD12188002931
:102B6000E7D0DFE71B4A14881B4B1E88B4421CD2F7
:102B7000067C1A4C20680670401C20601088401C9F
:102B8000108010881A8890420BD1087CFB221040DC
:102B90000874087C284308740A7C082002430A74DD
:102BA000F8BD087C28430874F8BD0B7C0122134350
:102BB0000B74417CC907FCD009480270F8BD0000C5
:102BC000401B0440DC000020D4000020201A0440F8
:102BD000E4000020DA000020D8000020E0000020FF
:102BE000D7000020F8B5444E707C0122C107434D48
:102BF0004348002912D0017CEF2319400174287842
:102C0000000609D52878400701D53E48027028788B
:102C1000800701D53C4802702A70F8BD29783B4BEB
:102C20000F061C682021631C002F29DB324E767CA6
:102C3000F60623D5067C10273E43067480262E70A8
:102C40002D4E757C2D0710D5057C08273D43057456
:102C50002AE02E482178317403602888401E28809D
:102C6000F8BD027C0A430274F8BD027C04231A43B7
:102C70000274027CF7231A400274F2E7802010E00D
:102C8000777C3F0717D51D4D2D7804273D431B4FFB
:102C90003D70757C6D0707D41D4D2D88002D03D028
:102CA0000220FFF7FDFEF8BD194D2F88002FD0D16F
:102CB000144B1A70D5E72B78022423432B70154C44
:102CC0002388154F3D88AB42CBD2357C134E3368F9
:102CD0001D705B1C336023885B1C238023883C8829
:102CE000A342BED1037C082423430374037C0B431B
:102CF000037405480270F8BD401B0440D500002055
:102D0000201A0440D6000020D7000020E400002054
:102D1000DC000020DA000020D8000020E0000020C5
:102D200001490020087170470060004001490020FF
:102D300048757047006000400149002048767047A0
:102D400000600040014900200872704700600040A8
:102D500001490020087370470060004001490020CD
:102D600008747047006000400149002008757047F2
:102D70000060004001490020087670470060004074
:102D8000014900204871704700600040014900205F
:102D90004872704700600040014900204873704746
:102DA0000060004001490020487470470060004006
:102DB00001490020487670474060004001490020EA
:102DC0000877704740600040014900200870704754
:102DD0000060004008B5FDF7C5FCFEF799F8FEF766
:102DE000E3FAFEF757FD02204B23002200905B021E
:102DF00001211046FFF716F8014618A0FEF758FD0E
:102E0000FEF742FE01461FA0FEF752FD2748322181
:102E10000068484326490968FDF7CCF92549086050
:102E200081B20020FDF7C2FDFEF7ECFA0025224C2E
:102E30007D27224E2570FF0039466068FDF7BAF9FC
:102E4000002905D12078012802D12570FEF7E8FA83
:102E5000FFF72AF83088401C3080EDE70A6553748C
:102E600061747573203D20654D42496E697428294F
:102E70003B2065537461747573203D2025642E20BA
:102E8000000000000A65537461747573203D20656D
:102E90004D42456E61626C6528293B206553746123
:102EA000747573203D2025642E2000005002002000
:102EB0000802002014020020E80100204202002045
:102EC000002804D0012803D0072803D0042070472D
:102ED0000220704706207047014800680047000044
:102EE00064010020014900200876704740600040DE
:102EF000014900200874704720600040014900200B
:102F00000877704720600040014900200871704731
:102F10002060004001490020487470472060004054
:102F20000149002048777047206000400149002097
:102F300008717047406000400149002008727047E6
:102F40004060004001490020087370474060004025
:102F500001490020087470474060004010B50949DD
:102F60000020087208480178890607D50178DF2219
:102F70001140017005490888401C0880FFF7ACFF2C
:102F800010BD00006060004040220440E8000020C6
:102F90000149002008757047606000400149002029
:102FA0000876704760600040014900200873704750
:102FB0006060004001490020087470476060004074
:102FC000094982B000200873084841886A464907C9
:102FD000490F1170117841811078002800D01078C5
:102FE0000348006802B00047206000400011044020
:102FF0005C01002002490020087202480068004776
:1030000020600040600100201CB5134900200876B4
:103010001248C1886A464907490F11701178C18169
:103020001078002800D010780D48807910710D4B71
:1030300018880D490A88904268460BD904790B4AD2
:1030400010680470401C10600888401C08801888B4
:1030500008881CBD00791CBD2060004000110440A0
:1030600040130440280000202600002078000020A3
:1030700010B509490020087508490888002809D0BA
:10308000074A10680378074C2371401C10600888B9
:10309000401E088010BD000020600040C4000020D9
:1030A000C00000204013044070B50A4DFF23EE1D00
:1030B0001A46F93605E0047854402A5D5A40335DDB
:1030C000401C0C46491E89B2002CF4D11802104352
:1030D00070BD0000B8330000F3B51B490024012582
:1030E0001A4E1B4F81B0012817D00C7034730B207F
:1030F000FDF76CFB3D731749E8020860029916481A
:10310000012915D0047034720A20FDF75FFB3D726F
:103110000120104980020860FEBD0D7034730B2041
:10312000FDF754FB3C7301200A49C0028039E4E7F3
:10313000057034720A20FDF749FB3C7201200549F5
:1031400080028039E7E700004D0200202060004047
:103150002061004080E100E04C02002010B5FDF746
:103160005BFC0349002008700249087010BD000094
:103170004A0200204B02002010B50748074900888A
:10318000401E0880FDF736FC0549012008700549FE
:103190000020087010BD000014020020002304402D
:1031A0004A0200204B02002010B5134B586B002838
:1031B00002D00120D86110BD0020D86118690F49E4
:1031C00002E0002815D0401E142242438A58002AEB
:1031D000F7D01422424351184A680C46526808340A
:1031E0004A60A24201D152684A60D16819601861F0
:1031F00010BD72B6FEE70000EC0000205402002073
:10320000054902464B780020002B04D00878107046
:1032100000204870012070473A0100200249002038
:1032200048700120704700003A0100200249012245
:103230004A700870104670473A01002010B50446E5
:10324000FDF782FC2070012010BD0120704710B5F1
:10325000FDF786FC012010BD10B50848322100683A
:10326000484307490968FCF7A5FF0649086081B291
:103270000020FDF79BFB012010BD00005002002044
:10328000080200201402002038B5184C00252078D0
:10329000002801D0C046C0466846FFF7CFFF6178DE
:1032A000002906D0124A012907D0022910D003298B
:1032B00001D1FFF761FF284638BD0020A080684695
:1032C0000078A1885218491CA180107002200BE0E0
:1032D000A088FF2807D868460178A0881218401CEB
:1032E000A0801170E5E703206070E2E72C01002068
:1032F0004806002070B50F4D0024687800280FD0D4
:1033000002280CD003280ED0687800280BD06878EB
:10331000022808D06878032805D0C046C04601209E
:10332000FFF784FF0446FFF719FF0120687020466D
:1033300070BD00002C01002070B5164C002560788F
:10334000012801D0C046C0462178002902D00129B9
:103350001DD104E000210120FFF7BEFE17E06088C8
:1033600000280AD0A0680078FFF771FFA068401C11
:10337000A0606088401E608009E00320FFF756FFD0
:10338000054600210120FFF7A7FE002020702846F7
:1033900070BD00002C0100200100020004000800A4
:1033A000100020004000800000010002000400081E
:1033B000001000200040008000C1814001C0804119
:1033C00001C0804100C1814001C0804100C18140F5
:1033D00000C1814001C0804101C0804100C18140E5
:1033E00000C1814001C0804100C1814001C08041D5
:1033F00001C0804100C1814001C0804100C18140C5
:1034000000C1814001C0804100C1814001C08041B4
:1034100001C0804100C1814000C1814001C08041A4
:1034200001C0804100C1814001C0804100C1814094
:1034300000C1814001C0804101C0804100C1814084
:1034400000C1814001C0804100C1814001C0804174
:1034500001C0804100C1814000C1814001C0804164
:1034600001C0804100C1814001C0804100C1814054
:1034700000C1814001C0804100C1814001C0804144
:1034800001C0804100C1814001C0804100C1814034
:1034900000C1814001C0804101C0804100C1814024
:1034A00000C1814001C0804100C1814001C0804114
:1034B00001C0804100C1814000C0C101C30302C2FC
:1034C000C60607C705C5C404CC0C0DCD0FCFCE0E64
:1034D0000ACACB0BC90908C8D81819D91BDBDA1AD4
:1034E0001EDEDF1FDD1D1CDC14D4D515D71716D644
:1034F000D21213D311D1D010F03031F133F3F232B4
:1035000036F6F737F53534F43CFCFD3DFF3F3EFE23
:10351000FA3A3BFB39F9F83828E8E929EB2B2AEA93
:10352000EE2E2FEF2DEDEC2CE42425E527E7E62603
:1035300022E2E323E12120E0A06061A163A3A26273
:1035400066A6A767A56564A46CACAD6DAF6F6EAEE3
:10355000AA6A6BAB69A9A86878B8B979BB7B7ABA53
:10356000BE7E7FBF7DBDBC7CB47475B577B7B676C3
:1035700072B2B373B17170B0509091519353529233
:1035800096565797559594549C5C5D9D5F9F9E5EA3
:103590005A9A9B5B99595898884849894B8B8A4A13
:1035A0004E8E8F4F8D4D4C8C448485458747468683
:1035B0008242438341818040D835000000000020D2
:1035C00054020000280200002C36000054020020A3
:1035D00064110000FA1800009AFF0101FF011102B6
:1035E0001F09022B02321123D51C320423DF1B32A8
:1035F000031A8908321023D91D32061A4B083217D4
:103600001A3928320123A91A32051AF910320F1A71
:10361000792029741A1938014069BC13F8010A1A73
:0C36200020E82B01018A011A2AE8C9F1F8
:04000005000000C532
:00000001FF
