:020000040000FA
:10000000C80E0020DD010000E5010000E70100004E
:1000100000000000000000000000000000000000E0
:10002000000000000000000000000000650E00005D
:1000300000000000000000009B010000670E0000AF
:10004000F1090000050A0000250A0000450A000029
:10005000650A0000850A0000A50A0000C50A000024
:10006000D90A0000ED0A00000D0B0000210B000072
:10007000350B0000550B0000690B00007D0B0000E4
:100080009D0B0000BD0B0000D10B0000E50B000034
:10009000F90B00000D0C0000210C0000410C0000C9
:1000A000610C0000810C0000A10C0000B50C0000E8
:1000B000C90C0000DD0C0000F10C0000050D000073
:1000C000EF3FE9FF00F002F800F03DF80CA030C867
:1000D000083824182D18A246671EAB4654465D46C4
:1000E000AC4201D100F02FF87E460F3E0FCCB64651
:1000F0000126334200D0FB1AA246AB4633431847D1
:10010000342A0000542A0000002300240025002681
:10011000103A01D378C1FBD8520700D330C100D5C3
:100120000B60704710B5642902D100F0CDF810BD06
:10013000782902D100F0FEF810BD002010BD1FB5D7
:100140001FBD10B510BD00F005FB1146FFF7F7FF0E
:1001500002F004FB00F01DFB03B4FFF7F2FF03BC49
:1001600001F0D6FC084B19680868203080F3098834
:10017000022080F31488BFF36F8F3FBCAE4608BCEB
:1001800004BC62B618470000F8000020EFF31080AE
:1001900072B6704780F310887047EFF309800E4BFA
:1001A0001A6820381060F0C044464D4656465F46F7
:1001B000F0C008B572B602F063FC62B60CBC116800
:1001C00008681030F0C8A046A946B246BB4680F386
:1001D00009882038F0C81847F800002019488047DF
:1001E00019480047FEE7FEE7FEE7FEE7FEE7FEE709
:1001F000FEE7FEE7FEE7FEE7FEE7FEE7FEE7FEE7D7
:10020000FEE7FEE7FEE7FEE7FEE7FEE7FEE7FEE7C6
:10021000FEE7FEE7FEE7FEE7FEE7FEE7FEE7FEE7B6
:10022000FEE7FEE7FEE7FEE7FEE7FEE7FEE7FEE7A6
:10023000FEE7FEE7FEE7000004480549054A064BD5
:1002400070470000B90E0000C5000000C80900207A
:10025000C80E0020C80A0020C80A00200FB40549B3
:1002600010B503AA029800F035FA10BC08BC04B01F
:1002700018470000E000002070B50446856900685A
:10028000C10601D5302600E02026C00707D070BD8A
:1002900062683046A1689047206A401C20626D1E4B
:1002A000F6D570BD70B5044685690078C00707D1E2
:1002B00070BD6268A16820209047206A401C2062BF
:1002C0006D1EF6D570BD0000F7B5002575291068C4
:1002D000009914A611D0C046C046002802DA404258
:1002E00011A608E0009909688A0701D50FA602E067
:1002F000490704D50EA6012501E0C046C046009F6F
:100300000024243704E000F0F9F930313955641C39
:100310000028F8D12B4632462146009800F082F999
:10032000FEBD0000000000002D0000002B000000BA
:100330002000000070B504460D4621461068C046F6
:10034000C0462188090502D50F4A7A4402E00E4AC8
:100350007A440E3223460021243305E006070009C3
:10036000360F965D5E54491C0028F7D12078002393
:10037000000705D5702D03D0002901D002231132CA
:10038000204600F04FF970BDAA270000F3B50446DF
:10039000002081B020622046E168884700287DD097
:1003A000252802D06268A16883E0454F00257F447C
:1003B0002046E16888472028064608DB312E06D211
:1003C000B81920380078002801D00543F0E7A807C5
:1003D00001D5042085430020E0610746A0612A2E54
:1003E0000AD0304601F08CFB002827D0B800001955
:1003F000303E0090866119E00298BA00121902C8D6
:10040000916102902046E1688847012F064617D186
:10041000E06900281FDA202085431CE000980A21AB
:100420008069484300998019303888612046E16826
:100430008847064601F064FB0028EFD1012F0AD05F
:100440002E2E08D12046E168884706462020054325
:100450007F1C022FC3DBA069002803DA4042A061A1
:1004600001200543E80701D010208543002E24D049
:1004700030464138192803D80120C00205432036F0
:10048000204625603146029A1546FFF74BFE0028AC
:100490000CD0012807D0ED1DE80800E00DE0C000F9
:1004A0000830029077E72D1D029574E762683046A8
:1004B000A1689047206A401C6CE7206AFEBD0000DE
:1004C0006E270000002203098B422CD3030A8B42C3
:1004D00011D300239C464EE003460B433CD400223C
:1004E00043088B4231D303098B421CD3030A8B424E
:1004F00001D394463FE0C3098B4201D3CB01C01A1C
:10050000524183098B4201D38B01C01A52414309E6
:100510008B4201D34B01C01A524103098B4201D3D4
:100520000B01C01A5241C3088B4201D3CB00C01A41
:10053000524183088B4201D38B00C01A52414308B9
:100540008B4201D34B00C01A5241411A00D20146DE
:100550005241104670475DE0CA0F00D04942031077
:1005600000D34042534000229C4603098B422DD3C6
:10057000030A8B4212D3FC22890112BA030A8B426E
:100580000CD3890192118B4208D3890192118B42BD
:1005900004D389013AD0921100E08909C3098B4242
:1005A00001D3CB01C01A524183098B4201D38B0185
:1005B000C01A524143098B4201D34B01C01A524128
:1005C00003098B4201D30B01C01A5241C3088B426D
:1005D00001D3CB00C01A524183088B4201D38B0058
:1005E000C01A5241D9D243088B4201D34B00C01AE2
:1005F0005241411A00D20146634652415B101046F7
:1006000001D34042002B00D54942704763465B103E
:1006100000D3404201B50020C046C04602BD70472D
:1006200070477047FFB504460D4681B024300090F6
:100630002168880604D51022E0699143216000E01A
:100640000120A84201DD471B00E000270498A169B2
:100650007A191018081AA0612078C00602D4204622
:10066000FFF70AFE002608E003986268A168805D33
:100670009047206A401C761C206204988642F3DB77
:100680002078C0060AD52046FFF7F6FD06E062682E
:10069000A16830209047206A401C206238467F1EA7
:1006A0000028F4DC07E000986268A168405D90478C
:1006B000206A401C206228466D1E0028F3DC20467C
:1006C000FFF7F0FD2078000602D5022005B0F0BD4E
:1006D0000120FBE7084B70B50D467B4400F027F87E
:1006E0000446284601F038FA002802D00020C04312
:1006F00070BD204670BD00008F14000001468008C8
:10070000081A02091018020A1018020C1018C00862
:10071000820012185200891A01E0401C0A390A2985
:10072000FBD2704701694A1C02610878704700B526
:100730008FB00291002105910549019379440391FD
:10074000114604906846FFF721FE0FB000BD00007F
:10075000E5FFFFFF754600F023F8AE460500694649
:100760005346C008C000854618B020B5FFF764FDA9
:1007700060BC00274908B6460026C0C5C0C5C0C534
:10078000C0C5C0C5C0C5C0C5C0C5403D49008D4637
:1007900070470446C046C0462046FFF7DDFC000017
:1007A000004870476809002070B58C180578401C17
:1007B0006B075B0F01D10378401C2A1106D1027828
:1007C000401C03E00678401C0E70491C5B1EF9D1EA
:1007D0002B0705D40023521E0DD40B70491CFAE7D9
:1007E0000378401CCB1A921C03E01D780D70491C45
:1007F0005B1C521EF9D5A142D8D3002070BD000069
:1008000001490020487170472060004001490020E4
:1008100048777047406000400149002048717047A8
:1008200060600040014900204870704760600040EF
:1008300000B5C02080781949C0080978C00001437C
:1008400017484201EA2921D009DCE0390B0001F008
:100850004AF90A171B1F230E0E0E0E13190EED294F
:1008600005D005DCEB2915D0EC2900D10D4800BDE1
:10087000F02903D0F829FAD1104600BD0A4800BD7E
:100880000A4800BD0A4800BD0A4800BD0A4800BD2C
:100890000A4800BD0A4800BD0A4800BD201C0240AD
:1008A00040420F0080841E00006CDC0200366E01A6
:1008B0000024F400001BB70000127A00808D5B005A
:1008C00000093D00C0C62D007CB505460B4C01203B
:1008D00020700BA109680191009001AB37224421DF
:1008E000022001F0A5F902202B46002244210090AD
:1008F00001F048F9002020707CBD00005E0100205E
:100900008100000005490120087705498A880243D3
:100910008A80044900200877704700000061004089
:10092000601504400060004018B50F4800220274B2
:100930000E48838801210B43838043898B43438185
:1009400003898B43038103898415234303816B4609
:100950001A701A780E2A03D800BF1A78521CF7E7CB
:1009600002890A43028118BD00000020601504407E
:1009700005490120087005488188022211438180C1
:100980000349002008707047206100406015044052
:100990002060004008B50E48828802210A43828008
:1009A00042898A43428102898A430281028943152E
:1009B0001A43028100226B461A701A780E2A03D855
:1009C00000BF1A78521CF7E702890A43028108BD6A
:1009D000601504400548417C4906490E417400BF3A
:1009E00000BF00BF00BF00BF70470000201A0440D6
:1009F00010B503480078002801D001F0A9FE10BD11
:100A00000060004010B5064C2079002801D001F0AC
:100A10004BFE6079002801D001F076FE10BD000089
:100A20000060004010B5064C207A002801D001F08B
:100A30004DFE607A002801D001F06CFE10BD000070
:100A40000060004010B5064C207B002801D001F06A
:100A500043FE607B002801D001F062FE10BD000063
:100A60000060004010B5064C207C002801D001F049
:100A700039FE607C002801D001F058FE10BD000056
:100A80000060004010B5064C207D002801D001F028
:100A90002FFE607D002801D001F00CFE10BD00008B
:100AA0000060004010B5064C207E002801D001F007
:100AB00025FE607E002801D001F002FE10BD00007E
:100AC0000060004010B50348007F002801D001F00D
:100AD000E1F810BD0060004010B503480078002820
:100AE00001D001F05BF910BD2060004010B5064C4C
:100AF0002079002801D001F0D7FE6079002801D0CC
:100B0000FFF77EFE10BD00002060004010B50348D6
:100B1000007A002801D001F045FF10BD20600040A0
:100B200010B50348007B002801D001F005FF10BD7F
:100B30002060004010B5064C207C002801D001F058
:100B4000A7FE607C002801D001F0B4FE10BD0000BB
:100B50002060004010B50348007D002801D001F05E
:100B600073FF10BD2060004010B50348007E0028D0
:100B700001D001F033FF10BD2060004010B5064CDD
:100B8000207F002801D001F089FE607F002801D07D
:100B900001F096FE10BD00002060004010B5064C2C
:100BA0002078002801D001F047FC6078002801D0AF
:100BB00000F0CCFF10BD00004060004010B50348BD
:100BC0000079002801D001F081FE10BD4060004096
:100BD00010B50348007A002801D001F07DFE10BD59
:100BE0004060004010B50348007B002801D001F0B0
:100BF00079FE10BD4060004010B50348007C00281D
:100C000001D001F075FE10BD4060004010B50348F2
:100C1000007D002801D000F087FF10BD406000403B
:100C200010B5064C207E002801D001F02BFE607E1E
:100C3000002801D001F080FD10BD000040600040A0
:100C400010B5064C207F002801D001F07BFD607FAD
:100C5000002801D0FFF7DAFD10BD00004060004021
:100C600010B5064C2078002801D000F063FF6078B2
:100C7000002801D0FFF7D6FD10BD000060600040E5
:100C800010B5064C2079002801D000F059FF60799A
:100C9000002801D0FFF7C0FD10BD000060600040DB
:100CA00010B50348007A002801D001F027FE10BDDE
:100CB0006060004010B50348007B002801D001F0BF
:100CC0002FFE10BD6060004010B50348007C002876
:100CD00001D001F02BFE10BD6060004010B503484C
:100CE000007D002801D001F00FFE10BD60600040C3
:100CF00010B50348007E002801D001F00BFE10BDA6
:100D00006060004010B50348007F002801D000F06B
:100D100027FF10BD6060004070B500F0C5F80E48B8
:100D20007D21C9000068FFF7CDFB0C490024401E5F
:100D300088420BD80A4948610A480722C3691B0246
:100D40001B0A4D042B43C3618C610A6100F0ACF8AF
:100D50000548446070BD000060010020FFFFFF00F7
:100D600000E000E004ED00E038010020C106C90EFB
:100D700001208840014908607047000080E200E0DF
:100D8000C106C90E01208840014908607047000073
:100D900080E200E0C106C90E0120884001490860D8
:100DA0007047000000E100E070B501238B402B4C40
:100DB0002A4ED9B22A4D294B203C403E86190419AF
:100DC0004519C018130000F08EFE06040D1C2C30CF
:100DD0003C2B02788A4302702878084328702078D8
:100DE000884316E002788A43027028780843287006
:100DF000207888432070207C88432074307C08430E
:100E00000DE002788A430270287808432870207821
:100E100008432070207C88432074307C88433074E1
:100E200070BD02780A43027070BD02788A43027076
:100E3000287888432870207888432070207C884355
:100E40000AE002788A430270287888432870207864
:100E500088432070207C0843207470BD60000440EB
:100E600020030440704710B500F002F810BD0000E8
:100E700009480168491C01600849012008700848B8
:100E80000168002901D0491E016006480168002957
:100E900001D0491E016070473C010020380100204C
:100EA000440100204C01002010B5FFF7C1FC0149AE
:100EB000086010BD6001002010B514498020487101
:100EC00012481A21203801722B2141723C21817273
:100ED0004D21C1720E4900204860FFF7A9FC0D4961
:100EE000086000200C49C04308600C4908600D49A7
:100EF0000B48086048608860C86008614861886184
:100F0000C8610949AC20487010BD000020040240AF
:100F100000B001406001002080E200E000E100E05C
:100F2000C0C0C0C000E400E00010024038B56A460E
:100F300000F0F6F9002814D10A4903238B80CA88EF
:100F400012091201CA80CA886C4624782243CA80DA
:100F50006C466278044C5202228262824A881A43AA
:100F60004A8038BD2011044000130440F8B586467D
:100F700028488C460178042529430170264A03201D
:100F8000D080254B2220203B1882244818836726D6
:100F9000234F76023E822348017C012421430174C1
:100FA00007215981FF21233159821F4959837E82AC
:100FB000108920431081908AA04390825089204359
:100FC00050811A48017F20242143017718494A782B
:100FD0002A434A70164920314A78FB231A404A7046
:100FE000144A557C1D405574124A203255781D40D4
:100FF0005570037F234303774878022318434870D2
:101000005078FD210840507061467046FFF78EFF12
:10101000F8BD000020040240201104409780000029
:10102000001304406004044097400000600804403E
:101030000003044040000440034908740348018849
:101040004906890FFBD1704700130440001104408A
:1010500038B56A4600F064F900280ED107490C2320
:101060008B806A461278CA806A465278044C5202D3
:10107000A280E2804A881A434A8038BD2011044089
:1010800040130440F8B584462A48027804231A43E2
:101090000270294A90880C2420439080274C01201C
:1010A000207520762077264C00202075207620772A
:1010B000214C2220203CA0822248A0836725224E7A
:1010C0006D02B580214F387C184338740720E081C9
:1010D000FF202330E0821E48E083F580108918430A
:1010E0001081908A98439082508918435081194802
:1010F00002781A430270174820300278FB231A4006
:101100000270154A147C1C401474134A203214785F
:101110001C40147003780224234303701078FD23CD
:10112000184010706046FFF793FF044600F016F871
:101130002046F8BD200402402011044020610040F8
:101140002060004097800000401304406004044089
:1011500097400000000304404000044010B50D48D3
:10116000028904210A43028142890A43428141885B
:101170000C221143418008480024047504760D2098
:10118000FFF7F4FD0E20FFF7F1FD04480475047627
:1011900010BD00002011044020600040206100408C
:1011A00038B56A4600F0BCF800280ED10749032381
:1011B0008B806A461278CA806A465278044C520282
:1011C000228162814A881A434A8038BD60150440F2
:1011D00040170440F8B58446334800780823324A63
:1011E00018431070314A9088032420439080304C7B
:1011F0000120207704462E48203004700124047119
:101200002C4C002020772B4C203420702071274C50
:101210002220203C2082284820836724274D640216
:101220002C81274E307C1027384330741F48072606
:1012300020384681FF2623364682224E46836C8123
:101240001089012420431081908AA0439082508904
:10125000204350811C4AD07DFD252840D0751B4875
:1012600044781C434470194B20335878F7242040AD
:101270005870174E707C20407074154E2036707870
:1012800020407070D07D2840D07558783843587011
:101290007078EF22104070706046FFF781FF0446BF
:1012A00000F018F82046F8BD200402406015044004
:1012B000006100400060004097800000401704403B
:1012C00060040440974000006008044000030440AC
:1012D0004000044010B50F48028901210A430281F1
:1012E00042890A43428141880322114341800A48CE
:1012F000002404770848203004700720FFF736FDEB
:101300000820FFF733FD05480477044820300470B7
:1013100010BD000060150440006000400061004006
:10132000F7B584B00025009505981746010264249E
:1013300001950498FFF7C6F80121401C00E06D1CE0
:101340000A46AA408242FAD332E020496800095A8C
:101350000498FFF7B7F802260290711C0298FFF775
:10136000B1F87D214008C90048430599FFF7AAF864
:101370007D21C900401A0A214843002C01DB214687
:1013800000E06142021E00DA4242914202DD044660
:1013900000960195002C01DB204600E060421428F5
:1013A00002DA3D707E700EE0761C802ED5D36D1C67
:1013B000102DCAD3002C00DA6442142C03DB0198F0
:1013C000387000987870002007B0F0BDD82A00006F
:1013D0000021017041708170C170803001714171D4
:1013E0008171704700B50548FFF7F2FF0448FFF729
:1013F000EFFF0448FFF7ECFF00BD0000D005002020
:10140000D7060020DE07002070B50122002107204A
:10141000FFF7CAFC042201210720FFF7C5FC0422C4
:1014200002210720FFF7C0FC042207210120FFF75B
:10143000BBFC114C802160780422084360700121BC
:101440000520FFF7B1FC6079022528436071012176
:1014500004220846FFF7A8FC607804222843607045
:1014600002210120FFF7A0FC60780421084360708E
:1014700002490020486070BD000304404001002084
:101480000F4810494268002A0ED17D22D2004260E6
:1014900003780A46D279002B0AD002231A43FB2391
:1014A0001A40CA7100220270C879C107FDD0704786
:1014B000FD231A4004231A43CA710122F3E70000F6
:1014C000400100200003044038B5284C3822227027
:1014D00002202346009020336C21012000F052FBB3
:1014E0002278D82122A0FEF7B9FE20346378227832
:1014F000D92126A0FEF7B2FE627821782CA0FEF753
:10150000ADFE20462030FFF7DFF9203420786178E7
:101510000002314D081868603048A8608122882197
:101520002FA0FEF79BFE63782278D92133A0FEF727
:1015300095FE627821783AA0FEF790FE0120009097
:101540006B1C00223A21032000F01CFB00227421B6
:101550003CA0FEF783FE6A78D92141A0FEF77EFE0B
:10156000697846A0FEF77AFE38BD00000509002024
:101570000A493243313A2057543A203078253032E4
:10158000582C3078253032582C0000000A4932435C
:10159000313A2052443A203078253032582C307875
:1015A000253032582C3078253032582C000000007D
:1015B0000A453730332E31312043686970566572E1
:1015C00073696F6E3A203078253032582C30782588
:1015D0003032582C0A00000050010020203000005A
:1015E0000A493243323A2057543A20307825303273
:1015F000582C3078253032582C0000000A493243EC
:10160000323A2052443A203078253032582C307803
:10161000253032582C3078253032582C000000000C
:101620000A48444333303230204368697049443AB1
:10163000203078253032582C3078253032582C0A1A
:10164000000000000A493243333A2057543A203010
:1016500078253032582C3078253032582C00000054
:101660000A493243333A2052443A20307825303206
:10167000582C3078253032582C0000000A434D5049
:10168000323031204368697049443A20307825303F
:1016900032582C0A0000000010B5012000F0A2F81A
:1016A000022000F09FF8032000F09CF810BD00001D
:1016B000054A0028517803D020200143517070471B
:1016C000DF200140FAE7000000030440054A00283B
:1016D000517803D01020014351707047EF20014032
:1016E000FAE700000003044010B50122042110466F
:1016F000FFF75AFB10BD10B5042211460120FFF779
:1017000053FB10BD03484078C00601D40020704749
:101710000120704700030440054A0028D17803D017
:1017200001200143D170704748084000D0707047D5
:1017300000030440054A0028517903D001200143E9
:1017400051717047480840005071704700030440D1
:1017500010B5012200210520FFF726FB10BD10B5B2
:10176000042200210520FFF71FFB10BD024840792D
:10177000C00700D00120704700030440054A00283C
:10178000D17903D020200143D1717047DF2001407F
:10179000FAE7000000030440054A0028D17903D08D
:1017A00010200143D1717047EF200140FAE700009B
:1017B0000003044010B5012204210720FFF7F4FACA
:1017C00010BD10B5042211460720FFF7EDFA10BD39
:1017D0000348C079C00601D400207047012070473B
:1017E0000003044010B50924012819D002282DD087
:1017F000032814D1042205210720FFF7D5FA04227B
:1018000011460720FFF7D0FA0020FFF7B7FF0120AD
:10181000FFF7B4FF641EFDD10120FFF7AFFF10BD3D
:10182000042205210120FFF7BFFA042211460120FE
:10183000FFF7BAFA0020FFF73BFF0120FFF738FF60
:10184000641EFDD10120FFF733FF10BD04220021EB
:101850000320FFF7A9FA042200210520FFF7A4FACC
:101860000020FFF759FF0120FFF756FF641EFDD14E
:101870000120FFF751FF10BDF0B50127002400281B
:101880000BD0012845D0022842D15B4A104613797B
:101890008038011D012B7AD096E0584A1046137902
:1018A0008038011D012B1CD1034687335579C6783A
:1018B000ED5C755455796D1CEEB25671C5786D1C92
:1018C000EDB2C570802D00D1C470802E00D154714E
:1018D00055799679B54200D1147147701579012D6B
:1018E000E4D04278012A13D18278454B515C1974B7
:1018F000521CD1B28170802900D184708178C27865
:10190000914200D144703F4801884906890FFBD1BC
:10191000F0BD3D4A104613798038011D012B1CD1C2
:10192000034687335579C678ED5C755455796D1C3F
:10193000EEB25671C5786D1CEDB2C570802D00D128
:10194000C470802E00D1547155799679B54200D17A
:10195000147147701579012DE4D04278012AD7D14E
:101960008278274B515C40331971521CD1B281707F
:10197000802900D184708178C278914200D144706E
:10198000204881884906890FFBD1F0BDFFE7034657
:1019900087335579C678ED5C755455796D1CEEB278
:1019A0005671C5786D1CEDB2C570802D00D1C47024
:1019B000802E00D1547155799679B54200D11471B9
:1019C00047701579012DE4D04278012ADDD1827863
:1019D0000E4B515C1972521CD1B28170802900D11A
:1019E00084708178C278914200D14470084801889F
:1019F0004906890FFBD1C8E75E0800205006002089
:101A00000013044000110440570700204017044011
:101A10004015044070B502462748E12100244902E0
:101A2000264D274E0068002A1CD0012A2ED0022AFB
:101A300017D1FFF7CFFB80283CD02048203804770F
:101A40002C700720FFF79CF90820FFF799F91C4834
:101A50002038047734700720FFF79CF90820FFF73F
:101A600099F970BDFFF782FA80280ED02C722C7382
:101A70000A20FFF785F90B20FFF782F934723473DF
:101A80000A20FFF787F90B20E9E7FEE7FFF7FAFAEC
:101A900080280ED02C752C760D20FFF771F90E20C2
:101AA000FFF76EF9347534760D20FFF773F90E20C9
:101AB000D5E7FEE7FEE7000060010020206000405F
:101AC0002061004010B5E12149020020FFF7A2FF8C
:101AD00001490020486010BD4801002000B50020E9
:101AE000FFF7CAFE00BD30B47446641E2578641C3E
:101AF000AB4200D21D46635D5B00E31830BC184763
:101B000030380A2801D201207047002070470000B9
:101B10000349002801D0034800E001200862FEE7E5
:101B200000800240AD0B000001490020087570479D
:101B3000406000400149002008707047606000402C
:101B40000149002008717047606000400149002091
:101B500048707047406000400020C043704700005C
:101B600001490020087770476060004010B50446C6
:101B7000C0B2FFF761FA0A2C02D10D20FFF75CFA20
:101B8000204610BDFFB581B000240A9E2546002ED8
:101B900008D00498002805D024484F0080780028F9
:101BA00003D013E0012005B0F0BD019800F0A6FBC2
:101BB000F9B2019800F0ACFA002800D00124039992
:101BC000019800F0A5FA002800D0641C019800F0EC
:101BD00095FB7F1CF9B2019800F09AFA002800D01A
:101BE000641C1320401EFDD1012E10D90025761E45
:101BF0000BE0049801224119019800F057F90028E0
:101C000001D0641CE4B26D1CEDB2B542F1DB049866
:101C100000224119019800F049F9002801D0641C04
:101C2000E4B2019800F0ACFB2046BCE75C01002068
:101C3000FFB581B00A9F00241E460D46002F15D027
:101C4000002E13D0019800F059FB6806010E019890
:101C500000F05EFA002800D001240399019800F0FA
:101C600057FA002800D0641C00250CE0012005B0C4
:101C7000F0BD715D019800F04BFA002801D0641CA2
:101C8000E4B26D1CEDB2BD42F3D3019800F078FBD5
:101C90002046ECE7F8B5374908888207364802D570
:101CA0000288002A62D10A88D20702D00288002A5C
:101CB0005CD1324F3A780124D307314A002B11D03E
:101CC0000188002909D02F4B19680C781472491C1F
:101CD00019600188491E018048E0FEF725FE2A4868
:101CE00004713FE03878FF23450722482030002D5B
:101CF0001BDB8588254385800D8BAD04AD0C0D83E2
:101D00000D8B0126B60335430D8341882143418065
:101D100039780424214339701C490988012924D1C8
:101D200041894908490041811FE019490D88174937
:101D30000E88B5421AD2177A164E35682F706D1C70
:101D40003560134D2E88761C2E802E880F887F1EBE
:101D5000BE42E5D028880988884206D1FEF7E4FD16
:101D600009484471FEF7CEFD00E013720A490020D5
:101D70000877F8BD401504404A00002010000020FC
:101D800040170440B0000020D60000204E00002084
:101D90004C000020B400002000600040F8B5394934
:101DA00048888207384802D50288002A65D14A88C7
:101DB000D20702D00288002A5FD1344B1A78D407A8
:101DC000334A12D00188002909D0324B19680C78A7
:101DD0009472491C19600188491E01804DE0FEF78C
:101DE000D9FD2D490120887143E01878FF2544076B
:101DF00024482030002C1ADB868802242643868063
:101E00004E8BB604B60C4E834E8B67033E434E8317
:101E100041882143418019780426314319701F49B4
:101E20000988012928D14189A143418124E01C4B23
:101E30001C881A490E88B4421FD2977A194E34680A
:101E40002770641C34601C88641C1C801E880C88ED
:101E5000641EA64204D1438902218B4343810BE0D7
:101E600018880988884207D1FEF794FD0A490120A5
:101E7000C871FEF77DFD00E095720B4900200870E7
:101E8000F8BD000040150440500000201100002063
:101E900040170440B8000020D60000205400002065
:101EA00052000020BC00002020600040F7B545260D
:101EB0001D2713250924012804D0022862D00328F5
:101EC0007ED00BE1914900204870FFF7F1FB2846D6
:101ED000401EFDD1FFF708FC8C48002101708B4BA0
:101EE0005878400058700120FFF7E2FB2846401E5A
:101EF000FDD1FFF707FC012802D15878401C58702B
:101F00003120401EFDD1FFF7D3FB2846401EFDD1F6
:101F10001878401CC0B218700828E0D3FFF7EBFB1C
:101F20007A484178019801700298002814D0002066
:101F3000FFF7BEFB2046401EFDD1FFF7C7FB641E26
:101F4000FDD10120FFF7B4FB761EFDD10020FFF785
:101F5000AFFB7F1EFDD1C1E00020FFF7A9FB2046AB
:101F6000401EFDD10120FFF7B1FB641EFDD1012011
:101F7000FFF79EFB761EFDD10020FFF799FB7F1E29
:101F8000FDD1ABE0614900204870FFF7C5FB284652
:101F9000401EFDD1FFF7DCFB5C48002101705B4B6C
:101FA0005878400058700120FFF7B6FB2846401EC5
:101FB000FDD1FFF7DBFB012804D15878401C00E07D
:101FC00043E058703120401EFDD1FFF7A5FB2846A5
:101FD000401EFDD11878401CC0B218700828DED30E
:101FE000FFF7BDFB4948417801980170029800282D
:101FF00015D00020FFF790FB23465B1EFDD100208B
:10200000FFF798FB641EFDD10120FFF785FB761ECC
:10201000FDD10020FFF780FB7F1EFDD15EE0002098
:10202000FFF77AFB23465B1EFDD10120FFF782FB01
:10203000641EFDD10120FFF76FFB761EFDD100204D
:10204000FFF76AFB7F1EFDD148E030490020487051
:10205000FFF794FB2846401EFDD1FFF7ABFB2B4852
:1020600000210170294B5878400058700120FFF77B
:1020700085FB2846401EFDD1FFF7AAFB012802D1AF
:102080005878401C58703120401EFDD1FFF776FB78
:102090002846401EFDD11878401CC0B21870082890
:1020A000E0D3FFF78EFB1948417801980170029840
:1020B000002815D00020FFF761FB2046401EFDD10F
:1020C000FFF76AFB641EFDD10120FFF757FB761E68
:1020D000FDD10020FFF752FB7F1EFDD10020FEBD89
:1020E0000020FFF74BFB2046401EFDD10120FFF7EB
:1020F00053FB641EFDD10120FFF740FB761EFDD18E
:102100000020FFF73BFB7F1EFDD1E7E75C010020CD
:10211000F8B580221D2545261324774B0F4601284C
:1021200004D002284DD003287ED0D6E05A7000207B
:1021300018705878384000D00120FFF7C7FA0920FE
:10214000401EFDD10120FFF7B3FA3046401EFDD1FD
:10215000FFF7AEFA2046401EFDD15878400858706F
:102160001878401CC0B218700828E2D3FFF7BCFAF8
:102170000920401EFDD10120FFF79AFA641EFDD10F
:10218000FFF7C0FA012806D0FFF7BCFA00280DD0EF
:10219000FFF7B1FA11E00020FFF78AFAFFF7ABFA78
:1021A0006D1EFDD10120FFF791FA96E00020FFF7A8
:1021B0007FFAFFF7A0FA6D1EFDD10120FFF786FA26
:1021C00097E05A70002018705878384000D00120ED
:1021D000FFF7B0FA0920401EFDD10120FFF79CFA5D
:1021E0003046401EFDD1FFF797FA2046401EFDD134
:1021F0005878400858701878401CC0B218700828E9
:10220000E2D3FFF7A5FA0920401EFDD10120FFF718
:1022100083FA641EFDD1FFF7A9FA012808D0FFF761
:10222000A5FA00280FD000E018E0FFF798FA11E0B7
:102230000020FFF771FAFFF792FA6D1EFDD1012021
:10224000FFF778FA49E00020FFF766FAFFF787FA10
:102250006D1EFDD10120FFF76DFA4AE05A70002093
:1022600018705878384000D00120FFF795FA0920FF
:10227000401EFDD10120FFF781FA3046401EFDD1FE
:10228000FFF77CFA2046401EFDD158784008587070
:102290001878401CC0B218700828E2D3FFF78AFAF9
:1022A0000920401EFDD10120FFF768FA641EFDD110
:1022B000FFF78EFA012806D0FFF78AFA00280ED021
:1022C000FFF77FFA12E00020FFF758FAFFF779FADC
:1022D0006D1EFDD10120FFF75FFA0120F8BD00203F
:1022E000FFF74CFAFFF76DFA6D1EFDD10120FFF7E5
:1022F00053FA0020F8BD00005C01002010B51D2439
:102300001323012816D0022827D0032811D1012039
:10231000FFF742FA0120FFF731FA1846401EFDD1BF
:10232000FFF73AFA641EFDD10020FFF727FA5B1E83
:10233000FDD110BD0120FFF7C9F90120FFF7B8F961
:102340001846401EFDD1FFF7C1F9641EFDD10020E3
:10235000FFF7AEF95B1EFDD110BD0120FFF7EAF9D2
:102360000120FFF7D9F91846401EFDD1FFF7E2F929
:10237000641EFDD10020FFF7CFF95B1EFDD110BD1B
:1023800010B545240923012816D0022827D0032898
:1023900011D11846401EFDD1FFF7FEF91846401E28
:1023A000FDD10120FFF7EAF95B1EFDD10120FFF707
:1023B000F3F9641EFDD110BD1846401EFDD1FFF794
:1023C00085F91846401EFDD10120FFF771F95B1E0B
:1023D000FDD10120FFF77AF9641EFDD110BD18462A
:1023E000401EFDD1FFF7A6F91846401EFDD1012081
:1023F000FFF792F95B1EFDD10120FFF79BF9641EE8
:10240000FDD110BD0548027C01210A430274044835
:10241000427CD207FCD0034801707047201A044068
:10242000401B0440E60000200248017C20221143AA
:1024300001747047201A044010B507490020087045
:10244000FEF7C8FA0548407CC00902D000F008F841
:1024500010BD00F08BF810BD40600040401B0440F0
:10246000F8B53949887C394A400602D410880028DA
:1024700023D137480078384B07061D6835482E466B
:1024800020246D1C002F25DB2F49497C490714D5DA
:102490002F490978802739432D4F39702A494F7CBD
:1024A0003F070ED5047C08273C4304741BE03078BA
:1024B00008741D601088401E1080F8BDFFF7A2FF51
:1024C000F8BD017C042211430174017CF722114004
:1024D00001742BE04F7C3F0709D5487C400702D4AC
:1024E00010880028ECD110880028E7D0DFE71B4ACD
:1024F00015881B4B1E88B5421BD20E7C194D2968CE
:102500000E70491C29601188491C118011881A8895
:1025100091420BD1017CFB2211400174017C2143CB
:102520000174017C082211430174F8BD017C214330
:10253000FAE7037C012213430374487CC007FCD0F4
:1025400009480270F8BD0000401B0440EC00002068
:10255000E4000020201A0440F4000020EA000020DB
:10256000E8000020F0000020E7000020F8B5444A11
:10257000507C0123C40743494348002C12D0027CFD
:10258000EF24224002740878000609D50878400735
:1025900001D53E4803700878800701D53C48037098
:1025A0000B70F8BD0C783B4D27062E682024751C57
:1025B000002F28DB324A527CD20622D5027C10271B
:1025C0003A43027480220A702D4A517C0907017C2B
:1025D0000FD508273943017429E02E483378137446
:1025E00005600888401E0880F8BD017C2143017405
:1025F000F8BD042211430174017CF72211400174DB
:10260000F3E7802010E0577C3F0717D51D49097874
:10261000042739431B4F3970517C490707D41E49A1
:102620000988002903D00220FFF7FEFEF8BD1A49F1
:102630000F88002FD1D115490B70D6E70D780226EF
:1026400035430D7015490E88154D2F88BE42CCD2EA
:10265000177C144E32681770521C32600A88521C64
:102660000A8009882A889142BFD1017C082211433F
:102670000174017C2143017405480370F8BD00001A
:10268000401B0440E5000020201A0440E600002022
:10269000E7000020F4000020EC000020EA00002009
:1026A000E8000020F0000020014900200871704778
:1026B00000600040014900204875704700600040FC
:1026C0000149002048767047006000400149002021
:1026D000087270470060004001490020087370478D
:1026E000006000400149002008747047006000400D
:1026F0000149002008757047006000400149002032
:10270000087670470060004001490020487170471A
:10271000006000400149002048727047006000409E
:1027200001490020487370470060004001490020C3
:1027300048747047006000400149002048767047A7
:102740004060004001490020087770474060004029
:10275000014900200870704700600040FEF7DCFA75
:10276000FEF740FEFEF750FEFFF7ACF91AA0FDF7AA
:1027700075FD1EA0FDF772FD23A0FDF76FFD28A0DB
:10278000FDF76CFD2A4801682AA0FDF767FD2BA024
:10279000FDF764FDFEF780FF344C35A06168FDF75E
:1027A0005DFD00257D262570F600606831460746F0
:1027B000FDF788FE002909D12078012806D125706F
:1027C00039462BA0FDF74AFDFEF77EFEFEF758FEC8
:1027D000FFF784F9E9E700000A50726F6772616DD4
:1027E0002073746172742E2E2E0000000A4D435522
:1027F0005F436F72653A2041726D20436F7274655A
:10280000782D4D302B2E0A004D43555F4E616D657E
:102810003A204241543332413233372E0A0000000D
:102820004D43555F535953434C4B3A200000000031
:102830006001002025642E0A0000000050726F6ABB
:102840006563745F4E616D653A2042415433324195
:102850003233375F4672656552544F53207472614C
:102860006E73706C616E742E0A00000038010020D7
:102870004D63755F54696D657374616D702C25646B
:102880002C0A000001490020087670474060004093
:102890000149002008747047206000400149002071
:1028A0000877704720600040014900200871704798
:1028B00020600040014900204874704720600040BB
:1028C00001490020487770472060004001490020FE
:1028D000087170474060004001490020087270474D
:1028E000406000400149002008737047406000408C
:1028F00001490020087470474060004001490020F1
:1029000008727047606000400149002008757047F8
:102910006060004001490020087670476060004018
:1029200001490020087370476060004001490020A1
:1029300008747047606000401CB51449002008739B
:10294000134841884A07520F69460A700978418145
:1029500069460878002800D008780E48807C087105
:102960000D4A11880D48038899420CD969460C79A3
:102970000B4B19680C70491C19600188491C0180B7
:10298000118800881CBD684600791CBD206000408D
:102990000011044000130440CE000020CC000020B1
:1029A000C800002010B509490020087208490888AD
:1029B000002809D0074A10680378074C2374401C8C
:1029C00010600888401E088010BD00002060004094
:1029D000C4000020C0000020001304401CB51449AE
:1029E000002008761348C1884A07520F69460A70CA
:1029F0000978C18169460878002800D008780E4817
:102A0000807908710D4A11880D48038899420CD9C4
:102A100069460C790B4B19680C70491C19600188C8
:102A2000491C0180118800881CBD684600791CBDC6
:102A300020600040001104404013044028000020A2
:102A4000260000207800002010B5094900200875F4
:102A500008490888002809D0074A10680378074CFD
:102A60002371401C10600888401E088010BD0000C3
:102A700020600040D4000020D0000020401304401B
:102A800010B51348416B002902D00121C16110BD6E
:102A90000021C16101690F4A02E0002915D0491ED9
:102AA00014234B43D358002BF7D014234B439A18CD
:102AB000536814465B6808345360A34201D15B68D5
:102AC0005360DA680260016110BD72B6FEE7000073
:102AD000F80000206401002001000200040008004A
:102AE00010002000400080000001000200040008E7
:102AF000001000200040008030313233343536374A
:102B00003839414243444546403058003031323331
:102B10003435363738396162636465664030780031
:102B20000400000800000000000000020001000096
:102B300010000000542B0000000000206401000081
:102B4000A8070000602B000064010020640D000055
:102B5000080100009AFF0101FF011D023B0F000068
:04000005000000C532
:00000001FF
