:020000040000FA
:1000000040190020150200001D0200001F02000020
:1000100000000000000000000000000000000000E0
:100020000000000000000000000000003925000072
:1000300000000000000000009B01000051250000AE
:10004000F51E0000091F0000291F0000491F0000C5
:10005000691F0000891F0000A91F0000C91F0000C0
:10006000DD1F0000F11F0000152000002920000006
:100070003D20000061200000752000008920000064
:10008000AD200000CD200000E1200000F5200000A0
:10009000092100001D210000312100005521000030
:1000A0007921000099210000BD210000D12100002C
:1000B000E5210000F92100000D22000021220000AE
:1000C000EF3FE9FF00F002F800F03DF80CA030C867
:1000D000083824182D18A246671EAB4654465D46C4
:1000E000AC4201D100F02FF87E460F3E0FCCB64651
:1000F0000126334200D0FB1AA246AB4633431847D1
:10010000B4760000D47600000023002400250026E9
:10011000103A01D378C1FBD8520700D330C100D5C3
:100120000B60704710B5642902D100F0E9F810BDEA
:10013000782902D100F01AF910BD002010BD1FB5BA
:100140001FBD10B510BD01F067F91146FFF7F7FFAD
:1001500006F03AFA01F07FF903B4FFF7F2FF03BCAF
:1001600004F0C0F8084B19680868203080F309884B
:10017000022080F31488BFF36F8F3FBCAE4608BCEB
:1001800004BC62B61847000040010020EFF3108065
:1001900072B6704780F310887047EFF309800E4BFA
:1001A0001A6820381060F0C044464D4656465F46F7
:1001B000F0C008B572B606F019FD62B60CBC116845
:1001C00008681030F0C8A046A946B246BB4680F386
:1001D00009882038F0C818474001002070B505464E
:1001E0000C46164602E00FCC0FC5103E102EFAD278
:1001F000082E02D303CC03C5083E042E07D301CC3E
:1002000001C5361F03E021782970641C6D1C761E21
:10021000F9D270BD1948804719480047FEE7FEE74C
:10022000FEE7FEE7FEE7FEE7FEE7FEE7FEE7FEE7A6
:10023000FEE7FEE7FEE7FEE7FEE7FEE7FEE7FEE796
:10024000FEE7FEE7FEE7FEE7FEE7FEE7FEE7FEE786
:10025000FEE7FEE7FEE7FEE7FEE7FEE7FEE7FEE776
:10026000FEE7FEE7FEE7FEE7FEE7FEE7FEE700004B
:1002700004480549054A064B704700003D2600002A
:10028000C500000040140020401900204015002047
:10029000401500200FB4054910B503AA029800F0DC
:1002A000F9FF10BC08BC04B0184700002001002072
:1002B00070B5044685690068C10601D5302600E0A6
:1002C0002026C00707D070BD62683046A1689047FD
:1002D000206A401C20626D1EF6D570BD70B50446C4
:1002E00085690078C00707D170BD6268A1682020C9
:1002F0009047206A401C20626D1EF6D570BD00003C
:10030000F7B5002575291068009914A611D0C046CC
:10031000C046002802DA404211A608E000990968A8
:100320008A0701D50FA602E0490704D50EA60125CC
:1003300001E0C046C046009F0024243704E000F0DE
:10034000CFFF30313955641C0028F8D12B46324696
:100350002146009800F046FFFEBD000000000000AE
:100360002D0000002B0000002000000070B50446A6
:100370000D4621461068C046C0462188090502D5B1
:100380000F4A7A4402E00E4A7A440E322346002194
:10039000243305E006070009360F965D5E54491CBC
:1003A0000028F7D120780023000705D5702D03D051
:1003B000002901D002231132204600F013FF70BD46
:1003C0007A720000F3B50446002081B02062204616
:1003D000E168884700287DD0252802D06268A1689E
:1003E00083E0454F00257F442046E1688847202868
:1003F000064608DB312E06D2B819203800780028CE
:1004000001D00543F0E7A80701D50420854300206B
:10041000E0610746A0612A2E0AD0304603F05AFF59
:10042000002827D0B8000019303E0090866119E0FE
:100430000298BA00121902C8916102902046E16840
:100440008847012F064617D1E06900281FDA2020CF
:1004500085431CE000980A2180694843009980196F
:10046000303888612046E1688847064603F032FF4D
:100470000028EFD1012F0AD02E2E08D12046E168A6
:1004800088470646202005437F1C022FC3DBA06956
:10049000002803DA4042A06101200543E80701D0AB
:1004A00010208543002E24D030464138192803D827
:1004B0000120C00205432036204625603146029ABD
:1004C0001546FFF72FFE00280CD0012807D0ED1DA0
:1004D000E80800E00DE0C0000830029077E72D1D2D
:1004E000029574E762683046A1689047206A401C14
:1004F0006CE7206AFEBD00003E7200000EB50446A7
:1005000015460E4612A000F0E1FE204600F0DEFE89
:1005100015A000F0DBFE304600F0D8FE14A000F07D
:10052000D5FE6C460020E0720A20A0720A3407E073
:100530000A21284600F06BF830310546641E217010
:10054000002DF5DC204600F0C1FE00F0B7FE0000F3
:100550002A2A2A20617373657274696F6E2066613E
:10056000696C65643A2000002C2066696C65200087
:100570002C206C696E652000F8B5042A2CD3830703
:1005800012D00B78491C0370401C521E83070BD0FD
:100590000B78491C0370401C521E830704D00B7853
:1005A000491C0370401C521E8B079B0F05D0C91AB3
:1005B000DF002023DE1B08C90AE0FFF70FFEF8BDAD
:1005C0001D4608C9FD401C46B4402C4310C0121FF4
:1005D000042AF5D2F308C91A521EF0D40B78491C2C
:1005E0000370401C521EEAD40B78491C0370401C57
:1005F000012AE4D409780170F8BD002203098B4276
:100600002CD3030A8B4211D300239C464EE00346B1
:100610000B433CD4002243088B4231D303098B4265
:100620001CD3030A8B4201D394463FE0C3098B429B
:1006300001D3CB01C01A524183098B4201D38B01F4
:10064000C01A524143098B4201D34B01C01A524197
:1006500003098B4201D30B01C01A5241C3088B42DC
:1006600001D3CB00C01A524183088B4201D38B00C7
:10067000C01A524143088B4201D34B00C01A524169
:10068000411A00D201465241104670475DE0CA0F40
:1006900000D04942031000D34042534000229C4600
:1006A00003098B422DD3030A8B4212D3FC2289010A
:1006B00012BA030A8B420CD3890192118B4208D3E0
:1006C000890192118B4204D389013AD0921100E042
:1006D0008909C3098B4201D3CB01C01A5241830956
:1006E0008B4201D38B01C01A524143098B4201D383
:1006F0004B01C01A524103098B4201D30B01C01AAE
:100700005241C3088B4201D3CB00C01A5241830827
:100710008B4201D38B00C01A5241D9D243088B427D
:1007200001D34B00C01A5241411A00D20146634620
:1007300052415B10104601D34042002B00D5494284
:10074000704763465B1000D3404201B50020C046AD
:10075000C04602BD7047704770470000F0B50C46B8
:10076000871A9C410D46861A9D4103D2C01BA141A8
:10077000D21963410D0D1F0DC94EEC1BAE435CD069
:100780007F057F0D0026002F51D02D05AC46A943D3
:10079000DD020123ED0A1B051D4320231B1B24D46E
:1007A0001746E740381871412F46E740CC199D4065
:1007B0002818314661410C0D27D161449A4013D568
:1007C0000023401C594152000ED140084000012234
:1007D0004B005205D34207D305204007C14201D543
:1007E000B04900E0B0493046F0BD6B00002A00D0AF
:1007F00001229A181F23203C1B1B01D5002302E075
:10080000E540281871410C0DD7D0012424050919A1
:10081000C407CD0740084908E40F28436144002C71
:10082000D5D00024401C61419A40D0D1CDE76A0563
:10083000520DD9D1C90FC907D5E79C4D4E000028EC
:1008400001D0012400E0002434195F00002A01D007
:10085000012600E00026BE19954FAC420CD8AE42EE
:100860000AD8B44206D001256D05EC42BCD0104632
:100870001946F0BD9942FCD000203946F0BDF0B5D4
:100880001FB40C460F46811A9F412546861A9D418A
:1008900006D20125ED076F40401ABC4152187B413A
:1008A000210D1E0D8D1BAC467D4D8D437ED07505F3
:1008B0006D0D7CD00D05AE46AC431B031B0B794D73
:1008C00052429D41202366469B1B14D31746F74096
:1008D000381800260090744160462F460741E419FD
:1008E00000989D402818664116D4714671189A40A8
:1008F00025D5012320E093182A466A415200002B97
:1009000000D0521C1E23203E9B1B002B61DD354175
:10091000EE1728186641E8D5001876415B1C9A400E
:1009200000D3401C4B05F3181524E34010D3002BD3
:1009300052D071467118D30FC01802D3491C05B0AC
:10094000F0BD0123DB079A42F9D140084000F6E7E9
:1009500001225205B21801D1002853D00123CC0A3C
:10096000DB029943891E002A08D1020C03D0020C35
:100970000004103902E00246002020390023550B04
:1009800005D112020823550B01D152010D23550C3C
:1009900001D112011B1DD50C01D192009B1C150D1C
:1009A00001D152005B1C2025EE1A01E02CE022E070
:1009B0000546F54015439840CA1AE1076918130522
:1009C000C918002ABBDA032040070818C10FC9075D
:1009D0000FE071466118B2E7F10740080843711053
:1009E00071444A000CD001235B059A42A7D2C90F7B
:1009F000C9070020A3E74905490D26D1002001E0E1
:100A00000028F4D100219AE7284D6600002801D083
:100A1000012100E0002171185F00002A01D00126A9
:100A200000E00026BE19224FA94210D8AE420ED8CF
:100A3000B14208D001256D05E94206D01946A80249
:100A4000414010467BE79C4201D0214677E70020D9
:100A5000394674E710B50C465C4005D50124E4071F
:100A60006340FFF70CFF10BDFFF778FE10BD30B4F8
:100A70000C465C4004D50124E407634030BC6DE6BD
:100A800030BCFCE670B50124E40761400D465D40D2
:100A900002D4FFF763FE70BD6340FFF7F0FE70BD48
:100AA000FF0700000000F0FF0000F07F0000E0FF03
:100AB0000000F87FF0B5F94D0C091E092C402E40BE
:100AC0002F468BB0A7437DD0B543FCD0002E7AD003
:100AD000002CFCD00D465D40ED0F2543AC1BFF25DF
:100AE000AD0464190894C502440DC9022143500D98
:100AF000DC0204430120C00701430443D2020191F8
:100B0000200C110C00958C46010423468B430A915E
:100B100061460904E24D8A430991010A7D4449195D
:100B20008039097805464D4301266D18F605751B79
:100B30006943C90C640B891C4C436418B5012C1B18
:100B4000250C2E04B4434C434D43210C69188909EC
:100B50000591009DE90701D00121C90704912C46A8
:100B600001996708CD072F434C08059DE10B4D43C4
:100B70002D0C29466646754302950D4645432E4683
:100B8000029D7D1BB44100950D465D4301942C0CE4
:100B90002F040D465543AE462D0C3D43029503945C
:100BA0007546049C2D04641B049406D2029C039D8C
:100BB000641C002675410395029401AC70CC009F23
:100BC0007D1B01E03EE162E1B4410904009507911B
:100BD00001940599A4086143090C0C464443650B34
:100BE000E7040C4666467443A646640B3C430395F3
:100BF00002947446049DE4042C1B049406D2029CC7
:100C0000039D641C002675410395029401AC70CCD1
:100C1000009F7D1BB44101940C465C430095650F19
:100C2000E7000C465443A646640F3C4303950294E8
:100C30007446049DE4002C1B049406D2029C039D80
:100C4000641C002675410395029401AC70CC009F92
:100C50007D1BB441AE09AF06049DC900AD092F4309
:100C6000049DA406AD060495079D344369180791B9
:100C7000059DE10B4D432D0C2946664675430295B3
:100C80000D4645432E46029D7D1BB44100950D4601
:100C90005D4301942C0C2F040D465543AE462D0C9C
:100CA0003D43029503947546049C2D04641B0494F3
:100CB00006D2029C039D641C002675410395029494
:100CC00001AC70CC009F7D1BB44101948C0506944F
:100CD000079C890A611800950791019C0599A40851
:100CE0006143090C0D464543680BEF040D4664460D
:100CF00065436C0B3C43049FED047D1BAC4602D264
:100D00000025641C6841009E019D371B85410846F3
:100D1000584301950C46460FC5005443600F2843C5
:100D20006546E4002C1B02D20025401C6E41019D4B
:100D30003F1AB5412846BD09800628438446A009CC
:100D4000BF064E020699A40676180743079D0020A9
:100D500068410A99079019430020099B009060465A
:100D6000FF1913434041E20F64003A43A44604468E
:100D7000D71A8C41A04203D90120009020463A4660
:100D8000C70F941840416246D20F22436446640064
:100D90000494009CBE466400D71AA44604460297F9
:100DA0008C417746002F01D1A04204D96046401CF7
:100DB0008446029A2046C40FA64694184041049ADD
:100DC0000546D20F224364466400D31A8D41714612
:100DD000002901D1A84202D928461A46641C1043B2
:100DE0000122002800D0164361020020079B8919C8
:100DF00004465C410223002C02DB4918134664417F
:100E0000089DCE0A2D145D194B056705E10A2C05D6
:100E10000D1908993E43C9076940002B08D093403B
:100E200006D30022761C5141002B01D176087600B2
:100E30001C4A002D43DB154241D0AA433FD0304627
:100E40000BB0F0BD06180D464D41174C7642AC4133
:100E50001AD395181C465C41134A6D42A24113D324
:100E6000012252054C00D4420AD15C00D4420BD07E
:100E70004B4002D592021143E2E749004908DFE7FF
:100E80005940C90FC90718E000200849D8E70548AC
:100E900001420DD10342F7D0F2E700000000FF0746
:100EA000196B00000000F07F0000E0FF0000F87FF9
:100EB000114859400143C01241400020C0E70123BE
:100EC000089A9B069A4205DC032252078918C90F2B
:100ED000C907B5E7052252078918074A1143D212FC
:100EE0005140ADE770B515461C4602460B462846F4
:100EF0002146FFF7DFFD70BDFFFFFF7F0346CA02FB
:100F0000400D10B510430A1504D00124E407204316
:100F1000002A05DB0A4CA21A04D4D040FF2A00DDC7
:100F2000002010BD4A00002B01D0012000E000206D
:100F3000101801225205D042F2D8C817C04310BD84
:100F40001E0400001F22030C02D10F22000402D055
:100F5000030E03D004E00020014670470002083A67
:100F6000030F01D10001121F830F01D18000921ED7
:100F7000002801DB4000521E120551184205C01224
:100F8000411810467047C10FC90700D040420122E6
:100F900092071143D6E701218907D3E7F0B58B4CBF
:100FA0000F09254689B0BD437BD01D092646AE43B7
:100FB000FAD00E465E402740F60F3E43254071D0E2
:100FC00024012142FBD0FF24AD19A4042D1B03955D
:100FD00001252D05DB02DB0AC9022B43C90A29437F
:100FE0001E010901040F130F050121431701880B8E
:100FF000820391432D098C46A90B1E438A03954316
:10100000B30B9A0396433F09BA0B9403A743029686
:101010002E467E430497B6464E19D7190C460196C4
:10102000544305977E43371B7646BF1B3601B646B1
:10103000BE0B361900967646BC043719009C01D3C6
:10104000641C00946400002F01D001263443029EEA
:10105000049F754366467E430496760034196E00FD
:1010600034190094029C019E1C196643751BAE4600
:10107000069465464519059C05956C43594375468C
:101080000891691A0191049E01465143A41B0491E1
:10109000611A009C0791E10605D061090122114304
:1010A00002E072E06EE06109089D00272C0A2D061F
:1010B0006918049D7C412A0A2D066918019D624128
:1010C000AC0DAD026D185441079A910D920255195D
:1010D0006141029A644658435443069B059A5A4319
:1010E000121A131B9A0E9B015B187A41010B000523
:1010F000C3185141220A200644195A419A4200D28B
:10110000491C01204002814203D315230226F643E5
:1011100002E014230326F6432020C51AA9401746EF
:10112000AF40DA400A4320460399D84009147318A7
:1011300019055118039A3843D2075140AC4009D0E1
:101140000122944006D30022401C5141002C01D1C1
:10115000400840001E4A934212D30122039892068F
:10116000904207DB0520400709181A480143C012C6
:10117000414004E0032040070818C10FC9070020C0
:1011800009B0F0BD0020F107FAE705180C464C4104
:1011900011486D42A04115D394181A465A410E4881
:1011A000644290410ED301204A004005824209D397
:1011B0005A00824206D35940C90F084AC907002085
:1011C0001143DDE700200649DAE700000000FF07D1
:1011D000FE070000FFFFFF7F0000E0FF0000F07F40
:1011E0000000F87FFFB504460D4681B02430009022
:1011F0002168880604D51022E0699143216000E04F
:101200000120A84201DD471B00E000270498A169E6
:101210007A191018081AA0612078C00602D4204656
:10122000FFF746F8002608E003986268A168805D31
:101230009047206A401C761C206204988642F3DBAB
:101240002078C0060AD52046FFF732F806E062682B
:10125000A16830209047206A401C206238467F1EDB
:101260000028F4DC07E000986268A168405D9047C0
:10127000206A401C206228466D1E0028F3DC2046B0
:10128000FFF72CF82078000602D5022005B0F0BD4B
:101290000120FBE7084B70B50D467B4400F081F858
:1012A0000446284604F084F9002802D00020C043F8
:1012B00070BD204670BD00001B430000002000F000
:1012C00083F8FEF73EFF012003F00CF810B504464A
:1012D00002E0641C03F016F820780028F9D110BD54
:1012E00001468008081A02091018020A1018020C98
:1012F0001018C008820012185200891A01E0401C20
:101300000A390A29FBD27047F8B5224C4E00069DD7
:10131000A6420AD8A64201D1002806D15E00A64204
:1013200003D8A6420AD1002A08D00D24240425425D
:101330002CD02946002000F04DF8F8BD0C461C4387
:101340000CD4994202D0EFF30080F8BD904202D055
:10135000EFF30080F8BDEFF30080F8BD0924240707
:10136000E5008B4206D0EFF30080A043591A06D265
:10137000284304E0101A05D3EFF30080A04380F364
:101380000088F8BDEFF30080A043F1E7009500F07E
:1013900039F8F8BD0000E0FF01694A1C02610878D5
:1013A000704700B58FB00291002105910549019366
:1013B00079440391114604906846FFF703F80FB093
:1013C00000BD0000E5FFFFFF10B500F051F800F090
:1013D00048F810BDCA0211D54A03520F002A04D0A2
:1013E000C803C043012188407047054AEFF30081DC
:1013F00008010009104380F30088704700207047FF
:101400000000003010B500200249029A00F048F8B0
:1014100010BD00000000F87F754600F071F8AE4680
:10142000050069465346C008C000854618B020B57F
:10143000FEF71EFF60BC00274908B6460026C0C55F
:10144000C0C5C0C5C0C5C0C5C0C5C0C5C0C5403D7C
:1014500049008D4670470446C046C0462046FEF708
:101460007BFE10B5002801D002F03CFF10BD00004B
:1014700010B5002102A000F047F8012010BD0000C7
:10148000534947414252543A2041626E6F726D6136
:101490006C207465726D696E6174696F6E00000016
:1014A00010B50C461107090F092904D00A290AD0E2
:1014B00008290CD104E011460820FFF78BFF06E055
:1014C000510606D501E0510601D50120C00721468D
:1014D00010BDD10607D501010909CC084907000E46
:1014E0000006044309E0410F20024907000A0143B6
:1014F000200E00061D22D14101430846E7E7000007
:1015000000487047E013002070B505460C460A20DD
:1015100000E06D1C02F0F6FE002D06D028780028B1
:10152000F7D102E0641C02F0EDFE002C02D020781E
:101530000028F7D10A2002F0E5FE70BD70B58C18C6
:101540000578401C6B075B0F01D10378401C2A1102
:1015500006D10278401C03E00678401C0E70491C3E
:101560005B1EF9D12B0705D40023521E0DD40B703E
:10157000491CFAE70378401CCB1A921C03E01D7843
:101580000D70491C5B1C521EF9D5A142D8D3002016
:1015900070BD70B5002402F01DFF02F0ECFE02F0F9
:1015A000E1FE0546002D01D0601CC4B2204670BD8E
:1015B00070B500240025B1480078030002F07CFEDD
:1015C00009061D3A5983FEFDFCFBFA00032002F0D8
:1015D0008FFC0120A94908700520A9490860002056
:1015E000A8490870A84908700120A849087000207F
:1015F000A7490870A74908703DE1A1480068002884
:1016000017D101229F4902F095FE9E480078A0283C
:1016100009D10220994908700A20994908600020E0
:101620009A49087005E00020944908700120974904
:10163000087020E192480068002819D1FFF7A9FF3F
:101640000446002C09D000208C4908700A208C49DF
:10165000086001208D4908700AE00320874908705E
:1016600032208749086000208B490870874908703C
:1016700001E183480068002824D101228749032022
:1016800002F058FE044684480078401C82490870E5
:1016900082480078602808D104207849087000202A
:1016A000774908607C4908700CE032207449086072
:1016B00079480078322805DD012070490870002043
:1016C00075490870D7E06E480068002877D1062277
:1016D0007349042002F02EFE0446002C70D171499B
:1016E00008606F488078096840186E4908600846AD
:1016F0000068000208606A48407809684018694933
:1017000008600846006800020860654800780968BB
:10171000401864490860084600688011086008465F
:1017200000686149884206DA08465E49086001207F
:10173000584908700EE05B4800685C49884206DD45
:1017400008465849086001205249087002E000200C
:101750005049087053480068FFF715FC544A03C20B
:101760000A2150480068FEF752FF524908600020E5
:101770004C4908604A48407909684018494908605E
:10178000084600680002086045480079096840186A
:101790004449086008460068000208604048C07874
:1017A000096840183F49086043493E480068FEF711
:1017B0002EFF06E05EE05CE05AE058E056E054E0C0
:1017C00034E038490860084600683C49884206DA37
:1017D00008463449086001202D4908700EE0314860
:1017E00000683749884206DD08462E490860012016
:1017F0002749087002E00020254908702948006840
:101800003049086027480068FFF7BDFB2E4A03C235
:1018100000222E4B2C4903C9FFF74CF92A4A03C278
:1018200000201D4908701949087007E01A4800781F
:10183000401C1949087001201449087016480078A6
:10184000322809DD02200D4908700A200C49086081
:1018500000201149087008E0032008490870C820DA
:101860000749086000200C49087004E003E002E02A
:1018700001E000E000BF00BF284670BD4803002023
:101880004C03002051030020520300205A03002083
:101890005B0300205C030020500300205303002062
:1018A00054030020440300203075000048E8010084
:1018B00020030020400300209A19000070FEFFFF63
:1018C000520300003C0300202803002000002440B5
:1018D000F8B500260027C9480078030002F0ECFCA8
:1018E00009061FF16893F0EFEEEDF100C4480068BF
:1018F000002813D1022002F0FBFA0120BF49087032
:101900000520BF4908600020BE490860BE49086044
:10191000BE490870BE490870BE4908706AE1B848FF
:101920000068002843D1BC4800F012FABA48007899
:10193000B44908600846006800020860B64840786C
:1019400009684018AF490860B448AF490860AD481D
:10195000006803210903884210D1AB480068AF49F1
:1019600088420BD10320A54908700520A4490860CE
:101970000020AB490870A549087018E000209F4975
:1019800008700A209E490860A5480078401CA449B8
:10199000087008460078202806DD7D20C0009849A0
:1019A000086000209E49087001209849087021E1D4
:1019B00093480068002825D100F0BEF90646002EA5
:1019C0000BD104208D4908700A208D490860002041
:1019D000934908708D49087014E00A20884908600E
:1019E0008F480078401C8E490870084600782028EF
:1019F00005DD012081490870002089490870012017
:101A000082490870F6E07E48006800287ED182484E
:101A100000F0BEF90646002E79D100BF814908606A
:101A20007D480078086008460068000208607A482F
:101A30004078096840187B490860084600687A4980
:101A4000086078480068FFF79EFA04460D460022B9
:101A5000764B20462946FFF7A1FA04460D460022A0
:101A6000734B20462946FFF725F804460D46002211
:101A7000704B20462946FEF7FAFF04460D46002229
:101A80006D4B20462946FFF789FA04460D46002291
:101A90006A4B2046294605F0BDFB03D201205C4974
:101AA000087012E00022664B2046294605F0E4FB50
:101AB00008D201205649087007E099E097E089E0D4
:101AC00087E096E000205249087020462946FFF73B
:101AD00015FA00B25B4908800022574B2046294680
:101AE000FEF7E8FF584A03C200204E4908604A4802
:101AF000C07808600846006800020860464800791F
:101B00000968401847490860084601E060E051E074
:101B10000068FFF738FA04460D4600224B4B20467A
:101B20002946FFF73BFA04460D460022404B20466B
:101B30002946FEF7BFFF04460D4600221346204605
:101B4000294605F067FB05D20024254601203149CE
:101B500008700FE000223D4B2046294605F08CFB23
:101B600005D20024394D01202A49087002E00020E6
:101B70002849087020462946FFF7C0F934490880F3
:101B80000022324B20462946FEF794FF314A03C219
:101B900020462946FFF7B2F92F4908600620174969
:101BA0000870BE201649086000201D4908701749BA
:101BB00008700DE003201149087064201049086086
:101BC00017480078401C1649087001200F4908701A
:101BD00010E00FE00A480068002807D103200749F9
:101BE00008700020064908600D49087002E001E015
:101BF00000E000BF00BF3846F8BD0000F002002042
:101C0000F4020020FC020020000300200803002052
:101C1000090300200A030020E40200202030000015
:101C2000F8020020040300203403002000E0654097
:101C3000E0FFEF400080464000002440000079C0F3
:101C400000889340E00200201003002000408F40F5
:101C5000E202002018030020300300200021014888
:101C60004170704724600040002101484170704776
:101C70005C60004000210148417070476460004092
:101C800000210148417070476060004000B5C022EB
:101C90009178F82211401C4A127811431B48EA2916
:101CA00023D00ADC0A46E03A130002F005FB0A18CA
:101CB0001C20242A2A2A2A161A2AED291FD004DCDD
:101CC000EB2916D0EC291CD117E0F02903D0F82914
:101CD00017D10F4815E00F4813E00D4811E00E48EA
:101CE0000FE00E480DE00E480BE00E4809E00E48EC
:101CF00007E00E4805E00E4803E00E4801E0034807
:101D000000BF00BF00BD0000201C024040420F0089
:101D10000048E801006CDC0200366E010024F4008B
:101D2000001BB70000127A00808D5B0000093D00A7
:101D3000C0C62D0080841E001CB50020019001202B
:101D400001AB242244210090022003F0A5FC1CBD1D
:101D50001CB5044601200C4908700CA000680190D5
:101D6000012001AB372244210090022003F094FCB3
:101D70000220234600224421009003F02BFC002087
:101D8000014908701CBD00006403002081000000B0
:101D900038B5044601200849087006202346002271
:101DA00044210090022003F015FC05460020024962
:101DB0000870284638BD0000640300200121054852
:101DC000017705488088084303498880002003493B
:101DD00008777047006100406015044000600040D3
:101DE00008B500201649087016488088012108436C
:101DF00014498880084640891349084011494881A0
:101E000008460089104908400E49088108460089A3
:101E1000891508430B4908810020009005E000BFA8
:101E200068460078401CC1B20091684600780E28D0
:101E3000F5D904480089012108430249088108BDF9
:101E4000E000002060150440FEFF0000012106486C
:101E500001700648808802210843044988800020D8
:101E6000034908707047000020610040601504407D
:101E70002060004008B516488088022108431449B4
:101E8000888008464089134908401149488108461E
:101E90000089104908400E49088108460089491503
:101EA00008430B4908810020009005E000BF684608
:101EB0000078401CC1B20091684600780E28F5D920
:101EC00003480089022108430149088108BD000038
:101ED00060150440FDFF00000548407C80218843D8
:101EE0000349487400BF00BF00BF00BF00BF704778
:101EF000201A044010B503480078002801D004F0EF
:101F00005DFB10BD0060004010B506480079002858
:101F100001D004F0FFFA03484079002801D004F012
:101F200029FB10BD0060004010B50648007A00286B
:101F300001D004F001FB0348407A002801D004F0EE
:101F40001FFB10BD0060004010B50648007B002854
:101F500001D004F0F7FA0348407B002801D004F0D8
:101F600015FB10BD0060004010B50648007C00283D
:101F700001D004F0EDFA0348407C002801D004F0C1
:101F80000BFB10BD0060004010B50648007D002826
:101F900001D004F0E3FA0348407D002801D004F0AA
:101FA000BFFA10BD0060004010B50648007E002852
:101FB00001D004F0D9FA0348407E002801D004F093
:101FC000B5FA10BD0060004010B50348007F00283E
:101FD00001D003F0AFFB10BD0060004010B5034816
:101FE0000078002801D003F07DFC10BD2060004087
:101FF00010B507480079002801D004F057FC0448C8
:10200000001D4078002801D0FFF728FE10BD000019
:102010002060004010B50348007A002801D004F089
:10202000C7FC10BD2060004010B50348007B0028AD
:1020300001D004F09DFC10BD2060004010B50748A1
:10204000007C002801D004F025FC044810304078C2
:10205000002801D004F030FC10BD000020600040DA
:1020600010B50348007D002801D004F0FDFC10BD30
:102070002060004010B50348007E002801D004F025
:10208000ADFC10BD2060004010B50748007F00285F
:1020900001D004F005FC04481C304078002801D031
:1020A00004F010FC10BD00002060004010B5064890
:1020B0000078002801D004F049F80348407800284F
:1020C00001D002F09BF910BD4060004010B50348FC
:1020D0000079002801D004F0FBFB10BD40600040F7
:1020E00010B50348007A002801D004F0F7FB10BDBA
:1020F0004060004010B50348007B002801D004F088
:10210000F3FB10BD4060004010B50348007C002880
:1021100001D004F0EFFB10BD4060004010B5034853
:10212000007D002801D002F0F3F810BD40600040AF
:1021300010B50748007E002801D004F0A5FB044834
:1021400018304078002801D004F02CFA10BD0000AF
:102150004060004010B50748007F002801D004F01F
:1021600027FA04481C304078002801D0FFF77CFD96
:1021700010BD00004060004010B5064800780028FF
:1021800001D002F0CBF803484078002801D0FFF7D7
:1021900077FD10BD6060004010B507480079002849
:1021A00001D002F0C1F80448001D4078002801D099
:1021B000FFF760FD10BD00006060004010B50348EF
:1021C000007A002801D004F09BFB10BD6060004045
:1021D00010B50348007B002801D004F0BBFB10BD04
:1021E0006060004010B50348007C002801D004F076
:1021F000B7FB10BD6060004010B50348007D0028AB
:1022000001D004F09BFB10BD6060004010B5034896
:10221000007E002801D004F097FB10BD60600040F4
:1022200010B50348007F002801D004F057FF10BD0F
:102230006060004070B500F0F9F97D21C9001448D4
:102240000068FEF7DAF905462C46601E11498842FF
:1022500000D90CE0601E104948610321081F00F0FE
:1022600063F800200C4988610720086100BF00F076
:10227000DDF9002009490860022009490870094970
:102280000870094908700A200849086070BD0000FC
:1022900098040020FFFFFF0000E000E04C02002057
:1022A00070040020710400207204002074040020D7
:1022B000C206D20E01219140014A11607047000010
:1022C00080E200E0C206D20E01219140014A116075
:1022D0007047000080E200E0C206D20E012191406A
:1022E000014A11607047000080E200E0C206D20E91
:1022F00001219140014A11607047000080E100E037
:10230000C206D20E01219140014A116070470000BF
:1023100000E100E0C206D20E01219140014A1160A5
:102320007047000000E100E010B5002819DA1A4AF1
:1023300003071B0F083B9B089B00D2588307DC0E4A
:10234000FF23A3409A438B071B0E8407E40EA34090
:102350001A43114B0407240F083CA408A4001A5187
:1023600018E00E4A03231B02D21883089B00D258A0
:102370008307DC0EFF23A3409A438B071B0E8407C1
:10238000E40EA3401A43054B032424021B198408BE
:10239000A4001A5110BD00001CED00E000E100E0B7
:1023A000F0B50C4615460123A340D9B22A462B00AE
:1023B00001F082FF06042C54787E9EBD5D4B1B5CB1
:1023C0008B435C4E33545B4B603B192676019B1963
:1023D0001B5C0B43574E603E19277F01F61933549F
:1023E000544B203B1B5C8B43524E203E3354514B8D
:1023F000103B1B5C8B434F4E103E33544D4B303BD8
:102400001B5C8B434B4E303E335490E0494B1B5C7E
:102410008B43484E3354474B603B192676019B193A
:102420001B5C0B43434E603E19277F01F619335462
:10243000404B203B1B5C8B433E4E203E33543D4B78
:10244000103B1B5C8B433B4E103E3354394B303BAF
:102450001B5C0B43374E303E335468E0354B1B5CFE
:102460008B43344E3354334B603B192676019B1912
:102470001B5C0B432F4E603E19277F01F619335426
:102480002C4B203B1E5C0E431E542A4B103B1E5C03
:102490008E431E54274B303B1B5C8B43254E303EF6
:1024A000335444E0234B1B5C0B43224E33543EE039
:1024B000204B1E5C8E431E541E4B603B192676013A
:1024C0009B191B5C8B431B4E603E19277F01F6193D
:1024D0003354184B203B1B5C8B43164E203E335429
:1024E000144B103B1B5C8B43124E103E33541EE0CA
:1024F000104B1B5C8B430F4E33540E4B603B192625
:1025000076019B191B5C8B430A4E603E19277F01A5
:10251000F6193354074B203B1B5C8B43054E203E82
:102520003354044B103B1E5C0E431E5400BF00BFCF
:10253000F0BD0000600004407047000003490860DF
:1025400000BF024909680029FBD1704764020020DE
:1025500010B500F001F810BD2A480068401C294958
:10256000086001202849087028480068002804D025
:1025700026480068401E2549086025480068002854
:1025800004D023480068401E2149086021480068A3
:10259000002804D01F480068401E1E4908601E48DD
:1025A0000068002804D01C480068401E1A490860D2
:1025B0001A480068002804D018480068401E1749CF
:1025C000086017480068002804D015480068401EBD
:1025D0001349086013480068002804D011480068B7
:1025E000401E1049086000BF0F480321090240182F
:1025F0004079022148400C4903221202891848718F
:1026000000BF70474C0200204902002068020020F1
:1026100080020020C402002064020020F402002096
:10262000600300204C0300200000044010B5FFF7B9
:102630002DFB0149086010BD9804002010B58020D2
:102640001B4948711A201A49203908722B204872F8
:102650003C2088724D20C872002016494860FFF760
:1026600015FB154908600020C0431449086014494F
:10267000086014481449086011490322120289189D
:1026800048600F49891888600D498918C8600C494D
:10269000891808610A4989184861094989188861B7
:1026A00007498918C861AC200849487010BD00006E
:1026B0002004024000B001409804002080E200E0C5
:1026C00000E100E0C0C0C0C000E400E00010024033
:1026D0000E4A927E01231A430C4B9A760C4A1278CA
:1026E000FE231A400A4B1A7001230A4A1372002271
:1026F000094B1A72064A9070402802D11022074BEB
:10270000DA704A1E024BC0331A807047000802403C
:1027100040220440606100406060004020040240AC
:10272000002006490872002105480172054800781A
:1027300001210843034908707047000060600040B1
:10274000606100404022044006480078FE210840B5
:1027500004490870012104480172002003490872ED
:10276000704700004022044060610040606000400B
:10277000F8B505460E466A463146284600F0BEFAD0
:102780000446002C1FD10320104988800846C088C9
:1027900000090001C8800846C088694609780843D6
:1027A0000A49C880684640784006000C08490882FB
:1027B000684640784006000C48820448408803215F
:1027C0000843024948802046F8BD0000201104401B
:1027D0000013044070B505460E463D4800780421BC
:1027E00008433B49087003203A49C88022203949F0
:1027F0002039088238480883672040023749088218
:102800003748007C012108433549087407203149C5
:1028100020394881FF20233048823248488367208E
:1028200040022E4948822B4800890121084329494A
:1028300008810846808A2C49084026498882084633
:102840004089012108432349488100BF2748007F70
:10285000202108432549087725484078042108436A
:102860002349487022482030407804218843204979
:10287000203148701F48407C042188431D4948741A
:102880001C4820304078042188431A492031487080
:1028900000BF00BF1548007F202108431349087777
:1028A00013482030407802210843114920314870F4
:1028B000104820304078022188430E49203148706A
:1028C00000BF31462846FFF753FF0446204670BD3F
:1028D0002004024020110440A7800000001304409F
:1028E0006004044097400000FEFF000060080440C0
:1028F000000304404000044000BF044840882021F9
:1029000008400028F9D00248807C7047001104403C
:10291000001304400449087400BF04490988602278
:1029200011400029F9D17047001304400011044000
:10293000F8B505460E466A463146284600F0DEF9EF
:102940000446002C16D10C200B498880684600787C
:10295000C880684640784006000C08498880684670
:1029600040784006000CC880034840880C2108438A
:10297000014948802046F8BD20110440401304401E
:1029800070B505460E463F480078042108433D498E
:1029900008703D4880880C2108433B49888001210C
:1029A0003A480175017601770020394908750876A3
:1029B0000877222034492039888236488883672066
:1029C0004002354988803548007C0421084333495A
:1029D000087407202C492039C881FF202330C88281
:1029E0002F48C883672040022B49C88026480089A9
:1029F00004210843244908810846808A294908405F
:102A00002149888208464089042108431E4948819B
:102A100000BF254800780421084323490870224854
:102A200020300078042188431F49203108701F4856
:102A3000007C042188431D4908741C48203000781C
:102A40000421884319492031087000BF00BF16488F
:102A500020300078022108431349203108701348C0
:102A6000203000780221884310492031087000BFCF
:102A700031462846FFF75CFF044600F019F820466F
:102A800070BD00002004024020110440206100407D
:102A90002060004097800000401304406004044020
:102AA00097400000FBFF000000030440400004408A
:102AB00010B510480089042108430E4908810846D2
:102AC0004089042108430B494881084640880C216D
:102AD00008430849488000200749087508760D20FA
:102AE000FFF7E6FB0E20FFF7E3FB0021034801752B
:102AF000017610BD2011044020600040206100409C
:102B0000F8B505460E466A463146284600F0F6F806
:102B10000446002C16D103200B49888068460078B3
:102B2000C880684640784006000C0849088168461D
:102B300040784006000C4881034840880321084340
:102B4000014948802046F8BD601504404017044004
:102B500070B505460E4647480078082108434549A8
:102B60000870454880880321084343498880012133
:102B700042480177414820300170017100204049EE
:102B800008773F4920310870087122203A492039DE
:102B900008823C480883672040023B4908813B4843
:102BA000007C102108433949087407203249203934
:102BB0004881FF20233048823548488367204002FF
:102BC000314948812C480089012108432A4908815C
:102BD0000846808A2F49084027498882084640894C
:102BE000012108432449488100BF2B48C07D0221B0
:102BF00088432949C875294840780821084327494E
:102C000048702648203040780821884323492031E5
:102C100048702348407C0821884321494874204853
:102C200020304078082188431D492031487000BF7A
:102C300000BF1948C07D022188431749C87517484D
:102C4000203040781021084314492031487014483E
:102C5000203040781021884311492031487000BF4E
:102C600031462846FFF74CFF044600F01BF820468B
:102C700070BD000020040240601504400061004067
:102C8000006000409780000040170440600404404A
:102C900097400000FEFF000060080440000304406D
:102CA0004000044010B51248008901210843104932
:102CB000088108464089012108430D49488108469A
:102CC0004088032108430A494880002009490877C1
:102CD0000849203108700720FFF7EAFA0820FFF7BB
:102CE000E7FA00210448017703482030017010BD45
:102CF000601504400060004000610040F7B58AB0F4
:102D00001646642400200390029001900B98000264
:102D1000059005990A98FDF770FC401C049002E0AC
:102D20000398401C0390012003998840049988422D
:102D3000F6D3039D3EE06800274A115A0A98FDF732
:102D40005CFC0690022732E0791C0698FDF755FCE2
:102D5000410807917D22D2000799514308460B99FB
:102D6000FDF74BFC7D21C900401A0A214843089019
:102D70000898211E01DB0A4600E04A42002801DBD8
:102D8000034600E043429A4202DD089C0197029507
:102D9000201E01DB014600E04142142906DA3570AD
:102DA00077700020099009980DB0F0BD7F1C802F2E
:102DB000CAD36D1C102DBED3201E01DB014600E0DE
:102DC0004142142903DB0298307001987070002092
:102DD00009900998E8E70000E07200000021017006
:102DE00041708170C170002284210A5485210A54E7
:102DF00086210A547047000000B50548FFF7EEFF32
:102E00000448FFF7EBFF0448FFF7E8FF00BD0000B0
:102E1000B0090020B70A0020BE0B002046484079C8
:102E200046490880084600780006000C08804248A1
:102E3000007909884018414908803F48C0794049D5
:102E40000880084600780006000C08803A4880791F
:102E5000098840183A4908803748C07A39490880BB
:102E6000084600780006000C08803348807A0988FC
:102E70004018344908803048407B33490860084690
:102E80000068000208602C48007B096840182E4941
:102E900008602948407C2D49086008460068000207
:102EA00008602548007C09684018284908602248C5
:102EB000C07D2749086008460068000208601E4877
:102EC000807D0968401822490860084600680002B1
:102ED00008601948407D096840181D490860084687
:102EE0000068000208601448007D0968401818490D
:102EF00008601148C07E1749086008460068000253
:102F000008600D48807E096840181249086008462C
:102F10000068000208600848407E096840180D49B2
:102F2000086008460068000208600348007E0968DF
:102F30004018084908607047E01200206002002035
:102F40006202002084040020880400208C040020F9
:102F50009004002094040020F8B50022002717E018
:102F6000052000053D182B681C462346E6B20F4895
:102F70008654521C2004060E0C488654521C200213
:102F8000060E0A488654521C260E8654521C3F1DBB
:102F9000FF2FE5D9FFF742FF05252D052B681C46BD
:102FA000034D286803460093F8BD0000E01200209E
:102FB000F0005000F3B582B00D4600200190029859
:102FC000030001F079F90B52071216212530343F26
:102FD000434E5200012168182038C27F80201040E3
:102FE000002801D00120019046E00121002001903D
:102FF00042E0022168182038C27F8020104000285B
:1030000001D00120019037E000200190022133E03F
:10301000022168182038C27F80201040002801D08B
:103020000120019028E002210020019024E00421E9
:1030300068182038C27F80201040002801D001206D
:10304000019019E000200190042115E00421681886
:103050002038C27F80201040002801D0012001903C
:103060000AE000200190042106E0002001900021E8
:103070000027384604B0F0BD00BF002701980028A3
:1030800016D1002411E000260BE06818001B203840
:10309000C07F802333411840002800D01FE0701CFF
:1030A000C6B2082EF1DB601CC4B28C42EBDB15E02B
:1030B000002411E000260BE06818001B2038C07FB8
:1030C000802333411840002800D108E0701CC6B2AC
:1030D000082EF1DB601CC4B28C42EBDB00BFC806DB
:1030E000070EE006000E00900098381AC7B2082EAE
:1030F00001DAB81BC7B201983818C0B2BAE70000AD
:10310000FFB581B00446002020E0611E15460D4148
:10311000EB07DB0F0146C5172D0F6D182D112D0183
:10312000461B651EAE1B05116F00049DED5B35410E
:10313000ED07ED0F0095009DAB4204D05100029DBC
:1031400069408AB201E051040A0C401C0A99884285
:10315000DBD30349A1401046884305B0F0BD000011
:10316000FFFF000038B500BF36A0FDF793F800BFA1
:1031700000BF032136A0FDF78DF800BF00F082FEEE
:1031800000F026FE00F02CFE00F01AFE00BF3548CD
:10319000FDF780F800BF00BF3C2000F011FC80006C
:1031A0003149401844883C2000F00AFC80002E4938
:1031B00040184588224629462CA0FDF76BF800BF31
:1031C0003C2000F0FDFB8000274940184088002883
:1031D00032D100BF32A0FDF75DF800BF01F046F824
:1031E00000F0FEFD00243F200001354B354A3649F2
:1031F00000901020FFF784FF044600BF33A0FDF7C6
:1032000049F800BF00F0FCFA00F0BCFA21467E202D
:1032100000F034FB00F098F800F0B4F87E2112487A
:10322000E03001771C3044802E48C48700F09AFAC1
:103230003220FFF783F904E000BF2BA0FDF72AF846
:1032400000BF38BD0A453730335F496E69743B00B3
:103250000A496E6974207479706520697320256449
:103260002E0000006C770000E01100200A4E6F77FE
:10327000204D625265675B313331305D203D204324
:103280004D5B307833435D203D20307846464645DF
:10329000203D20307825303458203D2025642E00F4
:1032A0000A5772697465205370656369666965645D
:1032B00020434D205573657220646174612E0000B7
:1032C00028100020FFFF0000058000000A577269E7
:1032D0007465206E657720435243313620646174F3
:1032E000613B0000E80F00200A4E6F74207772697E
:1032F00074652053706563696669656420434D2079
:103300005573657220646174612E000008B50C4825
:10331000007800280ED14E200A490870002048701D
:1033200088700220009008460278431C6C2101201E
:1033300002F0B2F9012002490870002008BD000027
:10334000CA0200200C0E002008B50C4800780028A6
:103350000ED14E200A490870002048708870022063
:10336000009008460278431C6C21012002F094F979
:10337000012002490870002008BD0000C902002099
:103380000C0E002008B50C48007800280FD1222030
:103390000A490870A22048706220887002200090BC
:1033A00008460278431C6C21012002F075F90120C7
:1033B00001490870002008BDC80200200C0E002042
:1033C00010B528480068401C264908600846006877
:1033D000012808D100F056FD00F0FAFC00F000FDD5
:1033E00000F0EEFC3DE01F480068022824D100F008
:1033F000FFF800BF1C4801881CA0FCF74BFF00BF72
:1034000000BF2448018824A0FCF744FF00BF00BF90
:103410002B4801882BA0FCF73DFF00BF00BF3348BD
:10342000018833A0FCF736FF00BF00BF3A4801888F
:103430003AA0FCF72FFF14E000F0DAF841480088CA
:103440004149488441480088888441480088C884AC
:1034500040480088488540480088888501203F49C9
:10346000087010BDAC020020C00200200A453730B1
:10347000335F4368697056657273696F6E2C52656D
:1034800067307833382C202020203078253034588D
:103490002C000000B00200200A453730335F434D56
:1034A000442C526567307832322C20202020202096
:1034B0002020202020203078253034582C00000097
:1034C000BC0200200A453730335F53746174757352
:1034D0005F73796E632C526567307833322C20200D
:1034E00020203078253034582C000000BE02002007
:1034F0000A453730335F5374617475732C526567B6
:10350000307833362C2020202020202020203078B6
:10351000253034582C000000C20200200A45373004
:10352000335F434D5F5374617475732C526567301C
:103530007834362C20202020202030782530345834
:103540002C000000B20200200C0F0020B40200206A
:10355000B6020020B8020020BA0200207804002041
:10356000F8B506460C460027304600F07CFB0128E3
:1035700037D100F045F94E201B49087008464670C7
:103580004C2088700220009008460278431C6C2171
:10359000012002F081F8482013490870002504E05A
:1035A000FF2012494855681CC5B20A2DF8DB0220DD
:1035B00000900D4802780D4B6C21012002F00AF8B2
:1035C00000280DD109484078208020780006000CA2
:1035D000208020880549097840182080012700E0D4
:1035E00000273846F8BD00000C0E00202C0E0020ED
:1035F00038B56946222000F081F80446012C03D139
:1036000068460088334908806946262000F076F82D
:103610000446012C03D1684600882F49088069467A
:10362000282000F06BF80446012C03D1684600887E
:103630002A49088069462A2000F060F80446012CD7
:1036400003D1684600882649088069462E2000F08C
:1036500055F80446012C03D16846008821490880AA
:103660006946302000F04AF80446012C03D1684630
:1036700000881D4908806946322000F03FF8044662
:10368000012C03D168460088184908806946362015
:1036900000F034F80446012C03D168460088144930
:1036A00008806946382000F029F80446012C03D12F
:1036B000684600880F4908806946462000F01EF8D9
:1036C0000446012C03D1684600880B49088000207D
:1036D00038BD0000B0020020B2020020B402002079
:1036E000B6020020B8020020BA020020BC0200206E
:1036F000BE020020C0020020C2020020F8B506462B
:103700000C46304600F0CBFA012825D1134806704C
:10371000002504E0FF2012494855681CC5B20A2D57
:10372000F8DB022000900D4802780D4B6C2101203F
:1037300001F050FF00280DD1094840782080207802
:103740000006000C20802088054909784018208058
:103750000120F8BD0020FCE70020FAE70C0E002055
:103760002C0E002010B5064C2146222000F0C0F897
:10377000FFF7CCFDFFF7E8FDFFF704FE10BD0000EA
:1037800069B1000008B51C48007801282FD14E20EF
:103790001A490870BD204870982088700220009057
:1037A00008460278431C6C21012001F075FF4E2071
:1037B00012490870BF2048702520887002200090B0
:1037C00008460278431C6C21012001F065FF4E2061
:1037D0000A490870D820487036208870022000906E
:1037E00008460278431C6C21012001F055FF00209F
:1037F0000149087008BD0000C90200200C0E00201D
:1038000008B51C48007801282FD122201A490870D9
:103810005A204870F72088700220009008460278ED
:10382000431C6C21012001F037FF2220124908704F
:10383000C72048700C20887002200090084602784B
:10384000431C6C21012001F027FF22200A49087047
:103850001E204870D220887002200090084602780E
:10386000431C6C21012001F017FF00200149087062
:1038700008BD0000C80200200C0E002038B5054627
:103880000C46284600F0FCF901282AD1FFF7B8FFC2
:10389000FFF778FF4A20144908704C702012887096
:1038A0000220009008460278431C6C21012001F0A0
:1038B000F3FE4E200C49087008464570A32088701E
:1038C0000220009008460278431C6C21012001F080
:1038D000E3FE05200549086000BF04480068002891
:1038E000FBD1002038BD00000C0E0020C4020020D7
:1038F00038B505460C46284600F0D1F9012810D10C
:10390000FFF77EFF0848057001464C702012887052
:103910000220009008460278431C6C21012001F02F
:10392000BBFE002038BD00000C0E002010B50122A7
:1039300000210720FEF734FD042201210720FEF7B5
:103940002FFD042202210720FEF72AFD0422072171
:103950000120FEF725FD00BF17480321090240188A
:1039600040788021084314490322120289184870C4
:1039700000BF042201210520FEF712FD00BF0E4802
:103980000321090240184079022108430A49032211
:1039900012028918487100BF00BF0748114640183D
:1039A00040790221884304498918487100BF0020EA
:1039B0000249086010BD00000000044068020020B9
:1039C00000B50346184600F04EF9002801D1FF204B
:1039D00000BD002207E090000549085C984200D134
:1039E00003E0501CC2B2402AF5DB00BF1046EFE7EF
:1039F0000075000010B5012000F07AFAFFF7B2FB65
:103A000010BD000010B504480088401C0249088021
:103A1000FFF7D6FC10BD00009E02002000280DD14B
:103A200000BF0E49032212028918497820229143CF
:103A30000A4A03231B02D21851700DE000BF074948
:103A4000032212028918497820221143034A0323D2
:103A50001B02D218517000BF7047000000000440E4
:103A600000280DD100BF0E4903221202891849789F
:103A7000102291430A4A03231B02D21851700DE011
:103A800000BF074903221202891849781022114306
:103A9000034A03231B02D218517000BF7047000075
:103AA0000000044010B5012204211046FEF778FC06
:103AB00010BD10B5042211460120FEF771FC10BDA7
:103AC00005480321090240184078102108400028C9
:103AD00000D170470120FCE70000044000280DD110
:103AE00000BF0E49032212028918C978490849000B
:103AF0000A4A03231B02D218D1700DE000BF074908
:103B0000032212028918C97801221143034A0323B0
:103B10001B02D218D17000BF7047000000000440A3
:103B200000280DD100BF0E490322120289184979DD
:103B3000490849000A4A03231B02D21851710DE0BB
:103B400000BF074903221202891849790122114353
:103B5000034A03231B02D218517100BF70470000B3
:103B60000000044010B5012200210520FEF718FCDA
:103B700010BD10B5042200210520FEF711FC10BD78
:103B800005480321090240184079C007C00F0028EA
:103B900000D170470120FCE70000044000280DD14F
:103BA00000BF0E49032212028918C97920229143CD
:103BB0000A4A03231B02D218D1710DE000BF074946
:103BC000032212028918C97920221143034A0323D0
:103BD0001B02D218D17100BF7047000000000440E2
:103BE00000280DD100BF0E49032212028918C9799D
:103BF000102291430A4A03231B02D218D1710DE00F
:103C000000BF0749032212028918C9791022114303
:103C1000034A03231B02D218D17100BF7047000072
:103C20000000044010B5012204210720FEF7B8FB74
:103C300010BD10B5042211460720FEF7B1FB10BDE0
:103C40000548032109024018C079102108400028C6
:103C500000D170470120FCE70000044000E0401E56
:103C60000028FCD170470146C807C00F002801D0CA
:103C7000002070477E2901DD0020FAE70120F8E7E7
:103C80000146C807C00F002801D000207047202936
:103C900003DB7E2901DC0120F8E70020F6E701467E
:103CA000C807C00F002801D000207047202901D08C
:103CB000242901D10020F8E7382903DD462901DA5B
:103CC0000020F2E74A2903DD4E2901DA0020ECE763
:103CD000AA2903DDE42901DA0020E6E7E42901DD71
:103CE0000020E2E70120E0E7024601208002824254
:103CF00052DB324882424FDC0120800282420BDBE1
:103D00002E483E38824207DC01208002101A40060D
:103D1000000E08700120704741200001824203DB41
:103D2000222008700120F6E724483C3882420CDB50
:103D300022483338824208DC20483C38101A1330BD
:103D40004006000E08700120E5E71C483238824228
:103D50000ADB801C824207DC801E101A23304006DA
:103D6000000E08700120D6E714482F3882420CDB81
:103D70001248401E824208DC10482F38101A2730A3
:103D80004006000E08700120C5E70C48824213DB94
:103D9000E42008700120BEE70520000282420BDB10
:103DA0000648F230824207DC05200002101A400665
:103DB000000E08700120AEE70020ACE74D040000C3
:103DC000002000BF01E0411CC8B24028FBDB704767
:103DD000002000BF01E0411CC8B24E28FBDB704749
:103DE00038B5002400BFFFF70BFD00251CE0284676
:103DF000FFF739FF002800D114E00020C0430090F5
:103E000069462846FFF7ACFB01280AD1A0001A49F1
:103E10000D5468460088A100174A89184880601C24
:103E2000C4B200BFA81CC5B2F02DE0DB002410E036
:103E3000A0001149401881786000104A1154A00078
:103E40000D494018408801126000401C1154601C4C
:103E5000C4B2402CECDB002408E0A0000649401866
:103E600040886100064A5052601CC4B2402CF4DB0A
:103E7000FFF788FA38BD0000E0110020281000206C
:103E8000A80F002038B5002400251CE02846FFF7C5
:103E900006FF002800D114E00020C04300906946CE
:103EA0002846FFF72BFC01280AD1A0000E490D542B
:103EB00068460088A1000C4A89184880601CC4B27A
:103EC00000BFA81CC5B2F02DE0DB002408E0A00074
:103ED0000549401840886100044A5052601CC4B231
:103EE0004E2CF4DB38BD0000A81000200C0F002081
:103EF00010B50446012C14D104220521FEF750FA16
:103F0000042211460120FEF74BFA0020FFF786FD40
:103F10000120FFF783FD0A20FFF7A0FE0120FFF735
:103F20007DFD022C15D1042200210320FEF738FA72
:103F3000042200210520FEF733FA0020FFF7CEFD12
:103F40000120FFF7CBFD0A20FFF788FE0120FFF7D5
:103F5000C5FD032C15D1042205210720FEF720FA08
:103F6000042211460720FEF71BFA0020FFF716FE79
:103F70000120FFF713FE0A20FFF770FE0120FFF774
:103F80000DFE10BDF3B583B06C480088002804D046
:103F90006A4800886A49884204D100210498018057
:103FA00005B0F0BD654909880398401A00B2009039
:103FB000002664480068029002A90720FEF7FAFF75
:103FC000074669460520FEF7F5FF054678192028C3
:103FD00005DB0298800A029030460A30C6B202A978
:103FE0000720FEF7E7FF074669460520FEF7E2FFD8
:103FF00005467819202805DB0298800A0290304691
:104000000A30C6B26A460021515E029848430290C7
:1040100002A90720FEF7CEFF074669460520FEF7F6
:10402000C9FF05467819202805DB0298800A02900E
:1040300030460A30C6B202A90720FEF7BBFF07468A
:1040400069460520FEF7B6FF05467819202805DBEE
:104050000298800A029030460A30C6B26A460021B1
:10406000515E02984843029002A90720FEF7A2FF82
:10407000074669460520FEF79DFF0546781920286A
:1040800005DB0298800A029030460A30C6B202A9C7
:104090000720FEF78FFF074669460520FEF78AFFD7
:1040A00005467819202805DB0298800A02903046E0
:1040B0000A30C6B2694600228A5E029850430290D6
:1040C0001E20811B0298C84002901F480468684661
:1040D0000021415E204648430446A40A6846002168
:1040E000415E204648430446A40A184800680190EF
:1040F000694600228A5E0198504301900198800A27
:104100000190029824180198241811480068019021
:10411000019824180F48844203D301460498018073
:104120003EE70C48C043844203D8414204980180D2
:1041300036E721B20498018000BF31E784040020F3
:10414000FFFF000094040020900400208C04002055
:1041500088040020FF7F000070B505460E46002D44
:1041600004D0012D21D0022D63D13EE031463348E9
:104170000068FEF72FFB0446802C01D100BFFEE74C
:1041800000202F49087208730A20FEF7A5F80B20BB
:10419000FEF7A2F800212B48017201730A20FEF7F6
:1041A000B9F80B20FEF7B6F844E0E12149022348B4
:1041B0000068FEF7E5FB0446802C01D100BFFEE756
:1041C00000201F49087508760D20FEF785F80E209F
:1041D000FEF782F800211B48017501760D20FEF7DD
:1041E00099F80E20FEF796F824E0E12149021348E1
:1041F0000068FEF7ADFC0446802C01D100BFFEE74D
:1042000000200F49203908770D4908700720FEF774
:1042100063F80820FEF760F800210A48203801778B
:10422000084801700720FEF775F80820FEF772F8BD
:1042300000E000BF00BF002070BD00009804002017
:10424000206000402061004010B54B20C0010549AE
:104250000860084601680020FFF77EFF0020024941
:10426000086010BD7802002080020020F8B500240C
:10427000FFF7C6FAFFF786FA202414E02046FFF77E
:10428000FFFC01280DD12046FFF79AFB0546A80048
:1042900008490E5CA8004018478839463046FFF7A9
:1042A000EDFA601CC4B27E2CE8DBFFF74DF8FFF797
:1042B00069F8F8BD0075000030B47446641E2578B6
:1042C000641CAB4204D3635D5B00E31830BC184749
:1042D0001D46F8E730380A2801D201207047002037
:1042E00070470000002803D00449054A116202E02B
:1042F0000121034A116200BFFEE70000AD0B000080
:104300000080024010B50446E0B2FEF703FB10BD8A
:1043100000200149087570474060004000200149B5
:1043200008707047606000400020014908717047C4
:1043300060600040F8B504460D4616462B462246FE
:104340003A210320009601F045F9F8BDF8B504467E
:104350000D4616462B4622463A210320009601F0D0
:104360009BF9F8BD08B533200090012269461B2057
:10437000FFF7ECFF08BD08B5012269461046FFF7BC
:10438000D9FF012269460020FFF7D4FF00210091E8
:10439000012269461820FFF7D9FF40210091012230
:1043A00069461920FFF7D2FF772100910122694663
:1043B0001C20FFF7CBFF16210091012269461D202A
:1043C000FFF7C4FF00210091012269461F20FFF77B
:1043D000BDFF08BD08B5B6200090012269467E20C9
:1043E000FFF7B4FF65200449086000BF0248006879
:1043F0000028FBD108BD0000600300200021014817
:10440000417070474060004010B5002408480078B3
:10441000012806D107480068804700200449087039
:1044200000E00624012004490870204610BD000069
:104430009201002098010020D8020020F0B585B03C
:1044400006460D4600200190288805284AD170783C
:1044500000020390B078039908430390F0780402B7
:1044600030790443012C3ADB7D200001844236DAA6
:10447000374600202880012038707F1C2888401C87
:1044800028806007400F002808D02046E117490F18
:104490000918C910491CC9B2029106E02046E1176B
:1044A000490F09184905090E0291029838707F1CBE
:1044B0002888401C2880002322463846039900F0B3
:1044C00045FC00900098002804D0009802F0C2F942
:1044D000019009E0298802980818288004E0032048
:1044E000019001E003200190019805B0F0BDF0B506
:1044F00085B006460D46002001902888052849D140
:10450000707800020390B078039908430390F07824
:10451000040230790443012C39DB7D200001844200
:1045200035DA374600202880022038707F1C288822
:10453000401C28806007400F002808D02046E11763
:10454000490F0918C910491CC9B2029106E020465A
:10455000E117490F09184905090E029102983870B0
:104560007F1C2888401C288022463846039900F08A
:10457000F1FB00900098002804D0009802F06AF93E
:10458000019009E0298802980818288004E0032097
:10459000019001E003200190019805B0F0BDFEB547
:1045A00005460C46002001902088052834D1687803
:1045B00000020290A878029908430290E878060267
:1045C0002E79012E25DB7D2E23DC2F460020208036
:1045D000032038707F1C2088401C20807006000E4D
:1045E00038707F1C2088401C2080002332463846CB
:1045F000029900F0B3FB00900098002804D00098C6
:1046000002F028F9019009E020887100401820800C
:1046100004E00320019001E0032001900198FEBD19
:10462000FEB505460C46002001902088052834D1AF
:10463000687800020290A878029908430290E8780E
:10464000060228790643012E24DB7D2E22DA2F462E
:1046500000202080042038707F1C2088401C20808F
:104660007006000E38707F1C2088401C2080324667
:104670003846029900F076FF00900098002804D098
:10468000009802F0E7F8019009E0208871004018D6
:10469000208004E00320019001E0032001900198B4
:1046A000FEBDF0B587B004460D4600200290288874
:1046B0000A2863DB607800020690A0780699084318
:1046C00006900698401C80B20690E0780602207999
:1046D0000643607900020590A0790599084305908A
:1046E0000598401C80B20590E0790702207A0743C4
:1046F000607A0490012E3FDB7D2E3DDC012F3BDBF9
:10470000792F39DC79000498814235D101233A466A
:1047100020460A30059900F021FB019001980028FD
:1047200022D1039428801720039C2070039C601CD6
:1047300003902888401C28807006010E03980170A1
:104740000398401C03902888401C28800023324690
:104750000699039800F002FB01900198002803D10C
:1047600028887100401828800198002806D00198F8
:1047700002F070F8029001E003200290029807B066
:10478000F0BD000070B505460C4606480288064993
:10479000681CFBF7F1FE03480088401C20800020C5
:1047A00070BD00008C01002090090020FEB5044679
:1047B0000E46002000903088052829D16078070235
:1047C000A0780743207900281FD1E078FF2802D085
:1047D000E078002819D1002069464871E078FF2868
:1047E00002D10120087102E000206946087101230E
:1047F0001A46394601A800F0A9FA0546002D09D04D
:10480000284602F027F8009004E00320009001E021
:10481000032000900098FEBDF8B504460E46002027
:1048200000903088052811D160780702A0780743EE
:1048300001231A463946E01C00F090FA0546002D87
:1048400006D0284602F006F8009001E00320009010
:104850000098F8BDF0B585B005460E4600200190E1
:10486000308805283CDD687800020390A878039919
:1048700008430390E8780402287904436879029099
:104880006007400F002807D02046E117490F09189C
:10489000C910491CCFB205E02046E117490F09189D
:1048A00049050F0E012C18DB7B200001844214DC2B
:1048B0000298874211D101232246A81D039900F0D6
:1048C00045FA00900098002804D0009801F0C2FF3B
:1048D000019007E00520308004E00320019001E012
:1048E00003200190019805B0F0BDFEB504460E46C8
:1048F000002000903088062829DB607800020290B2
:10490000A078029908430290E078050220790543D7
:1049100060790190012D17DB782D15DC6806010EFA
:104920000198814210D101232A46A01D029900F06E
:1049300015FA0746002F04D0384601F08BFF00908F
:1049400007E00520308004E00320009001E0032010
:1049500000900098FEBD0000F8B505460C461646CE
:104960001F4600200090002C03D0012C01DBF72C07
:1049700002DD0220009037E01C480470002D20D199
:104980001B481C4908601C481C4908601C481D49FC
:1049900008601D481D49086000201D4908601D4829
:1049A0001D4908601D481E4908601E481E490860D0
:1049B0003A4631460D480078069B00F0DFF800903B
:1049C00002E00220009000BF00BF009800280BD139
:1049D00002F05EF9002802D10320009004E01348A1
:1049E00005700120124908700098F8BD9001002060
:1049F000214D0000980100203D4D00009C01002049
:104A0000814C000094010020CD4B0000A00100204B
:104A1000A4010020496D0000A8010020296F0000BA
:104A2000AC010020716E0000B00100209101002057
:104A30009201002038B5002545480078002801D0B3
:104A4000062038BD684602F011F901287DD168467C
:104A50000078002806D0012805D002281AD00328A3
:104A600072D170E070E03B4A3B493C483C4B1B68CC
:104A700098470546002D0CD1384800783949097807
:104A8000884203D035480078002802D1022002F085
:104A900007F959E030480068007833490870012070
:104AA00032490870002418E0E0003149085C002811
:104AB00000D114E0E0002E49085C2B4909788842B7
:104AC0000AD1E0002A494018224942682248006879
:104AD00090472649087002E0641C102CE4DB00BFFC
:104AE0001E48007800282CD020480078002819D0D3
:104AF0000020184908801C48007880210843154987
:104B00000A880988491C134B19801349096888547D
:104B100016480278184601880088401C18800E4804
:104B20000068425413480078012800D100BF0948AA
:104B30000288094801680B4800780F4B1B689847AA
:104B4000054601E001E000BF00BF002079E700005A
:104B500092010020420200203C020020400200207E
:104B6000A00100209001002041020020440200200A
:104B7000BC0100209101002094010020F8B50E46F0
:104B800014461F46002000903B460822214630462E
:104B900002F099F8012802D00320009011E04B2088
:104BA0000002844201D9232504E061000648FBF796
:104BB00024FD0546A8B202F091F8012801D0032097
:104BC00000900098F8BD0000A07F1700F8B50446DB
:104BD0000D46164600200090002712480088FF2846
:104BE00000DC04E0A72210A11AA0FBF787FC0D4807
:104BF0000088042813DB0B480188204801F058FF87
:104C000000280CD11D480078207006480088C01E7E
:104C100030801A48401C28600120009000E00527E1
:104C20003846F8BD8A010020536F75726365436F83
:104C300064655C467265654D6F646275735C6D6F2B
:104C4000646275735C7274755C6D627274752E63E8
:104C50000000000075735263764275666665725097
:104C60006F73203C204D425F5345525F5044555F67
:104C700053495A455F4D41580000000090080020FC
:104C8000F8B505460E461746002000901D480078EE
:104C9000012832D1701E1C49086001201B49088080
:104CA00019480068057008460088C0190880084641
:104CB00001881548006801F0FBFE0446134A10887D
:104CC000421C124B1A80124A145421121A461088A0
:104CD000421C1A800E4A115401200E49087001210D
:104CE000002001F001FF01200B4908720A20012178
:104CF00081400A4A116000BF01E005200090009841
:104D0000F8BD0000810100208401002088010020FE
:104D100090080020800100202060004000E200E0B8
:104D200010B50020044908700021012001F0DCFECC
:104D300001F034FF10BD00008101002010B50021FA
:104D4000084601F0D1FE01F01BFF10BD10B504466E
:104D5000012010BD0346012070470000FFB583B05D
:104D600005460E46069800287CD1032000028642A4
:104D700079DB01208002864275DA002410E13019C7
:104D80000321090288420BD1FC4800880004000E70
:104D900061006854F9480078610049194870FDE0E5
:104DA0003019F74988420AD1F6480088001261009C
:104DB0006854F4480078610049194870EEE03019F1
:104DC000EF49491C88420AD1EF480088001261006F
:104DD0006854ED480078610049194870DEE03019E8
:104DE000E7490A3188420BD1E84800880004000EE8
:104DF00061006854E5480078610049194870CDE0C9
:104E00003019C321890088420BD1E1480088000491
:104E1000000E61006854DE4800786100491948704E
:104E2000BCE03019D6490C3188420AD1D9480088F3
:104E3000001261006854D748007861004919487031
:104E4000ACE03019CE490D3188420DD1D2480088EE
:104E50000004000E61006854CF48007861004919D1
:104E600048709BE02FE1A0E03019C54935318842F8
:104E70000AD1CA480088001261006854C748007807
:104E800061004919487089E03019BD4936318842BE
:104E90000AD1C3480088001261006854C0480078F5
:104EA00061004919487079E03019B5493D318842AF
:104EB0000AD1BC480088001261006854B9480078E3
:104EC00061004919487069E03019AD493E318842A6
:104ED0000ED1B549098888B2B34909880904090E79
:104EE0006200A954B049097862005219517055E026
:104EF00030190D21890188420ED1AC49098888B248
:104F0000AA4909880904090E6200A954A749097829
:104F100062005219517041E030199949403188427C
:104F200009D1A349098888B201126200A95462001C
:104F30005219507032E0301991494131884209D1FB
:104F40009B490968080C01126200A95462005219B9
:104F5000507023E030198A494231884209D195497D
:104F6000098888B201126200A95462005219507077
:104F700014E03019D1218900884209D18D4909688E
:104F8000080C01126200A95462005219507005E029
:104F9000002061006854610049194870601CC4B267
:104FA0000598844200DAEAE68DE00120800286421C
:104FB0002ADB05200002864226DA002420E0301990
:104FC0007D49884214DC01208002301A001940001B
:104FD0007A49085A00126100685401208002301A90
:104FE000001940007549085C61004919487005E0E6
:104FF000002061006854610049194870601CC4B207
:1050000005988442DBDB5EE00520000286422BDB54
:1050100003204002864227DA002421E03019664945
:10502000F231884214DC05200002301A00194000D9
:105030006349085A00126100685405200002301AC2
:10504000001940005E49085C61004919487005E09C
:10505000002061006854610049194870601CC4B2A6
:1050600005988442DADB2EE00320400286422ADBE8
:105070000D20C001864226DA002421E030190D21DE
:10508000C901884214DA301903214902401A40004C
:10509000401C4C49085C61006854301903214902E6
:1050A000401A40004749085C61004919487005E012
:1050B000002061006854610049194870601CC4B246
:1050C00005988442DADB069801287FD1032000028C
:1050D00086427CDBE1208000864278DC002416E1F9
:1050E000301903210902884219D03019491C88421D
:1050F000FAD0301922493531884211D160002F5C35
:105100003F02600040194078C01987B22D490F71E5
:10511000381248712148078001202B490870F4E0BB
:10512000301917493631884211D160002F5C3F0297
:10513000600040194078C01987B222498F71381237
:10514000C8711748078001201F490870DDE0301939
:105150000B493D3188423BD160002F5C3F0260002B
:1051600040194078C01987B216498F723812C87238
:105170000C480780012014490870C6E03403002061
:1051800001030000B60200207E0400203C03002042
:10519000E0020020E2020020400300206002002024
:1051A0006202002084040020880400208C04002077
:1051B00090040020940400204D0400000C0F0020F7
:1051C000A80F0020E01200206E030020A6E1A3E05B
:1051D0003019D449884211D160002F5C3F02600031
:1051E00040194078C01987B2CF490F7338124873FD
:1051F000CE4807600120CE49087086E030190D21A5
:105200008901884211D160002F5C3F026000401983
:105210004078C01987B2C4490F7438124874C54821
:1052200007600120C24908706FE03019BD49891C30
:10523000884215D161006F5C3F02610049194978CD
:10524000C9198FB2B84A177539125175BA49086829
:10525000000C0004C01908600121B54A117054E027
:105260003019B049C91C884217D161006F5C3F02F8
:10527000610049194978C9198FB2AB4A977539123B
:10528000D17538460004AC49098889B20818AA4982
:1052900008600121A64A117037E03019A149091DA3
:1052A000884215D161006F5C3F026100491949785D
:1052B000C9198FB29C4A1776391251769F490868EE
:1052C000000C0004C01908600121994A11701CE00B
:1052D0003019D1218900884217D161006F5C3F02EB
:1052E000610049194978C9198FB28F4A97763912E6
:1052F000D176384600049149098889B208188F4947
:10530000086001218A4A117000BF601CC4B2059870
:10531000844200DAE4E600E10120800286427CDB80
:105320008748864279DC002428E030198449884285
:1053300022DC311988B202A9FEF7D6FC01281BD164
:105340006846007A062803DB6846007A102813DDD9
:1053500060002F5C3F02600040194078C01987B29E
:10536000301901218902401A400076490F5239460E
:105370006846007AFEF7BCFA601CC4B20598844205
:10538000D3DB6F48213886420FDC059830186C4912
:105390002139884209DD6B484030008B0B2804D14D
:1053A00001206949087069490870654821388642BA
:1053B00031DC059830186249213988422BDD61487B
:1053C0004030008B0C2826D1FEF75CFDFEF708FD6F
:1053D000002001903F2000015D4B5E4A5E49009035
:1053E0001020FDF78DFE80B20190FEF709FAFEF75E
:1053F000C9F97E200199FEF741FAFDF7A5FFFDF7F7
:10540000C1FF7E215548017754491C3101984880DD
:1054100053490198C88780E0FFE7052000028642D3
:105420004CDB4748F230864248DC002442E0301929
:105430004349F23188423BDC311988B202A9FEF7B8
:1054400053FC012834D16846007A20281BD06846D6
:10545000007A242817D06846007A2A2813D0684694
:10546000007A30280FD06846007A32280BD0684680
:10547000007A342807D06846007A382803D0684676
:10548000007A3C2814D160002F5C3F026000401974
:105490004078C01987B2301905210902401A40002E
:1054A0002F4940390F5239466846007AFEF7E6F92F
:1054B000601CC4B205988442B9DB2EE00320400290
:1054C00086422ADB0D20C001864226DA002421E034
:1054D00030190D21C90188421ADA60002F5C3F02A1
:1054E000600040194078C01987B230190322520277
:1054F000801A40000C4A1754391230190322520204
:10550000801A4000401C084A1154012008490870C4
:10551000601CC4B205988442DADB00BF002007B0EB
:10552000F0BD00003F030000E012002088040020CE
:105530006E0300208C0400209004002094040020BE
:105540004D0400000C0F0020A8020020480200209B
:1055500028100020FFFF000005800000C01200207E
:10556000E80F002070B5034600207D25ED00A9421C
:1055700018DB8D18FB26B600B54213DC0A4D2D88CA
:105580004C1B0CE06500094E755B2D121D705B1CF9
:105590006500755D1D705B1C641C551EAAB2002A57
:1055A000F0DC00E0012070BDCC020020CE02002023
:1055B00001460020C043704770B504460D46E0B276
:1055C000FDF7A8F90A2C02D10D20FDF7A3F920461A
:1055D00070BD0000FFB581B01E46002400250027E5
:1055E0000A98012801DB002E02D1012005B0F0BD90
:1055F00028480078002816D1019800F0D1FC0298C4
:105600004006010E019800F095FB0546002D01DDD6
:10561000601CC4B20399019800F08CFB0546002D74
:1056200001DD601CC4B2019800F0BAFC0298400091
:10563000401CC1B2019800F07DFB0546002D01DD44
:10564000601CC4B21420FEF709FB0A98012811DD82
:1056500000270BE0F1190122019800F005FA054638
:10566000002D01DD601CC4B2781CC7B20A98401E30
:10567000B842EFDCF1190022019800F0F5F9054677
:10568000002D01DD601CC4B2019800F0D0FC204662
:10569000ACE7000064030020FFB581B01E46002483
:1056A00000270A98012801DB002E02D1012005B055
:1056B000F0BD019800F074FC02984006010E0198BC
:1056C00000F038FB0746002F01DD601CC4B20399CF
:1056D000019800F02FFB0746002F01DD601CC4B2CB
:1056E00000250AE0715D019800F024FB0746002FB9
:1056F00001DD601CC4B2681CC5B20A988542F1DBAA
:10570000019800F094FC2046D1E7704710B50120C5
:1057100002490870FCF752FB10BD00001D0100207B
:1057200010B5012002490870FCF748FB10BD0000CD
:105730001C01002010B556480088022108400228AC
:1057400007D154480088002803D00220FFF7DDFF6E
:105750009AE04F480088C007C00F002807D04D4886
:105760000088002803D00520FFF7CFFF8CE04A48CF
:105770000078C007C00F002818D0464800880028CD
:105780000FD04648006800784549087243480068D1
:10579000401C424908603F480088401E3D4908803F
:1057A00072E0FCF71DFBFFF7BBFF6DE03A480078A5
:1057B00004210840002832D135482030808801215A
:1057C00008433349203188803148008B8004800CA5
:1057D0002F4908830846008B0121890308432C497F
:1057E00008832B4820304088012108432849203174
:1057F000488029480078042108432749087029482F
:105800000088012807D122482030408926490840D5
:105810001F4920314881FF202149087234E0234884
:1058200000882049098888422EDA1D48007A2049DC
:10583000096808701E480068401C1D4908601B4824
:105840000088401C1949088016480088401E0988B5
:1058500088420BD10E4820304089134908400C493A
:1058600020314881FF200E4908720DE00F48008862
:105870000C490988884204D1FCF7B2FAFFF746FFC9
:1058800002E0FF200649087200200A49087710BD8F
:1058900040150440E8000020E0000020E400002063
:1058A00040170440F2000020FEFF0000F00000203E
:1058B000EC000020006000407047000010B501209F
:1058C00002490870FCF7C2FA10BD00001F01002059
:1058D00010B5012002490870FCF7B8FA10BD0000AD
:1058E0001E01002010B556484088022108400228B9
:1058F00007D154480088002803D00220FFF7DCFFBE
:105900009AE04F484088C007C00F002807D04D4894
:105910000088002803D00520FFF7CEFF8CE04A481E
:105920000078C007C00F002818D04648008800281B
:105930000FD046480068007845498872434800689F
:10594000401C424908603F480088401E3D4908808D
:1059500072E0FCF78FFAFFF7BBFF6DE03A48007882
:1059600004210840002832D13548203080880221A7
:1059700008433349203188803148408B8004800CB3
:105980002F4948830846408B0121890308432C494D
:1059900048832B4820304088022108432849203181
:1059A000488029480078042108432749087029487D
:1059B0000088012807D12248203040892649084024
:1059C0001F4920314881FF202149887234E0234853
:1059D00000882049098888422EDA1D48807A2049AB
:1059E000096808701E480068401C1D4908601B4873
:1059F0000088401C1949088016480088401E098804
:105A000088420BD10E4820304089134908400C4988
:105A100020314881FF200E4988720DE00F48008830
:105A20000C490988884204D1FCF724FAFFF746FFA5
:105A300002E0FF200649887200200A49087010BD64
:105A400040150440FC000020F4000020F800002075
:105A50004017044006010020FDFF00000401002063
:105A6000000100202060004070B504460D46164637
:105A7000012C71D10020AD490870FDF7CFFF142033
:105A8000FEF7ECF8FEF70EF80020A949087027E0B1
:105A9000A64800784006000EA44908700120FDF7D2
:105AA000BDFF1420FEF7DAF8FEF70AF8012805D149
:105AB0009E480078401C9D49087003E09B48007890
:105AC0009A4908703220FEF7C9F80020FDF7A6FFBA
:105AD0001420FEF7C3F896480078401C94490870DB
