:020000040000FA
:10000000582F002021020000290200002B020000CE
:1000100000000000000000000000000000000000E0
:100020000000000000000000000000004912000075
:100030000000000000000000A70100004D120000B9
:10004000A50C0000B90C0000D90C0000F90C000050
:10005000190D0000390D0000590D0000790D000048
:100060008D0D0000A10D0000C50D0000D90D000090
:10007000ED0D0000110E0000250E0000390E0000ED
:100080005D0E00007D0E0000910E0000A50E000028
:10009000B90E0000CD0E0000E10E0000050F0000BB
:1000A000290F0000490F00006D0F0000810F0000B4
:1000B000950F0000A90F0000BD0F0000D10F000038
:1000C000EF3FE9FF00F002F800F042F80CA030C862
:1000D000083824182D18A246671EAB4654465D46C4
:1000E000AC4201D100F034F87E460F3E0FCCB6464C
:1000F0000126334200D0FB1AA246AB4633431847D1
:1001000054580000745800000023002400250026E5
:10011000103A01D378C1FBD8520700D330C100D5C3
:100120000B60704710B5642902D100F017F910BDBB
:10013000782902D100F048F910BD732902D100F0EE
:100140008FFB10BD002010BD1FB51FBD10B510BD29
:1001500000F0CAFB1146FFF7F7FF03F0C9F900F002
:10016000E2FB03B4FFF7F2FF03BC02F0FDFE000068
:10017000084B19680868203080F30988022080F352
:100180001488BFF36F8F3FBCAE4608BC04BC62B698
:10019000184700001C000020EFF3108072B6704773
:1001A00080F310887047EFF309800E4B1A682038EF
:1001B0001060F0C044464D4656465F46F0C008B554
:1001C00072B604F063FC62B60CBC116808681030AB
:1001D000F0C8A046A946B246BB4680F3098820383D
:1001E000F0C818471C00002070B505460C4616469E
:1001F00002E00FCC0FC5103E102EFAD2082E02D30B
:1002000003CC03C5083E042E07D301CC01C5361F1D
:1002100003E021782970641C6D1C761EF9D270BD34
:100220001948804719480047FEE7FEE7FEE7FEE76A
:10023000FEE7FEE7FEE7FEE7FEE7FEE7FEE7FEE796
:10024000FEE7FEE7FEE7FEE7FEE7FEE7FEE7FEE786
:10025000FEE7FEE7FEE7FEE7FEE7FEE7FEE7FEE776
:10026000FEE7FEE7FEE7FEE7FEE7FEE7FEE7FEE766
:10027000FEE7FEE7FEE7FEE7FEE70000044805496B
:10028000054A064B70470000CD120000C500000073
:10029000582A0020582F0020582B0020582B0020CF
:1002A0000FB4054910B503AA029800F0DDFA10BC9E
:1002B00008BC04B0184700000000002070B50446D8
:1002C00085690068C10601D5302600E02026C007F8
:1002D00007D070BD62683046A1689047206A401C14
:1002E00020626D1EF6D570BD70B504468569007834
:1002F000C00707D170BD6268A16820209047206ABE
:10030000401C20626D1EF6D570BD70B50C460546CA
:10031000012A05D02878800600D5EA69002302E08A
:10032000012305E05B1C934202D2E05C0028F9D176
:10033000A869E618C01AA861286AC0182862284669
:10034000FFF7BCFF04E06A682078A968641C904746
:10035000B442F8D32846FFF7C7FF70BDF7B50025B4
:1003600075291068009914A611D0C046C04600280F
:1003700002DA404211A608E0009909688A0701D50F
:100380000FA602E0490704D50EA6012501E0C046EC
:10039000C046009F0024243704E000F079FA303191
:1003A0003955641C0028F8D12B4632462146009866
:1003B00000F0EBF9FEBD0000000000002D00000081
:1003C0002B0000002000000070B504460D462146B9
:1003D0001068C046C0462188090502D50F4A7A44F4
:1003E00002E00E4A7A440E3223460021243305E00F
:1003F00006070009360F965D5E54491C0028F7D1A8
:1004000020780023000705D5702D03D0002901D0E6
:1004100002231132204600F0B8F970BDAC54000040
:10042000F3B50446002081B020622046E168884789
:10043000002872D0252802D06268A168ABE0594F2D
:1004400000267F442046E16888472028054608DBCF
:10045000312D06D2781920380078002801D00643C3
:10046000F0E7B00701D5042086430020E06107468D
:10047000A0612A2D0AD0284602F06EFD002827D060
:10048000B8000019303D0090856119E00298BA006B
:10049000121902C8916102902046E1688847012F35
:1004A000054617D1E06900281FDA202086431CE0AA
:1004B00000980A21806948430099401930388861C2
:1004C0002046E1688847054602F046FD0028EFD146
:1004D000012F0AD02E2D08D12046E1688847054615
:1004E000202006437F1C022FC3DBA069002803DA0B
:1004F0004042A06101200643F00701D0102086434E
:100500006C2D0BD0682D09D04C2D3CD06A2D38D0E5
:10051000742D38D07A2D36D016E040E0E1682F46B1
:1005200020468847B842054609D16C2F29D00120C2
:100530008002E168064320468847054604E06C2FA8
:100540001DD0FF2001300643002D28D02846413819
:10055000192803D80120C002064320352046266012
:100560002946029A1646FFF7DDFD002810D0012823
:100570000BD0F61DF008C0000830029055E740206F
:10058000E1E78020D5E70020D3E7361D02964CE74F
:1005900062682846A1689047206A401C44E7206AA8
:1005A000FEBD000070540000F8B5042A2CD3830768
:1005B00012D00B78491C0370401C521E83070BD0CD
:1005C0000B78491C0370401C521E830704D00B7823
:1005D000491C0370401C521E8B079B0F05D0C91A83
:1005E000DF002023DE1B08C90AE0FFF7FDFDF8BD90
:1005F0001D4608C9FD401C46B4402C4310C0121FC4
:10060000042AF5D2F308C91A521EF0D40B78491CFB
:100610000370401C521EEAD40B78491C0370401C26
:10062000012AE4D409780170F8BD002203098B4245
:100630002CD3030A8B4211D300239C464EE0034681
:100640000B433CD4002243088B4231D303098B4235
:100650001CD3030A8B4201D394463FE0C3098B426B
:1006600001D3CB01C01A524183098B4201D38B01C4
:10067000C01A524143098B4201D34B01C01A524167
:1006800003098B4201D30B01C01A5241C3088B42AC
:1006900001D3CB00C01A524183088B4201D38B0097
:1006A000C01A524143088B4201D34B00C01A524139
:1006B000411A00D201465241104670475DE0CA0F10
:1006C00000D04942031000D34042534000229C46D0
:1006D00003098B422DD3030A8B4212D3FC228901DA
:1006E00012BA030A8B420CD3890192118B4208D3B0
:1006F000890192118B4204D389013AD0921100E012
:100700008909C3098B4201D3CB01C01A5241830925
:100710008B4201D38B01C01A524143098B4201D352
:100720004B01C01A524103098B4201D30B01C01A7D
:100730005241C3088B4201D3CB00C01A52418308F7
:100740008B4201D38B00C01A5241D9D243088B424D
:1007500001D34B00C01A5241411A00D201466346F0
:1007600052415B10104601D34042002B00D5494254
:10077000704763465B1000D3404201B50020C0467D
:10078000C04602BD704770477047FFB504460D462E
:1007900081B0243000902168880604D51022E069D9
:1007A0009143216000E00120A84201DD471B00E0E9
:1007B00000270498A1697A191018081AA0612078F6
:1007C000C00602D42046FFF779FD002608E0039812
:1007D0006268A168805D9047206A401C761C206298
:1007E00004988642F3DB2078C0060AD52046FFF73E
:1007F00065FD06E06268A16830209047206A401CD1
:10080000206238467F1E0028F4DC07E0009862680A
:10081000A168405D9047206A401C206228466D1EFA
:100820000028F3DC2046FFF75FFD2078000602D5A4
:10083000022005B0F0BD0120FBE710B54369002B95
:1008400002D0C046C04601E0FFF75FFD012010BDA9
:100850001278014624310A7000224A700122ECE726
:1008600011680022D243E8E7084B70B50D467B447F
:1008700000F027F80446284602F09EFB002802D02C
:100880000020C04370BD204670BD00005B27000003
:1008900001468008081A02091018020A1018020CF2
:1008A0001018C008820012185200891A01E0401C7A
:1008B0000A390A29FBD2704701694A1C026108788B
:1008C000704700B58FB00291002105910549019351
:1008D00079440391114604906846FFF7A1FD0FB0DB
:1008E00000BD0000E5FFFFFF754600F023F8AE46AF
:1008F000050069465346C008C000854618B020B5BB
:10090000FFF7BCFC60BC00274908B6460026C0C5FE
:10091000C0C5C0C5C0C5C0C5C0C5C0C5C0C5403DB7
:1009200049008D4670470446C046C0462046FFF742
:1009300018FC000000487047F829002070B58C189A
:100940000578401C6B075B0F01D10378401C2A110E
:1009500006D10278401C03E00678401C0E70491C4A
:100960005B1EF9D12B0705D40023521E0DD40B704A
:10097000491CFAE70378401CCB1A921C03E01D784F
:100980000D70491C5B1C521EF9D5A142D8D3002022
:1009900070BD000000210148417070472460004094
:1009A00000210148417070475C600040002101480F
:1009B00041707047646000400021014841707047F9
:1009C0006060004000B5C0229178F82211401C4AB6
:1009D000127811431B48EA2923D00ADC0A46E03A80
:1009E000130002F0ABFA0A181C20242A2A2A2A161D
:1009F0001A2AED291FD004DCEB2916D0EC291CD1D2
:100A000017E0F02903D0F82917D10F4815E00F4857
:100A100013E00D4811E00E480FE00E480DE00E48BF
:100A20000BE00E4809E00E4807E00E4805E00E48CE
:100A300003E00E4801E0034800BF00BF00BD000016
:100A4000201C024040420F000048E801006CDC021C
:100A500000366E010024F400001BB70000127A007B
:100A6000808D5B0000093D00C0C62D0080841E0003
:100A70000548407C802188430349487400BF00BF7B
:100A800000BF00BF00BF7047201A044038480078FC
:100A900010210843364908700020364908740121A6
:100AA00035480170002035490870324948744B20A0
:100AB00088745320C8740846407C012108432D499E
:100AC0004874982008752E48807C022108432C49E0
:100AD00088740846807C0121084329498874254888
:100AE000007C08210843234908740846007C04213F
:100AF0000843204908740846007C802108431D49AA
:100B000008740846007C402108431A4908740021F3
:100B10001948017000BF1B48C07D04218843194952
:100B2000C8751948807940084000174988711648EF
:100B3000203080794008400013492031887100BF7F
:100B400000BF1048C07D042188430E49C8750E4877
:100B50008079022188430C4988710B4820308079C4
:100B60000221884308492031887100BF7047000086
:100B700020040240201A04404061004040600040D0
:100B8000401B0440600804400003044070B5044664
:100B900000200126194D2E70194DAD7C40263540A0
:100BA000002D04D00026154D2E70822025E0154D15
:100BB0002D7C02263543134E357400260F4D2E70C2
:100BC00000BF1D465E1EF3B2002DFAD10C4D6D7CA8
:100BD00002263540002D00D183200B4D2A800025B0
:100BE0000A4E35800A4D296000250A4E35700A4E9E
:100BF000357001252C43024D2C7470BD40610040BE
:100C0000401B0440201A0440100000201200002065
:100C10000C0000201B0000200800002070B50446D6
:100C200000200126184D2E70184DAD7C4026354011
:100C3000002D04D00026144D2E70822022E0144D89
:100C40002D7C02263543124E357400260E4D2E7033
:100C500000BF1D465E1EF3B2002DFAD10B4D6D7C18
:100C600002263540002D00D183200A4D2A800A4DEE
:100C700029600025094E3570094E3570FE252C403F
:100C8000024D2C7470BD000040610040401B0440C8
:100C9000201A044018000020140000201A00002030
:100CA0000800002010B503480078002801D002F0A9
:100CB00019FC10BD0060004010B5064800790028FE
:100CC00001D002F0BBFB03484079002801D002F0BC
:100CD000E5FB10BD0060004010B50648007A002812
:100CE00001D002F0BDFB0348407A002801D002F099
:100CF000DBFB10BD0060004010B50648007B0028FB
:100D000001D002F0B3FB0348407B002801D002F081
:100D1000D1FB10BD0060004010B50648007C0028E3
:100D200001D002F0A9FB0348407C002801D002F06A
:100D3000C7FB10BD0060004010B50648007D0028CC
:100D400001D002F09FFB0348407D002801D002F053
:100D50007BFB10BD0060004010B50648007E0028F7
:100D600001D002F095FB0348407E002801D002F03C
:100D700071FB10BD0060004010B50348007F0028E3
:100D800001D003F01FFC10BD0060004010B5034807
:100D90000078002801D003F0DFFB10BD2060004088
:100DA00010B507480079002801D003F0CBFA0448B9
:100DB000001D4078002801D0FFF7ECFD10BD0000B9
:100DC0002060004010B50348007A002801D003F0ED
:100DD00039FB10BD2060004010B50348007B00289F
:100DE00001D003F0F9FA10BD2060004010B50748AB
:100DF000007C002801D003F099FA044810304078B4
:100E0000002801D003F0A4FA10BD000020600040CB
:100E100010B50348007D002801D003F073FB10BD1E
:100E20002060004010B50348007E002801D003F088
:100E300033FB10BD2060004010B50748007F00283C
:100E400001D003F079FA04481C304078002801D022
:100E500003F084FA10BD00002060004010B5064881
:100E60000078002801D002F005F9034840780028F6
:100E700001D002F09BF810BD4060004010B503485F
:100E80000079002801D003F06FFA10BD40600040E7
:100E900010B50348007A002801D003F06BFA10BDAA
:100EA0004060004010B50348007B002801D003F0EB
:100EB00067FA10BD4060004010B50348007C002870
:100EC00001D003F063FA10BD4060004010B5034844
:100ED000007D002801D002F057F810BD40600040AE
:100EE00010B50748007E002801D003F019FA044825
:100EF00018304078002801D002F0E8FA10BD000058
:100F00004060004010B50748007F002801D002F083
:100F1000E3FA04481C304078002801D0FFF740FD78
:100F200010BD00004060004010B506480078002861
:100F300001D002F02FF803484078002801D0FFF7D5
:100F40003BFD10BD6060004010B5074800790028E7
:100F500001D002F025F80448001D4078002801D097
:100F6000FFF724FD10BD00006060004010B503488D
:100F7000007A002801D003F00FFA10BD6060004035
:100F800010B50348007B002801D003F017FA10BD0C
:100F90006060004010B50348007C002801D003F0D9
:100FA00013FA10BD6060004010B50348007D0028B2
:100FB00001D003F0F7F910BD6060004010B50348A0
:100FC000007E002801D003F0F3F910BD60600040FE
:100FD00010B50348007F002801D001F0F1FF10BDDB
:100FE0006060004010B500F069F900F067F900207A
:100FF0000149086010BD000098000020C206D20E12
:1010000001219140014A11607047000080E200E038
:10101000C206D20E01219140014A116070470000C2
:1010200080E200E0C206D20E01219140014A116027
:101030007047000000E100E010B5002819DA1A4AF4
:1010400003071B0F083B9B089B00D2588307DC0E4D
:10105000FF23A3409A438B071B0E8407E40EA34093
:101060001A43114B0407240F083CA408A4001A518A
:1010700018E00E4A03231B02D21883089B00D258A3
:101080008307DC0EFF23A3409A438B071B0E8407C4
:10109000E40EA3401A43054B032424021B198408C1
:1010A000A4001A5110BD00001CED00E000E100E0BA
:1010B000F0B50C4615460123A340D9B22A462B00B1
:1010C00001F03CFF06042C54787E9EBD5D4B1B5CFA
:1010D0008B435C4E33545B4B603B192676019B1966
:1010E0001B5C0B43574E603E19277F01F6193354A2
:1010F000544B203B1B5C8B43524E203E3354514B90
:10110000103B1B5C8B434F4E103E33544D4B303BDA
:101110001B5C8B434B4E303E335490E0494B1B5C81
:101120008B43484E3354474B603B192676019B193D
:101130001B5C0B43434E603E19277F01F619335465
:10114000404B203B1B5C8B433E4E203E33543D4B7B
:10115000103B1B5C8B433B4E103E3354394B303BB2
:101160001B5C0B43374E303E335468E0354B1B5C01
:101170008B43344E3354334B603B192676019B1915
:101180001B5C0B432F4E603E19277F01F619335429
:101190002C4B203B1E5C0E431E542A4B103B1E5C06
:1011A0008E431E54274B303B1B5C8B43254E303EF9
:1011B000335444E0234B1B5C0B43224E33543EE03C
:1011C000204B1E5C8E431E541E4B603B192676013D
:1011D0009B191B5C8B431B4E603E19277F01F61940
:1011E0003354184B203B1B5C8B43164E203E33542C
:1011F000144B103B1B5C8B43124E103E33541EE0CD
:10120000104B1B5C8B430F4E33540E4B603B192627
:1012100076019B191B5C8B430A4E603E19277F01A8
:10122000F6193354074B203B1B5C8B43054E203E85
:101230003354044B103B1E5C0E431E5400BF00BFD2
:10124000F0BD0000600004407047000010B5FEF7DC
:10125000A3FF044604F092F8002803D00120000701
:10126000034948602046FEF79BFF00F003F810BDDD
:1012700000ED00E00D480068401C0C4908600120AA
:101280000B4908700B480068002804D00948006822
:10129000401E0849086008480068002804D0064835
:1012A0000068401E04490860704700009800002054
:1012B00094000020AC000020BC00002010B5FFF717
:1012C00081FB0149086010BD4401002010B5802059
:1012D0001B4948711A201A49203908722B2048727C
:1012E0003C2088724D20C872002016494860FFF7E4
:1012F00069FB154908600020C0431449086014497F
:101300000860144814490860114903221202891820
:1013100048600F49891888600D498918C8600C49D0
:10132000891808610A49891848610949891888613A
:1013300007498918C861AC200849487010BD0000F1
:101340002004024000B001404401002080E200E09F
:1013500000E100E0C0C0C0C000E400E000100240B6
:10136000F8B505460E466A463146284600F0B0FA02
:101370000446002C1FD10320104988800846C088ED
:1013800000090001C8800846C088694609780843FA
:101390000A49C880684640784006000C084908821F
:1013A000684640784006000C488204484088032183
:1013B0000843024948802046F8BD0000201104403F
:1013C0000013044070B505460E463D4800780421E0
:1013D00008433B49087003203A49C8802220394914
:1013E000203908823848088367204002374908823C
:1013F0003748007C012108433549087407203149EA
:1014000020394881FF2023304882324848836720B2
:1014100040022E4948822B4800890121084329496E
:1014200008810846808A2C49084026498882084657
:101430004089012108432349488100BF2748007F94
:10144000202108432549087725484078042108438E
:10145000234948702248203040780421884320499D
:10146000203148701F48407C042188431D4948743E
:101470001C4820304078042188431A4920314870A4
:1014800000BF00BF1548007F20210843134908779B
:101490001348203040780221084311492031487018
:1014A000104820304078022188430E49203148708E
:1014B00000BF31462846FFF753FF0446204670BD63
:1014C00020040240201104409780000000130440D3
:1014D0006004044097400000FEFF000060080440E4
:1014E00000030440400004400449087400BF04495C
:1014F0000988602211400029F9D170470013044087
:1015000000110440F8B505460E466A4631462846A5
:1015100000F0DEF90446002C16D10C200B4988801F
:1015200068460078C880684640784006000C084944
:101530008880684640784006000CC8800348408890
:101540000C210843014948802046F8BD2011044081
:101550004013044070B505460E463F48007804210C
:1015600008433D4908703D4880880C2108433B49A9
:10157000888001213A4801750176017700203949B8
:101580000875087608772220344920398882364841
:10159000888367204002354988803548007C0421D3
:1015A00008433349087407202C492039C881FF209B
:1015B0002330C8822F48C883672040022B49C88047
:1015C0002648008904210843244908810846808A66
:1015D0002949084021498882084640890421084356
:1015E0001E49488100BF254800780421084323494B
:1015F0000870224820300078042188431F49203198
:1016000008701F48007C042188431D4908741C4849
:10161000203000780421884319492031087000BF28
:1016200000BF1648203000780821084313492031B4
:101630000870134820300078082188431049203171
:10164000087000BF31462846FFF75CFF044600F0F3
:1016500019F8204670BD000020040240201104400B
:10166000206100402060004097800000401304404B
:101670006004044097400000FBFF000000030440AA
:101680004000044010B510480089042108430E4969
:10169000088108464089042108430B4948810846CF
:1016A00040880C21084308494880002007490875F4
:1016B00008760D20FFF7A2FC0E20FFF79FFC00210B
:1016C00003480175017610BD2011044020600040E0
:1016D00020610040F8B505460E466A463146284668
:1016E00000F0F6F80446002C16D103200B49888040
:1016F00068460078C880684640784006000C084973
:101700000881684640784006000C488103484088BC
:1017100003210843014948802046F8BD6015044074
:101720004017044070B505460E464748007808212A
:1017300008434549087045488088032108434349C8
:1017400088800121424801774148203001700171B1
:101750000020404908773F49203108700871222055
:101760003A49203908823C480883672040023B49B7
:1017700008813B48007C1021084339490874072040
:10178000324920394881FF20233048823548488338
:1017900067204002314948812C48008901210843D3
:1017A0002A4908810846808A2F49084027498882AB
:1017B00008464089012108432449488100BF2B483D
:1017C000C07D022188432949C875294840780821ED
:1017D000084327494870264820304078082188432C
:1017E0002349203148702348407C082188432149FF
:1017F0004874204820304078082188431D49203112
:10180000487000BF00BF1948C07D022188431749B6
:10181000C8751748203040781021084314492031FA
:1018200048701448203040781021884311492031F5
:10183000487000BF31462846FFF74CFF044600F0D1
:101840001BF8204670BD00002004024060150440D3
:101850000061004000600040978000004017044095
:101860006004044097400000FEFF00006008044050
:10187000000304404000044010B5124800890121D3
:1018800008431049088108464089012108430D4951
:10189000488108464088032108430A4948800020BF
:1018A000094908770849203108700720FFF7A6FB8F
:1018B0000820FFF7A3FB00210448017703482030EC
:1018C000017010BD601504400060004000610040E0
:1018D000F7B58AB016466424002003900290019068
:1018E0000B980002059005990A98FEF79EFE401C91
:1018F000049002E00398401C039001200399884063
:1019000004998842F6D3039D3EE06800274A115AA5
:101910000A98FEF78AFE0690022732E0791C0698A4
:10192000FEF783FE410807917D22D20007995143BB
:1019300008460B99FEF779FE7D21C900401A0A215D
:10194000484308900898211E01DB0A4600E04A42FD
:10195000002801DB034600E043429A4202DD089C76
:1019600001970295201E01DB014600E04142142947
:1019700006DA357077700020099009980DB0F0BD37
:101980007F1C802FCAD36D1C102DBED3201E01DBFF
:10199000014600E04142142903DB029830700198AF
:1019A0007070002009900998E8E700004058000096
:1019B0000021017041708170C170002284210A549D
:1019C00085210A5486210A547047000000B5054855
:1019D000FFF7EEFF0448FFF7EBFF0448FFF7E8FFCF
:1019E00000BD0000A0260020A7270020AE28002070
:1019F0001CB500BF13A0FEF753FC00BF00BF124888
:101A0000016812A0FEF74CFC00BF15481549096893
:101A1000009101901448802203680B480168134824
:101A200003F01EFC0446012C05D100BF214610A086
:101A3000FEF736FC05E000BF214613A0FEF730FCA0
:101A400000BF1CBD0A000000885800004372656199
:101A50007465205461736B3A2025733B00000000CD
:101A60003C01002038010020340100203921000011
:101A700009437265617465204F4B2C2072746E208F
:101A80003D2025643B0A00000943726561746520AE
:101A90004E472C2072746E203D2025643B0A0000C6
:101AA00010B5012200210720FFF702FB04220121CB
:101AB0000720FFF7FDFA042202210720FFF7F8FABA
:101AC00000200149086010BDAC000020F8B50446B4
:101AD0000D4616461F4614232A462146D820FFF7F6
:101AE0009DF8009000BF164800780028FBD0142312
:101AF0003A463146D920FFF749F8009000BF114817
:101B000000780028FBD000BF7D21C9000E48006886
:101B100003F0ABFA01280AD10CA0FEF7C1FB0023A9
:101B20001A4619460848006803F0F1F805E00BA0D2
:101B3000FEF7B6FB05A0FEF7B3FB00BF0020F8BD23
:101B40001A0000201B000020C00000200D0A4932AE
:101B5000435F4163636573733B0000000A45727223
:101B60003A207853656D6170686F726554616B657A
:101B700028293A200000000010B5FEF787FF00205A
:101B800010BD000010B500BF7D21C9000D480068E0
:101B900003F06BFA01280AD10BA0FEF781FB0023AA
:101BA0001A4619460748006803F0B1F805E00CA092
:101BB000FEF776FB04A0FEF773FB00BF00F01EF8F3
:101BC000002010BDC00000200A5573725F493243E7
:101BD0005F4D61696E4C6F6F7028293B00000000FB
:101BE0000A4572723A207853656D6170686F72654C
:101BF00054616B6528293A200000000010B5382098
:101C00003F49087002233F4A01213D48FFF75EFF2C
:101C100000BF7D21C9003C48006803F026FA012876
:101C20000DD138484278017838A0FEF739FB0023FF
:101C30001A4619463448006803F069F808E03BA0EA
:101C4000FEF72EFB2F484278017830A0FEF728FBE4
:101C500000BF50202A49087002232A4A012128483F
:101C6000FFF734FF00BF7D21C9002748006803F05B
:101C7000FCF901280DD123484278017832A0FEF703
:101C80000FFB00231A4619461F48006803F03FF86F
:101C900008E026A0FEF704FB1A48427801782AA043
:101CA000FEF7FEFA00BF5120154908700223154ABD
:101CB00001211348FFF70AFF00BF7D21C900124828
:101CC000006803F0D2F901280DD10E48427801785E
:101CD0001DA0FEF7E5FA00231A4619460A480068D7
:101CE00003F015F808E011A0FEF7DAFA054842788B
:101CF000017815A0FEF7D4FA00BF002010BD000047
:101D00002D010020D5290020C00000200A43686969
:101D1000702056657273696F6E203A2030782530D6
:101D200032582C3078253032582C00000A45727217
:101D30003A207853656D6170686F726554616B65A8
:101D400028293A20000000000A53657269616C4E30
:101D5000756D626572303A203078253032582C30FB
:101D600078253032582C00001CB5002400BF9AA002
:101D7000FEF796FA00BF00BF9DA0FEF791FA00BFE4
:101D800000209C490860012002F0DCFE99490860AF
:101D900008460068002804D000BF97A0FEF780FA2C
:101DA00004E000BF9CA0FEF77BFA00BF00BF90A03C
:101DB000FEF776FA00BF00222021082002F0D1FEB3
:101DC0009E49086008460068002804D000BF9CA017
:101DD000FEF766FA04E000BF9EA0FEF761FA00BFBE
:101DE00000222021082002F0BCFEA149086093488F
:101DF0000068002804D000BF91A0FEF751FA04E06B
:101E000000BF94A0FEF74CFA00BF0022202108205A
:101E100002F0A7FE9749086008460068002804D031
:101E200000BF87A0FEF73CFA04E000BF89A0FEF7E0
:101E300037FA00BF00222021082002F092FE8E49CE
:101E4000086008460068002804D000BF7CA0FEF7A8
:101E500027FA04E000BF7FA0FEF722FA00BF00BF10
:101E600063A0FEF71DFA00BF00BF8448016884A08C
:101E7000FEF716FA00BF874887490968009101906C
:101E800086480368864802887C480168854803F0D4
:101E9000E7F90446012C05D100BF214682A0FEF7D8
:101EA000FFF905E000BF214685A0FEF7F9F900BF64
:101EB00000BF8948016872A0FEF7F2F900BF8748A9
:101EC000874909680091019086480368864802881E
:101ED00081480168854803F0C3F90446012C05D107
:101EE00000BF214670A0FEF7DBF905E000BF2146E8
:101EF00073A0FEF7D5F900BF00BF7D48016860A060
:101F0000FEF7CEF900BF7B487B490968009101903C
:101F10007A4803687A48028875480168794803F06E
:101F20009FF90446012C05D100BF21465EA0FEF7B3
:101F3000B7F905E000BF214661A0FEF7B1F900BF87
:101F400000BF714801684EA0FEF7AAF900BF6F48B4
:101F50006F490968009101906E4803686E480288D5
:101F6000694801686D4803F07BF90446012C05D1EE
:101F700000BF21464CA0FEF793F905E000BF2146C3
:101F80004FA0FEF78DF900BF00BF654801683CA077
:101F9000FEF786F900BF6348634909680091019024
:101FA00062480368624802885D480168614803F03E
:101FB00057F90446012C05D100BF21463AA0FEF78F
:101FC0006FF905E000BF21463DA0FEF769F900BFAB
:101FD000FFF70EFD1CBD00000A52756E205573728E
:101FE0005F5461736B5F43726561746528293B00C0
:101FF0000A000000C00000200A7853656D61706817
:102000006F72654372656174654D757465782829D2
:10201000204F4B3B000000000A4572726F723A205D
:102020007853656D6170686F726543726561746540
:102030004D757465782829204E473B00C400002068
:102040000A78517565756543726561746528292044
:102050004F4B3B000A4572726F723A20785175659A
:1020600075654372656174652829204E473B000001
:10207000C8000020CC000020D000002060580000E4
:10208000437265617465205461736B3A2025733B1C
:1020900000000000E0000020DC000020D80000204C
:1020A00064580000112200000943726561746520C4
:1020B0004F4B2C2072746E203D2025643B0A00009B
:1020C00009437265617465204E472C2072746E203E
:1020D0003D2025643B0A000068580000F000002005
:1020E000EC000020E80000206C58000025240000CF
:1020F0007058000000010020FC000020F8000020C3
:1021000074580000F52600007858000010010020E7
:102110000C010020080100207C5800008D290000DF
:1021200080580000200100201C0100201801002020
:1021300084580000212C0000FFF71EFD00BF7D2108
:10214000C9002448006802F090FF01280CD1224801
:10215000016822A0FEF7A4F800231A4619461D487C
:10216000006802F0D4FD07E022A0FEF799F81A48B3
:1021700001681AA0FEF794F800BF29E0164800682D
:10218000401C15490860FFF7FDFC00BF7D21C90018
:102190001048006802F069FF01280CD10E48016860
:1021A0000EA0FEF77DF800231A461946094800687C
:1021B00002F0ADFD07E00FA0FEF772F806480168D7
:1021C00006A0FEF76DF800BF7D20C00002F042FBC4
:1021D000D4E70000C0000020400100200A546173D1
:1021E0006B5F493243412052756E436E74203D202F
:1021F00025643B000A4572723A207853656D617020
:10220000686F726554616B6528293A2000000000F0
:102210000024BBE05E480078002811D100BF5D4873
:10222000032109024018C079022188435949032239
:1022300012028918C87100BF01205549087010E0CA
:1022400000BF5448032109024018C0790221084305
:102250005049032212028918C87100BF00204C495E
:1022600008704D480068401C4B49086000BF7D2144
:10227000C9004A48006802F0F8FE01280CD146481F
:10228000016847A0FEF70CF800231A461946434898
:10229000006802F03CFD07E047A0FEF701F83E4869
:1022A00001683FA0FDF7FCFF00BF00BF7D21C90012
:1022B0003A48006802F0D9FE01280CD1454801686F
:1022C00045A0FDF7EDFF00231A4619463348006884
:1022D00002F01DFD07E038A0FDF7E2FF3D48016870
:1022E0003DA0FDF7DDFF00BF00BF7D21C9002B48E9
:1022F000006802F0BAFE01280DD1254800214156A0
:102300003AA0FDF7CDFF00231A461946234800687E
:1023100002F0FDFC08E028A0FDF7C2FF1C480021E8
:10232000415632A0FDF7BCFF00BF344800680028CA
:1023300028D033A500237D22D20029462F480068EB
:1023400002F0E5FC0446012C1CD000BF7D21C90031
:102350001248006802F089FE01280BD121462BA00B
:10236000FDF79EFF00231A4619460C48006802F04C
:10237000CEFC06E010A0FDF793FF214623A0FDF759
:102380008FFF00BF7D20C00002F064FA42E700002A
:10239000280100200000044024010020C00000208B
:1023A0000A0A5461736B315F52756E436E74203D3F
:1023B0002025643B000000000A4572723A207853E1
:1023C000656D6170686F726554616B6528293A208C
:1023D00000000000980000200A4D63755F54696D8D
:1023E000657374616D702C25642C090054617374DD
:1023F0003120666C67203D2025643B00C40000202E
:10240000513A543120746F2054323B000A457272A5
:102410006F723A2078517565756553656E642C2529
:10242000642C0A007FB506460024E2E0714800688B
:1024300000282AD00024621E69466E48006802F017
:1024400078FD0446012C3CD000BF7D21C9006A48BC
:10245000006802F00AFE01280DD1FF223E3267A17A
:102460006EA0FDF71DFF00231A461946624800685A
:1024700002F04DFC08E078A0FDF712FFFF223E328B
:102480005EA166A0FDF70CFF1BE000BF7D21C90027
:102490005948006802F0E9FD01280AD175A0FDF74E
:1024A000FFFE00231A4619465348006802F02FFC2D
:1024B00005E069A0FDF7F4FE6EA0FDF7F1FE00BF98
:1024C0007FBD76480078002811D100BF74480321F1
:1024D00009024018C079042188437149032212027D
:1024E0008918C87100BF01206C49087010E000BF56
:1024F0006B48032109024018C07904210843684948
:10250000032212028918C87100BF002063490870B5
:1025100000BF7D21C9003848006802F0A6FD0128EF
:102520000CD16048016860A0FDF7BAFE00231A468E
:1025300019463148006802F0EAFB07E046A0FDF7C3
:10254000AFFE5848016858A0FDF7AAFE00BF00BFC3
:102550007D21C9002848006802F087FD01280DD1BF
:102560004E480021415655A0FDF79AFE00231A4619
:1025700019462148006802F0CAFB08E036A0FDF7C2
:102580008FFE4648002141564CA0FDF789FE00BF52
:102590004E480068002828D04DA500237D22D20097
:1025A00029464A48006802F0B2FB0446012C20D0BC
:1025B00000BF7D21C9001048006802F056FD0128C7
:1025C0000BD1214645A0FDF76BFE00231A461946A4
:1025D0000948006802F09BFB06E01FA0FDF760FEC3
:1025E00021463EA0FDF75CFE03E07D20000102F0E5
:1025F00031F91BE7C4000020C0000020536F757242
:102600006365436F64655C557372436F64655C55C5
:1026100073725F5461736B2E630000000A4572721F
:102620006F723A2061626F757420785175657565B7
:102630005265636569766528292C20506C61636555
:102640003A2046696C653A2025732C204C696E65EA
:102650002025642E0A0000000A4572723A20785341
:10266000656D6170686F726554616B6528293A20E9
:10267000000000000A4572726F723A204E6F6E655C
:102680002051756575655074725F5461736B315F6D
:10269000546F5F5461736B322E0A000029010020D1
:1026A00000000440980000200A4D63755F54696D76
:1026B000657374616D702C25642C0900546173740A
:1026C0003220666C67203D2025643B00C800002056
:1026D000513A543220746F2054333B000A457272D1
:1026E0006F723A2078517565756553656E642C2557
:1026F000642C0A007FB506460024C5E063480068E4
:1027000000282AD00024621E69466048006802F052
:1027100010FC0446012C3CD000BF7D21C9005C4860
:10272000006802F0A2FC01280DD1FF22863259A1D7
:1027300060A0FDF7B5FD00231A461946544800680D
:1027400002F0E5FA08E06AA0FDF7AAFDFF22863252
:1027500050A158A0FDF7A4FD1BE000BF7D21C900DA
:102760004B48006802F081FC01280AD167A0FDF700
:1027700097FD00231A4619464548006802F0C7FA3B
:1027800005E05BA0FDF78CFD60A0FDF789FD00BFB3
:102790007FBD68480078002803D101206549087092
:1027A00002E000206349087000BF7D21C90038485D
:1027B000006802F05AFC01280CD15F4801685FA054
:1027C000FDF76EFD00231A4619463148006802F0F5
:1027D0009EFA07E046A0FDF763FD5748016857A041
:1027E000FDF75EFD00BF00BF7D21C90028480068DD
:1027F00002F03BFC01280DD14E480021415654A067
:10280000FDF74EFD00231A4619462148006802F0E4
:102810007EFA08E036A0FDF743FD46480021415608
:102820004BA0FDF73DFD00BF4D480068002828D0B3
:102830004CA500237D22D20029464948006802F0B9
:1028400066FA0446012C1FD000BF7D21C900104844
:10285000006802F00AFC01280BD1214644A0FDF7D4
:102860001FFD00231A4619460948006802F04FFA76
:1028700006E01FA0FDF714FD21463DA0FDF710FD69
:1028800002E0414801F0E6FF38E70000C800002000
:10289000C0000020536F75726365436F64655C55BB
:1028A0007372436F64655C5573725F5461736B2E12
:1028B000630000000A4572726F723A2061626F75A0
:1028C000742078517565756552656365697665280C
:1028D000292C20506C6163653A2046696C653A206A
:1028E00025732C204C696E652025642E0A0000009B
:1028F0000A4572723A207853656D6170686F72652F
:1029000054616B6528293A20000000000A45727264
:102910006F723A204E6F6E65205175657565507403
:10292000725F5461736B325F546F5F5461736B33CA
:102930002E0A00002A010020980000200A4D63752D
:102940005F54696D657374616D702C25642C09008A
:10295000546173743320666C67203D2025643B000E
:10296000CC000020513A543320746F2054343B0083
:102970000A4572726F723A207851756575655365B4
:102980006E642C25642C0A00B80B00007FB5064647
:102990000024C6E06348006800282AD00024621E94
:1029A00069466048006802F0C4FA0446012C3CD035
:1029B00000BF7D21C9005C48006802F056FB012879
:1029C0000DD1FF22D03259A160A0FDF769FC002390
:1029D0001A4619465448006802F099F908E06AA0BE
:1029E000FDF75EFCFF22D03250A158A0FDF758FC45
:1029F0001BE000BF7D21C9004B48006802F035FB99
:102A000001280AD167A0FDF74BFC00231A4619469E
:102A10004548006802F07BF905E05BA0FDF740FC4B
:102A200060A0FDF73DFC00BF7FBD6848007800282E
:102A300003D101206549087002E000206349087055
:102A400000BF7D21C9003848006802F00EFB012854
:102A50000CD15F4801685FA0FDF722FC00231A46F5
:102A600019463148006802F052F907E046A0FDF728
:102A700017FC5748016857A0FDF712FC00BF00BFC4
:102A80007D21C9002848006802F0EFFA01280DD125
:102A90004E480021415654A0FDF702FC00231A467F
:102AA00019462148006802F032F908E036A0FDF727
:102AB000F7FB4648002141564BA0FDF7F1FB00BF54
:102AC0004D480068002828D04CA500237D22D20064
:102AD00029464948006802F01AF90446012C20D022
:102AE00000BF7D21C9001048006802F0BEFA01282D
:102AF0000BD1214644A0FDF7D3FB00231A4619460B
:102B00000948006802F003F906E01FA0FDF7C8FBC2
:102B100021463DA0FDF7C4FB03E07D20400101F00C
:102B200099FE37E7CC000020C0000020536F75727B
:102B30006365436F64655C557372436F64655C5590
:102B400073725F5461736B2E630000000A457272EA
:102B50006F723A2061626F75742078517565756582
:102B60005265636569766528292C20506C61636520
:102B70003A2046696C653A2025732C204C696E65B5
:102B80002025642E0A0000000A4572723A2078530C
:102B9000656D6170686F726554616B6528293A20B4
:102BA000000000000A4572726F723A204E6F6E6527
:102BB0002051756575655074725F5461736B335F36
:102BC000546F5F5461736B342E0A00002B01002098
:102BD000980000200A4D63755F54696D65737461D8
:102BE0006D702C25642C0900546173743420666C5C
:102BF00067203D2025643B00D0000020513A54342A
:102C000020746F2054353B000A4572726F723A206F
:102C100078517565756553656E642C25642C0A00C2
:102C20007FB50546002497E04C480068002828D06E
:102C30000024621E69464948006802F07AF9044699
:102C4000012C3AD000BF7D21C9004548006802F040
:102C50000CFA01280CD1434A43A14BA0FDF720FBFD
:102C600000231A4619463E48006802F050F807E073
:102C700054A0FDF715FB3B4A3BA143A0FDF710FB19
:102C80001BE000BF7D21C9003548006802F0EDF966
:102C900001280AD152A0FDF703FB00231A4619466A
:102CA0002F48006802F033F805E046A0FDF7F8FA77
:102CB0004BA0FDF7F5FA00BF7FBD53480078002810
:102CC00003D101205049087002E000204E490870ED
:102CD00000BF7D21C9002248006802F0C6F9012822
:102CE0000CD14A4801684AA0FDF7DAFA00231A46D7
:102CF00019461B48006802F00AF807E031A0FDF70A
:102D0000CFFA4248016842A0FDF7CAFA00BF00BFEF
:102D10007D21C9001248006802F0A7F901280DD1F1
:102D20003948002141563FA0FDF7BAFA00231A4660
:102D300019460B48006801F0EAFF08E021A0FDF702
:102D4000AFFA31480021415636A0FDF7A9FA00BF7D
:102D5000FF20F53001F07EFD66E70000D000002086
:102D6000C000002015020000536F75726365436F49
:102D700064655C557372436F64655C5573725F5430
:102D800061736B2E630000000A454572726F723AE0
:102D90002061626F75742078517565756552656341
:102DA0006569766528292C20506C6163653A204658
:102DB000696C653A2025732C204C696E652025646A
:102DC0002E0A00000A4572723A207853656D6170D0
:102DD000686F726554616B6528293A200000000015
:102DE0000A4572726F723A204E6F6E65205175659A
:102DF00075655074725F5461736B345F546F5F54C8
:102E000061736B352E0A00002C0100209800002011
:102E10000A4D63755F54696D657374616D702C251F
:102E2000642C0900546173743520666C67203D2062
:102E300025643B0070B505460E46002D04D0012DDB
:102E400022D0022D64D13FE0E121490232480068DE
:102E5000FEF7B8FA0446802C01D100BFFEE700203F
:102E60002E49087208730A20FEF7D2F80B20FEF7ED
:102E7000CFF800212A48017201730A20FEF7D2F828
:102E80000B20FEF7CFF844E0E12149022248006818
:102E9000FEF760FB0446802C01D100BFFEE7002056
:102EA0001E49087508760D20FEF7B2F80E20FEF7D1
:102EB000AFF800211A48017501760D20FEF7B2F82F
:102EC0000E20FEF7AFF824E0E12149021248006825
:102ED000FEF728FC0446802C01D100BFFEE700204D
:102EE0000E49203908770D4908700720FEF790F841
:102EF0000820FEF78DF8002109482038017708489E
:102F000001700720FEF78EF80820FEF78BF800E02E
:102F100000BF00BF70BD00004401002020600040E1
:102F20002061004010B5E12149020020FFF782FF37
:102F300000200149086010BDBC00002030B4744678
:102F4000641E2578641CAB4204D3635D5B00E31808
:102F500030BC18471D46F8E730380A2801D2012056
:102F60007047002070470000002803D00449054A3C
:102F7000116202E00121034A116200BFFEE7000076
:102F8000AD0B000000800240002001490875704729
:102F900040600040002001490870704760600040B8
:102FA000002001490871704760600040002101481D
:102FB000417070474060004001460020C0437047A8
:102FC00000200149087770476060004070B50446F2
:102FD0000D46E0B2FEF788FA0A2C02D10D20FEF76A
:102FE00083FA204670BD70470848007C01210843E1
:102FF0000649087400BF0648407CC007C00F00287F
:10300000F9D001200349087070470000201A0440DD
:10301000401B04401B0000200848007C012108439D
:103020000649087400BF0648407CC007C00F00284E
:10303000F9D001200349087070470000201A0440AD
:10304000401B04401A0000200349097C2022114340
:10305000014A117470470000201A04400120014900
:10306000087070471B00002001200149087070475C
:103070001A00002010B5002007490870FDF7F8FC81
:103080000648407C80210840802802D100F008F8E2
:1030900001E000F0D3F810BD40600040401B044048
:1030A00010B55E48807C40210840002807D15C486C
:1030B0000088002803D00120FFF795FFACE05948B5
:1030C000007880210840002844D15448407C0421E5
:1030D000084000283AD053480078802108435149DD
:1030E00008704E48407C0821084000281BD04E48FC
:1030F000007C08434C4908744948008800280FD0D8
:103100004A48006800784549087448480068401CEF
:103110004649086042480088401E414908807BE0DB
:10312000FFF77AFF78E04048007C042108433E49DD
:1031300008740846007C082188433B490874084607
:10314000007C202108433849087465E00220FFF71D
:103150004AFF61E03148407C08210840002824D023
:103160002E48407C04210840002807D12C480088C4
:10317000002803D00220FFF736FF4DE028480088E2
:1031800000280FD02948006800782449087427488F
:103190000068401C2549086021480088401E2049DD
:1031A000088039E0FFF738FF36E0214800882149E0
:1031B000098888422EDA1948007C1F49096808707E
:1031C0001D480068401C1C49086019480088401CC4
:1031D000174908800846008816490988884212D194
:1031E0001148007C042188430F4908740846007C7C
:1031F000202108430C4908740846007C0821084334
:103200000949087408E00848007C20210843064961
:10321000087401E0FFF7E8FE10BD0000401B044009
:103220001800002008000020201A0440140000208C
:1032300012000020100000200C00002010B577487C
:10324000407CC007C00F00281FD07548007C1021AB
:103250008843734908747348007880210840002827
:103260000FD07048007804210840002801D0FFF7F3
:10327000FBFE6C48007802210840002801D0FFF7CF
:10328000EDFE012067490870C6E06648007880219D
:10329000084000284CD16148407C1021084000289B
:1032A00042D05F48007C08435D49087480205D4936
:1032B00008705A48407C08210840002821D058480E
:1032C000007C0843564908745748008800280FD0EE
:1032D0005648006800785149087454480068401CFA
:1032E0005249086050480088401E4F49088093E0CA
:1032F000FFF7BAFE4A48007C202108434849087479
:103300008AE04748007C0421084345490874084680
:10331000007C08218843424908740846007C20212B
:1033200008433F49087477E08020FFF78DFE73E083
:103330003A48407C08210840002830D039480078BD
:1033400004210843374908703448407C0421084070
:10335000002807D134480088002803D00220FFF756
:1033600073FE59E03048008800280FD02F480068CD
:1033700000782A4908742D480068401C2B490860D1
:1033800029480088401E2849088045E0FFF76CFE68
:103390002348007C20210843214908743CE021484F
:1033A0000078022108431F490870214800882149FC
:1033B000098888422ADA1948007C1F490968087080
:1033C0001D480068401C1C49086019480088401CC2
:1033D00017490880084600881649098888420ED196
:1033E0000F48007C082108430D4908740846007CFA
:1033F000202108430A490874FFF730FE0CE0084812
:10340000007C202108430649087405E00448007C3C
:10341000202108430249087410BD0000401B0440ED
:10342000201A044009000020180000201400002089
:1034300012000020100000200C0000200020014994
:1034400008717047006000400021014841757047D5
:103450000060004000210148417670470060004054
:1034600000200149087270470060004000200149B7
:1034700008737047006000400020014908747047DD
:10348000006000400020014908757047006000405E
:103490000020014908767047006000400021014883
:1034A000417170470060004000210148417270473F
:1034B00000600040002101484173704700600040F7
:1034C000002101484174704700600040002101481C
:1034D00041707047586000400020014908777047EC
:1034E00040600040002001490870704700600040C3
:1034F000FDF778FDFEF76AFAFEF7D2FAFFF712FD44
:1035000000BF4AA0FCF7CCFE00BF00BF50A0FCF7F4
:10351000C7FE00BF00BF5648FCF7C2FE00BF00BF99
:1035200054A0FCF7BDFE00BF00BF53A0FCF7B8FEDF
:1035300000BF00BF584959A0FCF7B2FE00BF00BF52
:103540004CA0FCF7ADFE00BF00BF5BA15DA0FCF787
:10355000A7FE00BF00BF62A164A0FCF7A1FE00BFF0
:1035600000BF44A0FCF79CFE00BF00BF66A0FCF7B4
:1035700097FE00BF00BF6CA0FCF792FE00BF00BF2B
:103580003CA0FCF78DFE00BF00BF012300221146C6
:103590006EA0FCF785FE00BF00BF0123002211468C
:1035A00072A0FCF77DFE00BF00BF32A0FCF778FEE2
:1035B00000BF00BF7548016875A0FCF771FE00BF31
:1035C00000BFE121490279A0FCF76AFE00BF00BFFD
:1035D00028A0FCF765FE00BF00BF7B4801687BA008
:1035E000FCF75EFE00BF00207D490870FEF7BCFBC3
:1035F0007D21C90065480068FDF717F80446601E84
:103600007849884200D90CE0601E7749486103215F
:10361000081FFDF711FD002073498861072008612C
:1036200000BF01F0D3F900BFFEE700000D0A4D43D3
:103630005520436F72653A20202020202020202032
:103640002041524D20436F7465782D4D302B3B0047
:103650000D0A4D43552056656E6465723A20202050
:103660002020202020436D73656D69636F6E3B00E1
:10367000C85800000D0A00000D0A436F6D70696C98
:1036800065723A2020202020202020202041726DC9
:103690006363352E30353B00DD0C03000D0A5F5FA0
:1036A000535444435F5F56455253494F4E5F5F3A10
:1036B00020256C643B0000004A616E2020372032D8
:1036C000303235000D0A436F6D70696C696E67208A
:1036D000446174653A2020202025733B00000000DF
:1036E00031343A32323A3232000000000D0A436F70
:1036F0006D70696C696E672054696D653A20202091
:103700002025733B000000000D0A436F72706F723A
:10371000617465204E616D653A20202020506F73E2
:103720006966613B000000000D0A506F72647563AA
:1037300074204E616D653A202020202020525334A1
:1037400038355F493243533B000000000D0A46699B
:10375000726D776172652056657273696F6E3A207B
:103760002025642D25642D25643B00000D0A486149
:103770007264776172652056657273696F6E3A2064
:103780002025642D25642D25643B00004401002084
:103790000D0A53797374656D436F7265436C6F6383
:1037A0006B3A20202025643B000000000D0A556183
:1037B000727420426F6164726174653A2020202027
:1037C0002025643B00000000980000204D63755FD9
:1037D00054696D657374616D702C25642C0A00004A
:1037E00094000020FFFFFF0000E000E0F8B5054670
:1037F0000E461748076817480068001D00F0FEFED7
:10380000681C002808D1002E06D012480168091D46
:10381000114800F04AFF1AE07C190E480068446025
:10382000BC4207D20B480168091D0C48006800F033
:1038300021FF0CE007480168091D0948006800F0F5
:1038400019FF08480068844201D206480460F8BDA8
:10385000300000201C00002018030020240000205D
:10386000200000204C00002010B5044600F02AFF84
:1038700020480068401C1F4908601F480068002855
:1038800008D11D4804600846006801280ED100F0E8
:10389000F9F90BE019480068002807D116480068BC
:1038A000C06AE16A884201D813480460144800687D
:1038B000401C134908601349E06A0968884202D92C
:1038C0001049E06A08601422E16A51430E4A8818E0
:1038D000211D00F0EAFE00F003FF08480068002800
:1038E00007D005480068C06AE16A884201D200F04A
:1038F00069FF10BD2C0000201C00002038000020B3
:1039000048000020340000208801002008B500F0A5
:10391000D9FE1348006800281ED1124800F09AFE14
:10392000114800F097FE0F48104908600E481049F2
:10393000086000200F4B104A0C210090052001F078
:1039400055F90749086008460068002804D00BA113
:103950000348006800F042FF00F0C2FE08BD00000E
:1039600064000020F4050020080600205C00002010
:10397000600000201C06002064060020546D725177
:103980000000000010B516E000F09CFE0C48C06876
:10399000C468201D00F032FE0A480068401E094934
:1039A000086009480068401E0749086000F098FE5A
:1039B000204600F061F8044800680028E4D110BDFA
:1039C000040300202C0000202800002070B50446CD
:1039D0000D46206C00280ED0216CE0684118E16093
:1039E000A168E068884201D32168E1602846226C22
:1039F000E168FCF7D9FD70BDF8B504460F461546E1
:103A000000200090A66B206C002809D120680028B7
:103A10002ED1A06801F050FD00900020A06027E0AA
:103A2000002D0FD13946226C6068FCF7BDFD216C7A
:103A3000606840186060A1686068884218D3206898
:103A4000606015E03946226CE068FCF7ADFD216C42
:103A5000E068411AE1602168E068884203D2216C85
:103A6000A068411AE160022D02D1002E00D0761E1E
:103A7000701CA0630098F8BD10B504464920005D95
:103A8000002806D1206B00F03FFE204600F03CFEEF
:103A900013E04920005D012803D1204600F034FEE8
:103AA0000BE04920005D022801D1012000E0002048
:103AB000002802D172B600BFFEE710BD01464A6A77
:103AC000002A04D00A6B12681023981A00E0002024
:103AD000704700000146094A12681268002A01D1A5
:103AE000012200E000220A600A68002A04D1034A89
:103AF0001268D268106800E0002070475C00002067
:103B000030B501235B0317484407640F002C05D030
:103B1000C01DC008C000134C041B1B1B0246124CE6
:103B200022600024104D6C60D0180838C008C00016
:103B30000E4C206000240D4D2D686C600B4D2D68DF
:103B40002C601146441A4C60084C24680C60084DE7
:103B50004C682C60074D4C682C600124E407064D2E
:103B60002C6030BDA0060020740000207C000020E6
:103B700084000020800000209000002000BFFFF79C
:103B800001FF034800680128F9D900F01BFEF6E7A1
:103B90008801002010B50446002C0AD00020A06047
:103BA00020600021E16000231A461946204601F0FA
:103BB000AEF810BDF8B506460D461746069C002D1A
:103BC00001D1246000E02760E663256401212046DE
:103BD00001F05CF8F8BDFFB581B00E460A9F0C9C61
:103BE000216B0398401E8000081800900098C008C0
:103BF000C000009000984007400F002801D101202C
:103C000000E00020002802D172B600BFFEE7002EBF
:103C100011D0002508E0715D204634304155705DBB
:103C2000002800D102E06D1C052DF4D300BF002157
:103C30003820015502E0002134200155102F00D317
:103C40000F27E762E76300202064201D00F00FFDCE
:103C50002046183000F00BFD24611020C01BA0612D
:103C600064620021616448200155049A019900981A
:103C700000F046FB20600B98002801D00B980460F0
:103C800005B0F0BD10B5002406E0142161430E4AD2
:103C9000881800F0DFFC641C102CF6D30B4800F0F1
:103CA000D9FC0B4800F0D6FC0A4800F0D3FC0A48C7
:103CB00000F0D0FC094800F0CDFC04480849086039
:103CC00003480849086010BD88010020C802002090
:103CD000DC020020F0020020040300201803002072
:103CE000200000202400002010B50146164800E006
:103CF000006803688B42FBD3024643689B188B42E3
:103D000004D143684C681B19436001460A464B685E
:103D10009B180468A34211D10C4C03682468A34289
:103D200008D04B68046864681B194B6003681B6803
:103D30000B6005E0054B1B680B6001E003680B603E
:103D4000884200D0016010BD740000207C0000207B
:103D5000F8B504460D4616461F46002000906560E3
:103D60002461B5420CD8F01BA169884202D301201E
:103D7000009011E0211D0948006800F07BFC0BE079
:103D8000BE4204D2BD4202D30120009004E0211DB6
:103D90000348006800F06EFC0098F8BD6000002049
:103DA0005C00002070B5054600F08CFCA86B002874
:103DB00001D1012400E0002400F092FC204670BDF7
:103DC00070B5054600F07EFCA86BE96B884201D116
:103DD000012400E0002400F083FC204670BD0000B8
:103DE000F8B505460F4617480068C068C468201D2E
:103DF00000F004FC2420005D04210840002817D0B6
:103E0000A06941192B463A462046FFF7A1FF00283A
:103E100014D0002003462A4601460090204601F0B7
:103E2000D5FC0646002E02D172B600BFFEE705E0C3
:103E30002420005D41084900242001552046216AC4
:103E40008847F8BD5C00002070B586B082E003981A
:103E500000287FDB059C6069002801D1012000E07B
:103E60000020002802D1201D00F0C8FB02A800F0AD
:103E7000CFF8054603980300FFF760F80A0A060822
:103E8000353D590709363E6A00BF00BF00BF00BF7D
:103E90002420005D01210843242108550498A269CB
:103EA000811803462A462046FFF752FF002819D002
:103EB0002046216A88472420005D0421084000280C
:103EC00010D0002000900498A169421800231946E0
:103ED000204601F07BFC0646002E02D172B600BFE0
:103EE000FEE700BF35E000BF2420005D4108490027
:103EF000242001552DE000BF2420005D012108434E
:103F0000242108550498A061A069002801D001204F
:103F100000E00020002802D172B600BFFEE7A069D1
:103F200041192B462A462046FFF712FF11E02420B4
:103F3000005D02210840002803D1204600F0E4FB88
:103F400005E02420005D410849002420015500E0DF
:103F500000BF00BF002203A90448006800F0E9FF89
:103F6000002800D073E706B070BD00006400002098
:103F7000F8B505460C4600F081FD684600F048F8AB
:103F800006460098002822D1002C08D1B54206D858
:103F900001F06CFB31462846FFF722FF19E0002CA8
:103FA00008D00C4800680068002801D1012000E01A
:103FB00000200446A91B22460748006800F024FCA4
:103FC00001F054FB002804D100F0FCFB01E001F0FB
:103FD0004DFBF8BD60000020640000200A48006826
:103FE0000068002801D1012000E00020002804D052
:103FF0000020C0430549086005E003480068C06828
:104000000068024908607047200000204C00002032
:1040100070B5044601F0ACF90546074800688542D2
:1040200004D200F00BF80120206001E000202060A5
:1040300001480560284670BD6C000020FEB52EE0EA
:1040400021480068C06805681F480068C068C468E7
:10405000201D00F0D3FA2046216A88472420005D05
:104060000421084000281AD0A0694619AE4207D999
:1040700066602461211D1448006800F0FBFA0EE020
:10408000002003462A4601460090204601F09EFB90
:104090000746002F02D172B600BFFEE700BF0A48F4
:1040A00000680068002801D1012000E000200028FD
:1040B000C6D00548006801900448006802490860BD
:1040C000024901980860FEBD5C00002060000020ED
:1040D00007480068401C002801D1012000E00020B2
:1040E000002802D172B600BFFEE772B600BFFEE73D
:1040F0007000002008B500BF6846FFF7EBFC0446DF
:1041000020460099FFF734FFFFF79EFEF4E770B5F5
:10411000044600F0D7FA4520055713E0606A0028EE
:1041200001D1012000E00020002808D120462430E1
:1041300001F058FA002803D000F0BAFB00E003E0D9
:10414000681E45B2002DE9DC00BF0021C9434520AF
:10415000015500F0C5FA00F0B5FA4420055713E008
:104160002069002801D1012000E0002000280AD1A8
:104170002046103001F036FA002801D000F098FBFC
:10418000681E45B200E001E0002DE9DC00BF00211F
:10419000C9434420015500F0A3FA70BDF8B50446A8
:1041A0000020009000F06AFC47480068002801D118
:1041B000FFF7A6FC454800682040002873D1002C7A
:1041C00021D020460830A0421DD908346007400F96
:1041D000002819D06007400F0821081A0019A042D2
:1041E0000FD96007400F081A04196007400F002814
:1041F00001D1012000E00020002805D172B600BFE7
:10420000FEE7002400E00024002C4CD03048006879
:10421000844248D82F4E3046056801E02E462D686E
:104220006868A04202D228680028F7D126480068B2
:10423000854238D03068083000902868306068685F
:10424000001B102813D92F197807400F002801D11F
:10425000012000E00020002802D172B600BFFEE776
:104260006868001B78606C603846FFF73DFD1849B0
:1042700068680968081A16490860084600681649FF
:104280000968884203D212480068134908600F4940
:104290006868096808436860002028600F48006863
:1042A000401C0E49086001F0E1F900984007400FFA
:1042B000002801D1012000E00020002802D172B6C0
:1042C00000BFFEE70098F8BD7C00002090000020B1
:1042D000800000207400002084000020880000205E
:1042E00006480068002806D004490968084640309E
:1042F000096C491C01600148006870471C000020DF
:10430000001F01231B060360001F0160001F034BF9
:10431000036014380260203870470000D14000006C
:1043200000200149087670474060004000200149A4
:1043300008747047206000400020014908777047EA
:104340002060004000200149087170472060004053
:104350000021014841707047306000400021014851
:10436000417070473C60004000200149087170476F
:1043700040600040002001490872704740600040E2
:104380000020014908737047406000400020014947
:10439000087470474060004000200149087270476F
:1043A000606000400020014908757047606000406F
:1043B00000200149087670476060004000200149F4
:1043C000087370476060004000200149087470471E
:1043D00060600040704770471CB5002015490873A5
:1043E000154840884107490F0091684600781249F6
:1043F000488168460078002803D068460078FFF7B7
:10440000E9FF0E48817C0191684601790C48827968
:104410008079401CC3B20A488371C01D8154C01FFB
:104420008079802802D1002105488171012104484A
:1044300001711CBD206000400011044000130440C5
:104440002027002010B500200F4908720F488078FF
:104450000E49C978884211DA0C4881788078401C6E
:104460000A4A9070101D405C094908741046807813
:10447000802808DB00201146887004E0FFF7ABFFBE
:1044800000200249487010BD20600040A026002096
:1044900000130440704770471CB50020154908768A
:1044A0001548C0884107490F0091684600781249B5
:1044B000C88168460078002803D068460078FFF776
:1044C000E9FF0E4881790191684601790C488279AB
:1044D0008079401CC3B20A488371C01D8154C01F3B
:1044E0008079802802D1002105488171012104488A
:1044F00001711CBD206000400011044040130440C5
:104500002728002010B500200F4908750F48807833
:104510000E49C978884211DA0C4881788078401CAD
:104520000A4A9070101D405C094908711046807855
:10453000802808DB00201146887004E0FFF7ABFFFD
:1045400000200249487010BD20600040A7270020CD
:1045500040130440704770471CB50020154908708F
:10456000154800884107490F0091684600781249B4
:10457000088168460078002803D068460078FFF775
:10458000E9FF0E48817A0191684601790C488279E9
:104590008079401CC3B20A488371C01D8154C01F7A
:1045A0008079802802D100210548817101210448C9
:1045B00001711CBD206000404015044040170440BC
:1045C0002E29002010B500200A4908770A48807873
:1045D0000949C978884207DA07488078802808DBCB
:1045E00000200549887004E0FFF7B5FF002002496C
:1045F000487010BD00600040AE28002001460A69E6
:104600004B68886898608B68486858605068884232
:1046100001D188685060002008611068401E106059
:1046200010687047034B0360034B0B603C2313601F
:10463000704700001C0400202C030020034B036083
:10464000034B0B605023136070470000A805002047
:10465000680400200146083141600021C94381609F
:1046600001460831C16001610021016070470021ED
:104670000161704710B502460B685C1C002C01D12B
:10468000106907E01046083000E04068446824687C
:104690009C42FAD944684C604C68A16088604160D3
:1046A0000A611468641C146010BD42684A60936813
:1046B0008B60936859609160086103685B1C0360BC
:1046C0007047000072B605480068401C0349086046
:1046D000BFF34F8FBFF36F8F704700007000002053
:1046E00008480068002802D172B600BFFEE70548FE
:1046F0000068401E0349086008460068002800D191
:1047000062B670477000002070B506463546002E30
:104710003AD0083D2C461D496068096808400028C9
:1047200001D0012000E00020002802D172B600BFB5
:10473000FEE72068002801D1012000E000200028C9
:1047400002D172B600BFFEE71049606809680840F0
:10475000002819D02068002816D10C496068096823
:104760008843606000F08AF9094960680968401868
:10477000074908602046FFF7B7FA06480068401C62
:104780000449086000F072FF70BD00009000002036
:10479000800000208C00002010B50020074908612F
:1047A00088617D21C90006480068FBF73EFF401E76
:1047B000024948610720086110BD000000E000E0E8
:1047C000440100200120000703494860BFF34F8FD8
:1047D000BFF36F8F7047000000ED00E010B5024698
:1047E00000200BE0C300074CE358002B05D1C300A9
:1047F000E150C3001B195A6002E0401C0828F1D3A5
:1048000000BF10BD48010020F8B505460E4617460A
:104810002C46FFF757FF44210857401C002802D1BF
:1048200000214420015545210857401C002802D191
:10483000002145200155FFF753FFA06B002805D14B
:104840003A4631462046243000F04EF82046FFF725
:104850005EFCF8BD70B504460025002C14D00D4850
:104860000068002801D1012000E00020002802D1CA
:1048700072B600BFFEE700F001F900212046FEF706
:10488000B5FF00F0F3FE0546002D01D1FFF79AFFBA
:1048900070BD000058000020034909680160034909
:1048A000096841607047000044000020300000208B
:1048B00001200149086070474000002070B504469F
:1048C0000D46002C02D172B600BFFEE70548016814
:1048D00018312046FFF7CEFE01212846FEF786FF5D
:1048E00070BD00001C00002070B505460E46144641
:1048F000002D02D172B600BFFEE7074801681831EB
:104900002846FFF7D2FE002C01D00026F6432146B0
:104910003046FEF76BFF70BD1C000020FEB506465A
:104920000F46344601200090002E48D0206C00280D
:1049300002D172B600BFFEE7E06BB84201D23D463D
:1049400000E0E56BE06AA84239D0206C012836D13E
:104950001B480068844201D0012000E000200028AC
:1049600002D172B600BFFEE7E06A0190E562A0697D
:10497000C00FC007002802D11020401BA061616950
:104980001422019850430F4A8018814201D101201E
:1049900000E00020002812D0201DFFF72FFE0A495A
:1049A000E06A0968884202D90749E06A086014226F
:1049B000E16A5143034A8818211DFFF776FEFEBDC8
:1049C0001C000020880100203400002010B586B0B3
:1049D000204805902048049003AA04A905A8FFF7E1
:1049E00021FE00220499059813460092019102903D
:1049F0001AA11C48039A00F064FC1B490860084691
:104A00000068002801D0012400E00024012C02D11C
:104A100000F0A4FE0446012C0DD172B60020C04364
:104A200012490860012012490860002011490860FD
:104A300000F06CF80AE0601C002801D0012000E0C2
:104A40000020002802D172B600BFFEE70A480068C5
:104A500006B010BD1C0400202C03002049444C4526
:104A6000000000007D3B0000500000204C000020B2
:104A70003800002030000020540000200248006868
:104A8000401C014908607047580000201A4800681F
:104A9000002803D00120194908602CE000201749A4
:104AA00008601748016805E0002902D172B600BF0E
:104AB000FEE7491E14204843124A1058002801D12D
:104AC000012000E000200028EED114224A430D4BC3
:104AD000D0184268526842600246083243689342E6
:104AE00002D14268526842604268D268064B1A603E
:104AF0000348016000BF70475800002040000020BC
:104B000034000020880100201C00002010B50B4854
:104B1000006AFF2109040843084908620846006A40
:104B2000FF210906084305490862FFF735FE00200A
:104B300003490860FBF71CFB002010BD00ED00E0FE
:104B400070000020F8B50446012600272246002107
:104B5000012000F006F805462846FFF71BF8284616
:104B6000F8BDF7B582B006460F46002E01D00120F1
:104B700000E00020002802D172B600BFFEE73546F3
:104B80007D43002F05D039462846FBF74EFDB04245
:104B900001D1012000E00020002802D172B600BF40
:104BA000FEE728464830A84201D9012000E0002055
:104BB000002802D172B600BFFEE728464830FFF752
:104BC000EDFA0446002C0ED00194019C204648309A
:104BD0000190002146200155009439463046049B3F
:104BE000019AFEF7E7FF204605B0F0BDFFB581B0A2
:104BF0000E4617461D460198002801D0012000E00E
:104C00000020002802D172B600BFFEE7002D01D0BF
:104C1000012000E00020002802D172B600BFFEE7AC
:104C2000002F01D0002E01D0012000E0002000283C
:104C300002D172B600BFFEE7002F01D1002E01D1D4
:104C4000012000E00020002802D172B600BFFEE77C
:104C5000482000900098482801D1012000E0002061
:104C6000002802D172B600BFFEE700BF2C46002C20
:104C700009D001214620015500943A4631460A9B4D
:104C80000198FEF797FF204605B0F0BD70B50546C8
:104C90000E462C46002C02D172B600BFFEE7FFF78D
:104CA00011FD216CE06B484321684018A060002092
:104CB000A06320686060E06B401E216C484321685F
:104CC0004118E1600021C9434420015545200155A8
:104CD000002E10D12069002801D1012000E0002021
:104CE000002810D12046103000F07CFC00280AD0AB
:104CF000FFF768FD07E020461030FFF7ABFC2046C9
:104D00002430FFF7A7FCFFF7EBFC012070BDFFB5D7
:104D100083B006461D46002002903446002C02D186
:104D200072B600BFFEE70498002802D1206C00286C
:104D300001D1012000E00020002802D172B600BF9E
:104D4000FEE7022D02D1E06B012801D1012000E035
:104D50000020002802D172B600BFFEE700F0F6FA8C
:104D6000002802D10598002801D1012000E0002090
:104D7000002802D172B600BFFEE700BFFFF7A2FC19
:104D8000A06BE16B884201D3022D1FD12A46204639
:104D90000499FEF731FE0746606A002801D1012020
:104DA00000E00020002808D12046243000F01AFC42
:104DB000002806D0FFF706FD03E0002F01D0FFF723
:104DC00001FDFFF78DFC012007B0F0BD059800281C
:104DD00003D1FFF785FC0020F6E70298002804D1F4
:104DE0006846FFF759FD01200290FFF779FCFFF7B5
:104DF00045FEFFF767FC44210857401C002802D1FC
:104E000000214420015545210857401C002802D1AB
:104E1000002145200155FFF763FC05A9684600F015
:104E2000E3F9002819D12046FEF7CAFF00280ED06A
:104E3000204610300599FFF741FD2046FFF767F93E
:104E400000F014FC002899D1FFF7BCFC96E720463F
:104E5000FFF75DF900F00AFC90E72046FFF757F9ED
:104E600000F004FC0020AFE7FFB583B01D46039CB3
:104E7000002C02D172B600BFFEE70498002802D1D0
:104E8000206C002801D1012000E00020002802D180
:104E900072B600BFFEE7022D02D1E06B012801D1FE
:104EA000012000E00020002802D172B600BFFEE71A
:104EB000FBF772F90290A06BE16B884201D3022DDF
:104EC00030D145200757A06B01902A46204604990F
:104ED000FEF792FD781C002814D1606A002801D1E9
:104EE000012000E0002000280BD12046243000F0F3
:104EF00079FB002805D00598002802D001210598EB
:104F000001600DE07F2F01D0012000E0002000288B
:104F100002D172B600BFFEE7781C41B245200155B0
:104F2000012600E000260298FBF73AF9304607B068
:104F3000F0BDF7B584B005460E46002003902C4620
:104F4000002C02D172B600BFFEE7002E02D1206C09
:104F5000002801D1012000E00020002802D172B613
:104F600000BFFEE700F0F2F9002802D10698002801
:104F700001D1012000E00020002802D172B600BF5C
:104F8000FEE700BFFFF79EFBA76B002F1AD031464C
:104F90002046FEF71BFD781EA0632069002801D182
:104FA000012000E00020002807D12046103000F04A
:104FB00019FB002801D0FFF705FCFFF791FB01204A
:104FC00007B0F0BD0698002803D1FFF789FB002049
:104FD000F6E70398002804D101A8FFF75DFC012043
:104FE0000390FFF77DFBFFF749FDFFF76BFB4421C3
:104FF0000857401C002802D10021442001554521BA
:105000000857401C002802D1002145200155FFF718
:1050100067FB06A901A800F0E7F8002819D120468F
:10502000FEF7C0FE00280ED0204624300699FFF778
:1050300045FC2046FFF76BF800F018FB0028A1D1D3
:10504000FFF7C0FB9EE72046FFF761F800F00EFB7C
:1050500098E72046FFF75BF800F008FB2046FEF7D4
:10506000A1FE00288ED00020AAE7F3B583B0054644
:10507000002002902C460026002C02D172B600BF00
:10508000FEE7206C002801D1012000E0002000286C
:1050900002D172B600BFFEE700F058F9002802D135
:1050A0000498002801D1012000E00020002802D14E
:1050B00072B600BFFEE700BFFFF704FBA76B002F2F
:1050C0001CD0781EA0632068002802D1FFF708F9E1
:1050D000A0602069002801D1012000E00020002804
:1050E00007D12046103000F07DFA002801D0FFF7EC
:1050F00069FBFFF7F5FA012005B0F0BD0498002820
:105100000DD1002E01D1012000E00020002802D1A5
:1051100072B600BFFEE7FFF7E3FA0020ECE7029863
:10512000002804D16846FFF7B7FB01200290FFF783
:10513000D7FAFFF7A3FCFFF7C5FA44210857401C34
:10514000002802D100214420015545210857401C68
:10515000002802D1002145200155FFF7C1FA04A91A
:10516000684600F041F8002824D12046FEF71AFED8
:10517000002819D02068002807D1FFF7A3FAA068FB
:1051800000F0DEF90646FFF7ABFA2046243004991A
:10519000FFF794FB2046FEF7BAFF00F067FA0028FD
:1051A0008AD1FFF70FFB87E72046FEF7B0FF00F03C
:1051B0005DFA81E72046FEF7AAFF00F057FA204685
:1051C000FEF7F0FD0028EED0002E0BD0FFF77AFAA4
:1051D0002046FEF773FC07463946A068FFF79EFBA2
:1051E000FFF77EFA002087E770B505460C46002DD4
:1051F00002D172B600BFFEE7002C02D172B600BF2A
:10520000FEE7FFF75FFA144802686868131A20681F
:10521000401C002801D1002619E0104928680968BF
:10522000884206D06868904203D80126002020609A
:105230000DE02068984207D92068C01A20602846EF
:10524000FFF72AFB002602E0002020600126FFF77E
:1052500047FA304670BD00003000002044000020B6
:10526000FFB585B01746B800FEF798FF0646002E3A
:105270000BD04C20FEF792FF0446002C01D0266391
:1052800004E03046FFF740FA00E00024002C13D081
:1052900000214920015500220F990E986B4613C337
:1052A00003923A46089B06990598FEF794FC20461F
:1052B000FEF7DAFA012501E00025ED43284609B0A2
:1052C000F0BDFFB585B00E9F0F9E109C002E01D043
:1052D000012000E00020002802D172B600BFFEE7E6
:1052E000002C01D0012000E00020002802D172B67D
:1052F00000BFFEE74C20039003984C2801D1012009
:1053000000E00020002802D172B600BFFEE700BF17
:10531000002C15D0002E13D025462E6302212C46DA
:1053200049204155002004A900970295019103905E
:1053300005A80FC8FEF74FFC2846FEF795FA01E0D6
:1053400000200490049809B0F0BD000006490968E7
:10535000002901D1012006E004490968002901D192
:10536000022000E000207047380000205800002094
:10537000014908687047000030000020F8B500209F
:10538000009042480068002878D141480068451CD8
:105390003F480560002D1CD13E4800680068002889
:1053A00001D1012000E00020002802D172B600BF28
:1053B000FEE73848076838480068364908603648CC
:1053C000076036480068401C34490860FEF706FE56
:1053D00000BF3348006885423DD300BF2D480068B8
:1053E0000068002801D1012000E00020002804D03E
:1053F0000020C0432A4908602CE026480068C068A5
:10540000C4686668B54202D22548066022E0201DC5
:10541000FFF7F4F8A06A002803D020461830FFF701
:10542000EDF82049E06A0968884202D91D49E06A1E
:1054300008601422E16A51431B4A8818211DFFF7B6
:1054400034F91A49E06A0968C96A8842C6D301205A
:105450000090C3E700BF15480068C06A14214843A4
:1054600011490858012801D901200090104800680E
:10547000002801D00120009005E0FFE70D480068FA
:10548000401C0C4908600098F8BD0000580000203E
:1054900030000020200000202400002044000020D4
:1054A0004C00002034000020880100201C00002057
:1054B000400000203C00002070B505462C46002628
:1054C000002D35D01B480068844201D1012000E046
:1054D0000020002802D172B600BFFEE7206C002831
:1054E00002D172B600BFFEE7206C401E2064E16B63
:1054F000E06A88421CD0206C002819D1201DFFF7DB
:105500007DF8E06BE0621021E06A081AA0610A49A8
:10551000E06A0968884202D90749E06A08601422F3
:10552000E16A5143054A8818211DFFF7BEF801269C
:10553000304670BD1C00002034000020880100208F
:1055400070B505462C460026002D42D02249E06A5F
:105550000968C96A884235D2A069C00FC00700280F
:1055600005D11D480068C06A1021081AA0611422E4
:10557000E06A5043194A80186169814201D10120D3
:1055800000E00020002817D0201DFFF737F8124850
:105590000068C06AE0621249E06A0968884202D97C
:1055A0000F49E06A08601422E16A51430B4A8818E7
:1055B000211DFFF77AF803E007480068C06AE0623F
:1055C000012606E00449E06B0968C96A884200D2F6
:1055D0000126304670BD00001C000020880100201C
:1055E0003400002070B50646F068C468002C02D173
:1055F00072B600BFFEE720461830FEF7FFFF1548E1
:105600000068002813D1201DFEF7F8FF1249E06A58
:105610000968884202D91049E06A08601422E16AE8
:1056200051430E4A8818211DFFF73FF804E0214638
:1056300018310B48FFF739F80A49E06A0968C96A66
:10564000884204D9012501200749086000E00025AF
:10565000284670BD5800002034000020880100203A
:10566000F00200201C0000204000002070B5002443
:10567000002632480068002802D172B600BFFEE75B
:10568000FFF720F82D480068401E2C4908600846A6
:10569000006800284DD12A480068002849D022E03F
:1056A0002848C068C46820461830FEF7A7FF201DB0
:1056B000FEF7A4FF2449E06A0968884202D922491A
:1056C000E06A08601422E16A5143204A8818211DCB
:1056D000FEF7EBFF1E49E06A0968C96A884202D3F7
:1056E00001201C49086017480068002801D10120EA
:1056F00000E000200028D3D0002C01D0FEF76EFC83
:1057000015480568002D0DD000BFFFF737FE0028B3
:1057100002D001200F4908606D1E002DF5D1002038
:105720000D4908600B480068002802D00126FFF7E9
:1057300049F8FEF7D5FF304670BD00005800002044
:105740002C000020F00200203400002088010020FE
:105750001C000020400000203C00002010B586B056
:105760000024FEF7D3F81448006800281BD000205E
:105770000590049003AA04A905A8FEF75FFF022282
:105780000499059800230092019102900BA10D4805
:10579000039AFFF796FD0C49086008460068002848
:1057A00000D0012400BF002C02D172B600BFFEE77A
:1057B000204606B010BD000064000020546D722029
:1057C00053766300F540000068000020F0B585B016
:1057D00004460D4616461F4600200390002C02D1B9
:1057E00072B600BFFEE715480068002822D0009579
:1057F00001960294062D15DAFFF7A8FD022808D1BC
:10580000002369460D480A9A0068FFF780FA039062
:1058100010E000231A46694608480068FFF777FA47
:10582000039007E000233A46694604480068FFF702
:105830001BFB0390039805B0F0BD0000640000203E
:105840000100020004000800100020004000800059
:105850000001000200040008001000200040008049
:105860000C59000080000000185900008000000062
:105870002459000080000000305900008000000022
:105880003C59000080000000485900008000303181
:105890003233343536373839414243444546403057
:1058A0005800303132333435363738396162636409
:1058B0006566403078000400000800000000000029
:1058C00000020001000010000D0A4D4355205072E7
:1058D0006F647563743A20202020202020424154B8
:1058E0003332413233374B4834304E423B2020284C
:1058F00032344E412F333246502F34304E422F3403
:105900003846412F36344642290000005461736BFB
:105910005F546573743100005461736B5F54657339
:10592000743200005461736B5F546573743300000C
:105930005461736B5F546573743400005461736B0E
:105940005F546573743500005461736B5F49324373
:1059500041000000745900000000002048010000D0
:105960003C090000A859000048010020102E00004A
:10597000080100000154021B0F1AAA010160320144
:1059800022D473200229081AE4109A0310DAF410C2
:105990001304019B2004101A141002130532061A76
:0859A000301C2908C1000000C1
:04000005000000C532
:00000001FF
