:020000040000FA
:10000000381A00209D010000A5010000A701000092
:1000100000000000000000000000000000000000E0
:10002000000000000000000000000000AF01000020
:100030000000000000000000B3010000352F0000A8
:10004000ED280000012900002129000041290000BD
:100050006129000081290000A1290000C1290000B8
:10006000D5290000E92900000D2A0000212A0000FE
:10007000352A0000592A00006D2A0000812A00005C
:10008000A52A0000C52A0000D92A0000ED2A000098
:10009000012B0000152B0000292B00004D2B000028
:1000A000712B0000912B0000B52B0000C92B000024
:1000B000DD2B0000F12B0000052C0000192C0000A6
:1000C000EF3FE9FF00F002F800F03DF80CA030C867
:1000D000083824182D18A246671EAB4654465D46C4
:1000E000AC4201D100F02FF87E460F3E0FCCB64651
:1000F0000126334200D0FB1AA246AB4633431847D1
:10010000C4D50000E4D5000000230024002500260B
:10011000103A01D378C1FBD8520700D330C100D5C3
:100120000B60704710B5642902D100F0ADF810BD26
:10013000782902D100F0DEF810BD002010BD1FB5F7
:100140001FBD10B510BD01F051FB1146FFF7F7FFC1
:100150000BF0C6F801F069FB03B4FFF7F2FF03BC34
:1001600007F094F970B505460C46164602E00FCC30
:100170000FC5103E102EFAD2082E02D303CC03C5B1
:10018000083E042E07D301CC01C5361F03E02178B9
:100190002970641C6D1C761EF9D270BD1948804709
:1001A00019480047FEE7FEE7FEE7FEE7FEE7FEE749
:1001B000FEE7FEE7FEE7FEE7FEE7FEE7FEE7FEE717
:1001C000FEE7FEE7FEE7FEE7FEE7FEE7FEE7FEE707
:1001D000FEE7FEE7FEE7FEE7FEE7FEE7FEE7FEE7F7
:1001E000FEE7FEE7FEE7FEE7FEE7FEE7FEE7FEE7E7
:1001F000FEE7FEE7FEE7000004480549054A064B16
:100200007047000021310000C500000038150020B3
:10021000381A002038160020381600200FB405497F
:1002200010B503AA029801F0E5F910BC08BC04B0AF
:10023000184700002401002070B504468569006855
:10024000C10601D5302600E02026C00707D070BDCA
:1002500062683046A1689047206A401C20626D1E8B
:10026000F6D570BD70B5044685690078C00707D122
:1002700070BD6268A16820209047206A401C2062FF
:100280006D1EF6D570BD0000F7B500257529106804
:10029000009914A611D0C046C046002802DA404298
:1002A00011A608E0009909688A0701D50FA602E0A7
:1002B000490704D50EA6012501E0C046C046009FAF
:1002C0000024243704E001F0BBF930313955641CB7
:1002D0000028F8D12B4632462146009801F031F92A
:1002E000FEBD0000000000002D0000002B000000FB
:1002F0002000000070B504460D4621461068C04637
:10030000C0462188090502D50F4A7A4402E00E4A08
:100310007A440E3223460021243305E00607000903
:10032000360F965D5E54491C0028F7D120780023D3
:10033000000705D5702D03D0002901D0022311320A
:10034000204601F0FEF870BDC2D10000F3B50446AE
:10035000002081B020622046E168884700287DD0D7
:10036000252802D06268A16883E0454F00257F44BC
:100370002046E16888472028064608DB312E06D251
:10038000B81920380078002801D00543F0E7A80705
:1003900001D5042085430020E0610746A0612A2E94
:1003A0000AD0304607F06AF8002827D0B8000019B4
:1003B000303E0090866119E00298BA00121902C816
:1003C000916102902046E1688847012F064617D1C7
:1003D000E06900281FDA202085431CE000980A21EC
:1003E0008069484300998019303888612046E16867
:1003F0008847064607F042F80028EFD1012F0AD0BF
:100400002E2E08D12046E168884706462020054365
:100410007F1C022FC3DBA069002803DA4042A061E1
:1004200001200543E80701D010208543002E24D089
:1004300030464138192803D80120C0020543203630
:10044000204625603146029A1546FFF76BFE0028CC
:100450000CD0012807D0ED1DE80800E00DE0C00039
:100460000830029077E72D1D029574E762683046E8
:10047000A1689047206A401C6CE7206AFEBD00001E
:1004800086D100000EB5044615460E4612A001F0B6
:10049000CDF8204601F0CAF815A001F0C7F83046A3
:1004A00001F0C4F814A001F0C1F86C460020E0721D
:1004B0000A20A0720A3407E00A21284600F09CF8BE
:1004C00030310546641E2170002DF5DC204601F018
:1004D000ADF801F0A3F800002A2A2A2061737365A1
:1004E0007274696F6E206661696C65643A20000001
:1004F0002C2066696C6520002C206C696E652000DC
:10050000F8B5042A2CD3830712D00B78491C03704A
:10051000401C521E83070BD00B78491C0370401CF3
:10052000521E830704D00B78491C0370401C521ED6
:100530008B079B0F05D0C91ADF002023DE1B08C9DB
:100540000AE0FFF70FFEF8BD1D4608C9FD401C4636
:10055000B4402C4310C0121F042AF5D2F308C91A64
:10056000521EF0D40B78491C0370401C521EEAD472
:100570000B78491C0370401C012AE4D409780170EF
:10058000F8BD01E004C0091F0429FBD28B0701D587
:100590000280801CC90700D00270704700290BD070
:1005A000C30702D00270401C491E022904D38307EE
:1005B00002D50280801C891EE3E70022EEE70022BC
:1005C000DFE70378C2781946437812061B02194305
:1005D0008378C0781B04194311430902090A0006F5
:1005E00008437047002203098B422CD3030A8B4235
:1005F00011D300239C464EE003460B433CD400221B
:1006000043088B4231D303098B421CD3030A8B422C
:1006100001D394463FE0C3098B4201D3CB01C01AFA
:10062000524183098B4201D38B01C01A52414309C5
:100630008B4201D34B01C01A524103098B4201D3B3
:100640000B01C01A5241C3088B4201D3CB00C01A20
:10065000524183088B4201D38B00C01A5241430898
:100660008B4201D34B00C01A5241411A00D20146BD
:100670005241104670475DE0CA0F00D04942031056
:1006800000D34042534000229C4603098B422DD3A5
:10069000030A8B4212D3FC22890112BA030A8B424D
:1006A0000CD3890192118B4208D3890192118B429C
:1006B00004D389013AD0921100E08909C3098B4221
:1006C00001D3CB01C01A524183098B4201D38B0164
:1006D000C01A524143098B4201D34B01C01A524107
:1006E00003098B4201D30B01C01A5241C3088B424C
:1006F00001D3CB00C01A524183088B4201D38B0037
:10070000C01A5241D9D243088B4201D34B00C01AC0
:100710005241411A00D20146634652415B101046D5
:1007200001D34042002B00D54942704763465B101D
:1007300000D3404201B50020C046C04602BD70470C
:10074000704770470246C80FC00781434B0030B561
:100750004B405B009B0D20D01923DB06C9180123F9
:100760001B05994220DB0324A40704251346AB4054
:100770000BD3002B04D1EB0613409B00E34204D4BF
:1007800001246407002312195941FF231B059942D4
:100790000BD2C9000143500F09E0CB0204D501433D
:1007A0000803024305D0054830BDFF21C9050843B1
:1007B00030BD084607210905884330BD0000C07FD1
:1007C000F0B50C46871A9C410D46861A9D4103D20E
:1007D000C01BA141D21963410D0D1F0DC94EEC1B69
:1007E000AE435CD07F057F0D0026002F51D02D0534
:1007F000AC46A943DD020123ED0A1B051D4320235E
:100800001B1B24D41746E740381871412F46E74098
:10081000CC199D402818314661410C0D27D1614407
:100820009A4013D50023401C594152000ED1400874
:10083000400001224B005205D34207D30520400758
:10084000C14201D5B04900E0B0493046F0BD6B006F
:10085000002A00D001229A181F23203C1B1B01D51F
:10086000002302E0E540281871410C0DD7D0012487
:1008700024050919C407CD0740084908E40F284397
:100880006144002CD5D00024401C61419A40D0D155
:10089000CDE76A05520DD9D1C90FC907D5E79C4DDF
:1008A0004E00002801D0012400E0002434195F002C
:1008B000002A01D0012600E00026BE19954FAC4267
:1008C0000CD8AE420AD8B44206D001256D05EC42E0
:1008D000BCD010461946F0BD9942FCD000203946E4
:1008E000F0BDF0B51FB40C460F46811A9F41254656
:1008F000861A9D4106D20125ED076F40401ABC4182
:1009000052187B41210D1E0D8D1BAC467D4D8D4334
:100910007ED075056D0D7CD00D05AE46AC431B0336
:100920001B0B794D52429D41202366469B1B14D3DD
:100930001746F740381800260090744160462F464D
:100940000741E41900989D402818664116D4714665
:1009500071189A4025D5012320E093182A466A4150
:100960005200002B00D0521C1E23203E9B1B002B4C
:1009700061DD3541EE1728186641E8D5001876414B
:100980005B1C9A4000D3401C4B05F3181524E34030
:1009900010D3002B52D071467118D30FC01802D358
:1009A000491C05B0F0BD0123DB079A42F9D140088C
:1009B0004000F6E701225205B21801D1002853D0B9
:1009C0000123CC0ADB029943891E002A08D1020CBC
:1009D00003D0020C0004103902E002460020203946
:1009E0000023550B05D112020823550B01D15201EA
:1009F0000D23550C01D112011B1DD50C01D1920004
:100A00009B1C150D01D152005B1C2025EE1A01E044
:100A10002CE022E00546F54015439840CA1AE1074C
:100A200069181305C918002ABBDA03204007081803
:100A3000C10FC9070FE071466118B2E7F10740081E
:100A40000843711071444A000CD001235B059A429F
:100A5000A7D2C90FC9070020A3E74905490D26D130
:100A6000002001E00028F4D100219AE7284D66001B
:100A7000002801D0012100E0002171185F00002A48
:100A800001D0012600E00026BE19224FA94210D84D
:100A9000AE420ED8B14208D001256D05E94206D01C
:100AA0001946A802414010467BE79C4201D02146EE
:100AB00077E70020394674E710B50C465C4005D551
:100AC0000124E4076340FFF70CFF10BDFFF778FE39
:100AD00010BD30B40C465C4004D50124E4076340EB
:100AE00030BC6DE630BCFCE670B50124E407614023
:100AF0000D465D4002D4FFF763FE70BD6340FFF713
:100B0000F0FE70BDFF0700000000F0FF0000F07F66
:100B10000000E0FF0000F87FF0B5F94D0C091E0958
:100B20002C402E402F468BB0A7437DD0B543FCD040
:100B3000002E7AD0002CFCD00D465D40ED0F2543F1
:100B4000AC1BFF25AD0464190894C502440DC9020D
:100B50002143500DDC0204430120C007014304433C
:100B6000D2020191200C110C00958C460104234601
:100B70008B430A9161460904E24D8A430991010AB7
:100B80007D4449198039097805464D4301266D1881
:100B9000F605751B6943C90C640B891C4C4364182A
:100BA000B5012C1B250C2E04B4434C434D43210CA2
:100BB000691889090591009DE90701D00121C9073C
:100BC00004912C4601996708CD072F434C08059DD9
:100BD000E10B4D432D0C29466646754302950D46A3
:100BE00045432E46029D7D1BB44100950D465D4355
:100BF00001942C0C2F040D465543AE462D0C3D435D
:100C0000029503947546049C2D04641B049406D23B
:100C1000029C039D641C002675410395029401AC5F
:100C200070CC009F7D1B01E03EE162E1B44109040C
:100C30000095079101940599A4086143090C0C469D
:100C40004443650BE7040C4666467443A646640BB2
:100C50003C43039502947446049DE4042C1B0494C5
:100C600006D2029C039D641C0026754103950294E4
:100C700001AC70CC009F7D1BB44101940C465C43D9
:100C80000095650FE7000C465443A646640F3C43AD
:100C9000039502947446049DE4002C1B049406D230
:100CA000029C039D641C002675410395029401ACCF
:100CB00070CC009F7D1BB441AE09AF06049DC900F6
:100CC000AD092F43049DA406AD060495079D34434A
:100CD00069180791059DE10B4D432D0C2946664689
:100CE000754302950D4645432E46029D7D1BB4413A
:100CF00000950D465D4301942C0C2F040D46554381
:100D0000AE462D0C3D43029503947546049C2D047C
:100D1000641B049406D2029C039D641C002675414A
:100D20000395029401AC70CC009F7D1BB4410194EB
:100D30008C050694079C890A611800950791019C0F
:100D40000599A4086143090C0D464543680BEF045F
:100D50000D46644665436C0B3C43049FED047D1BCC
:100D6000AC4602D20025641C6841009E019D371BE1
:100D700085410846584301950C46460FC50054432B
:100D8000600F28436546E4002C1B02D20025401C5E
:100D90006E41019D3F1AB5412846BD098006284392
:100DA0008446A009BF064E020699A406761807439A
:100DB000079D002068410A99079019430020099B6C
:100DC00000906046FF1913434041E20F64003A432C
:100DD000A4460446D71A8C41A04203D901200090B2
:100DE00020463A46C70F941840416246D20F22432C
:100DF000644664000494009CBE466400D71AA4466E
:100E0000044602978C417746002F01D1A04204D9B5
:100E10006046401C8446029A2046C40FA646941899
:100E20004041049A0546D20F224364466400D31A17
:100E30008D417146002901D1A84202D928461A469F
:100E4000641C10430122002800D0164361020020D8
:100E5000079B891904465C410223002C02DB4918D8
:100E600013466441089DCE0A2D145D194B05670594
:100E7000E10A2C050D1908993E43C9076940002B6A
:100E800008D0934006D30022761C5141002B01D19B
:100E9000760876001C4A002D43DB154241D0AA4358
:100EA0003FD030460BB0F0BD06180D464D41174CF3
:100EB0007642AC411AD395181C465C41134A6D42E8
:100EC000A24113D3012252054C00D4420AD15C0046
:100ED000D4420BD04B4002D592021143E2E74900C5
:100EE0004908DFE75940C90FC90718E00020084941
:100EF000D8E7054801420DD10342F7D0F2E70000E0
:100F00000000FF0785C900000000F07F0000E0FF3F
:100F10000000F87F114859400143C01241400020B1
:100F2000C0E70123089A9B069A4205DC0322520778
:100F30008918C90FC907B5E7052252078918074A5A
:100F40001143D2125140ADE770B515461C4602461A
:100F50000B4628462146FFF7DFFD70BDFFFFFF7FF0
:100F600030B50346CA02400D1043164D164C0A1503
:100F700002D02043002A06DBAA1A002A12DDD04044
:100F8000FF2A0BDC30BD5205520D01D14000400854
:100F9000AA1A07D4D0404042FF2A01DD002030BD0C
:100FA0000028FCDD4A00002B01D0012000E00020D9
:100FB000101801225205D042F0D8C817C043604033
:100FC00030BD00001E040000000000800346CA027D
:100FD000400D10B510430A1504D00124E407204346
:100FE000002A05DB0A4CA21A04D4D040FF2A00DDF7
:100FF000002010BD4A00002B01D0012000E000209D
:10100000101801225205D042F2D8C817C04310BDB3
:101010001E0400001F22030C02D10F22000402D084
:10102000030E03D004E00020014670470002083A96
:10103000030F01D10001121F830F01D18000921E06
:10104000002801DB4000521E120551184205C01253
:10105000411810467047C10FC90700D04042012215
:1010600092071143D6E701218907D3E7F0B58B4CEE
:101070000F09254689B0BD437BD01D092646AE43E6
:10108000FAD00E465E402740F60F3E43254071D011
:1010900024012142FBD0FF24AD19A4042D1B03958C
:1010A00001252D05DB02DB0AC9022B43C90A2943AE
:1010B0001E010901040F130F050121431701880BBD
:1010C000820391432D098C46A90B1E438A03954345
:1010D000B30B9A0396433F09BA0B9403A7430296B6
:1010E0002E467E430497B6464E19D7190C460196F4
:1010F000544305977E43371B7646BF1B3601B646E1
:10110000BE0B361900967646BC043719009C01D3F5
:10111000641C00946400002F01D001263443029E19
:10112000049F754366467E430496760034196E002C
:1011300034190094029C019E1C196643751BAE462F
:10114000069465464519059C05956C4359437546BB
:101150000891691A0191049E01465143A41B049110
:10116000611A009C0791E10605D061090122114333
:1011700002E072E06EE06109089D00272C0A2D064E
:101180006918049D7C412A0A2D066918019D624157
:10119000AC0DAD026D185441079A910D920255198C
:1011A0006141029A644658435443069B059A5A4348
:1011B000121A131B9A0E9B015B187A41010B000552
:1011C000C3185141220A200644195A419A4200D2BA
:1011D000491C01204002814203D315230226F64315
:1011E00002E014230326F6432020C51AA94017461F
:1011F000AF40DA400A4320460399D84009147318D7
:1012000019055118039A3843D2075140AC4009D010
:101210000122944006D30022401C5141002C01D1F0
:10122000400840001E4A934212D3012203989206BE
:10123000904207DB0520400709181A480143C012F5
:10124000414004E0032040070818C10FC9070020EF
:1012500009B0F0BD0020F107FAE705180C464C4133
:1012600011486D42A04115D394181A465A410E48B0
:10127000644290410ED301204A004005824209D3C6
:101280005A00824206D35940C90F084AC9070020B4
:101290001143DDE700200649DAE700000000FF0700
:1012A000FE070000FFFFFF7F0000E0FF0000F07F6F
:1012B0000000F87F0121C9050123411842001B06E7
:1012C000D3185B0E0AD0C1100722D2068918400736
:1012D0005242D14201D5520089187047090208D5FF
:1012E0000146002A03D0C10FC907002070471046ED
:1012F0007047420202D000200249704707210905C9
:101300000143F4E70000F87FF0B5FF252D04C6097E
:10131000C209FF2704462E400137CB093E4348400F
:101320002A402B400746002A6BD0002B69D0AA42E6
:1013300067D0AB4265D0002800DA32460125ED05C2
:1013400029432C4309022002090AD21A4B0C7F249C
:10135000E31A434C000A7C44E35C7D242404121904
:1013600014145B00A218884201D3521C00E0400014
:1013700049420C465C4324115C43DB016415E318CD
:10138000040A5C43C502200D0C4644436419250A37
:101390005D432303EC0C0D46654300030019EB1875
:1013A0004C42A34201D35B18401CD4052018002BEB
:1013B00007D05B00C91804D3401C002901D14008A4
:1013C00040003F2189048A4209D3002A08DC110623
:1013D000090F04D0032149074018C00FC007F0BD12
:1013E00001224100120689187F2252069142F6D24C
:1013F00005214907C84201D59010F0BDFF20C00566
:10140000F0BD002F00DA32461648AA4207D2AB429E
:1014100005D21902090E17D0F80FC007F0BDFF253D
:1014200063002D06AB42F9D84900A942F6D8AB4279
:1014300001D1A942F2D0A94201D1002101E061000D
:101440004908D0050843F0BD1102090EFBD0FF206A
:101450000243D005F0BD0A460146104654E700009D
:101460002FC200000000C07F10B501469E2400027C
:10147000CA15A307002A02D01843002A04DBA21AC7
:10148000002A0CDDD04010BD1206120E01D1400022
:101490004008A21A03D4D04040420028F3DDFF22C6
:1014A00048001206904201D9002010BDC817C04361
:1014B000584010BD0102C21504D00123DB071943B7
:1014C000002A0ADB9E239A1A02D40846D0407047AD
:1014D000FF2241001206914201D900207047C01737
:1014E000C04370471F22030C02D10F2200041CD0FE
:1014F000030E01D10002083A030F01D10001121FAF
:10150000830F01D18000921E002801DB4000521E93
:10151000D2055118021251181922904004D3491CC7
:10152000002801D14908490008467047C10FC90782
:1015300000D04042012292071143D3E701218907DD
:10154000D0E7FFB504460D4681B0243000902168F5
:10155000880604D51022E0699143216000E0012053
:10156000A84201DD471B00E000270498A1697A1911
:101570001018081AA0612078C00602D42046FEF791
:101580005BFE002608E003986268A168805D9047D2
:10159000206A401C761C206204988642F3DB207887
:1015A000C0060AD52046FEF747FE06E06268A1683D
:1015B00030209047206A401C206238467F1E002859
:1015C000F4DC07E000986268A168405D9047206AFB
:1015D000401C206228466D1E0028F3DC2046FEF7E2
:1015E00041FE2078000602D5022005B0F0BD0120A2
:1015F000FBE70000084B70B50D467B4400F0B3F8E4
:101600000446284608F0EAFA002802D00020C04329
:1016100070BD204670BD0000E7850000002000F08E
:10162000B5F8FEF78EFD012005F030FF10B5044639
:1016300002E0641C05F03AFF20780028F9D110BDC3
:1016400001468008081A02091018020A1018020C34
:101650001018C008820012185200891A01E0401CBC
:101660000A390A29FBD27047F8B5224C4E00069D74
:10167000A6420AD8A64201D1002806D15E00A642A1
:1016800003D8A6420AD1002A08D00D2424042542FA
:101690002CD02946002000F07FF8F8BD0C461C43F2
:1016A0000CD4994202D0EFF30080F8BD904202D0F2
:1016B000EFF30080F8BDEFF30080F8BD09242407A4
:1016C000E5008B4206D0EFF30080A043591A06D202
:1016D000284304E0101A05D3EFF30080A04380F301
:1016E0000088F8BDEFF30080A043F1E7009500F01B
:1016F0006BF8F8BD0000E0FF10B5FF231B064400A7
:101700009C421DD84C009C421AD80346124A0B43F7
:1017100007D4401A02D3EFF3008010BDEFF300802E
:1017200010BD081A06D2EFF3008001219043C907CB
:10173000084302E0EFF30080904380F3008810BD7F
:101740000D231B041A4204D01146002000F024F897
:1017500010BD00F043F810BD0000009001694A1C64
:1017600002610878704700B58FB0029100210591A1
:101770000549019379440391114604906846FEF7A8
:10178000E5FD0FB000BD0000E5FFFFFF10B500F064
:1017900059F800F050F810BDCA0211D54A03520F93
:1017A000002A04D0C803C043012188407047054A7D
:1017B000EFF3008108010009104380F300887047AF
:1017C000002070470000003010B500200249029A46
:1017D00000F050F810BD00000000F87F10B502487E
:1017E00000F048F810BD00000000C07F754600F012
:1017F00071F8AE46050069465346C008C0008546EC
:1018000018B020B5FEF7F8FC60BC00274908B646C2
:101810000026C0C5C0C5C0C5C0C5C0C5C0C5C0C5FF
:10182000C0C5403D49008D4670470446C046C0468D
:101830002046FEF791FC10B5002801D005F026FEE9
:1018400010BD000010B5002102A000F047F80120F3
:1018500010BD0000534947414252543A2041626E44
:101860006F726D616C207465726D696E6174696F01
:101870006E00000010B50C461107090F092904D0AD
:101880000A290AD008290CD104E011460820FFF7E4
:1018900083FF06E0510606D501E0510601D501207F
:1018A000C007214610BDD10607D501010909CC08A2
:1018B0004907000E0006044309E0410F20024907D2
:1018C000000A0143200E00061D22D14101430846B3
:1018D000E7E7000000487047D814002070B50546BF
:1018E0000C460A2000E06D1C05F0E0FD002D06D03E
:1018F00028780028F7D102E0641C05F0D7FD002C01
:1019000002D020780028F7D10A2005F0CFFD70BD65
:1019100070B58C180578401C6B075B0F01D10378FC
:10192000401C2A1106D10278401C03E00678401CB6
:101930000E70491C5B1EF9D12B0705D40023521EE3
:101940000DD40B70491CFAE70378401CCB1A921C8B
:1019500003E01D780D70491C5B1C521EF9D5A14295
:10196000D8D3002070BD000010B5012128480175B2
:10197000284800782021084326490870002026497D
:10198000087026490875152001F086F900BF244823
:101990008078012108432249887008468078022116
:1019A00008431F49887008468078042108431C4971
:1019B00088700846807808210843194988700846CD
:1019C00080781021084316498870084680782021C5
:1019D00008431349887000BF28200F490870002071
:1019E0008870084680788870084680780821084307
:1019F00009498870002008718871FF20C872002092
:101A0000887208460078012108430349087010BD18
:101A1000406100402004024000500440406000400B
:101A20006000044010B504460B48047200200B49C6
:101A30000875152001F030F90021094801750648A4
:101A400080798011032805D003480078802108435D
:101A50000149087010BD0000005004404060004083
:101A60004061004070B5002405F0B2FE05F081FE33
:101A700005F076FE0546002D01D0601CC4B220465C
:101A800070BD000070B500240025B948007803003F
:101A900005F0E6FC09061D3A5983FEFDFCFBFA0041
:101AA000032005F0A7FB0120B14908700520B149CA
:101AB00008600020B0490870B04908700120B049A2
:101AC00008700020AF490870AF4908704DE1A9487F
:101AD0000068002817D10122A74905F029FEA64871
:101AE0000078A02809D10220A14908700A20A14944
:101AF00008600020A249087005E000209C49087099
:101B000001209F49087030E19A480068002819D1E7
:101B1000FFF7A8FF0446002C09D000209449087064
:101B20000A20944908600120954908700AE00320C2
:101B30008F49087032208F4908600020934908704F
:101B40008F49087011E18B480068002824D10122D8
:101B50008F49032005F0ECFD04468C480078401CBA
:101B60008A4908708A480078602808D10420804992
:101B7000087000207F490860844908700CE032201A
:101B80007C49086081480078322805DD01207849C9
:101B9000087000207D490870E7E07648006800285A
:101BA00077D106227B49042005F0C2FD0446002CB3
:101BB00070D179490860774880780968401876497B
:101BC00008600846006800020860724840780968AA
:101BD00040187149086008460068000208606D48B6
:101BE0000078096840186C49086008460068801150
:101BF0000860084600686949884206DA084666496E
:101C000008600120604908700EE06348006864497C
:101C1000884206DD08466049086001205A4908707C
:101C200002E00020584908705B4800685D49086080
:101C30000A2159480068FEF7DFFC5B490880084626
:101C400001885A480AF0D0FA0020534908605148E8
:101C50004079096840185049086008460068000249
:101C600008604C480079096840184B4908600846EC
:101C70000068000208604748C07809684018464973
:101C800008600846006806E06EE06CE06AE068E024
:101C900066E064E044E00121C905884206DB3E4875
:101CA0000068FF21090608433B49086040493A485B
:101CB0000068FEF7A1FC38490860084600683D4905
:101CC000884206DA08463449086001202D49087028
:101CD0000EE0314800683849884206DD08462E4942
:101CE000086001202749087002E00020254908709B
:101CF000294800883149088027480068FFF7ABF978
:101D00002F4A03C200222F4B2D4903C9FEF704FFBF
:101D10002B4A03C200201D4908701949087007E0CA
:101D20001A480078401C19490870012014490870AD
:101D300016480078322809DD02200D4908700A2073
:101D40000C49086000201149087008E00320084988
:101D50000870C8200749086000200C49087004E09A
:101D600003E002E001E000E000BF00BF284670BDD4
:101D7000F4020020F8020020FD020020FE020020F4
:101D8000060300200703002008030020FC020020B7
:101D9000FF02002000030020F00200203075000048
:101DA00048E80100D4020020EE0200208D1300203C
:101DB0009A19000070FEFFFF52030000EC020020A1
:101DC000D802002000002440FEB50026002002902A
:101DD000FE480078030005F043FB09061FF9709BDD
:101DE000F8F7F6F5F900FA480068002813D1022048
:101DF00005F000FA0120F54908700520F449086053
:101E00000020F4490860F4490860F4490870F44976
:101E10000870F449087064E2ED48006800284BD16E
:101E2000F14800F067FBF0480078EA49086008468E
:101E3000006800020860EC48407809684018E549ED
:101E40000860EA48E4490860E248006803210903A1
:101E5000884218D1E0480068E449884213D1032041
:101E6000DA4908700520DA4908600020E049087066
:101E7000DA490870DF490880DF490870DF490870D7
:101E8000DF49087018E00020D04908700A20D049C6
:101E90000860D7480078401CD5490870084600788B
:101EA000202806DD7D20C000C94908600020D049F7
:101EB00008700120C949087013E2C548006800286D
:101EC00025D100F00AFB0646002E0BD10420BF49A5
:101ED00008700A20BE4908600020C5490870BF4943
:101EE000087014E00A20BA490860C1480078401C14
:101EF000BF49087008460078202805DD0120B34955
:101F000008700020BA4908700120B4490870E8E15F
:101F1000AF48006800287DD1B34800F00BFB0646AF
:101F2000002E78D100BFB7490860AF48007808603C
:101F30000846006800020860AB484078096840180D
:101F4000B049086008460088AF4908801421AE48AF
:101F50000088FEF751FBAC49088008460088AB4971
:101F60000880A8480068FFF776F804460D4600226E
:101F7000A74B20462946FFF779F804460D46002274
:101F8000A44B20462946FEF7C7FD04460D46002215
:101F9000A14B20462946FEF79CFD04460D46002233
:101FA0009E4B20462946FFF761F804460D46002265
:101FB0009B4B204629460AF0ADFD08D201208849F6
:101FC000087012E08BE189E17BE179E188E1002290
:101FD000944B204629460AF0CFFD03D201208049C8
:101FE000087002E000207E49087020462946FEF76E
:101FF000B7FF00B28C4908800846008881B28B4840
:102000000AF0F2F888490020085E894908800846ED
:10201000008801E053E144E181B286480AF0E4F827
:1020200000227E4B20462946FEF776FD0191009066
:10203000FEF788FB804908600020724908606A4802
:10204000C0780860084600680002086066480079A9
:10205000096840186B49086008460068FEF7FBFFF6
:1020600004460D460022754B20462946FEF7FEFF2A
:1020700004460D460022674B20462946FEF74CFDDC
:1020800004460D4600221346204629460AF042FD2A
:1020900005D2002425460120524908700FE0002295
:1020A000664B204629460AF067FD05D20024634DA1
:1020B00001204C49087002E000204A49087020467F
:1020C0002946FEF783FF5E49088008460188574885
:1020D000C01C0AF089F85A48008800B259490880A3
:1020E0000846008881B25348C01C0AF07DF80022DF
:1020F000524B20462946FEF70FFD01910090FEF756
:1021000021FB5149086020462946FEF75FFF4F49F1
:10211000086006202D490870BE202D490860002067
:10212000334908702D4908703248008847490988AA
:1021300040183049088030480078401C2E4908700B
:102140000846007805283FDB012707E07800404972
:10215000095A781C40003E4A11527F1E002FF5DAC2
:102160002548017823480088FEF746FA3849088058
:102170000020214908701F49088021480078032861
:1021800004DA1F480078401C1D4908701C4800787C
:10219000032819DB00202F490880401E2E490880A3
:1021A000002763E078002A49085A2A4909888842AA
:1021B00004DD78002649085A264908807800244919
:1021C000085A2549098849E06AE00000B002002069
:1021D000B4020020BC020020C0020020C80200207F
:1021E000C9020020CA020020A40200202030000002
:1021F000B80200202E050020300500202B0500200D
:102200002A050020C4020020E4020020E60200208B
:1022100000E06540E0FFEF400080464000002440C1
:10222000000079C000B08D40A0020020871300207C
:10223000C00400208C140020CC02002000408F40FD
:10224000A2020020D8040020D0020020E0020020DA
:10225000240500203205002034050020884204DADD
:1022600078002149085A214908807F1C032F99DBF7
:102270001F4800881D490988401A1E4908801E48C9
:102280000078012809D1084600881C49098888423D
:1022900003DD01201A49087002E000201849087087
:1022A0000DE003201749087064201749086017489B
:1022B0000078401C1549087001201549087010E08D
:1022C0000FE011480068002807D103200D4908706D
:1022D00000200D4908600D49087002E001E000E0AF
:1022E00000BF00BF0298FEBD240500203405002079
:1022F00032050020200500202C05002022050020AA
:102300002B050020B0020020B4020020B8020020FB
:10231000C80200200021014841707047246000403D
:1023200000210148417070475C6000400021014875
:10233000417070476460004000210148417070475F
:102340006060004000B5C0229178F82211401C4A1C
:10235000127811431B48EA2923D00ADC0A46E03AE6
:10236000130005F07DF80A181C20242A2A2A2A16B0
:102370001A2AED291FD004DCEB2916D0EC291CD138
:1023800017E0F02903D0F82917D10F4815E00F48BE
:1023900013E00D4811E00E480FE00E480DE00E4826
:1023A0000BE00E4809E00E4807E00E4805E00E4835
:1023B00003E00E4801E0034800BF00BF00BD00007D
:1023C000201C024040420F000048E801006CDC0283
:1023D00000366E010024F400001BB70000127A00E2
:1023E000808D5B0000093D00C0C62D0080841E006A
:1023F000F0B585B0074600252948008800284BD055
:1024000028480088002847D027480088002843D063
:1024100025480088254988423ED0002400263846B9
:10242000FFF784F8044622492046FEF76DFF064672
:102430001D480088FFF782F8314603900AF09AFCA5
:1024400006463046FEF736FF00221A4B01910090F7
:10245000FEF762FB03910290FEF774F904461648FA
:10246000056826460146486831460AF0FFFB2946C2
:1024700003900AF0B5FB0546214630460AF0F6FB0C
:1024800006460D49886831460AF0F0FB294603905C
:102490000AF0A6FB054600BF284605B0F0BD0000C7
:1024A00070040020720400206E040020FFFF000072
:1024B000000020410088C340CC1100200146CA78AA
:1024C0005006400E7F2806D18A7880201040802850
:1024D00001D1002070470120FCE71CB500200190CD
:1024E000012001AB242244210090022007F0EAFBE6
:1024F0001CBD00001CB5044601200C4908700CA04E
:1025000000680190012001AB372244210090022095
:1025100007F0D8FB0220234600224421009007F058
:102520006FFB0020014908701CBD00001003002053
:102530008100000038B504460120084908700620D3
:102540002346002244210090022007F059FB054653
:10255000002002490870284638BD00001003002002
:10256000134908700021134A1180134A1180134A3D
:102570001170134A1170134A1180134A1180134AC3
:10258000117000BF00BF1249032212028918497955
:10259000022291430E4A03231B02D218517100BF3D
:1025A00000BF00210B4A11600B4A117070470000F8
:1025B0005405002056050020580500205A0500202B
:1025C0005B0500205C0500205E0500206005002002
:1025D000000004404C0500204005002028480078F9
:1025E00001284BD127480078002847DD26480021E4
:1025F000415E962911DA25490020085E4B21C90069
:1026000088420ADD22480088224988420ADA2048A6
:102610000088401C1E49088004E000201E49087004
:102620001B4908801A4800881C490968884202D959
:102630000120194908701848007801280FD118485E
:102640000088FF21F531884209DD16480068401EE8
:10265000154908600120154908701549087013488C
:10266000007801280AD10E480088FF21F531884200
:1026700004DC00200D4908700D4908707047000007
:102680005405002041050020560500205C0500206F
:102690005E050020FFFF00005A05002050050020C5
:1026A00058050020480500204C0500205B0500204F
:1026B000400500200121054801770548808808432E
:1026C0000349888000200349087770470061004073
:1026D000601504400060004008B5002016490870ED
:1026E000164880880121084314498880084640899B
:1026F000134908401149488108460089104908409B
:102700000E49088108460089891508430B4908814C
:102710000020009005E000BF68460078401CC1B270
:102720000091684600780E28F5D9044800890121F7
:1027300008430249088108BDE000002060150440FC
:10274000FEFF000001210648017006488088022132
:10275000084304498880002003490870704700003E
:1027600020610040601504402060004008B5164814
:10277000808802210843144988800846408913490B
:1027800008401149488108460089104908400E490F
:10279000088108460089491508430B490881002033
:1027A000009005E000BF68460078401CC1B200916F
:1027B000684600780E28F5D90348008902210843AD
:1027C0000149088108BD000060150440FDFF0000BC
:1027D0000548407C802188430349487400BF00BFFE
:1027E00000BF00BF00BF7047201A0440384800787F
:1027F0001021084336490870002036490874012129
:1028000035480170002035490870324948744B2022
:1028100088745320C8740846407C012108432D4920
:102820004874262008752E48807C022108432C49D4
:1028300088740846807C012108432949887425480A
:10284000007C08210843234908740846007C0421C1
:102850000843204908740846007C802108431D492C
:1028600008740846007C402108431A490874002176
:102870001948017000BF1B48C07D042188431949D5
:10288000C875194880794008400017498871164872
:10289000203080794008400013492031887100BF02
:1028A00000BF1048C07D042188430E49C8750E48FA
:1028B0008079022188430C4988710B482030807947
:1028C0000221884308492031887100BF7047000009
:1028D00020040240201A0440406100404060004053
:1028E000401B0440600804400003044010B5034846
:1028F0000078002801D008F0EDFC10BD0060004019
:1029000010B506480079002801D008F08FFC034874
:102910004079002801D008F0B9FC10BD00600040EB
:1029200010B50648007A002801D008F091FC034851
:10293000407A002801D008F0AFFC10BD00600040D4
:1029400010B50648007B002801D008F087FC03483A
:10295000407B002801D008F0A5FC10BD00600040BD
:1029600010B50648007C002801D008F07DFC034823
:10297000407C002801D008F09BFC10BD00600040A6
:1029800010B50648007D002801D008F073FC03480C
:10299000407D002801D008F04FFC10BD00600040D1
:1029A00010B50648007E002801D008F069FC0348F5
:1029B000407E002801D008F045FC10BD00600040BA
:1029C00010B50348007F002801D007F0C9F910BDF9
:1029D0000060004010B503480078002801D007F0DF
:1029E00097FA10BD2060004010B507480079002814
:1029F00001D009F011FC0448001D4078002801D0E6
:102A0000FFF788FC10BD00002060004010B50348AF
:102A1000007A002801D009F0A9FC10BD2060004018
:102A200010B50348007B002801D009F06FFC10BDF1
:102A30002060004010B50748007C002801D009F054
:102A4000DFFB044810304078002801D009F0EAFB91
:102A500010BD00002060004010B50348007D002834
:102A600001D009F0DFFC10BD2060004010B5034824
:102A7000007E002801D009F08FFC10BD20600040CE
:102A800010B50748007F002801D009F0BFFB0448BB
:102A90001C304078002801D009F0CAFB10BD0000AE
:102AA0002060004010B506480078002801D007F0EB
:102AB00063FE03484078002801D004F0AFFE10BD4B
:102AC0004060004010B503480079002801D009F0AB
:102AD000B5FB10BD4060004010B50348007A0028E7
:102AE00001D009F0B1FB10BD4060004010B50348B3
:102AF000007B002801D009F0ADFB10BD4060004014
:102B000010B50348007C002801D009F0A9FB10BDD6
:102B10004060004010B50348007D002801D004F05B
:102B2000CBFC10BD4060004010B50748007E002877
:102B300001D009F053FB044818304078002801D038
:102B400008F0BCFB10BD00004060004010B5074815
:102B5000007F002801D008F0B7FB04481C30407803
:102B6000002801D0FFF7DCFB10BD000040600040F2
:102B700010B506480078002801D004F0CDFD0348C8
:102B80004078002801D0FFF7D7FB10BD60600040FF
:102B900010B507480079002801D004F0C3FD0448AF
:102BA000001D4078002801D0FFF7C0FB10BD0000D9
:102BB0006060004010B50348007A002801D009F099
:102BC00055FB10BD6060004010B50348007B002835
:102BD00001D009F075FB10BD6060004010B50348DE
:102BE000007C002801D009F071FB10BD606000403E
:102BF00010B50348007D002801D009F055FB10BD39
:102C00006060004010B50348007E002801D009F044
:102C100051FB10BD6060004010B50348007F0028E4
:102C200001D009F0DBFE10BD6060004070B500F01F
:102C30006FFA7D21C9000F480068FDF7D3FC0546F7
:102C40002C46601E0C49884200D90CE0601E0B49DE
:102C500048610321081F00F05BF8002007498861E4
:102C60000720086100BF00F053FA00200449086003
:102C700070BD0000EC060020FFFFFF0000E000E058
:102C800024020020C206D20E01219140014A1160A7
:102C90007047000080E200E0C206D20E01219140A0
:102CA000014A11607047000080E200E0C206D20EC7
:102CB00001219140014A11607047000080E200E06C
:102CC000C206D20E01219140014A116070470000F6
:102CD00080E200E0C206D20E01219140014A11605B
:102CE0007047000080E100E0C206D20E0121914051
:102CF000014A11607047000000E100E0C206D20EF8
:102D000001219140014A11607047000000E100E09C
:102D100010B5002819DA1A4A03071B0F083B9B0855
:102D20009B00D2588307DC0EFF23A3409A438B07F6
:102D30001B0E8407E40EA3401A43114B0407240F13
:102D4000083CA408A4001A5118E00E4A03231B02F1
:102D5000D21883089B00D2588307DC0EFF23A340C0
:102D60009A438B071B0E8407E40EA3401A43054BBE
:102D7000032424021B198408A4001A5110BD00006A
:102D80001CED00E000E100E0F0B50C461546012323
:102D9000A340D9B22A462B0004F062FB06042C544F
:102DA000787E9EBD5D4B1B5C8B435C4E33545B4B0E
:102DB000603B192676019B191B5C0B43574E603E06
:102DC00019277F01F6193354544B203B1B5C8B436E
:102DD000524E203E3354514B103B1B5C8B434F4EA5
:102DE000103E33544D4B303B1B5C8B434B4E303EBF
:102DF000335490E0494B1B5C8B43484E3354474B54
:102E0000603B192676019B191B5C0B43434E603EC9
:102E100019277F01F6193354404B203B1B5C8B4331
:102E20003E4E203E33543D4B103B1B5C8B433B4E90
:102E3000103E3354394B303B1B5C0B43374E303E16
:102E4000335468E0354B1B5C8B43344E3354334B67
:102E5000603B192676019B191B5C0B432F4E603E8D
:102E600019277F01F61933542C4B203B1E5C0E436F
:102E70001E542A4B103B1E5C8E431E54274B303B86
:102E80001B5C8B43254E303E335444E0234B1B5C8C
:102E90000B43224E33543EE0204B1E5C8E431E54A7
:102EA0001E4B603B192676019B191B5C8B431B4E06
:102EB000603E19277F01F6193354184B203B1B5CE9
:102EC0008B43164E203E3354144B103B1B5C8B43FC
:102ED000124E103E33541EE0104B1B5C8B430F4EC2
:102EE00033540E4B603B192676019B191B5C8B43B8
:102EF0000A4E603E19277F01F6193354074B203BD9
:102F00001B5C8B43054E203E3354044B103B1E5C30
:102F10000E431E5400BF00BFF0BD0000600004401F
:102F20000349086000BF024909680029FBD17047C6
:102F30004002002010B561480068401C5F490860ED
:102F400001205F4908707D21C9005C480068FDF7D9
:102F500049FB002904D15B480068401C59490860BE
:102F600059480088401C5849088058480068002883
:102F700004D056480068401E544908605448006810
:102F8000002804D052480068401E5149086051484A
:102F90000068002804D04F480068401E4D49086072
:102FA0004D480068002804D04B480068401E4A493C
:102FB00008604A480068002804D048480068401E5D
:102FC0004649086046480068002804D04448006824
:102FD000401E4349086043480068002804D0414827
:102FE0000068401E3F4908603F480068002804D040
:102FF0003D480068401E3C4908603C480068002885
:1030000004D03A480068401E3849086038480088B3
:10301000012809D1374800883749884204DA354801
:103020000088401C3349088034480068401C3349FC
:1030300008603348007801282ED1324800680968BA
:1030400088420FD100BF00BF2F480321090240185A
:103050004079022188432C490322120289184871C1
:1030600000BF29E02948006824490968884223D81C
:1030700000BF00BF24480321090240184079022103
:1030800008432149032212028918487100BF00BF7A
:1030900000201A4908600FE000BF00BF1A48032152
:1030A000090240184079022188431749032212027D
:1030B0008918487100BF00BF10BD00002402002025
:1030C000210200203C0200207C0400204402002059
:1030D0005C0200208402002040020020B402002094
:1030E0000C030020F802002024040020E006002049
:1030F000EA060020E8060020FFFF00004C05002043
:103100004005002044050020000004404805002040
:1031100010B5FFF717F90149086010BDEC06002053
:1031200010B580201B4948711A201A4920390872AD
:103130002B2048723C2088724D20C872002016490E
:103140004860FFF7FFF8154908600020C0431449A4
:1031500008601449086014481449086011490322A2
:103160001202891848600F49891888600D4989182A
:10317000C8600C49891808610A49891848610949D9
:103180008918886107498918C861AC2008494870C6
:1031900010BD00002004024000B00140EC060020F9
:1031A00080E200E000E100E0C0C0C0C000E400E058
:1031B000001002400E4A927E01231A430C4B9A766D
:1031C0000C4A1278FE231A400A4B1A7001230A4A4D
:1031D00013720022094B1A72064A9070402802D1DD
:1031E0001022074BDA704A1E024BC0331A80704718
:1031F00000080240402204406061004060600040DE
:10320000200402400020064908720021054801728E
:103210000548007801210843034908707047000001
:103220006060004060610040402204400648007831
:10323000FE21084004490870012104480172002061
:10324000034908727047000040220440606100405A
:1032500060600040F8B505460E466A46314628468D
:1032600000F0BEFA0446002C1FD1032010498880CC
:103270000846C08800090001C8800846C088694621
:10328000097808430A49C880684640784006000C1F
:1032900008490882684640784006000C4882044885
:1032A000408803210843024948802046F8BD0000B9
:1032B000201104400013044070B505460E463D48F9
:1032C0000078042108433B49087003203A49C8802C
:1032D0002220394920390882384808836720400273
:1032E000374908823748007C012108433549087472
:1032F0000720314920394881FF2023304882324855
:103300004883672040022E4948822B4800890121CA
:103310000843294908810846808A2C4908402649E3
:10332000888208464089012108432349488100BF1B
:103330002748007F20210843254908772548407801
:103340000421084323494870224820304078042152
:1033500088432049203148701F48407C042188431D
:103360001D4948741C4820304078042188431A497C
:103370002031487000BF00BF1548007F202108435E
:103380001349087713482030407802210843114937
:1033900020314870104820304078022188430E497F
:1033A0002031487000BF31462846FFF753FF0446DE
:1033B000204670BD2004024020110440A780000078
:1033C000001304406004044097400000FEFF00002A
:1033D00060080440000304404000044000BF04486B
:1033E0004088202108400028F9D00248807C70479E
:1033F00000110440001304400449087400BF04494C
:103400000988602211400029F9D170470013044057
:1034100000110440F8B505460E466A463146284676
:1034200000F0DEF90446002C16D10C200B498880F0
:1034300068460078C880684640784006000C084915
:103440008880684640784006000CC8800348408861
:103450000C210843014948802046F8BD2011044052
:103460004013044070B505460E463F4800780421DD
:1034700008433D4908703D4880880C2108433B497A
:10348000888001213A480175017601770020394989
:103490000875087608772220344920398882364812
:1034A000888367204002354988803548007C0421A4
:1034B00008433349087407202C492039C881FF206C
:1034C0002330C8822F48C883672040022B49C88018
:1034D0002648008904210843244908810846808A37
:1034E0002949084021498882084640890421084327
:1034F0001E49488100BF254800780421084323491C
:103500000870224820300078042188431F49203168
:1035100008701F48007C042188431D4908741C481A
:10352000203000780421884319492031087000BFF9
:1035300000BF16482030007802210843134920318B
:103540000870134820300078022188431049203148
:10355000087000BF31462846FFF75CFF044600F0C4
:1035600019F8204670BD00002004024020110440DC
:10357000206100402060004097800000401304401C
:103580006004044097400000FBFF0000000304407B
:103590004000044010B510480089042108430E493A
:1035A000088108464089042108430B4948810846A0
:1035B00040880C21084308494880002007490875C5
:1035C00008760D20FFF75EFB0E20FFF75BFB002166
:1035D00003480175017610BD2011044020600040B1
:1035E00020610040F8B505460E466A463146284639
:1035F00000F0F6F80446002C16D103200B49888011
:1036000068460078C880684640784006000C084943
:103610000881684640784006000C4881034840888D
:1036200003210843014948802046F8BD6015044045
:103630004017044070B505460E46474800780821FB
:103640000843454908704548808803210843434999
:103650008880012142480177414820300170017182
:103660000020404908773F49203108700871222026
:103670003A49203908823C480883672040023B4988
:1036800008813B48007C1021084339490874072011
:10369000324920394881FF20233048823548488309
:1036A00067204002314948812C48008901210843A4
:1036B0002A4908810846808A2F490840274988827C
:1036C00008464089012108432449488100BF2B480E
:1036D000C07D022188432949C875294840780821BE
:1036E00008432749487026482030407808218843FD
:1036F0002349203148702348407C082188432149D0
:103700004874204820304078082188431D492031E2
:10371000487000BF00BF1948C07D02218843174987
:10372000C8751748203040781021084314492031CB
:1037300048701448203040781021884311492031C6
:10374000487000BF31462846FFF74CFF044600F0A2
:103750001BF8204670BD00002004024060150440A4
:103760000061004000600040978000004017044066
:103770006004044097400000FEFF00006008044021
:10378000000304404000044010B5124800890121A4
:1037900008431049088108464089012108430D4922
:1037A000488108464088032108430A494880002090
:1037B000094908770849203108700720FFF762FAA5
:1037C0000820FFF75FFA0021044801770348203002
:1037D000017010BD601504400060004000610040B1
:1037E000F7B58AB016466424002003900290019039
:1037F0000B980002059005990A98FCF7F3FE401C0F
:10380000049002E00398401C039001200399884033
:1038100004998842F6D3039D3EE06800274A115A76
:103820000A98FCF7DFFE0690022732E0791C069822
:10383000FCF7D8FE410807917D22D2000799514339
:1038400008460B99FCF7CEFE7D21C900401A0A21DB
:10385000484308900898211E01DB0A4600E04A42CE
:10386000002801DB034600E043429A4202DD089C47
:1038700001970295201E01DB014600E04142142918
:1038800006DA357077700020099009980DB0F0BD08
:103890007F1C802FCAD36D1C102DBED3201E01DBD0
:1038A000014600E04142142903DB02983070019880
:1038B0007070002009900998E8E700005CCE0000D5
:1038C0000021017041708170C170002284210A546E
:1038D00085210A5486210A547047000000B5054826
:1038E000FFF7EEFF0448FFF7EBFF0448FFF7E8FFA0
:1038F00000BD000010080020170900201E0A00204B
:10390000F8B5FC48008803287ED1FB480088401C9D
:10391000F9490880F9480078012801D1F849088060
:10392000F848007802280DDAF7490020085EF549CA
:1039300009784900F54A5052F2480078401CF14994
:10394000087011E0002408E0601C4000EF49085AAC
:103950006100EE4A5052601CC4B2012CF4DBEA490B
:103960000020085EE9494880E648007802286ADBC2
:10397000E748E8490880401CE749088000241BE02C
:103980006000E249085EE34900228A5E904204DA60
:103990006000DE49085ADF4908806000DB49085EA4
:1039A000DD4900228A5E904204DD6000D749085A52
:1039B000D9490880601CC4B2022CE1DBD549002043
:1039C000085ED64900228A5E904204DCD14900207C
:1039D000085ED2490880D0490020085ED049002204
:1039E0008A5E904204DBCC490020085ECC49088006
:1039F000C9480088C7490988401A00B2C9490880E7
:103A0000084600883C2100E0CEE3484300B2C549A7
:103A100008800846008881B2C34808F0E5FBC14928
:103A20000020085EC14900228A5E90420BDDBD493C
:103A30000020085EBD4908800846008881B2BA4867
:103A4000801F08F0D1FBBA48007802280DDAB94986
:103A50000020085EB64909784900B74A5052B44878
:103A60000078401CB249087011E0002408E0601C96
:103A70004000B149085A6100AF4A5052601CC4B2BC
:103A8000012CF4DBAB490020085EAB494880A84814
:103A90000078022869DB9E48A8490880401CA84994
:103AA000088000241BE06000A349085EA3490022AF
:103AB0008A5E904204DA60009F49085A9F49088054
:103AC00060009D49085E9E4900228A5E904204DDA6
:103AD00060009949085A9A490880601CC4B2022CB7
:103AE000E1DB96490020085E964900228A5E9042FA
:103AF00004DC92490020085E924908809049002029
:103B0000085E914900228A5E904204DB8C490020C5
:103B1000085E8D4908808A48008888490988401ACB
:103B200000B28A490880084600883C21484300B218
:103B3000864908800846008881B27B48C01C08F08E
:103B400053FB82490020085E814900228A5E904230
:103B50000BDD7E490020085E7D490880084600880C
:103B600081B27148C01E08F03FFB7A4800880228E5
:103B70000CDA79480068774909888900774A5050FB
:103B800074480088401C7349088010E0002408E055
:103B9000601C800071490858A100704A5050601C98
:103BA000C4B2012CF4DB6C4800686C494860694879
:103BB0000088022847DB6A486A49086008460068AE
:103BC0004042694908606548406864490968401A8C
:103BD000664908600846006862490968884203DD52
:103BE0000120634908700DE0604800685E4909687B
:103BF000884204DA0020C0435D49087002E00020DA
:103C00005B4908705B4900200856594900228A56D2
:103C10005043012805D158480088401C5649088067
:103C200002E000205449088053480088534909881D
:103C3000884203DD50480088504908804C490020E4
:103C400008564C4908704E4800684E4988420BDAC5
:103C50004B480068404909684018494908604A488B
:103C60000068401C48490860484800884849884224
:103C700004DA46480088401C4449088045480078DA
:103C800000282FD14148008808282BD13E480168E0
:103C90003B480068FCF7B0FC3F49086008460068F4
:103CA0003E490968884205DD3B4800683C4909688F
:103CB00088420DDB3948006840423749096888422C
:103CC0000ADD37480068404233490968884203DA10
:103CD00001203449087005E00020324908700120B5
:103CE0002C4908702B48007800285FD114202E49F9
:103CF00008805FE0A40400209004002094040020C9
:103D000096040020C6040020C0040020C204002045
:103D1000FF7F0000C8040020CA040020CC0400205B
:103D2000CE040020D004002098140020D4040020E9
:103D3000DE040020D8040020DA040020E004002083
:103D4000E2040020E4040020E6040020E80400204F
:103D5000EC040020EE04002048040020F0040020C1
:103D60007E04000000050020040500200805002056
:103D7000F8040020F9040020FA040020FC040020CC
:103D8000980400200000FF7F9C0400200E05002006
:103D900060EA00000C05002014050020B404002097
:103DA000B00400201005002092040020E120C00093
:103DB000FE490880FE480088FC490988884271DB7A
:103DC000FC480021415E96296DDBFB490020085E1E
:103DD000FF215F31884266DCF8490020085EF8491F
:103DE00000228A5E90425EDAF6490020085EFF21DA
:103DF0002D318842E8DBF4490020085EAF218900BC
:103E00008842E8DCF1490020085EF14900228A5E20
:103E10009042E8DAEF4800880328E4DAEE480168C7
:103E2000EE480068FCF7E8FBED490860ED480078D3
:103E30000A280BDA08460168EA4802780078401C34
:103E4000E84B18709000E84A115010E0002408E098
:103E5000601C8000E4490858A100E34A5050601CEF
:103E6000C4B2092CF4DBDE480068DF494862DD4853
:103E700000780A2877DBDD480078401CDB490870B1
:103E8000DB480768DB480068009000240EE0A000D3
:103E9000D5490858B84204DDA0000958009881426D
:103EA00002DB05E02BE267E1601CC4B20A2CEEDB0A
:103EB00000BF0A2C6DD10025002605E0B000CA49DC
:103EC00008584519701CC6B20A2EF7DB0A2128468D
:103ED000FCF792FB0546C8480088062825DA28B278
:103EE000C54909884900C54A5052C3480088400066
:103EF000D430C34A15542804010EBF48008840003E
:103F0000D5301154BC480088401CBB490880084685
:103F100001781046C0308174B748008801121046FD
:103F2000C030C1740120B7490870B7480078002834
:103F30000CD10120B5490870B5480078401CB4493F
:103F40000870A748008800B2B2490880B2480088CB
:103F5000032818D1A8480088002814DD0021AF4AA2
:103F6000116000200AE0B7E04100A44A515EAB4A6C
:103F700012688918A94A1160411CC8B29E49098873
:103F80008842F1DB02E00020A44908600020974944
:103F900008700A2C72DA9748006847429448006813
:103FA0004042009000240CE0A0008F490858B8421D
:103FB00004DDA00009580098814200DB03E0601C8A
:103FC000C4B20A2CF0DB00BF0A2C6DD100250026FC
:103FD00005E0B000844908584519701CC6B20A2E85
:103FE000F7DB0A212846FCF707FB054682480088D4
:103FF000062825DA28B28049098849007F4A5052AC
:104000007D4800884000D4307D4A15542804010EB4
:10401000794800884000D530115477480088401C0A
:1040200075490880084601781046C030817472488E
:10403000008801121046C030C17401207149087017
:104040007148007800280CD1012070490870704830
:104050000078401C6E4908706148008800B26D49C4
:1040600008806D480088032818D16348008800281C
:1040700014DD0021694A116000200AE014E04100CB
:104080005E4A515E654A12688918644A1160411C93
:10409000C8B2594909888842F1DB02E000205F4933
:1040A000086000205149087057480078002813D153
:1040B0004E480078002810D1012053490870002490
:1040C00005E00020A100484A5050601CC4B20A2CF0
:1040D000F7DB002043490870ECE051480088FF21DD
:1040E0002D318842F8DB01204749087000203F4904
:1040F0000870002405E00020A1003B4A5050601CDD
:10410000C4B20A2CF7DB00203649087002203F4970
:10411000087044480078401C4249087030480088C4
:1041200000B23C4908803A4801783548E0300170D7
:104130003C4801783248E030417040783A49088084
:10414000084600780006000C08802D48E030007812
:1041500009884018344908802E4801782848E03002
:1041600081702C4800880004010E2548E030C170A1
:104170000120244908709DE0002407E00020A100F0
:10418000194A505017490870601CC4B20A2CF5DB5C
:104190001D48007800287DD121480088FF212D315D
:1041A000884277DB012041E0AAE000009204002071
:1041B00090040020CC040020CE040020D404002071
:1041C000D2040020E4040020E6040020EC040020D7
:1041D000EA040020FC0400209C0400209804002035
:1041E000A00400208E0400206C1200201005002086
:1041F000B4040020B0040020B80400209412002071
:104200003C1000201A0300200C0500201E05002091
:10421000190500201C050020A4040020BC04002077
:104220000E050020180500201A0500204E490870D0
:1042300000204E490870002405E00020A1004C4AEF
:104240005050601CC4B20A2CF7DB002049490870AA
:1042500002204949087049480078401C47490870C5
:104260004748008800B247490880474801784748D6
:1042700001704248017845484170407844490880BF
:10428000084600780006000C08804048007809883D
:10429000401800E00EE03E4908803A4801783B486B
:1042A0008170384800880004010E3848C170012030
:1042B0003849087000203849088038483849088053
:1042C000401C384908800020374908803348374966
:1042D0000880401C3649088000203649088036494D
:1042E00008803649087036490870364908803649D2
:1042F000088036490880364908603649086032E04F
:1043000000201C4908702449088030490880304941
:1043100008603049086030490870304908803049E9
:1043200008801E481E490880401C1E490880002045
:104330002C4908801C4908802B4908702B490880AB
:104340002B490880154819490880401C18490880E5
:104350000020284908801749088001200249087078
:10436000002002490870F8BD0C050020100500204F
:104370006C1200208E0400201E050020180500206D
:10438000A00400201C050020190500201C1100209D
:104390001A0500201A03002096040020FF7F000069
:1043A000CC040020CE040020D4040020E40400202B
:1043B000E6040020EC040020EE040020F9040020B4
:1043C000F8040020FA040020FC04002090040020DF
:1043D000980400209C040020C6040020C80400208B
:1043E000CA040020D0040020DE040020E0040020E5
:1043F000E2040020E804002010B5FDF7B5FA012022
:104400000C49087000200C4908600C4908600C48F1
:104410000C4908600C480D49086000200C490860F0
:104420000520FDF7FFFA0220024908700A2003491F
:10443000086010BDD8060020DC060020E006002041
:10444000E406002048010020E60600204C01002080
:104450005001002010B525480078030003F000F853
:104460000604070A1A314243FFF7C6FF3BE0FFF795
:10447000C3FF38E01E480068002803D003201B4912
:10448000087006E01B480068002802D10120174987
:10449000087028E0002016490860042013490870BD
:1044A0000A201449086014480088142808DD1348BD
:1044B00000881349088008460188124807F094FED6
:1044C00011E00C48006800280BD10520FDF7AAFA7E
:1044D000002007490860022004490870142005499B
:1044E000086000E000BF00BF10BD0000D80600203B
:1044F00050010020E0060020E8060020E60600202B
:104500007A040020841300200021154A1170002035
:1045100008E04100134A515A134A914200D103E086
:10452000411CC8B20B28F4DB00BF002803D10021D6
:104530000E4A116011E00B2807D10D49896A0D4A16
:104540001288891A094A116007E08100084A515807
:10455000084A1288891A054A11600749087070478D
:104560008404002052110020FFFF00008804002076
:1045700080110020320400205E040020F8B500BF46
:104580000025002600BF00BFFE484079FE49088094
:10459000084600780006000C0880FA48007909886F
:1045A0004018F9490880F748C079F849088008465A
:1045B00000780006000C0880F248807909884018CD
:1045C000F2490880EF48C17AF1484174090A8174C0
:1045D000817C427C080210430006010CEC484174C7
:1045E000090A8174817C427C08021043E549897A7A
:1045F000401881B2E6484174090A81740746E148CF
:104600000C300090002404E00098005D3855601CD8
:10461000C4B2102CF8DBDE48FDF750FF002815D09F
:10462000DB48001DFDF74AFF00280FD0D8480830AE
:10463000FDF744FF002809D0D5480C30FDF73EFFB8
:10464000002803D00120D249087402E00020D0499C
:104650000874CC4820304078CE490880084600785D
:104660000006000C0880C7482030007809884018F0
:10467000C8490880C3482030C078C7490880084628
:1046800000780006000C0880BE4820308078098839
:104690004018C1490880BB4820304079BF49088094
:1046A000084600780006000C0880B64820300079E3
:1046B00009884018B949088008460088402802DD6A
:1046C0004020088006E0B5480088012802DA012071
:1046D000B24908800020B2490870B2490860A94870
:1046E0002030C079B0490880084600780006000CE8
:1046F0000880A4482030807909884018AA49088099
:1047000008460088182812D00846008819280ED0BC
:10471000084600881B280AD0084600881C2806D0B6
:10472000084600881D2802D00020C04308800024CD
:104730001AE0600029309349085C61009B4A50529E
:1047400060001146085C0006000C610050526000D9
:104750001146095A600028308A4A105C0818610026
:10476000924A5052601CC4B20B2CE2DB00241AE0C7
:10477000600049308349085C61008D4A50526000F6
:104780001146085C0006000C6100505260001146A2
:10479000095A600048307B4A105C08186100844A5E
:1047A0005052601CC4B20B2CE2DB002408E0600015
:1047B0007E49085A00B261007E4A5052601CC4B261
:1047C0000B2CF4DB002407E060007949085AA100B3
:1047D000794A5050601CC4B20B2CF5DB052409E06B
:1047E000A000754908580A214843A100724A505058
:1047F000601CC4B20B2CF3DB62486030407A6F4916
:104800000880084600780006000C08805D4860308B
:10481000007A09884018694908805A486030C07A8F
:104820006749088008460078000200B208805548B1
:104830006030807A0988401800B261490880514888
:104840006030407B5F49088008460078000200B273
:1048500008804C486030007B0988401800B25949F4
:104860000880FFF751FE002410E0A00056494618CA
:10487000002507E0A000703040194249085C7055DF
:10488000681CC5B2042DF5DB601CC4B2082CECDB3F
:104890003C488030407C4D4908800846007800063E
:1048A000000C088037488030007C09884018474950
:1048B000088001204649088000240EE0A0004249FB
:1048C00046183046FDF7FAFD002804D1404908801B
:1048D0003E49088003E0601CC4B2042CEEDB00BF3C
:1048E00001203C49088004240CE0A0003649461809
:1048F0003046FDF7E3FD002802D13649088003E089
:10490000601CC4B2082CF0DB00BF002410E0A00043
:1049100031494618002507E0A00098304019194990
:10492000085C7055681CC5B2042DF5DB601CC4B270
:10493000032CECDB1348A030407928490880084656
:1049400000780006000C08800E48A0300079098825
:104950004018224908800B48A030C07920490880BF
:10496000084600780006000C08800648A0308079D0
:10497000098840181A49088001201A490880002433
:104980003FE000003C100020380200203A020020E6
:10499000D81100205A040020580400205C04002094
:1049A0007E040020800400201E0400203C11002012
:1049B00052110020681100208011002032040020D4
:1049C0006A0400206C040020AC1100206004002068
:1049D0006404002066040020CC1100206E04002036
:1049E0007004002072040020A000F94946183046E7
:1049F000FDF764FD002802D1F649088003E0601C41
:104A0000C4B2032CF0DB00BFF348407AF3490880BE
:104A100008460078000200B20880EF48007A098852
:104A2000401800B2ED490880EB48407FEC4908800F
:104A3000084600780006000C0880E748007F0988D7
:104A40004018E7490880084600887D21C90088424F
:104A500003DD0020E349087002E00120E14908700D
:104A60000020E1490880E1490870E1490870E14906
:104A70000870D94820304078DF490880084600781F
:104A80000006000C0880D4482030007809884018BF
:104A9000D949088008460088002805D008460088C3
:104AA0007D21C900884203DD0020D449087002E05E
:104AB0000120D24908700020D14908700520D14951
:104AC00008800020D0490880C3482030407ACF4970
:104AD0000880084600780006000C0880BE48203098
:104AE000007A09884018C9490880BB482030C07A3C
:104AF000C7490880084600780006000C0880B648C0
:104B00002030807A09884018C1490880084600880A
:104B1000C0490860B0482030407BBF490880084643
:104B200000780006000C0880AB482030007B098824
:104B30004018B949088008460088B8490860A64866
:104B40002030C07BB649088008460078000200B2D9
:104B50000880A1482030807B0988401800B2B04905
:104B600008809D482030407CAE4908800846007887
:104B7000000200B2088098482030007C0988401864
:104B800000B2A849088094482030C07CA64908801B
:104B9000084600780006000C08808F482030807C92
:104BA00009884018A04908808B482030407D9F49E3
:104BB000088008460078000200B208800846018894
:104BC00085482030007D081800B298490880824846
:104BD0002030C07D488008468078000200B24880BE
:104BE000084641887C482030807D081800B28F49F3
:104BF000488079482030407E88800846007900024D
:104C000000B288800846818873482030007E0818EA
:104C100000B28649888070482030C07EC88008462F
:104C20008079000200B2C8800846C1886A482030F6
:104C3000807E081800B27D49C88067482030407FD8
:104C400008810846007A000200B2088108460189FE
:104C500061482030007F081800B2744908815E481E
:104C60002030C07F48810846807A000200B2488127
:104C70000846418958482030807F081800B26B49A7
:104C800048815548403000786949087052484030A2
:104C9000407868490870504840304078664908803C
:104CA000084600780006000C08804B484030007829
:104CB000098840186049088047484030C0785F49FB
:104CC000088008460078000200B208804248403060
:104CD00080780988401800B25849088052480088F6
:104CE0005749884202D100204F4908805048007837
:104CF0005349884202D100204D4908704D48007840
:104D00004F49884202D100204A4908704B4900208F
:104D1000085E4B49884202D10020484908803B4840
:104D20000088012802D00020384908803C480088CB
:104D300000281ED03A48008880B24149884218D0E5
:104D400038480088002814D03648008880B288424D
:104D50000FD03148008800280BD02F4800888842A7
:104D600007D02B480088002803D0294800888842B3
:104D700003D100203349088002E002203149088035
:104D8000304800882149098840182F490880084682
:104D9000008803285CD124480088002858DD224878
:104DA0000088062854DC0021284A1160002009E010
:104DB00041001E4A515E254A12688918234A116033
:104DC000411CC8B2184909888842F1DB43E0000061
:104DD000CC11002072040020DC100020760400209A
:104DE000220500202C0500202E0500203005002083
:104DF0002B0500202A0500204E040020510400202D
:104E0000500400205204002054040020A604002076
:104E1000AA040020B0040020AC040020B404002048
:104E2000D2040020EA040020B804002094120020DC
:104E300019050020180500201A0500201C05002077
:104E4000FFFF0000A8040020A4040020BC040020F0
:104E500000204C49086000204B4908704B490880ED
:104E60004B4908804B4908604B4908604B49087022
:104E70004B4908804B4908804B484C490880401CEE
:104E80004B49088000204B4908804B4908804B491A
:104E900008704B4908804B49088043484A490880BC
:104EA000401C4A4908800020494908804949088037
:104EB000494840794949086008460068000208608E
:104EC0004548007909684018444908604248C0795B
:104ED0004349086008460068000208603E4880793F
:104EE000096840183E4908603B48407A3D490860DF
:104EF00008460068000208603748007A09684018D0
:104F00003849086035480068002816D034480068E1
:104F1000002812D0314800683149096888420CD80D
:104F20002E4800683049884207D02D4800688842E2
:104F300003D02C480068884203D100202B49087018
:104F40000CE02648006826490968884203D20120FF
:104F50002649087002E002202449087000BF00BF03
:104F6000234803210902401840790221884320493F
:104F7000032212028918487100BF00BF00201D499A
:104F80000860F8BDBC0400208E04002096040020B8
:104F900090040020980400209C040020C6040020F7
:104FA000C8040020CA040020FF7F0000CC040020B9
:104FB000CE040020D0040020D4040020DE04002011
:104FC000E0040020E2040020E4040020E6040020C5
:104FD000E8040020EC0400201C11002044050020FF
:104FE0004805002050050020FFFF0000410500207B
:104FF000000004404C050020FEB500240020029073
:105000001AE02849029808180190019805682E4670
:10501000F7B225480755641C3004070E224807558F
:10502000641C3002070E20480755641C370E0755D4
:10503000641C0298001D02900298FF28E1D9002408
:10504000002002901AE01949029840180190019836
:1050500005682E46F7B214480755641C3004070E45
:1050600011480755641C3002070E0F480755641C91
:10507000370E0755641C0298001D02900298FF2805
:10508000E1D9FFF77BFA05F03BFE08480190019853
:1050900005682E460548F030019001980568009596
:1050A0000020FEBD1C0300203C1000200002500028
:1050B000FFB581B00446002020E0611E15460D4179
:1050C000EB07DB0F0146C5172D0F6D182D112D01B4
:1050D000461B651EAE1B05116F00049DED5B35413F
:1050E000ED07ED0F0095009DAB4204D05100029DED
:1050F00069408AB201E051040A0C401C0A998842B6
:10510000DBD30349A1401046884305B0F0BD000041
:10511000FFFF000038B500BF3AA0FBF77FF800BFE3
:1051200001F0CEFF01F07AFF00BF3948FBF776F8B7
:1051300000BF00BF3C2000F087FB800035494018CD
:1051400044883C2000F080FB8000324940184588AC
:105150002246294630A0FBF761F800BF3C2000F052
:1051600073FB80002B4940184088002832D100BFD3
:1051700036A0FBF753F800BF02F04CF901F04EFFE8
:1051800000243F200001394B394A3A490090102051
:10519000FFF78EFF044600BF37A0FBF73FF800BFC4
:1051A00000F03EFA00F0FEF921467E2000F076FA8B
:1051B00000F0AAF800F0C6F87E211648E03001772A
:1051C0001C3044803248C48700F0DCF93220FDF7FF
:1051D000A7FE04E000BF2FA0FBF720F800BF32209D
:1051E000FDF79EFE00BF032133A0FBF717F800BFB9
:1051F00001F066FF01F00AFF01F010FF01F0FEFE72
:1052000038BD00000A453730335F496E69743B0092
:105210007CD600003A0F00200A4E6F77204D625274
:1052200065675B313331305D203D20434D5B307825
:1052300033435D203D20307846464645203D2030B2
:105240007825303458203D2025642E000A57726995
:1052500074652053706563696669656420434D20F9
:105260005573657220646174612E0000820D002008
:10527000FFFF0000058000000A5772697465206E08
:10528000657720435243313620646174613B0000EE
:10529000420D00200A4E6F742077726974652053A6
:1052A000706563696669656420434D205573657256
:1052B00020646174612E00000A496E69742074795B
:1052C00070652069732025642E00000008B50C4825
:1052D000007800280ED14E200A490870002048703E
:1052E00088700220009008460278431C6C2101203F
:1052F00004F0E8FC012002490870002008BD00000D
:105300008A020020650B002008B50C4800780028B0
:105310000ED14E200A490870002048708870022083
:10532000009008460278431C6C21012004F0CAFC5E
:10533000012002490870002008BD000089020020F9
:10534000650B002008B50C48007800280FD12220FA
:105350000A490870A22048706220887002200090DC
:1053600008460278431C6C21012004F0ABFC0120AC
:1053700001490870002008BD88020020650B00204C
:10538000F8B506460C460027304601F08AFD012894
:1053900037D100F045F94E201B4908700846467089
:1053A0004C2088700220009008460278431C6C2133
:1053B000012004F087FC482013490870002504E010
:1053C000FF2012494855681CC5B20A2DF8DB02209F
:1053D00000900D4802780D4B6C21012004F010FC68
:1053E00000280DD109484078208020780006000C64
:1053F000208020880549097840182080012700E096
:1054000000273846F8BD0000650B0020850B002002
:1054100038B56946222000F081F80446012C03D1FA
:1054200068460088334908806946262000F076F8EF
:105430000446012C03D1684600882F49088069463C
:10544000282000F06BF80446012C03D16846008840
:105450002A49088069462A2000F060F80446012C99
:1054600004D16846008800B22549088069462E208C
:1054700000F054F80446012C03D168460088214905
:1054800008806946302000F049F80446012C03D119
:10549000684600881C4908806946322000F03EF8C2
:1054A0000446012C03D168460088184908806946E3
:1054B000362000F033F80446012C03D168460088FA
:1054C000134908806946382000F028F80446012C6A
:1054D00003D1684600880F4908806946462000F0DD
:1054E0001DF80446012C03D1684600880A4908804B
:1054F000002038BD700200207202002074020020DB
:1055000076020020780200207A0200207C0200202F
:105510007E0200208002002082020020F8B50646AC
:105520000C46304601F0D9FC012825D113480670FD
:10553000002504E0FF2012494855681CC5B20A2D19
:10554000F8DB022000900D4802780D4B6C21012001
:1055500004F056FB00280DD10948407820802078BF
:105560000006000C2080208805490978401820801A
:105570000120F8BD0020FCE70020FAE7650B0020C1
:10558000850B002010B5064C2146222000F0C0F803
:10559000FFF79CFEFFF7B8FEFFF7D4FE10BD00003A
:1055A00069B1000008B51C48007801282FD14E20B1
:1055B0001A490870BD204870982088700220009019
:1055C00008460278431C6C21012004F07BFB4E202E
:1055D00012490870BF204870252088700220009072
:1055E00008460278431C6C21012004F06BFB4E201E
:1055F0000A490870D8204870362088700220009030
:1056000008460278431C6C21012004F05BFB00205B
:105610000149087008BD000089020020650B0020C8
:1056200008B51C48007801282FD122201A4908709B
:105630005A204870F72088700220009008460278AF
:10564000431C6C21012004F03DFB2220124908700C
:10565000C72048700C20887002200090084602780D
:10566000431C6C21012004F02DFB22200A49087004
:105670001E204870D22088700220009008460278D0
:10568000431C6C21012004F01DFB0020014908701F
:1056900008BD000088020020650B002038B50546D3
:1056A0000C46284601F00AFC01282AD1FFF7B8FF72
:1056B000FFF778FF4A20144908704C702012887058
:1056C0000220009008460278431C6C21012004F05F
:1056D000F9FA4E200C49087008464570A3208870DE
:1056E0000220009008460278431C6C21012004F03F
:1056F000E9FA05200549086000BF04480068002851
:10570000FBD1002038BD0000650B00208402002082
:1057100038B505460C46284601F0DFFB012810D1BC
:10572000FFF77EFF0848057001464C702012887014
:105730000220009008460278431C6C21012004F0EE
:10574000C1FA002038BD0000650B002010B5012211
:1057500000210720FDF718FB042201210720FDF797
:1057600013FB042202210720FDF70EFB0422072170
:105770000120FDF709FB00BF2E4803210902401854
:105780004078802108432B4903221202891848706F
:1057900000BF0120284908800020284908802849A6
:1057A0000860042201210520FDF7EEFA00BF214820
:1057B0000321090240184079022108431D490322B0
:1057C00012028918487100BF042206210D20FDF73E
:1057D000DBFA00BF1748032109024018407B402133
:1057E00008431449032212028918487300BF042297
:1057F00011460220FDF7C8FA00BF0E480321090236
:1058000040188078102108430A490322120289189F
:10581000887000BF00BF0748114640184079022138
:10582000884304498918487100BF00200549086071
:1058300010BD000000000440EA060020E806002039
:10584000500100204402002000B50346184601F034
:1058500028FB002801D1FF2000BD002207E09000B6
:105860000549085C984200D103E0501CC2B2402AAE
:10587000F5DB00BF1046EFE77CD00000F8B504462A
:1058800000251D480088002834D01C4800880028C6
:1058900030D01B49204607F041FA2BD80026194882
:1058A000056926464169304607F0E0F90746294672
:1058B00007F096F905463146204607F0D7F9064627
:1058C00010488169304607F0D1F90746294607F0AC
:1058D00087F905463146204607F0C8F906460948CB
:1058E000C169304607F0C2F90746294607F078F942
:1058F000054600BF2846F8BD66040020600400206D
:1059000000002041AC110020F8B5044600251E48D7
:105910000088002835D01D480088002831D01C4957
:10592000204607F0FBF92CD800261A4805682646C1
:1059300001464868314607F099F90746294607F0BD
:105940004FF905463146204607F090F906461149C1
:105950008868314607F08AF90746294607F040F97A
:1059600005463146204607F081F906460949C868D0
:10597000314607F07BF90746294607F031F905461D
:1059800000BF2846F8BD0000640400206004002029
:1059900000002041AC11002010B5FCF727FF0020CB
:1059A00015490870154908701548164908604020C7
:1059B00015490880002015490880154908701548C8
:1059C00015490860002015490880154908801549C7
:1059D000087015490870154908701549087015496F
:1059E0000880401E144908800020144908700120D6
:1059F0001349088010BD00002C0100202D0100205B
:105A0000A0120020300100203401002036010020C7
:105A100041010020E0120020380100203C0100205C
:105A20003E0100204001002042010020A805002086
:105A3000A9050020AA050020D0060020D5060020D8
:105A400020040020F0B591B01C480078012832D124
:105A50000024402101A8FAF7B2FD19480078801E01
:105A6000C5B21F2617480078000216494978084336
:105A7000074600201149087000BF06E01149A01C2C
:105A8000085C01A90855601CC4B2AC42F6DB0024D6
:105A90000DE0E0000C49085AB84206D1E000401879
:105AA0002946426801A8904703E0601CC4B2B44292
:105AB000EFDB00BF00BF11B0F0BD0000D406002036
:105AC000D2060020A0120020BC05002002460120C2
:105AD000034B187019204001024B186001207047D9
