:020000040000FA
:1000000090160020150200001D0200001F020000D3
:1000100000000000000000000000000000000000E0
:100020000000000000000000000000000D120000B1
:1000300000000000000000009B01000025120000ED
:10004000ED0B0000010C0000210C0000410C000031
:10005000610C0000810C0000A10C0000C10C00002C
:10006000D50C0000E90C00000D0D0000210D000072
:10007000350D0000590D00006D0D0000810D0000D0
:10008000A50D0000C50D0000D90D0000ED0D00000C
:10009000010E0000150E0000290E00004D0E00009C
:1000A000710E0000910E0000B50E0000C90E000098
:1000B000DD0E0000F10E0000050F0000190F00001A
:1000C000EF3FE9FF00F002F800F03DF80CA030C867
:1000D000083824182D18A246671EAB4654465D46C4
:1000E000AC4201D100F02FF87E460F3E0FCCB64651
:1000F0000126334200D0FB1AA246AB4633431847D1
:1001000094550000B455000000230024002500266B
:10011000103A01D378C1FBD8520700D330C100D5C3
:100120000B60704710B5642902D100F0E9F810BDEA
:10013000782902D100F01AF910BD002010BD1FB5BA
:100140001FBD10B510BD00F0B9FB1146FFF7F7FF5A
:1001500004F05CFC00F0D1FB03B4FFF7F2FF03BC3A
:1001600002F058FD084B19680868203080F30988B0
:10017000022080F31488BFF36F8F3FBCAE4608BCEB
:1001800004BC62B61847000040010020EFF3108065
:1001900072B6704780F310887047EFF309800E4BFA
:1001A0001A6820381060F0C044464D4656465F46F7
:1001B000F0C008B572B604F0ABFE62B60CBC1168B4
:1001C00008681030F0C8A046A946B246BB4680F386
:1001D00009882038F0C818474001002070B505464E
:1001E0000C46164602E00FCC0FC5103E102EFAD278
:1001F000082E02D303CC03C5083E042E07D301CC3E
:1002000001C5361F03E021782970641C6D1C761E21
:10021000F9D270BD1948804719480047FEE7FEE74C
:10022000FEE7FEE7FEE7FEE7FEE7FEE7FEE7FEE7A6
:10023000FEE7FEE7FEE7FEE7FEE7FEE7FEE7FEE796
:10024000FEE7FEE7FEE7FEE7FEE7FEE7FEE7FEE786
:10025000FEE7FEE7FEE7FEE7FEE7FEE7FEE7FEE776
:10026000FEE7FEE7FEE7FEE7FEE7FEE7FEE700004B
:1002700004480549054A064B70470000D1120000AA
:10028000C500000090110020901600209012002060
:10029000901200200FB4054910B503AA029800F08F
:1002A000B5FA10BC08BC04B01847000020010020BB
:1002B00070B5044685690068C10601D5302600E0A6
:1002C0002026C00707D070BD62683046A1689047FD
:1002D000206A401C20626D1EF6D570BD70B50446C4
:1002E00085690078C00707D170BD6268A1682020C9
:1002F0009047206A401C20626D1EF6D570BD00003C
:10030000F7B5002575291068009914A611D0C046CC
:10031000C046002802DA404211A608E000990968A8
:100320008A0701D50FA602E0490704D50EA60125CC
:1003300001E0C046C046009F0024243704E000F0DE
:100340008BFA30313955641C0028F8D12B463246DF
:100350002146009800F001FAFEBD000000000000F8
:100360002D0000002B0000002000000070B50446A6
:100370000D4621461068C046C0462188090502D5B1
:100380000F4A7A4402E00E4A7A440E322346002194
:10039000243305E006070009360F965D5E54491CBC
:1003A0000028F7D120780023000705D5702D03D051
:1003B000002901D002231132204600F0CEF970BD91
:1003C00026520000F3B50446002081B0206220468A
:1003D000E168884700287DD0252802D06268A1689E
:1003E00083E0454F00257F442046E1688847202868
:1003F000064608DB312E06D2B819203800780028CE
:1004000001D00543F0E7A80701D50420854300206B
:10041000E0610746A0612A2E0AD0304602F0F2FBC6
:10042000002827D0B8000019303E0090866119E0FE
:100430000298BA00121902C8916102902046E16840
:100440008847012F064617D1E06900281FDA2020CF
:1004500085431CE000980A2180694843009980196F
:10046000303888612046E1688847064602F0CAFBBA
:100470000028EFD1012F0AD02E2E08D12046E168A6
:1004800088470646202005437F1C022FC3DBA06956
:10049000002803DA4042A06101200543E80701D0AB
:1004A00010208543002E24D030464138192803D827
:1004B0000120C00205432036204625603146029ABD
:1004C0001546FFF72FFE00280CD0012807D0ED1DA0
:1004D000E80800E00DE0C0000830029077E72D1D2D
:1004E000029574E762683046A1689047206A401C14
:1004F0006CE7206AFEBD0000EA5100000EB504461C
:1005000015460E4612A000F09DF9204600F09AF91B
:1005100015A000F097F9304600F094F914A000F00F
:1005200091F96C460020E0720A20A0720A3407E0BC
:100530000A21284600F06BF830310546641E217010
:10054000002DF5DC204600F07DF900F073F9000085
:100550002A2A2A20617373657274696F6E2066613E
:10056000696C65643A2000002C2066696C65200087
:100570002C206C696E652000F8B5042A2CD3830703
:1005800012D00B78491C0370401C521E83070BD0FD
:100590000B78491C0370401C521E830704D00B7853
:1005A000491C0370401C521E8B079B0F05D0C91AB3
:1005B000DF002023DE1B08C90AE0FFF70FFEF8BDAD
:1005C0001D4608C9FD401C46B4402C4310C0121FF4
:1005D000042AF5D2F308C91A521EF0D40B78491C2C
:1005E0000370401C521EEAD40B78491C0370401C57
:1005F000012AE4D409780170F8BD002203098B4276
:100600002CD3030A8B4211D300239C464EE00346B1
:100610000B433CD4002243088B4231D303098B4265
:100620001CD3030A8B4201D394463FE0C3098B429B
:1006300001D3CB01C01A524183098B4201D38B01F4
:10064000C01A524143098B4201D34B01C01A524197
:1006500003098B4201D30B01C01A5241C3088B42DC
:1006600001D3CB00C01A524183088B4201D38B00C7
:10067000C01A524143088B4201D34B00C01A524169
:10068000411A00D201465241104670475DE0CA0F40
:1006900000D04942031000D34042534000229C4600
:1006A00003098B422DD3030A8B4212D3FC2289010A
:1006B00012BA030A8B420CD3890192118B4208D3E0
:1006C000890192118B4204D389013AD0921100E042
:1006D0008909C3098B4201D3CB01C01A5241830956
:1006E0008B4201D38B01C01A524143098B4201D383
:1006F0004B01C01A524103098B4201D30B01C01AAE
:100700005241C3088B4201D3CB00C01A5241830827
:100710008B4201D38B00C01A5241D9D243088B427D
:1007200001D34B00C01A5241411A00D20146634620
:1007300052415B10104601D34042002B00D5494284
:10074000704763465B1000D3404201B50020C046AD
:10075000C04602BD704770477047FFB504460D465E
:1007600081B0243000902168880604D51022E06909
:100770009143216000E00120A84201DD471B00E019
:1007800000270498A1697A191018081AA061207826
:10079000C00602D42046FFF78BFD002608E0039830
:1007A0006268A168805D9047206A401C761C2062C8
:1007B00004988642F3DB2078C0060AD52046FFF76E
:1007C00077FD06E06268A16830209047206A401CEF
:1007D000206238467F1E0028F4DC07E0009862683B
:1007E000A168405D9047206A401C206228466D1E2B
:1007F0000028F3DC2046FFF771FD2078000602D5C3
:10080000022005B0F0BD0120FBE70000084B70B5E9
:100810000D467B4400F039F80446284603F0E4F81E
:10082000002802D00020C04370BD204670BD0000EB
:10083000E7310000002000F03BF8FFF782FC0120C8
:1008400002F0E8F910B5044602E0641C02F0F2F987
:1008500020780028F9D110BD01468008081A020945
:100860001018020A1018020C1018C0088200121882
:100870005200891A01E0401C0A390A29FBD270474C
:1008800001694A1C02610878704700B58FB0029177
:100890000021059105490193794403911146049083
:1008A0006846FFF78FFD0FB000BD0000E5FFFFFFBA
:1008B00010B500F02FF800F026F810BD754600F0D6
:1008C00041F8AE46050069465346C008C00085465B
:1008D00018B020B5FFF7CCFC60BC00274908B6462D
:1008E0000026C0C5C0C5C0C5C0C5C0C5C0C5C0C53F
:1008F000C0C5403D49008D4670470446C046C046CD
:100900002046FFF729FC10B5002801D002F082F93B
:1009100010BD000010B5002102A000F017F8012062
:1009200010BD0000534947414252543A2041626E83
:100930006F726D616C207465726D696E6174696F40
:100940006E000000004870472C11002070B505466D
:100950000C460A2000E06D1C02F06CF9002D06D058
:1009600028780028F7D102E0641C02F063F9002C1B
:1009700002D020780028F7D10A2002F05BF970BD80
:1009800070B58C180578401C6B075B0F01D103789C
:10099000401C2A1106D10278401C03E00678401C56
:1009A0000E70491C5B1EF9D12B0705D40023521E83
:1009B0000DD40B70491CFAE70378401CCB1A921C2B
:1009C00003E01D780D70491C5B1C521EF9D5A14235
:1009D000D8D3002070BD000000210148417070474D
:1009E0002460004000210148417070475C60004075
:1009F00000210148417070476460004000210148B7
:100A0000417070476060004000B5C0229178F822C4
:100A100011401C4A127811431B48EA2923D00ADCF2
:100A20000A46E03A130002F0DFF80A181C20242AD4
:100A30002A2A2A161A2AED291FD004DCEB2916D0FF
:100A4000EC291CD117E0F02903D0F82917D10F4861
:100A500015E00F4813E00D4811E00E480FE00E4876
:100A60000DE00E480BE00E4809E00E4807E00E4886
:100A700005E00E4803E00E4801E0034800BF00BF58
:100A800000BD0000201C024040420F000048E80169
:100A9000006CDC0200366E010024F400001BB7007D
:100AA00000127A00808D5B0000093D00C0C62D0059
:100AB00080841E000121054801770548808808438D
:100AC000034988800020034908777047006100408F
:100AD000601504400060004008B500201649087009
:100AE00016488088012108431449888008464089B7
:100AF00013490840114948810846008910490840B7
:100B00000E49088108460089891508430B49088168
:100B10000020009005E000BF68460078401CC1B28C
:100B20000091684600780E28F5D904480089012113
:100B300008430249088108BDE00000206015044018
:100B4000FEFF00000121064801700648808802214E
:100B5000084304498880002003490870704700005A
:100B600020610040601504402060004008B5164830
:100B70008088022108431449888008464089134927
:100B800008401149488108460089104908400E492B
:100B9000088108460089491508430B49088100204F
:100BA000009005E000BF68460078401CC1B200918B
:100BB000684600780E28F5D90348008902210843C9
:100BC0000149088108BD000060150440FDFF0000D8
:100BD0000548407C802188430349487400BF00BF1A
:100BE00000BF00BF00BF7047201A044010B5034883
:100BF0000078002801D003F003FF10BD0060004022
:100C000010B506480079002801D003F0A5FE03487E
:100C10004079002801D003F0CFFE10BD00600040F5
:100C200010B50648007A002801D003F0A7FE03485B
:100C3000407A002801D003F0C5FE10BD00600040DE
:100C400010B50648007B002801D003F09DFE034844
:100C5000407B002801D003F0BBFE10BD00600040C7
:100C600010B50648007C002801D003F093FE03482D
:100C7000407C002801D003F0B1FE10BD00600040B0
:100C800010B50648007D002801D003F089FE034816
:100C9000407D002801D003F065FE10BD00600040DB
:100CA00010B50648007E002801D003F07FFE0348FF
:100CB000407E002801D003F05BFE10BD00600040C4
:100CC00010B50348007F002801D002F055FF10BD89
:100CD0000060004010B503480078002801D003F000
:100CE00023F810BD2060004010B5074800790028A7
:100CF00001D003F07DFF0448001D4078002801D09A
:100D0000FFF76AFE10BD00002060004010B50348E8
:100D1000007A002801D003F0EDFF10BD20600040F4
:100D200010B50348007B002801D003F0C3FF10BDBD
:100D30002060004010B50748007C002801D003F077
:100D40004BFF044810304078002801D003F056FFD4
:100D500010BD00002060004010B50348007D002851
:100D600001D004F023F810BD2060004010B5034806
:100D7000007E002801D003F0D3FF10BD20600040AA
:100D800010B50748007F002801D003F02BFF04486E
:100D90001C304078002801D003F036FF10BD000061
:100DA0002060004010B506480078002801D003F00C
:100DB000EFFB03484078002801D001F053FF10BD3D
:100DC0004060004010B503480079002801D003F0CE
:100DD00021FF10BD4060004010B50348007A002894
:100DE00001D003F01DFF10BD4060004010B5034866
:100DF000007B002801D003F019FF10BD40600040C7
:100E000010B50348007C002801D003F015FF10BD89
:100E10004060004010B50348007D002801D001F07B
:100E20000FFF10BD4060004010B50748007E00284D
:100E300001D003F0CBFE044818304078002801D0E0
:100E400003F0D2FD10BD00004060004010B507481F
:100E5000007F002801D003F0CDFD04481C3040780D
:100E6000002801D0FFF7BEFD10BD0000406000402B
:100E700010B506480078002801D001F0E7FE0348CD
:100E80004078002801D0FFF7B9FD10BD6060004038
:100E900010B507480079002801D001F0DDFE0448B4
:100EA000001D4078002801D0FFF7A2FD10BD000012
:100EB0006060004010B50348007A002801D003F0BC
:100EC000C1FE10BD6060004010B50348007B0028E3
:100ED00001D003F0E1FE10BD6060004010B5034892
:100EE000007C002801D003F0DDFE10BD60600040F2
:100EF00010B50348007D002801D003F0C1FE10BDED
:100F00006060004010B50348007E002801D003F067
:100F1000BDFE10BD6060004010B50348007F002892
:100F200001D002F065FD10BD6060004070B500F0BA
:100F3000C7F97D21C9000F480068FFF75EFB054631
:100F40002C46601E0C49884200D90CE0601E0B49FB
:100F500048610321081F00F051F80020074988610B
:100F60000720086100BF00F0ABF9002004490860C9
:100F700070BD0000E4020020FFFFFF0000E000E081
:100F80004C020020C206D20E01219140014A11609C
:100F90007047000080E200E0C206D20E01219140BD
:100FA000014A11607047000080E200E0C206D20EE4
:100FB00001219140014A11607047000080E200E089
:100FC000C206D20E01219140014A11607047000013
:100FD00080E100E0C206D20E01219140014A116079
:100FE0007047000000E100E0C206D20E01219140EE
:100FF000014A11607047000000E100E010B50028D0
:1010000019DA1A4A03071B0F083B9B089B00D258AA
:101010008307DC0EFF23A3409A438B071B0E840734
:10102000E40EA3401A43114B0407240F083CA40804
:10103000A4001A5118E00E4A03231B02D218830899
:101040009B00D2588307DC0EFF23A3409A438B07F3
:101050001B0E8407E40EA3401A43054B032424020D
:101060001B198408A4001A5110BD00001CED00E0FB
:1010700000E100E0F0B50C4615460123A340D9B2CB
:101080002A462B0001F0B0FD06042C54787E9EBD4C
:101090005D4B1B5C8B435C4E33545B4B603B1926B2
:1010A00076019B191B5C0B43574E603E19277F014D
:1010B000F6193354544B203B1B5C8B43524E203E5D
:1010C0003354514B103B1B5C8B434F4E103E3354FB
:1010D0004D4B303B1B5C8B434B4E303E335490E0CA
:1010E000494B1B5C8B43484E3354474B603B19269E
:1010F00076019B191B5C0B43434E603E19277F0111
:10110000F6193354404B203B1B5C8B433E4E203E34
:1011100033543D4B103B1B5C8B433B4E103E3354D2
:10112000394B303B1B5C0B43374E303E335468E049
:10113000354B1B5C8B43344E3354334B603B192689
:1011400076019B191B5C0B432F4E603E19277F01D4
:10115000F61933542C4B203B1E5C0E431E542A4B75
:10116000103B1E5C8E431E54274B303B1B5C8B4355
:10117000254E303E335444E0234B1B5C0B43224E40
:1011800033543EE0204B1E5C8E431E541E4B603B8E
:10119000192676019B191B5C8B431B4E603E192759
:1011A0007F01F6193354184B203B1B5C8B43164EC2
:1011B000203E3354144B103B1B5C8B43124E103EAD
:1011C00033541EE0104B1B5C8B430F4E33540E4BBD
:1011D000603B192676019B191B5C8B430A4E603ECF
:1011E00019277F01F6193354074B203B1B5C8B43B7
:1011F000054E203E3354044B103B1E5C0E431E54E0
:1012000000BF00BFF0BD0000600004407047000058
:101210000349086000BF024909680029FBD17047F3
:101220006002002010B500F001F810BD1D480068F4
:10123000401C1C49086001201B4908701B480068BD
:10124000002804D019480068401E18490860184852
:101250000068002804D016480068401E1449086041
:1012600014480068002804D012480068401E114944
:10127000086011480068002804D00F480068401E2C
:101280000D49086000BF0D4803210902401840794C
:10129000022148400949032212028918487100BFFF
:1012A000704700004C020020490200206402002028
:1012B0007C020020C40200206002002000000440E4
:1012C00010B5FFF7A1FB0149086010BDE402002042
:1012D00010B580201B4948711A201A49203908721C
:1012E0002B2048723C2088724D20C872002016497D
:1012F0004860FFF789FB154908600020C043144986
:101300000860144908601448144908601149032210
:101310001202891848600F49891888600D49891898
:10132000C8600C49891808610A4989184861094947
:101330008918886107498918C861AC200849487034
:1013400010BD00002004024000B00140E402002073
:1013500080E200E000E100E0C0C0C0C000E400E0C6
:10136000001002400E4A927E01231A430C4B9A76DB
:101370000C4A1278FE231A400A4B1A7001230A4ABB
:1013800013720022094B1A72064A9070402802D14B
:101390001022074BDA704A1E024BC0331A80704786
:1013A000000802404022044060610040606000404C
:1013B00020040240002006490872002105480172FD
:1013C0000548007801210843034908707047000070
:1013D00060600040606100404022044006480078A0
:1013E000FE210840044908700121044801720020D0
:1013F00003490872704700004022044060610040C9
:1014000060600040F8B505460E466A4631462846FB
:1014100000F0BEFA0446002C1FD10320104988803A
:101420000846C08800090001C8800846C08869468F
:10143000097808430A49C880684640784006000C8D
:1014400008490882684640784006000C48820448F3
:10145000408803210843024948802046F8BD000027
:10146000201104400013044070B505460E463D4867
:101470000078042108433B49087003203A49C8809A
:1014800022203949203908823848088367204002E1
:10149000374908823748007C0121084335490874E0
:1014A0000720314920394881FF20233048823248C3
:1014B0004883672040022E4948822B480089012139
:1014C0000843294908810846808A2C490840264952
:1014D000888208464089012108432349488100BF8A
:1014E0002748007F20210843254908772548407870
:1014F00004210843234948702248203040780421C1
:1015000088432049203148701F48407C042188438B
:101510001D4948741C4820304078042188431A49EA
:101520002031487000BF00BF1548007F20210843CC
:1015300013490877134820304078022108431149A5
:1015400020314870104820304078022188430E49ED
:101550002031487000BF31462846FFF753FF04464C
:10156000204670BD200402402011044097800000F6
:10157000001304406004044097400000FEFF000098
:1015800060080440000304404000044000BF0448D9
:101590004088202108400028F9D00248807C70470C
:1015A00000110440001304400449087400BF0449BA
:1015B0000988602211400029F9D1704700130440C6
:1015C00000110440F8B505460E466A4631462846E5
:1015D00000F0DEF90446002C16D10C200B4988805F
:1015E00068460078C880684640784006000C084984
:1015F0008880684640784006000CC88003484088D0
:101600000C210843014948802046F8BD20110440C0
:101610004013044070B505460E463F48007804214B
:1016200008433D4908703D4880880C2108433B49E8
:10163000888001213A4801750176017700203949F7
:101640000875087608772220344920398882364880
:10165000888367204002354988803548007C042112
:1016600008433349087407202C492039C881FF20DA
:101670002330C8822F48C883672040022B49C88086
:101680002648008904210843244908810846808AA5
:101690002949084021498882084640890421084395
:1016A0001E49488100BF254800780421084323498A
:1016B0000870224820300078042188431F492031D7
:1016C00008701F48007C042188431D4908741C4889
:1016D000203000780421884319492031087000BF68
:1016E00000BF1648203000780221084313492031FA
:1016F00008701348203000780221884310492031B7
:10170000087000BF31462846FFF75CFF044600F032
:1017100019F8204670BD000020040240201104404A
:10172000206100402060004097800000401304408A
:101730006004044097400000FBFF000000030440E9
:101740004000044010B510480089042108430E49A8
:10175000088108464089042108430B49488108460E
:1017600040880C2108430849488000200749087533
:1017700008760D20FFF706FC0E20FFF703FC002182
:1017800003480175017610BD20110440206000401F
:1017900020610040F8B505460E466A4631462846A7
:1017A00000F0F6F80446002C16D103200B4988807F
:1017B00068460078C880684640784006000C0849B2
:1017C0000881684640784006000C488103484088FC
:1017D00003210843014948802046F8BD60150440B4
:1017E0004017044070B505460E464748007808216A
:1017F0000843454908704548808803210843434908
:1018000088800121424801774148203001700171F0
:101810000020404908773F49203108700871222094
:101820003A49203908823C480883672040023B49F6
:1018300008813B48007C102108433949087407207F
:10184000324920394881FF20233048823548488377
:1018500067204002314948812C4800890121084312
:101860002A4908810846808A2F49084027498882EA
:1018700008464089012108432449488100BF2B487C
:10188000C07D022188432949C8752948407808212C
:10189000084327494870264820304078082188436B
:1018A0002349203148702348407C0821884321493E
:1018B0004874204820304078082188431D49203151
:1018C000487000BF00BF1948C07D022188431749F6
:1018D000C87517482030407810210843144920313A
:1018E0004870144820304078102188431149203135
:1018F000487000BF31462846FFF74CFF044600F011
:101900001BF8204670BD0000200402406015044012
:1019100000610040006000409780000040170440D4
:101920006004044097400000FEFF0000600804408F
:10193000000304404000044010B512480089012112
:1019400008431049088108464089012108430D4990
:10195000488108464088032108430A4948800020FE
:10196000094908770849203108700720FFF70AFB6A
:101970000820FFF707FB00210448017703482030C7
:10198000017010BD6015044000600040006100401F
:10199000F7B58AB0164664240020039002900190A7
:1019A0000B980002059005990A98FEF726FE401C48
:1019B000049002E00398401C0390012003998840A2
:1019C00004998842F6D3039D3EE06800274A115AE5
:1019D0000A98FEF712FE0690022732E0791C06985C
:1019E000FEF70BFE410807917D22D2000799514373
:1019F00008460B99FEF701FE7D21C900401A0A2115
:101A0000484308900898211E01DB0A4600E04A423C
:101A1000002801DB034600E043429A4202DD089CB5
:101A200001970295201E01DB014600E04142142986
:101A300006DA357077700020099009980DB0F0BD76
:101A40007F1C802FCAD36D1C102DBED3201E01DB3E
:101A5000014600E04142142903DB029830700198EE
:101A60007070002009900998E8E700008C5200008F
:101A70000021017041708170C170002284210A54DC
:101A800085210A5486210A547047000000B5054894
:101A9000FFF7EEFF0448FFF7EBFF0448FFF7E8FF0E
:101AA00000BD0000FC070020030900200A0A0020F6
:101AB000FFB581B00446002020E0611E15460D41AF
:101AC000EB07DB0F0146C5172D0F6D182D112D01EA
:101AD000461B651EAE1B05116F00049DED5B354175
:101AE000ED07ED0F0095009DAB4204D05100029D23
:101AF00069408AB201E051040A0C401C0A998842EC
:101B0000DBD30349A1401046884305B0F0BD000077
:101B1000FFFF000038B500BF32A0FEF7BBFB00BFDF
:101B200000BF032132A0FEF7B5FB00BF00F0FCFEB2
:101B300000F054FE00F090FE00F012FE00BF3148AD
:101B4000FEF7A8FB00BF00BF3C2000F003FC8000B4
:101B50002D49401844883C2000F0FCFB80002A49B5
:101B6000401845882246294628A0FEF793FB00BF6F
:101B70003C2000F0EFFB80002349401840880028FB
:101B80002AD100BF2EA0FEF785FB00BF00F0EEFFBC
:101B900000F062FE00243F200001314B314A3249FF
:101BA00000901020FFF784FF044600BF2FA0FEF72F
:101BB00071FB00BF00F0EEFA00F0AEFA21467E2085
:101BC00000F026FB00F08EF800F0AAF800F094FA7E
:101BD0003220FFF71DFB04E000BF2AA0FEF75AFBEE
:101BE00000BF38BD0A453730335F496E69743B002A
:101BF0000A496E69742074797065206973202564C0
:101C00002E0000004C5600002C1000200A4E6F776A
:101C1000204D625265675B313331305D203D20439A
:101C20004D5B307833435D203D2030784646464555
:101C3000203D20307825303458203D2025642E006A
:101C40000A577269746520537065636966696564D3
:101C500020434D205573657220646174612E00002D
:101C6000740E0020FFFF0000058000000A57726913
:101C70007465206E65772043524331362064617469
:101C8000613B00000A4E6F742077726974652053BF
:101C9000706563696669656420434D20557365729C
:101CA00020646174612E000008B50C48007800289B
:101CB0000ED14E200A49087000204870887002201A
:101CC000009008460278431C6C21012001F006FFB9
:101CD000012002490870002008BD0000CA0200204F
:101CE000580C002008B50C48007800280ED14E2072
:101CF0000A49087000204870887002200090084649
:101D00000278431C6C21012001F0E8FE0120024909
:101D10000870002008BD0000C9020020580C0020F7
:101D200008B50C48007800280FD122200A49087015
:101D3000A220487062208870022000900846027835
:101D4000431C6C21012001F0C9FE012001490870EB
:101D5000002008BDC8020020580C002010B52748FC
:101D60000068401C2549086008460068012808D121
:101D700000F0DAFD00F032FD00F06EFD00F0F0FC46
:101D80003AE01E480068022824D100F0FBF800BFAA
:101D90001B4801881BA0FEF77DFA00BF00BF234847
:101DA000018823A0FEF776FA00BF00BF2A48018809
:101DB0002AA0FEF76FFA00BF00BF3248018832A0A8
:101DC000FEF768FA00BF00BF3948018839A0FEF766
:101DD00061FA11E000F0D6F8404800884049488494
:101DE00040480088888440480088C8843F4800886C
:101DF00048853F480088888510BD0000CC0200203F
:101E0000BE0200200A453730335F4368697056656B
:101E10007273696F6E2C526567307833382C2020CE
:101E200020203078253034582C000000AE020020ED
:101E30000A453730335F434D442C52656730783262
:101E4000322C20202020202020202020202030780C
:101E5000253034582C000000BA0200200A453730E3
:101E6000335F5374617475735F73796E632C52655D
:101E700067307833322C20202020307825303458B9
:101E80002C000000BC0200200A453730335F537439
:101E9000617475732C526567307833362C2020209E
:101EA0002020202020203078253034582C000000BD
:101EB000C00200200A453730335F434D5F537461E1
:101EC0007475732C526567307834362C20202020AE
:101ED00020203078253034582C000000B00200203B
:101EE000580D0020B2020020B4020020B6020020EB
:101EF000B8020020F8B506460C460027304600F030
:101F000082FB012837D100F045F94E201B490870AB
:101F1000084646704C2088700220009008460278DF
:101F2000431C6C21012001F0D9FD482013490870A1
:101F3000002504E0FF2012494855681CC5B20A2D4F
:101F4000F8DB022000900D4802780D4B6C21012037
:101F500001F062FD00280DD10948407820802078EA
:101F60000006000C20802088054909784018208050
:101F7000012700E000273846F8BD0000580C00207B
:101F8000780C002038B56946222000F081F804461C
:101F9000012C03D168460088334908806946262011
:101FA00000F076F80446012C03D1684600882F49DA
:101FB00008806946282000F06BF80446012C03D104
:101FC000684600882A49088069462A2000F060F89F
:101FD0000446012C03D168460088264908806946DA
:101FE0002E2000F055F80446012C03D168460088E5
:101FF000214908806946302000F04AF80446012C47
:1020000003D1684600881D4908806946322000F0E7
:102010003FF80446012C03D168460088184908801F
:102020006946362000F034F80446012C03D1684696
:102030000088144908806946382000F029F80446D1
:10204000012C03D1684600880F4908806946462064
:1020500000F01EF80446012C03D1684600880B49A5
:102060000880002038BD0000AE020020B002002031
:10207000B2020020B4020020B6020020B802002004
:10208000BA020020BC020020BE020020C0020020D4
:10209000F8B506460C46304600F0D1FA012825D1A5
:1020A00013480670002504E0FF2012494855681CBB
:1020B000C5B20A2DF8DB022000900D4802780D4BC6
:1020C0006C21012001F0A8FC00280DD109484078BE
:1020D000208020780006000C20802088054909789F
:1020E000401820800120F8BD0020FCE70020FAE71E
:1020F000580C0020780C002010B5064C21462220F8
:1021000000F0C0F8FFF7D0FDFFF7ECFDFFF708FE89
:1021100010BD000069B1000008B51C480078012816
:102120002FD14E201A490870BD2048709820887021
:102130000220009008460278431C6C21012001F027
:10214000CDFC4E2012490870BF20487025208870B1
:102150000220009008460278431C6C21012001F007
:10216000BDFC4E200A490870D8204870362088707F
:102170000220009008460278431C6C21012001F0E7
:10218000ADFC00200149087008BD0000C902002014
:10219000580C002008B51C48007801282FD12220B7
:1021A0001A4908705A204870F72088700220009061
:1021B00008460278431C6C21012001F08FFC22208C
:1021C00012490870C72048700C20887002200090C7
:1021D00008460278431C6C21012001F07FFC22207C
:1021E0000A4908701E204870D22088700220009092
:1021F00008460278431C6C21012001F06FFC00208E
:102200000149087008BD0000C8020020580C0020D9
:1022100038B505460C46284600F002FA01282AD1B6
:10222000FFF7B8FFFFF778FF4A20144908704C7099
:10223000201288700220009008460278431C6C210E
:10224000012001F04BFC4E200C49087008464570F7
:10225000A32088700220009008460278431C6C215D
:10226000012001F03BFC05200549086000BF04483F
:1022700000680028FBD1002038BD0000580C002069
:10228000C402002038B505460C46284600F0D7F9B0
:10229000012810D1FFF77EFF0848057001464C70F9
:1022A000201288700220009008460278431C6C219E
:1022B000012001F013FC002038BD0000580C002064
:1022C00010B5012200210720FEF7D4FE04220121CF
:1022D0000720FEF7CFFE042202210720FEF7CAFEE8
:1022E000042207210120FEF7C5FE00BF1748032185
:1022F0000902401840788021084314490322120241
:102300008918487000BF042201210520FEF7B2FEA3
:1023100000BF0E48032109024018407902210843FA
:102320000A49032212028918487100BF00BF0748FA
:1023300011464018407902218843044989184871A0
:1023400000BF00200249086010BD000000000440EA
:102350006402002000B50346184600F054F9002836
:1023600001D1FF2000BD002207E090000549085C74
:10237000984200D103E0501CC2B2402AF5DB00BFF6
:102380001046EFE7AC54000010B5012000F01AFB36
:10239000022000F017FB032000F014FBFFF7BAFB4C
:1023A00010BD000010B504480088401C0249088098
:1023B000FFF7D4FC10BD0000A202002000280DD1C0
:1023C00000BF0E4903221202891849782022914346
:1023D0000A4A03231B02D21851700DE000BF0749BF
:1023E000032212028918497820221143034A032349
:1023F0001B02D218517000BF70470000000004405B
:1024000000280DD100BF0E49032212028918497815
:10241000102291430A4A03231B02D21851700DE087
:1024200000BF07490322120289184978102211437C
:10243000034A03231B02D218517000BF70470000EB
:102440000000044010B5012204211046FEF712FEE0
:1024500010BD10B5042211460120FEF70BFE10BD81
:10246000054803210902401840781021084000283F
:1024700000D170470120FCE70000044000280DD186
:1024800000BF0E49032212028918C9784908490081
:102490000A4A03231B02D218D1700DE000BF07497E
:1024A000032212028918C97801221143034A032327
:1024B0001B02D218D17000BF70470000000004401A
:1024C00000280DD100BF0E49032212028918497954
:1024D000490849000A4A03231B02D21851710DE032
:1024E00000BF0749032212028918497901221143CA
:1024F000034A03231B02D218517100BF704700002A
:102500000000044010B5012200210520FEF7B2FDB5
:1025100010BD10B5042200210520FEF7ABFD10BD53
:1025200005480321090240184079C007C00F002860
:1025300000D170470120FCE70000044000280DD1C5
:1025400000BF0E49032212028918C9792022914343
:102550000A4A03231B02D218D1710DE000BF0749BC
:10256000032212028918C97920221143034A032346
:102570001B02D218D17100BF704700000000044058
:1025800000280DD100BF0E49032212028918C97913
:10259000102291430A4A03231B02D218D1710DE085
:1025A00000BF0749032212028918C979102211437A
:1025B000034A03231B02D218D17100BF70470000E9
:1025C0000000044010B5012204210720FEF752FD4F
:1025D00010BD10B5042211460720FEF74BFD10BDBB
:1025E0000548032109024018C0791021084000283D
:1025F00000D170470120FCE70000044000E0401ECD
:102600000028FCD170470146C807C00F002801D040
:10261000002070477E2901DD0020FAE70120F8E75D
:102620000146C807C00F002801D0002070472029AC
:1026300003DB7E2901DC0120F8E70020F6E70146F4
:10264000C807C00F002801D000207047202901D002
:10265000242901D10020F8E7382903DD462901DAD1
:102660000020F2E74A2903DD4E2901DA0020ECE7D9
:10267000AA2903DDE42901DA0020E6E7E42901DDE7
:102680000020E2E70120E0E70246012080028242CA
:1026900052DB324882424FDC0120800282420BDB57
:1026A0002E483E38824207DC01208002101A400684
:1026B000000E08700120704741200001824203DBB8
:1026C000222008700120F6E724483C3882420CDBC7
:1026D00022483338824208DC20483C38101A133034
:1026E0004006000E08700120E5E71C48323882429F
:1026F0000ADB801C824207DC801E101A2330400651
:10270000000E08700120D6E714482F3882420CDBF7
:102710001248401E824208DC10482F38101A273019
:102720004006000E08700120C5E70C48824213DB0A
:10273000E42008700120BEE70520000282420BDB86
:102740000648F230824207DC05200002101A4006DB
:10275000000E08700120AEE70020ACE74D04000039
:1027600010B5002400BF40210DA0FDF793FD00BF70
:1027700000BF0CE000BFA0000F4BC0184288A000B3
:10278000195C0EA0FDF786FD00BF601CC4B2402C92
:10279000F0DB00BF0FA0FDF77DFD00BF10BD000006
:1027A0000A453730335F434D446174615B25645D96
:1027B000203D200A7B0000002C1000200A20202051
:1027C000207B3078253032582C2030782530345812
:1027D0007D2C00000A7D3B0A0000000010B500249B
:1027E00000BF4E210DA0FDF755FD00BF00BF0CE05E
:1027F00000BFA0000F4BC0184288A000195C0EA0BB
:10280000FDF748FD00BF601CC4B24E2CF0DB00BFDA
:102810000FA0FDF73FFD00BF10BD00000A45373097
:10282000335F526567446174615B25645D203D20C0
:102830000A7B0000F40E00200A202020207B307844
:10284000253032582C203078253034587D2C00002B
:102850000A7D3B0A0000000038B5002400BFFFF7E6
:1028600099FC002523E02846FFF7CDFE002800D183
:102870001BE00020C043009069462846FFF73AFB62
:1028800001280BD1A0001D490D5468460088A10005
:102890001A4A89184880601CC4B205E000BF294666
:1028A00017A0FDF7F7FC00BF00BFA81CC5B2F02DB4
:1028B000D9DB002410E0A0001049401881786000A6
:1028C000174A1154A0000D494018408801126000B9
:1028D000401C1154601CC4B2402CECDB002408E006
:1028E000A00006494018408861000E4A5052601C02
:1028F000C4B2402CF4DBFFF713FA38BD2C100020D3
:102900000A453730332E313120434D5B3078253046
:1029100032585D2C204572726F72312C000000001D
:10292000740E0020F40D002038B50024002523E0AB
:102930002846FFF784FE002800D11BE00020C0439A
:10294000009069462846FFF7A3FB01280BD1A000A1
:1029500011490D5468460088A1000F4A8918488023
:10296000601CC4B205E000BF29460CA0FDF792FC34
:1029700000BF00BFA81CC5B2F02DD9DB002408E0C1
:10298000A00005494018408861000D4A5052601C63
:10299000C4B24E2CF4DB38BDF40E00200A453730AB
:1029A000332E31312052656769737465725B3078FC
:1029B000253032585D2C204572726F72312C000028
:1029C000580D002010B50446012C14D10422052115
:1029D000FEF750FB042211460120FEF74BFB0020BE
:1029E000FFF7ECFC0120FFF7E9FC0A20FFF706FEE9
:1029F0000120FFF7E3FC022C15D104220021032063
:102A0000FEF738FB042200210520FEF733FB0020EF
:102A1000FFF734FD0120FFF731FD0A20FFF7EEFD3F
:102A20000120FFF72BFD032C15D1042205210720DF
:102A3000FEF720FB042211460720FEF71BFB0020B7
:102A4000FFF77CFD0120FFF779FD0A20FFF7D6FD97
:102A50000120FFF773FD10BD70B505460E46002D31
:102A600004D0012D22D0022D64D13FE0E1214902A2
:102A700032480068FEF7F8FC0446802C01D100BF04
:102A8000FEE700202E49087208730A20FEF78EFA2E
:102A90000B20FEF78BFA00212A48017201730A20ED
:102AA000FEF7A2FA0B20FEF79FFA44E0E12149026B
:102AB00022480068FEF7AEFD0446802C01D100BF1D
:102AC000FEE700201E49087508760D20FEF76EFA15
:102AD0000E20FEF76BFA00211A48017501760D20D1
:102AE000FEF782FA0E20FEF77FFA24E0E121490288
:102AF00012480068FEF776FE0446802C01D100BF24
:102B0000FEE700200E49203908770D49087007209C
:102B1000FEF74CFA0820FEF749FA00210948203850
:102B20000177084801700720FEF75EFA0820FEF7DB
:102B30005BFA00E000BF00BF002070BDE40200208F
:102B4000206000402061004010B5E12040020549AE
:102B50000860084601680020FFF77EFF0020024958
:102B6000086010BD740200207C020020F8B5002629
:102B7000FFF710FBFFF7D0FA20261BE03046FFF7E7
:102B80004FFD012814D13046FFF7E4FB0746B8009B
:102B90000C490C5CB8004018458829462046FFF7D0
:102BA00037FB00BF2A46214607A0FDF773FB00BF95
:102BB000701CC6B27E2EE1DBFFF794F8FFF7B0F889
:102BC000F8BD0000AC5400000A57726974652043D8
:102BD0004D5B3078253032785D203D2030782530CF
:102BE00034582E200000000030B47446641E25784E
:102BF000641CAB4204D3635D5B00E31830BC184730
:102C00001D46F8E730380A2801D20120704700201D
:102C100070470000002803D00449054A116202E011
:102C20000121034A116200BFFEE70000AD0B000066
:102C30000080024010B50446E0B2FEF7B5FC10BDBE
:102C4000002001490875704740600040002001499C
:102C500008707047606000400020014908717047AB
:102C600060600040002101484170704740600040B2
:102C700010B5002408480078012806D107480068EC
:102C8000804700200449087000E006240120044920
:102C90000870204610BD000092010020980100201D
:102CA000DC020020F0B585B006460D4600200190FC
:102CB000288805284AD1707800020390B0780399DB
:102CC00008430390F078040230790443012C3ADB86
:102CD0007D200001844236DA37460020288001201A
:102CE00038707F1C2888401C28806007400F00280F
:102CF00008D02046E117490F0918C910491CC9B26C
:102D0000029106E02046E117490F09184905090E0E
:102D10000291029838707F1C2888401C288000236C
:102D200022463846039900F051FC00900098002894
:102D300004D0009801F030FF019009E02988029842
:102D40000818288004E00320019001E0032001908E
:102D5000019805B0F0BDF0B585B006460D460020DF
:102D600001902888052849D1707800020390B07836
:102D7000039908430390F078040230790443012C4E
:102D800039DB7D200001844235DA37460020288077
:102D9000022038707F1C2888401C28806007400F64
:102DA000002808D02046E117490F0918C910491C0E
:102DB000C9B2029106E02046E117490F09184905FA
:102DC000090E0291029838707F1C2888401C2880C8
:102DD00022463846039900F0FDFB00900098002839
:102DE00004D0009801F0D8FE019009E029880298EB
:102DF0000818288004E00320019001E003200190DE
:102E0000019805B0F0BDFEB505460C4600200190C6
:102E10002088052834D1687800020290A8780299A9
:102E200008430290E87806022E79012E25DB7D2EDC
:102E300023DC2F4600202080032038707F1C208850
:102E4000401C20807006000E38707F1C2088401CBB
:102E50002080002332463846029900F0BFFB0090E4
:102E60000098002804D0009801F096FE019009E037
:102E7000208871004018208004E00320019001E0C8
:102E8000032001900198FEBDFEB505460C460020CA
:102E900001902088052834D1687800020290A87833
:102EA000029908430290E878060228790643012E29
:102EB00024DB7D2E22DA2F4600202080042038706B
:102EC0007F1C2088401C20807006000E38707F1CFC
:102ED0002088401C208032463846029900F05EFD72
:102EE00000900098002804D0009801F055FE019051
:102EF00009E0208871004018208004E00320019040
:102F000001E0032001900198FEBDF0B587B00446B2
:102F10000D460020029028880A2863DB60780002B2
:102F20000690A0780699084306900698401C80B247
:102F30000690E07806022079064360790002059049
:102F4000A0790599084305900598401C80B205902A
:102F5000E0790702207A0743607A0490012E3FDB74
:102F60007D2E3DDC012F3BDB792F39DC7900049885
:102F7000814235D101233A4620460A30059900F0B6
:102F80002DFB01900198002822D10394288017205E
:102F9000039C2070039C601C03902888401C2880A0
:102FA0007006010E039801700398401C0390288856
:102FB000401C2880002332460699039800F00EFB3F
:102FC00001900198002803D12888710040182880BA
:102FD0000198002806D0019801F0DEFD029001E082
:102FE00003200290029807B0F0BD000070B50546BE
:102FF0000C46064802880649681CFDF7BDFA0348DE
:103000000088401C2080002070BD00008C01002042
:10301000DC070020FEB504460E46002000903088F4
:10302000052829D160780702A07807432079002875
:103030001FD1E078FF2802D0E078002819D10020C5
:1030400069464871E078FF2802D10120087102E04A
:1030500000206946087101231A46394601A800F08C
:10306000B5FA0546002D09D0284601F095FD0090DF
:1030700004E00320009001E0032000900098FEBDD2
:10308000F8B504460E46002000903088052811D17E
:1030900060780702A078074301231A463946E01CEE
:1030A00000F09CFA0546002D06D0284601F074FD7C
:1030B000009001E0032000900098F8BDF0B585B0C5
:1030C00005460E4600200190308805283CDD6878D2
:1030D00000020390A878039908430390E87804025B
:1030E00028790443687902906007400F002807D0D0
:1030F0002046E117490F0918C910491CCFB205E055
:103100002046E117490F091849050F0E012C18DB5D
:103110007B200001844214DC0298874211D10123F4
:103120002246A81D039900F051FA0090009800284B
:1031300004D0009801F030FD019007E005203080B8
:1031400004E00320019001E003200190019805B004
:10315000F0BDFEB504460E460020009030880628DB
:1031600029DB607800020290A0780299084302905F
:10317000E07805022079054360790190012D17DB85
:10318000782D15DC6806010E0198814210D10123CB
:103190002A46A01D029900F021FA0746002F04D00C
:1031A000384601F0F9FC009007E00520308004E08B
:1031B0000320009001E0032000900098FEBD000075
:1031C000F8B505460C4616461F4600200090002C18
:1031D00003D0012C01DBF72C02DD0220009037E048
:1031E0001C480470002D20D11B481C4908601C4855
:1031F0001C4908601C481D4908601D481D4908609D
:1032000000201D4908601D481D4908601D481E49D1
:1032100008601E481E4908603A4631460D4800784D
:10322000069B00F0DFF8009002E00220009000BF53
:1032300000BF009800280BD101F0BCFE002802D18D
:103240000320009004E01348057001201249087023
:103250000098F8BD900100208935000098010020F9
:10326000BD3500009C010020E934000094010020DD
:1032700035340000A0010020A401002039500000D6
:10328000A8010020BD510000AC0100202551000024
:10329000B0010020910100209201002038B50025E6
:1032A00045480078002801D0062038BD684601F066
:1032B0006FFE01287DD168460078002806D00128DD
:1032C00005D002281AD0032872D170E070E03B4A82
:1032D0003B493C483C4B1B6898470546002D0CD1A8
:1032E0003848007839490978884203D03548007851
:1032F000002802D1022001F065FE59E03048006844
:10330000007833490870012032490870002418E021
:10331000E0003149085C002800D114E0E0002E49AB
:10332000085C2B49097888420AD1E0002A494018F4
:10333000224942682248006890472649087002E006
:10334000641C102CE4DB00BF1E48007800282CD041
:1033500020480078002819D00020184908801C480F
:1033600000788021084315490A880988491C134BB5
:10337000198013490968885416480278184601884C
:103380000088401C18800E4800684254134800789A
:10339000012800D100BF09480288094801680B488C
:1033A00000780F4B1B689847054601E001E000BF1D
:1033B00000BF002079E700009201002042020020B7
:1033C0003C02002040020020A001002090010020CB
:1033D0004102002044020020BC0100209101002095
:1033E00094010020F8B50E4614461F4600200090B8
:1033F0003B4608222146304601F0F7FD012802D065
:103400000320009011E04B200002844201D92325C3
:1034100004E061000648FDF7F0F80546A8B201F0A7
:10342000EFFD012801D0032000900098F8BD0000B6
:10343000A07F1700F8B504460D4616460020009000
:10344000002712480088FF2800DC04E0A52210A114
:103450001AA0FDF753F80D480088042813DB0B4829
:103460000188204801F0C6FC00280CD11D480078D6
:10347000207006480088C01E30801A48401C286012
:103480000120009000E005273846F8BD8A010020A1
:10349000536F75726365436F64655C467265654D15
:1034A0006F646275735C6D6F646275735C72747562
:1034B0005C6D627274752E63000000007573526358
:1034C00076427566666572506F73203C204D425F90
:1034D0005345525F5044555F53495A455F4D4158DB
:1034E00000000000DC060020F8B505460E46174631
:1034F000002000901D480078012832D1701E1C4920
:10350000086001201B4908801948006805700846BA
:103510000088C0190880084601881548006801F035
:1035200069FC0446134A1088421C124B1A80124A46
:10353000145421121A461088421C1A800E4A115443
:1035400001200E4908700121002001F06FFC0120CC
:103550000B4908720A20012181400A4A116000BF0C
:1035600001E0052000900098F8BD000081010020D6
:103570008401002088010020DC060020800100205A
:103580002060004000E200E010B50020064908700D
:103590000021012001F04AFC01F0A2FC00BF03A0C1
:1035A000FCF778FE00BF10BD810100200A654D4286
:1035B000525455537461727428293B0010B5002190
:1035C000084601F033FC01F07DFC10BD10B5044647
:1035D000012010BD0346012070470000FFB585B0F3
:1035E00006460D4617460898002878D103200002A9
:1035F000854275DBE120800085427DDC002478E097
:1036000028190321090288420AD1D84800880012EB
:1036100061007054D548007861008919487066E0EF
:103620002819D34988420AD1D24800880012610083
:103630007054D048007861008919487057E0281903
:10364000CB49491C88420AD1CA480088001261004F
:103650007054C848007861008919487047E02819FB
:10366000C349891C88420AD1C348008800126100FE
:103670007054C148007861008919487037E02819F2
:10368000C321890088420AD1BA480088001261002B
:103690007054B848007861008919487027E02819EB
:1036A000B3490C3188420AD1B24800880012610047
:1036B0007054B048007861008919487017E02819E3
:1036C000AB490D3188420CD1AA4800880012610034
:1036D0007054A848007861008919487007E058E0E4
:1036E0000AE0002061007054610089194870601C74
:1036F000C4B2BC4284DB4CE001208002854221DB65
:103700009E4885421EDC002419E028199B49884206
:1037100013DC01208002281A001940009849085A39
:1037200000126100705401208002281A0019400024
:103730009349085C610089194870601CC4B2BC429E
:10374000E3DB26E005200002854222DB8B48F230D5
:1037500085421EDC00241AE028198849F23188428B
:1037600013DC05200002281A001940008549085A78
:1037700000126100705405200002281A0019400050
:103780008049085C610089194870601CC4B2BC4261
:10379000E2DB089801287DD103200002854210DB7E
:1037A000E120800085420CDC002407E02819032179
:1037B0000902884200D000BF601CC4B2BC42F5DBE5
:1037C000CFE001208002854277DB6C48854274DCC3
:1037D00000242EE028196949884228DC291988B27A
:1037E00004A9FEF751FF012821D16846007C062874
:1037F00003DB6846007C102819DD6000305C039014
:10380000039800020390600080194178039808181B
:1038100080B20390291901229202891A4900584A5C
:10382000039850526846007C0399FEF72BFD601CFC
:10383000C4B2BC42CEDB5148213885420EDCE819C7
:103840004E492139884209DD4D484030008B0B2814
:1038500004D101204C4908704C4908704748213870
:1038600085427EDCE81945492139884279DD4448A2
:103870004030008B0C2874D1FFF756F8FEF7ECFFB0
:10388000002002903F200001414B424A42490090F3
:10389000102001E066E010E0FEF70AF980B2029025
:1038A000FEF778FCFEF738FC7E200299FEF7B0FCAC
:1038B000FEF718FAFEF734FA53E0052000028542BD
:1038C0004FDB2E48F23085424BDC002447E02919BB
:1038D0002A48F230814240DC291988B204A9FEF757
:1038E000D3FE012839D16846007C20281BD06846C9
:1038F000007C242817D06846007C2A2813D068460C
:10390000007C30280FD06846007C32280BD06846F7
:10391000007C342807D06846007C382803D06846ED
:10392000007C3C2819D16000305C039003980002B1
:1039300003906000801941780398081880B20390C2
:10394000291905221202891A49000E4A0398505279
:103950006846007C0399FEF75BFC601CC4B2BC4265
:10396000B5DB00BF002009B0F0BD0000B2020020AE
:1039700001030000B4020020B60200204D04000044
:10398000580D0020F40D0020AC0200204802002059
:10399000740E0020FFFF00000580000070B5034694
:1039A00000207D25ED00A94218DB8D18FB26B6000E
:1039B000B54213DC0A4D2D884C1B0CE06500094E06
:1039C000755B2D121D705B1C6500755D1D705B1CA9
:1039D000641C551EAAB2002AF0DC00E0012070BD74
:1039E000D0020020D202002001460020C0437047D0
:1039F00000200149087770476060004070B50446B8
:103A00000D46E0B2FDF7D0FD0A2C02D10D20FDF7E6
:103A1000CBFD204670BD0000FFB581B01E460024DE
:103A2000002500270A98012801DB002E02D1012081
:103A300005B0F0BD28480078002816D1019800F0A4
:103A4000D1FC02984006010E019800F095FB054656
:103A5000002D01DD601CC4B20399019800F08CFBBD
:103A60000546002D01DD601CC4B2019800F0BAFCCF
:103A700002984000401CC1B2019800F07DFB054651
:103A8000002D01DD601CC4B21420FEF7B7FD0A98BA
:103A9000012811DD00270BE0F1190122019800F047
:103AA00005FA0546002D01DD601CC4B2781CC7B2C2
:103AB0000A98401EB842EFDCF1190022019800F08C
:103AC000F5F90546002D01DD601CC4B2019800F037
:103AD000D0FC2046ACE70000A9020020FFB581B071
:103AE0001E46002400270A98012801DB002E02D17F
:103AF000012005B0F0BD019800F074FC029840066A
:103B0000010E019800F038FB0746002F01DD601C14
:103B1000C4B20399019800F02FFB0746002F01DD86
:103B2000601CC4B200250AE0715D019800F024FB1E
:103B30000746002F01DD601CC4B2681CC5B20A989C
:103B40008542F1DB019800F094FC2046D1E77047F4
:103B500010B5012002490870FCF7ACFF10BD000051
:103B60001D01002010B5012002490870FCF7A2FFDA
:103B700010BD00001C01002010B55648008802212D
:103B80000840022807D154480088002803D00220AA
:103B9000FFF7DDFF9AE04F480088C007C00F0028FC
:103BA00007D04D480088002803D00520FFF7CFFF3D
:103BB0008CE04A480078C007C00F002818D046485B
:103BC000008800280FD046480068007845490872F0
:103BD00043480068401C424908603F480088401E36
:103BE0003D49088072E0FCF777FFFFF7BBFF6DE00F
:103BF0003A48007804210840002832D13548203066
:103C00008088012108433349203188803148008B66
:103C10008004800C2F4908830846008B012189030A
:103C200008432C4908832B48203040880121084351
:103C30002849203148802948007804210843274931
:103C4000087029480088012807D12248203040897F
:103C5000264908401F4920314881FF202149087228
:103C600034E0234800882049098888422EDA1D481C
:103C7000007A2049096808701E480068401C1D49E8
:103C800008601B480088401C1949088016480088B5
:103C9000401E098888420BD10E48203040891349C4
:103CA00008400C4920314881FF200E4908720DE080
:103CB0000F4800880C490988884204D1FCF70CFFA2
:103CC000FFF746FF02E0FF200649087200200A497C
:103CD000087710BD40150440E8000020E0000020F7
:103CE000E400002040170440F2000020FEFF000026
:103CF000F0000020EC000020006000407047000051
:103D000010B5012002490870FCF71CFF10BD00002F
:103D10001F01002010B5012002490870FCF712FFB6
:103D200010BD00001E01002010B556484088022139
:103D30000840022807D154480088002803D00220F8
:103D4000FFF7DCFF9AE04F484088C007C00F00280B
:103D500007D04D480088002803D00520FFF7CEFF8C
:103D60008CE04A480078C007C00F002818D04648A9
:103D7000008800280FD046480068007845498872BE
:103D800043480068401C424908603F480088401E84
:103D90003D49088072E0FCF7E9FEFFF7BBFF6DE0EC
:103DA0003A48007804210840002832D135482030B4
:103DB0008088022108433349203188803148408B74
:103DC0008004800C2F4948830846408B01218903D9
:103DD00008432C4948832B4820304088022108435F
:103DE0002849203148802948007804210843274980
:103DF000087029480088012807D1224820304089CE
:103E0000264908401F4920314881FF2021498872F6
:103E100034E0234800882049098888422EDA1D486A
:103E2000807A2049096808701E480068401C1D49B6
:103E300008601B480088401C194908801648008803
:103E4000401E098888420BD10E4820304089134912
:103E500008400C4920314881FF200E4988720DE04E
:103E60000F4800880C490988884204D1FCF77EFE7F
:103E7000FFF746FF02E0FF200649887200200A494A
:103E8000087010BD40150440FC000020F400002024
:103E9000F80000204017044006010020FDFF00004C
:103EA00004010020000100202060004070B504469D
:103EB0000D461646012C71D10020AD490870FEF761
:103EC0007DFA1420FEF79AFBFEF7BCFA0020A94900
:103ED000087027E0A64800784006000EA449087044
:103EE0000120FEF76BFA1420FEF788FBFEF7B8FA04
:103EF000012805D19E480078401C9D49087003E0C8
:103F00009B4800789A4908703220FEF777FB002022
:103F1000FEF754FA1420FEF771FB96480078401C17
:103F200094490870934800780828D3DBFEF791FA8B
:103F30008F4800782870002E18D10020FEF73EFA36
:103F40000A20FEF75BFB0120FEF75AFA0A20FEF773
:103F500055FB0120FEF732FA4620FEF74FFB00200A
:103F6000FEF72CFA1E20FEF749FB17E00020FEF7B3
:103F700025FA0A20FEF742FB0020FEF741FA0A204C
:103F8000FEF73CFB0120FEF719FA4620FEF736FB50
:103F90000020FEF713FA1E20FEF730FB022C71D131
:103FA000002073490870FEF769FA1420FEF726FB1B
:103FB000FEF7A8FA00206F49087027E06C480078E7
:103FC0004006000E6A4908700120FEF757FA1420D7
:103FD000FEF714FBFEF7A4FA012805D16448007827
:103FE000401C6349087003E061480078604908702C
:103FF0003220FEF703FB0020FEF740FA1420FEF704
:10400000FDFA5C480078401C5A490870594800780D
:104010000828D3DBFEF77DFA554800782870002E7B
:1040200018D10020FEF72AFA0A20FEF7E7FA01204D
:10403000FEF746FA0A20FEF7E1FA0120FEF71EFA23
:104040004620FEF7DBFA0020FEF718FA1E20FEF7E6
:10405000D5FA17E00020FEF711FA0A20FEF7CEFA93
:104060000020FEF72DFA0A20FEF7C8FA0120FEF71D
:1040700005FA4620FEF7C2FA0020FEF7FFF91E20DF
:10408000FEF7BCFA032C71D1002039490870FEF705
:1040900055FA1420FEF7B2FAFEF794FA00203549DB
:1040A000087027E0324800784006000E304908705A
:1040B0000120FEF743FA1420FEF7A0FAFEF790FA6B
:1040C000012805D12A480078401C2949087003E0DE
:1040D00027480078264908703220FEF78FFA002022
:1040E000FEF72CFA1420FEF789FA22480078401CCB
:1040F000204908701F4800780828D3DBFEF769FACA
:104100001B4800782870002E18D10020FEF716FA00
:104110000A20FEF773FA0120FEF732FA0A20FEF7B2
:104120006DFA0120FEF70AFA4620FEF767FA002032
:10413000FEF704FA1E20FEF761FA17E00020FEF7F2
:10414000FDF90A20FEF75AFA0020FEF719FA0A20B4
:10415000FEF754FA0120FEF7F1F94620FEF74EFA79
:104160000020FEF7EBF91E20FEF748FA002070BD94
:10417000A5020020A402002070B504460D46012CC3
:1041800061D180209549087000209549087023E08E
:10419000924800782840002802D1FEF731F902E069
:1041A0000120FEF72DF90A20FEF728FA0120FEF77C
:1041B00005F94620FEF722FA0020FEF7FFF814204A
:1041C000FEF71CFA8548007840108449087084483E
:1041D0000078401C82490870814800780828D7DBA5
:1041E000FEF730F90A20FEF709FA0120FEF7E6F89B
:1041F0001420FEF703FAFEF733F901280CD1002052
:10420000FEF7DCF8FEF725F91E20FEF7F7F901208E
:10421000FEF7F6F8012070BDFEF722F900280BD159
:10422000FEF7CCF8FEF715F91E20FEF7E7F901209E
:10423000FEF7E6F80020EEE7FEF70BF90120FEF7A7
:10424000DFF80020E7E7022C61D180206349087085
:1042500000206349087023E0604800782840002867
:1042600002D1FEF72DF902E00120FEF729F90A201C
:10427000FEF7C4F90120FEF701F94620FEF7BEF96A
:104280000020FEF7FBF81420FEF7B8F95348007839
:1042900040105249087052480078401C504908703C
:1042A0004F4800780828D7DBFEF72CF90A20FEF7E4
:1042B000A5F90120FEF7E2F81420FEF79FF9FEF7BA
:1042C0002FF901280CD10020FEF7D8F8FEF721F9CC
:1042D0001E20FEF793F90120FEF7F2F801209AE77D
:1042E000FEF71EF900280BD1FEF7C8F8FEF711F90A
:1042F0001E20FEF783F90120FEF7E2F800208AE78E
:10430000FEF707F90120FEF7DBF8002083E7032C16
:1043100061D180203149087000203149087023E0C4
:104320002E4800782840002802D1FEF729F902E043
:104330000120FEF725F90A20FEF760F90120FEF7BB
:10434000FDF84620FEF75AF90020FEF7F7F8142092
:10435000FEF754F9214800784010204908702048A1
:104360000078401C1E4908701D4800780828D7DBDB
:10437000FEF728F90A20FEF741F90120FEF7DEF8E2
:104380001420FEF73BF9FEF72BF901280CD1002091
:10439000FEF7D4F8FEF71DF91E20FEF72FF90120D5
:1043A000FEF7EEF8012036E7FEF71AF900280BD1E8
:1043B000FEF7C4F8FEF70DF91E20FEF71FF90120E5
:1043C000FEF7DEF8002026E7FEF703F90120FEF7EE
:1043D000D7F800201FE701201DE70000A5020020FC
:1043E000A402002010B50446012C13D1FEF708F8F2
:1043F0000120FDF7E3FF1420FEF700F90020FDF790
:10440000FFFF1E20FEF7FAF80020FDF7D7FF14206B
:10441000FEF7F4F8022C14D10120FEF751F8012028
:10442000FEF72CF81420FEF7E9F80020FEF748F814
:104430001E20FEF7E3F80020FEF720F81420FEF718
:10444000DDF8032C14D10120FEF79AF80120FEF7C5
:1044500075F81420FEF7D2F80020FEF791F81E2020
:10446000FEF7CCF80020FEF769F81420FEF7C6F836
:1044700010BD10B50446012C14D10A20FEF7BEF879
:104480000020FDF7BDFF0A20FEF7B8F80120FDF778
:1044900095FF0A20FEF7B2F80120FDF7B1FF462094
:1044A000FEF7ACF8022C14D10A20FEF7A7F8002082
:1044B000FEF706F80A20FEF7A1F80120FDF7DEFF5F
:1044C0000A20FEF79BF80120FDF7FAFF4620FEF7D1
:1044D00095F8032C14D10A20FEF790F80020FEF77F
:1044E0004FF80A20FEF78AF80120FEF727F80A2085
:1044F000FEF784F80120FEF743F84620FEF77EF829
:1045000010BD70470848007C012108430649087423
:1045100000BF0648407CC007C00F0028F9D001202A
:104520000349087070470000201A0440401B0440F3
:104530003B0100200848007C01210843064908741B
:1045400000BF0648407CC007C00F0028F9D00120FA
:104550000349087070470000201A0440401B0440C3
:104560003A0100200349097C20221143014A1174B9
:1045700070470000201A044001200149087070476C
:104580003B01002001200149087070473A010020DA
:1045900010B5002007490870FCF71AFB0648407C5C
:1045A00080210840802802D100F008F801E000F0E6
:1045B000D3F810BD40600040401B044010B55E4879
:1045C000807C40210840002807D15C4800880028F2
:1045D00003D00120FFF795FFACE059480078802117
:1045E0000840002844D15448407C04210840002859
:1045F0003AD05348007880210843514908704E480A
:10460000407C0821084000281BD04E48007C08430D
:104610004C4908744948008800280FD04A4800686F
:1046200000784549087448480068401C46490860BD
:1046300042480088401E414908807BE0FFF77AFF2E
:1046400078E04048007C042108433E49087408464D
:10465000007C082188433B4908740846007C2021DF
:1046600008433849087465E00220FFF74AFF61E01B
:104670003148407C08210840002824D02E48407C46
:1046800004210840002807D12C480088002803D0C6
:104690000220FFF736FF4DE02848008800280FD0A1
:1046A0002948006800782449087427480068401C9D
:1046B0002549086021480088401E2049088039E0CB
:1046C000FFF738FF36E021480088214909888842F1
:1046D0002EDA1948007C1F49096808701D480068D7
:1046E000401C1C49086019480088401C1749088074
:1046F0000846008816490988884212D11148007C72
:10470000042188430F4908740846007C202108438F
:104710000C4908740846007C0821084309490874BC
:1047200008E00848007C202108430649087401E09D
:10473000FFF7E8FE10BD0000401B044038010020D8
:1047400028010020201A04403401002032010020FA
:10475000300100202C01002010B57748407CC007B4
:10476000C00F00281FD07548007C10218843734972
:104770000874734800788021084000280FD07048E2
:10478000007804210840002801D0FFF7FBFE6C48A8
:10479000007802210840002801D0FFF7EDFE01203B
:1047A00067490870C6E06648007880210840002804
:1047B0004CD16148407C10210840002842D05F481D
:1047C000007C08435D49087480205D4908705A48A0
:1047D000407C08210840002821D05848007C08432C
:1047E000564908745748008800280FD0564800687A
:1047F00000785149087454480068401C52490860C8
:1048000050480088401E4F49088093E0FFF7BAFEE9
:104810004A48007C20210843484908748AE04748F8
:10482000007C04210843454908740846007C08219F
:104830008843424908740846007C202108433F49C8
:10484000087477E08020FFF78DFE73E03A48407CE3
:1048500008210840002830D0394800780421084356
:10486000374908703448407C04210840002807D1AB
:1048700034480088002803D00220FFF773FE59E077
:104880003048008800280FD02F48006800782A4957
:1048900008742D480068401C2B490860294800888E
:1048A000401E2849088045E0FFF76CFE2348007C45
:1048B00020210843214908743CE021480078022166
:1048C00008431F4908702148008821490988884207
:1048D0002ADA1948007C1F49096808701D480068D9
:1048E000401C1C49086019480088401C1749088072
:1048F000084600881649098888420ED10F48007C76
:10490000082108430D4908740846007C202108430B
:104910000A490874FFF730FE0CE00848007C2021AB
:1049200008430649087405E00448007C2021084338
:104930000249087410BD0000401B0440201A0440C6
:10494000290100203801002034010020320100201C
:10495000300100202C01002000200149087170471F
:104960000060004000210148417570470060004030
:104970000021014841767047006000400020014955
:1049800008727047006000400020014908737047BA
:10499000006000400020014908747047006000403A
:1049A000002001490875704700600040002001495F
:1049B000087670470060004000210148417170474F
:1049C00000600040002101484172704700600040D3
:1049D00000210148417370470060004000210148F8
:1049E00041747047006000400021014841707047E9
:1049F000586000400020014908777047406000403F
:104A000000200149087070470060004008B5FCF7BD
:104A10008DFAFDF73BF8FDF753FCFEF795F8022001
:104A20004B235B0200220A2100901046FEF7C8FBD0
:104A3000044600BF214639A0FBF72CFC00BFFEF75F
:104A400017F9044600BF21463EA0FBF723FC00BF38
:104A50004649096832225143084645490968FBF72F
:104A6000CCFD444908600846008881B20020FCF76C
:104A700079FCFDF789FC00203F49087000BF7D21CB
:104A8000C9003E480068FBF7B8FD002927D13A4825
:104A90000078012823D13A48007801281AD1002053
:104AA0003749087000BF00BF00BF00BF00BFBFF3A1
:104AB0004F8F00BF00BF00BF32483349C86000BFFE
:104AC00000BF00BFBFF34F8F00BF00BF00BF00E0BB
:104AD00000BFFDE7002028490870FDF763FCFEF7E2
:104AE000DDFB2A480088401C2849088028480078B7
:104AF0000128C4D1002026490870264C21462220D6
:104B0000FDF7C0FBFDF7D0F8FDF7ECF8FDF708F96D
:104B10001920400119490860B1E700000A65537483
:104B200061747573203D20654D42496E6974282972
:104B30003B2065537461747573203D2025642E20DD
:104B4000000000000A65537461747573203D206590
:104B50004D42456E61626C6528293B206553746146
:104B6000747573203D2025642E200000E40200208F
:104B70007402002078020020490200204C0200202C
:104B8000480200200400FA0500ED00E0D2020020F7
:104B9000AC02002069B100000146002904D00129BF
:104BA00004D0072906D103E0002005E0022003E03D
:104BB000062001E0042000BF00BF704710B5024886
:104BC0000068804710BD0000B001002000200149AE
:104BD0000876704740600040002001490874704723
:104BE00020600040002001490877704720600040A5
:104BF00000200149087170472060004000210148F1
:104C0000417070473060004000210148417070479A
:104C10003C6000400020014908717047406000403E
:104C2000002001490872704740600040002001499F
:104C300008737047406000400020014908747047C5
:104C40004060004010B500200A4908720A48007808
:104C50002021084000280AD007480078DF210840BA
:104C60000549087005480088401C04490880FFF782
:104C7000A5FF10BD60600040402204403C010020C0
:104C8000002001490875704760600040002001491C
:104C90000876704760600040002001490873704743
:104CA0006060004000200149087470476060004067
:104CB0007047000008B500200B4908730B48408876
:104CC0004107490F009168460078084948816846C5
:104CD0000078002803D068460078FFF7E9FF044811
:104CE0000068804708BD00002060004000110440BB
:104CF000A801002010B5002004490872044800787B
:104D0000012802D103480068804710BD20600040A0
:104D1000DC020020AC0100207047704770477047EC
:104D20001CB500201B4908761B48C0884107490F65
:104D30000091684600781849C881684600780028C4
:104D400003D068460078FFF7E7FF144880790190A8
:104D50001348008813490988884216DD684600799F
:104D600011490968087010480068401C0E49086025
:104D70000C480088401C0B490880094800880988B5
:104D8000884206D1FFF7C9FF03E068460079FFF7C4
:104D9000C6FF1CBD206000400011044040130440C9
:104DA00066000020640000206000002010B5002094
:104DB0000C4908750C48008800280FD00B48006883
:104DC00000780B49087109480068401C07490860D1
:104DD00005480088401E0449088001E0FFF79EFF57
:104DE00010BD0000206000405C0000205800002042
:104DF0004013044070B502460B46FF25FF2408E02F
:104E00001178521C61400748405C684004460648DF
:104E1000455C18465E1EB3B20028F1D1280220433B
:104E200070BD0000AC520000AC53000070B50446E9
:104E30000D46012C0ED11F49087000201E49087331
:104E40000B20FCF7A9F800211C4801730B20FCF78C
:104E5000C1F80DE0002017490870174908730B20AE
:104E6000FCF79AF80121154801730B20FCF7A8F80C
:104E7000012D0FD101201249087000200E4908723F
:104E80000A20FCF789F800210C4801720A20FCF77F
:104E9000A1F80DE000200A490870074908720A20AD
:104EA000FCF77AF80121054801720A20FCF788F81E
:104EB00070BD0000E0020020206000402061004042
:104EC000DF02002010B5FCF789FA002002490870C3
:104ED0000249087010BD0000DD020020DE02002043
:104EE00010B507480088401E06490880FCF762FAA2
:104EF00001200549087000200449087010BD000019
:104F00007802002000230440DD020020DE020020A1
:104F10001A480068002803D00120194908602CE0D5
:104F20000020174908601748016805E0002902D1F0
:104F300072B600BFFEE7491E14204843124A1058BB
:104F4000002801D1012000E000200028EED1142229
:104F50004A430D4BD01842685268426002460832FC
:104F60004368934202D14268526842604268D26804
:104F7000064B1A600348016000BF70477C010020A7
:104F80006401002058010020E802002040010020B8
:104F900001460020054A1278002A06D0044A1278F9
:104FA0000A700022014B1A70012070478F01002007
:104FB0008E01002000200249087001207047000087
:104FC0008F01002001460120024A10700248017042
:104FD000012070478F0100208E01002010B504468B
:104FE000FCF7D4FA2070012010BD10B50446012052
:104FF00010BD10B504462046FCF7D6FA012010BDBE
:1050000010B5044609490968322251430846084947
:105010000968FBF7F2FA074908600846008881B280
:105020000020FCF79FF9012010BD0000E4020020E1
:10503000740200207802002038B50024234800784C
:10504000002800D104E0F82221A12CA0FBF756FA99
:105050006846FFF7C3FF30480078002806D00128D3
:105060000AD002281AD003282CD102E0FFF738FF1B
:1050700028E0FFF735FF25E0002028490880694631
:105080000A7826490888411C244B198024490A546F
:10509000022021490870FFF723FF13E01F48008812
:1050A000FF2809DC69460A781C490888411C1B4B0B
:1050B00019801B490A5402E0032017490870FFF7C2
:1050C0000FFF00BF00BF204638BD00008001002058
:1050D000536F75726365436F64655C467265654DB9
:1050E0006F646275735C6D6F646275735C72747506
:1050F0005C6D627274752E630000000065536E640F
:105100005374617465203D3D2053544154455F54B0
:10511000585F49444C450000810100208A0100206D
:10512000DC06002010B5002417480078002804D0C1
:10513000022807D003280BD109E00020FFF742FF27
:10514000044619E00120FFF73DFF044614E013E098
:105150000D480078002807D00B480078022803D0BB
:1051600009480078032800D105E0FF226D3207A12D
:105170001148FBF7C3F900BF00BFFFF7A3FE0120F2
:1051800001490870204610BD81010020536F7572DF
:105190006365436F64655C467265654D6F646275F7
:1051A000735C6D6F646275735C7274755C6D627252
:1051B00074752E6300000000E855000010B500244F
:1051C0001C480078012800D105E0FF2234321AA1E2
:1051D00024A0FBF793F92A480078002802D0012880
:1051E00025D104E000210120FFF720FE1FE0254823
:1051F000008800280FD0244909680878FFF7F9FED5
:1052000021480068401C204908601E480088401E54
:105210001C4908800AE00320FFF7D4FE0446002161
:105220000120FFF703FE00201549087000BF00BFF2
:10523000204610BD81010020536F75726365436F76
:1052400064655C467265654D6F646275735C6D6F15
:10525000646275735C7274755C6D627274752E63D2
:1052600000000000655263765374617465203D3D13
:105270002053544154455F52585F49444C45000007
:10528000800100208801002084010020010002002C
:10529000040008001000200040008000000100020F
:1052A00000040008001000200040008000C1814080
:1052B00001C0804101C0804100C1814001C08041E6
:1052C00000C1814000C1814001C0804101C08041D6
:1052D00000C1814000C1814001C0804100C18140C6
:1052E00001C0804101C0804100C1814001C08041B6
:1052F00000C1814000C1814001C0804100C18140A6
:1053000001C0804101C0804100C1814000C1814095
:1053100001C0804101C0804100C1814001C0804185
:1053200000C1814000C1814001C0804101C0804175
:1053300000C1814000C1814001C0804100C1814065
:1053400001C0804101C0804100C1814000C1814055
:1053500001C0804101C0804100C1814001C0804145
:1053600000C1814000C1814001C0804100C1814035
:1053700001C0804101C0804100C1814001C0804125
:1053800000C1814000C1814001C0804101C0804115
:1053900000C1814000C1814001C0804100C1814005
:1053A00001C0804101C0804100C1814000C0C101F5
:1053B000C30302C2C60607C705C5C404CC0C0DCD85
:1053C0000FCFCE0E0ACACB0BC90908C8D81819D9F5
:1053D0001BDBDA1A1EDEDF1FDD1D1CDC14D4D51525
:1053E000D71716D6D21213D311D1D010F03031F115
:1053F00033F3F23236F6F737F53534F43CFCFD3D45
:10540000FF3F3EFEFA3A3BFB39F9F83828E8E92934
:10541000EB2B2AEAEE2E2FEF2DEDEC2CE42425E5E4
:1054200027E7E62622E2E323E12120E0A06061A154
:1054300063A3A26266A6A767A56564A46CACAD6D04
:10544000AF6F6EAEAA6A6BAB69A9A86878B8B97974
:10545000BB7B7ABABE7E7FBF7DBDBC7CB47475B5A4
:1054600077B7B67672B2B373B17170B05090915194
:105470009353529296565797559594549C5C5D9DC4
:105480005F9F9E5E5A9A9B5B9959589888484989B4
:105490004B8B8A4A4E8E8F4F8D4D4C8C4484854564
:1054A0008747468682424383418180400000F8510D
:1054B0000200D1000400DE00060000E108000A003E
:1054C0000A00FFFF0C00CCD20E00FAEE10004004E0
:1054D0001200210014000100160000D21800002A5A
:1054E0001A00D30E1C00B3021E00008E2000D6123C
:1054F0002200066C240000F026009F0928000F10EF
:105500002A0001002C0080082E0000003000D47812
:105510003200521434009D023600800C3800470BD4
:105520003A0054113C0000003E0000004000001012
:105530004200000044000000460000004800000057
:105540004A0000004C0000004E0000005000000027
:1055500052000000540000005600000058000000F7
:105560005A0000005C0000005E00000060000000C7
:10557000620000006400000066004D0F68008EBCF1
:105580006A0054FC6C0000006E0000007000000017
:105590007200000074000000760000007800000037
:1055A0007A0000007C0000007E00E2CC3031323313
:1055B0003435363738394142434445464030580047
:1055C0003031323334353637383961626364656679
:1055D00040307800040000080000000000000002D5
:1055E000000100001000000028206552637653740B
:1055F000617465203D3D2053544154455F52585FCE
:10560000494E49542029207C7C202820655263760D
:105610005374617465203D3D2053544154455F529D
:10562000585F5243562029207C7C202820655263F5
:10563000765374617465203D3D2053544154455F59
:1056400052585F4552524F52202900000A57726942
:1056500074652053706563696669656420434D20F5
:10566000557365722064617461207768656E204DA2
:10567000625265675B313331305D203D20434D5BC5
:10568000307833435D203D20307830303030203D5D
:1056900020302E00B456000000000020E802000078
:1056A0008009000008570000E8020020A81300004D
:1056B0000801000001FF919AFF010164021909022B
:1056C0002902321123ED2F320423892E32031A07C7
:1056D000083210235331320623813032171A0B2837
:1056E000320123A52C32051A1518320F1ABD0829CC
:1056F000720376572D297C138002033F20092B016A
:0857000001DE210316E803009D
:04000005000000C532
:00000001FF
