:020000040000FA
:10000000701B0020150200001D0200001F020000EE
:1000100000000000000000000000000000000000E0
:10002000000000000000000000000000D5260000D5
:1000300000000000000000009B010000ED26000011
:10004000B5200000C9200000E920000009210000BF
:1000500029210000492100006921000089210000B8
:100060009D210000B1210000D5210000E921000000
:10007000FD2100002122000035220000492200005D
:100080006D2200008D220000A1220000B522000098
:10009000C9220000DD220000F1220000152300002B
:1000A00039230000592300007D2300009123000024
:1000B000A5230000B9230000CD230000E1230000A8
:1000C000EF3FE9FF00F002F800F03DF80CA030C867
:1000D000083824182D18A246671EAB4654465D46C4
:1000E000AC4201D100F02FF87E460F3E0FCCB64651
:1000F0000126334200D0FB1AA246AB4633431847D1
:10010000709A0000909A0000002300240025002629
:10011000103A01D378C1FBD8520700D330C100D5C3
:100120000B60704710B5642902D100F0E9F810BDEA
:10013000782902D100F01AF910BD002010BD1FB5BA
:100140001FBD10B510BD01F09DF91146FFF7F7FF77
:1001500008F030FA01F0B5F903B4FFF7F2FF03BC81
:1001600005F01CF8084B19680868203080F30988EE
:10017000022080F31488BFF36F8F3FBCAE4608BCEB
:1001800004BC62B61847000048010020EFF310805D
:1001900072B6704780F310887047EFF309800E4BFA
:1001A0001A6820381060F0C044464D4656465F46F7
:1001B000F0C008B572B608F077FE62B60CBC1168E4
:1001C00008681030F0C8A046A946B246BB4680F386
:1001D00009882038F0C818474801002070B5054646
:1001E0000C46164602E00FCC0FC5103E102EFAD278
:1001F000082E02D303CC03C5083E042E07D301CC3E
:1002000001C5361F03E021782970641C6D1C761E21
:10021000F9D270BD1948804719480047FEE7FEE74C
:10022000FEE7FEE7FEE7FEE7FEE7FEE7FEE7FEE7A6
:10023000FEE7FEE7FEE7FEE7FEE7FEE7FEE7FEE796
:10024000FEE7FEE7FEE7FEE7FEE7FEE7FEE7FEE786
:10025000FEE7FEE7FEE7FEE7FEE7FEE7FEE7FEE776
:10026000FEE7FEE7FEE7FEE7FEE7FEE7FEE700004B
:1002700004480549054A064B704700001D28000048
:10028000C500000070160020701B002070170020B1
:10029000701700200FB4054910B503AA029801F0A9
:1002A0002FF810BC08BC04B018470000240100203F
:1002B00070B5044685690068C10601D5302600E0A6
:1002C0002026C00707D070BD62683046A1689047FD
:1002D000206A401C20626D1EF6D570BD70B50446C4
:1002E00085690078C00707D170BD6268A1682020C9
:1002F0009047206A401C20626D1EF6D570BD00003C
:10030000F7B5002575291068009914A611D0C046CC
:10031000C046002802DA404211A608E000990968A8
:100320008A0701D50FA602E0490704D50EA60125CC
:1003300001E0C046C046009F0024243704E001F0DD
:1003400005F830313955641C0028F8D12B46324667
:100350002146009800F07CFFFEBD00000000000078
:100360002D0000002B0000002000000070B50446A6
:100370000D4621461068C046C0462188090502D5B1
:100380000F4A7A4402E00E4A7A440E322346002194
:10039000243305E006070009360F965D5E54491CBC
:1003A0000028F7D120780023000705D5702D03D051
:1003B000002901D002231132204600F049FF70BD10
:1003C00036960000F3B50446002081B02062204636
:1003D000E168884700287DD0252802D06268A1689E
:1003E00083E0454F00257F442046E1688847202868
:1003F000064608DB312E06D2B819203800780028CE
:1004000001D00543F0E7A80701D50420854300206B
:10041000E0610746A0612A2E0AD0304604F0B6FEFD
:10042000002827D0B8000019303E0090866119E0FE
:100430000298BA00121902C8916102902046E16840
:100440008847012F064617D1E06900281FDA2020CF
:1004500085431CE000980A2180694843009980196F
:10046000303888612046E1688847064604F08EFEF1
:100470000028EFD1012F0AD02E2E08D12046E168A6
:1004800088470646202005437F1C022FC3DBA06956
:10049000002803DA4042A06101200543E80701D0AB
:1004A00010208543002E24D030464138192803D827
:1004B0000120C00205432036204625603146029ABD
:1004C0001546FFF72FFE00280CD0012807D0ED1DA0
:1004D000E80800E00DE0C0000830029077E72D1D2D
:1004E000029574E762683046A1689047206A401C14
:1004F0006CE7206AFEBD0000FA9500000EB50446C8
:1005000015460E4612A000F017FF204600F014FF1B
:1005100015A000F011FF304600F00EFF14A000F00F
:100520000BFF6C460020E0720A20A0720A3407E03C
:100530000A21284600F06BF830310546641E217010
:10054000002DF5DC204600F0F7FE00F0EDFE000087
:100550002A2A2A20617373657274696F6E2066613E
:10056000696C65643A2000002C2066696C65200087
:100570002C206C696E652000F8B5042A2CD3830703
:1005800012D00B78491C0370401C521E83070BD0FD
:100590000B78491C0370401C521E830704D00B7853
:1005A000491C0370401C521E8B079B0F05D0C91AB3
:1005B000DF002023DE1B08C90AE0FFF70FFEF8BDAD
:1005C0001D4608C9FD401C46B4402C4310C0121FF4
:1005D000042AF5D2F308C91A521EF0D40B78491C2C
:1005E0000370401C521EEAD40B78491C0370401C57
:1005F000012AE4D409780170F8BD002203098B4276
:100600002CD3030A8B4211D300239C464EE00346B1
:100610000B433CD4002243088B4231D303098B4265
:100620001CD3030A8B4201D394463FE0C3098B429B
:1006300001D3CB01C01A524183098B4201D38B01F4
:10064000C01A524143098B4201D34B01C01A524197
:1006500003098B4201D30B01C01A5241C3088B42DC
:1006600001D3CB00C01A524183088B4201D38B00C7
:10067000C01A524143088B4201D34B00C01A524169
:10068000411A00D201465241104670475DE0CA0F40
:1006900000D04942031000D34042534000229C4600
:1006A00003098B422DD3030A8B4212D3FC2289010A
:1006B00012BA030A8B420CD3890192118B4208D3E0
:1006C000890192118B4204D389013AD0921100E042
:1006D0008909C3098B4201D3CB01C01A5241830956
:1006E0008B4201D38B01C01A524143098B4201D383
:1006F0004B01C01A524103098B4201D30B01C01AAE
:100700005241C3088B4201D3CB00C01A5241830827
:100710008B4201D38B00C01A5241D9D243088B427D
:1007200001D34B00C01A5241411A00D20146634620
:1007300052415B10104601D34042002B00D5494284
:10074000704763465B1000D3404201B50020C046AD
:10075000C04602BD7047704770470000F0B50C46B8
:10076000871A9C410D46861A9D4103D2C01BA141A8
:10077000D21963410D0D1F0DC94EEC1BAE435CD069
:100780007F057F0D0026002F51D02D05AC46A943D3
:10079000DD020123ED0A1B051D4320231B1B24D46E
:1007A0001746E740381871412F46E740CC199D4065
:1007B0002818314661410C0D27D161449A4013D568
:1007C0000023401C594152000ED140084000012234
:1007D0004B005205D34207D305204007C14201D543
:1007E000B04900E0B0493046F0BD6B00002A00D0AF
:1007F00001229A181F23203C1B1B01D5002302E075
:10080000E540281871410C0DD7D0012424050919A1
:10081000C407CD0740084908E40F28436144002C71
:10082000D5D00024401C61419A40D0D1CDE76A0563
:10083000520DD9D1C90FC907D5E79C4D4E000028EC
:1008400001D0012400E0002434195F00002A01D007
:10085000012600E00026BE19954FAC420CD8AE42EE
:100860000AD8B44206D001256D05EC42BCD0104632
:100870001946F0BD9942FCD000203946F0BDF0B5D4
:100880001FB40C460F46811A9F412546861A9D418A
:1008900006D20125ED076F40401ABC4152187B413A
:1008A000210D1E0D8D1BAC467D4D8D437ED07505F3
:1008B0006D0D7CD00D05AE46AC431B031B0B794D73
:1008C00052429D41202366469B1B14D31746F74096
:1008D000381800260090744160462F460741E419FD
:1008E00000989D402818664116D4714671189A40A8
:1008F00025D5012320E093182A466A415200002B97
:1009000000D0521C1E23203E9B1B002B61DD354175
:10091000EE1728186641E8D5001876415B1C9A400E
:1009200000D3401C4B05F3181524E34010D3002BD3
:1009300052D071467118D30FC01802D3491C05B0AC
:10094000F0BD0123DB079A42F9D140084000F6E7E9
:1009500001225205B21801D1002853D00123CC0A3C
:10096000DB029943891E002A08D1020C03D0020C35
:100970000004103902E00246002020390023550B04
:1009800005D112020823550B01D152010D23550C3C
:1009900001D112011B1DD50C01D192009B1C150D1C
:1009A00001D152005B1C2025EE1A01E02CE022E070
:1009B0000546F54015439840CA1AE1076918130522
:1009C000C918002ABBDA032040070818C10FC9075D
:1009D0000FE071466118B2E7F10740080843711053
:1009E00071444A000CD001235B059A42A7D2C90F7B
:1009F000C9070020A3E74905490D26D1002001E0E1
:100A00000028F4D100219AE7284D6600002801D083
:100A1000012100E0002171185F00002A01D00126A9
:100A200000E00026BE19224FA94210D8AE420ED8CF
:100A3000B14208D001256D05E94206D01946A80249
:100A4000414010467BE79C4201D0214677E70020D9
:100A5000394674E710B50C465C4005D50124E4071F
:100A60006340FFF70CFF10BDFFF778FE10BD30B4F8
:100A70000C465C4004D50124E407634030BC6DE6BD
:100A800030BCFCE670B50124E40761400D465D40D2
:100A900002D4FFF763FE70BD6340FFF7F0FE70BD48
:100AA000FF0700000000F0FF0000F07F0000E0FF03
:100AB0000000F87FF0B5F94D0C091E092C402E40BE
:100AC0002F468BB0A7437DD0B543FCD0002E7AD003
:100AD000002CFCD00D465D40ED0F2543AC1BFF25DF
:100AE000AD0464190894C502440DC9022143500D98
:100AF000DC0204430120C00701430443D2020191F8
:100B0000200C110C00958C46010423468B430A915E
:100B100061460904E24D8A430991010A7D4449195D
:100B20008039097805464D4301266D18F605751B79
:100B30006943C90C640B891C4C436418B5012C1B18
:100B4000250C2E04B4434C434D43210C69188909EC
:100B50000591009DE90701D00121C90704912C46A8
:100B600001996708CD072F434C08059DE10B4D43C4
:100B70002D0C29466646754302950D4645432E4683
:100B8000029D7D1BB44100950D465D4301942C0CE4
:100B90002F040D465543AE462D0C3D43029503945C
:100BA0007546049C2D04641B049406D2029C039D8C
:100BB000641C002675410395029401AC70CC009F23
:100BC0007D1B01E03EE162E1B4410904009507911B
:100BD00001940599A4086143090C0C464443650B34
:100BE000E7040C4666467443A646640B3C430395F3
:100BF00002947446049DE4042C1B049406D2029CC7
:100C0000039D641C002675410395029401AC70CCD1
:100C1000009F7D1BB44101940C465C430095650F19
:100C2000E7000C465443A646640F3C4303950294E8
:100C30007446049DE4002C1B049406D2029C039D80
:100C4000641C002675410395029401AC70CC009F92
:100C50007D1BB441AE09AF06049DC900AD092F4309
:100C6000049DA406AD060495079D344369180791B9
:100C7000059DE10B4D432D0C2946664675430295B3
:100C80000D4645432E46029D7D1BB44100950D4601
:100C90005D4301942C0C2F040D465543AE462D0C9C
:100CA0003D43029503947546049C2D04641B0494F3
:100CB00006D2029C039D641C002675410395029494
:100CC00001AC70CC009F7D1BB44101948C0506944F
:100CD000079C890A611800950791019C0599A40851
:100CE0006143090C0D464543680BEF040D4664460D
:100CF00065436C0B3C43049FED047D1BAC4602D264
:100D00000025641C6841009E019D371B85410846F3
:100D1000584301950C46460FC5005443600F2843C5
:100D20006546E4002C1B02D20025401C6E41019D4B
:100D30003F1AB5412846BD09800628438446A009CC
:100D4000BF064E020699A40676180743079D0020A9
:100D500068410A99079019430020099B009060465A
:100D6000FF1913434041E20F64003A43A44604468E
:100D7000D71A8C41A04203D90120009020463A4660
:100D8000C70F941840416246D20F22436446640064
:100D90000494009CBE466400D71AA44604460297F9
:100DA0008C417746002F01D1A04204D96046401CF7
:100DB0008446029A2046C40FA64694184041049ADD
:100DC0000546D20F224364466400D31A8D41714612
:100DD000002901D1A84202D928461A46641C1043B2
:100DE0000122002800D0164361020020079B8919C8
:100DF00004465C410223002C02DB4918134664417F
:100E0000089DCE0A2D145D194B056705E10A2C05D6
:100E10000D1908993E43C9076940002B08D093403B
:100E200006D30022761C5141002B01D176087600B2
:100E30001C4A002D43DB154241D0AA433FD0304627
:100E40000BB0F0BD06180D464D41174C7642AC4133
:100E50001AD395181C465C41134A6D42A24113D324
:100E6000012252054C00D4420AD15C00D4420BD07E
:100E70004B4002D592021143E2E749004908DFE7FF
:100E80005940C90FC90718E000200849D8E70548AC
:100E900001420DD10342F7D0F2E700000000FF0746
:100EA000D58E00000000F07F0000E0FF0000F87F1A
:100EB000114859400143C01241400020C0E70123BE
:100EC000089A9B069A4205DC032252078918C90F2B
:100ED000C907B5E7052252078918074A1143D212FC
:100EE0005140ADE770B515461C4602460B462846F4
:100EF0002146FFF7DFFD70BDFFFFFF7F30B50346E2
:100F0000CA02400D1043164D164C0A1502D020435C
:100F1000002A06DBAA1A002A12DDD040FF2A0BDCC9
:100F200030BD5205520D01D140004008AA1A07D425
:100F3000D0404042FF2A01DD002030BD0028FCDD0A
:100F40004A00002B01D0012000E0002010180122EF
:100F50005205D042F0D8C817C043604030BD0000F1
:100F60001E040000000000800346CA02400D10B5B8
:100F700010430A1504D00124E4072043002A05DBAE
:100F80000A4CA21A04D4D040FF2A00DD002010BD74
:100F90004A00002B01D0012000E00020101801229F
:100FA0005205D042F2D8C817C04310BD1E0400003D
:100FB0001F22030C02D10F22000402D0030E03D023
:100FC00004E00020014670470002083A030F01D1F7
:100FD0000001121F830F01D18000921E002801DB47
:100FE0004000521E120551184205C0124118104609
:100FF0007047C10FC90700D0404201229207114338
:10100000D6E701218907D3E7F0B58B4C0F092546B8
:1010100089B0BD437BD01D092646AE43FAD00E46AB
:101020005E402740F60F3E43254071D02401214207
:10103000FBD0FF24AD19A4042D1B039501252D051C
:10104000DB02DB0AC9022B43C90A29431E0109013D
:10105000040F130F050121431701880B82039143ED
:101060002D098C46A90B1E438A039543B30B9A03A3
:1010700096433F09BA0B9403A74302962E467E433C
:101080000497B6464E19D7190C4601965443059756
:101090007E43371B7646BF1B3601B646BE0B36195C
:1010A00000967646BC043719009C01D3641C00945A
:1010B0006400002F01D001263443029E049F754333
:1010C00066467E430496760034196E003419009407
:1010D000029C019E1C196643751BAE46069465462C
:1010E0004519059C05956C43594375460891691A45
:1010F0000191049E01465143A41B0491611A009C76
:101100000791E10605D061090122114302E072E076
:101110006EE06109089D00272C0A2D066918049DC0
:101120007C412A0A2D066918019D6241AC0DAD0271
:101130006D185441079A910D920255196141029A16
:10114000644658435443069B059A5A43121A131B8C
:101150009A0E9B015B187A41010B0005C31851419F
:10116000220A200644195A419A4200D2491C012001
:101170004002814203D315230226F64302E01423E2
:101180000326F6432020C51AA9401746AF40DA408F
:101190000A4320460399D8400914731819055118B9
:1011A000039A3843D2075140AC4009D00122944001
:1011B00006D30022401C5141002C01D140084000C0
:1011C0001E4A934212D3012203989206904207DBF3
:1011D0000520400709181A480143C012414004E0A5
:1011E000032040070818C10FC907002009B0F0BD4F
:1011F0000020F107FAE705180C464C4111486D42F2
:10120000A04115D394181A465A410E4864429041A1
:101210000ED301204A004005824209D35A0082427F
:1012200006D35940C90F084AC90700201143DDE71A
:1012300000200649DAE700000000FF07FE07000073
:10124000FFFFFF7F0000E0FF0000F07F0000F87F5D
:10125000FFB504460D4681B0243000902168880611
:1012600004D51022E0699143216000E00120A842EA
:1012700001DD471B00E000270498A1697A191018C6
:10128000081AA0612078C00602D42046FFF710F8A3
:10129000002608E003986268A168805D9047206A94
:1012A000401C761C206204988642F3DB2078C0063E
:1012B0000AD52046FEF7FCFF06E06268A1683020F0
:1012C0009047206A401C206238467F1E0028F4DCCC
:1012D00007E000986268A168405D9047206A401C62
:1012E000206228466D1E0028F3DC2046FEF7F6FF3C
:1012F0002078000602D5022005B0F0BD0120FBE7F2
:10130000084B70B50D467B4400F081F80446284632
:1013100005F09CF9002802D00020C04370BD204693
:1013200070BD00004B530000002000F083F8FEF772
:1013300008FF012003F032FF10B5044602E0641CF0
:1013400003F03CFF20780028F9D110BD0146800849
:10135000081A02091018020A1018020C1018C00806
:10136000820012185200891A01E0401C0A390A2929
:10137000FBD27047F8B5224C4E00069DA6420AD813
:10138000A64201D1002806D15E00A64203D8A6429B
:101390000AD1002A08D00D24240425422CD0294645
:1013A000002000F04DF8F8BD0C461C430CD49942C7
:1013B00002D0EFF30080F8BD904202D0EFF300803E
:1013C000F8BDEFF30080F8BD09242407E5008B4247
:1013D00006D0EFF30080A043591A06D2284304E058
:1013E000101A05D3EFF30080A04380F30088F8BD06
:1013F000EFF30080A043F1E7009500F039F8F8BD65
:101400000000E0FF01694A1C02610878704700B5DE
:101410008FB0029100210591054901937944039110
:10142000114604906846FEF7CDFF0FB000BD0000E6
:10143000E5FFFFFF10B500F051F800F048F810BDCF
:10144000CA0211D54A03520F002A04D0C803C04370
:10145000012188407047054AEFF300810801000927
:10146000104380F300887047002070470000003070
:1014700010B500200249029A00F048F810BD0000A3
:101480000000F87F754600F071F8AE460500694629
:101490005346C008C000854618B020B5FEF7E8FEE8
:1014A00060BC00274908B6460026C0C5C0C5C0C5F7
:1014B000C0C5C0C5C0C5C0C5C0C5403D49008D46FA
:1014C00070470446C046C0462046FEF745FE10B5AC
:1014D000002801D003F062FE10BD000010B500210D
:1014E00002A000F047F8012010BD00005349474119
:1014F0004252543A2041626E6F726D616C20746585
:10150000726D696E6174696F6E00000010B50C46F3
:101510001107090F092904D00A290AD008290CD17A
:1015200004E011460820FFF78BFF06E0510606D5C0
:1015300001E0510601D50120C007214610BDD106AA
:1015400007D501010909CC084907000E000604432C
:1015500009E0410F20024907000A0143200E00065E
:101560001D22D14101430846E7E7000000487047CB
:101570001016002070B505460C460A2000E06D1CD0
:1015800003F01CFE002D06D028780028F7D102E0D9
:10159000641C03F013FE002C02D020780028F7D141
:1015A0000A2003F00BFE70BD70B58C180578401C46
:1015B0006B075B0F01D10378401C2A1106D102781A
:1015C000401C03E00678401C0E70491C5B1EF9D1DC
:1015D0002B0705D40023521E0DD40B70491CFAE7CB
:1015E0000378401CCB1A921C03E01D780D70491C37
:1015F0005B1C521EF9D5A142D8D3002070BD70B536
:10160000002403F043FE03F012FE03F007FE05463C
:10161000002D01D0601CC4B2204670BD70B50024FE
:101620000025B8480078030003F0A2FD09061D3A22
:101630005983FEFDFCFBFA00032003F0B5FB0120FB
:10164000B04908700520B04908600020AF49087013
:10165000AF4908700120AF4908700020AE490870FA
:10166000AE4908704AE1A8480068002817D1012255
:10167000A64903F0BBFDA5480078A02809D10220A7
:10168000A04908700A20A04908600020A1490870FC
:1016900005E000209B49087001209E4908702DE15B
:1016A00099480068002819D1FFF7A9FF0446002CCB
:1016B00009D00020934908700A209349086001204E
:1016C000944908700AE003208E49087032208E4940
:1016D00008600020924908708E4908700EE18A481F
:1016E0000068002824D101228E49032003F07EFDEA
:1016F00004468B480078401C894908708948007866
:10170000602808D104207F49087000207E490860C5
:10171000834908700CE032207B49086080480078DB
:10172000322805DD01207749087000207C490870C7
:10173000E4E075480068002877D106227A49042041
:1017400003F054FD0446002C70D1784908607648B7
:1017500080780968401875490860084600680002EA
:101760000860714840780968401870490860084668
:101770000068000208606C480078096840186B49EE
:1017800008600846006880110860084600686849DB
:10179000884206DA08466549086001205F490870FA
:1017A0000EE0624800686349884206DD08465F49EA
:1017B000086001205949087002E00020574908706C
:1017C0005A480068FFF715FC5B4A03C20A215748D4
:1017D0000068FEF71CFF5949088000205349086043
:1017E0005148407909684018504908600846006827
:1017F000000208604C480079096840184B490860AD
:1018000008460068000208604748C0780968401828
:1018100046490860084600680121C905884206E07B
:101820006BE069E067E065E063E061E041E006DB12
:101830003E480068FF21090608433C4908604049CA
:101840003A480068FEF7E3FE384908600846006839
:101850003C49884206DA08463449086001202E498E
:1018600008700EE0314800683749884206DD0846B6
:101870002E49086001202849087002E0002026490E
:1018800008702A4800883149088028480068FFF716
:10189000B0FB2F4A03C200222E4B2D4903C9FFF78C
:1018A00009F92B4A03C200201D4908701949087024
:1018B00007E01B480078401C1949087001201549B1
:1018C000087017480078322809DD02200D49087099
:1018D0000A200D49086000201149087008E0032023
:1018E00008490870C8200849086000200C490870A1
:1018F00004E003E002E001E000E000BF00BF284692
:1019000070BD00004C030020500300205503002050
:10191000560300205E0300205F03002060030020C8
:1019200054030020570300205803002048030020E0
:101930003075000048E8010028030020460300201D
:101940009A19000070FEFFFF5203000044030020BC
:101950003003002000002440F8B500260027CE48C0
:101960000078030003F004FC09061FF16893F0EF10
:10197000EEEDF100C9480068002813D1022003F001
:1019800013FA0120C44908700520C44908600020EA
:10199000C3490860C3490860C3490870C349087057
:1019A000C349087075E1BD480068002843D1C148AB
:1019B00000F02EFABF480078B94908600846006870
:1019C00000020860BB48407809684018B4490860C4
:1019D000B948B4490860B248006803210903884245
:1019E00010D1B0480068B44988420BD10320AA49FD
:1019F00008700520A94908600020B0490870AA496C
:101A0000087018E00020A44908700A20A349086063
:101A1000AA480078401CA949087008460078202888
:101A200006DD7D20C0009D4908600020A3490870A4
:101A300001209D4908702CE198480068002825D1B4
:101A400000F0D9F90646002E0BD104209249087007
:101A50000A2092490860002098490870924908704D
:101A600014E00A208D49086094480078401C93498E
:101A7000087008460078202805DD01208649087096
:101A800000208E49087001208749087001E18348D1
:101A9000006800287ED1874800F0DAF90646002E5B
:101AA00079D100BF864908608248007808600846FE
:101AB0000068000208607F48407809684018804943
:101AC0000860084600887F49088014217D48008806
:101AD000FEF79DFD7B490880084600887A4908800A
:101AE00077480068FFF785FA04460D460022774BD9
:101AF00020462946FFF788FA04460D460022744B1B
:101B000020462946FEF7D6FF04460D460022714BBB
:101B100020462946FEF7ABFF04460D4600226E4BD9
:101B200020462946FFF770FA04460D4600226B4B0B
:101B30002046294607F0CCFC08D201205B490870FA
:101B400012E0A4E0A2E094E092E0A1E00022644B65
:101B50002046294607F0EEFC03D2012053490870C5
:101B600002E000205149087020462946FFF7C6F9D7
:101B700000B25C4908800022574B20462946FEF7F8
:101B800099FF594A03C200204D4908604948C0786E
:101B9000086001E06BE05CE0084600680002086055
:101BA00044480079096840184549086008460068BB
:101BB000FFF71FFA04460D4600224C4B20462946EB
:101BC000FFF722FA04460D460022414B20462946E3
:101BD000FEF770FF04460D460022134620462946B4
:101BE00007F076FC05D20024254601203049087014
:101BF0000FE000223D4B2046294607F09BFC05D212
:101C000000243A4D01202A49087002E000202849AA
:101C1000087020462946FFF7A7F9354908800022B9
:101C2000324B20462946FEF745FF324A03C2204682
:101C30002946FFF799F930490860062016490870CF
:101C4000BE201649086000201C490870164908701B
:101C50000DE00320104908706420104908601748FF
:101C60000078401C1549087001200F49087010E0E9
:101C70000FE00A480068002807D1032006490870D1
:101C80000020064908600D49087002E001E000E00C
:101C900000BF00BF3846F8BDF8020020FC0200205B
:101CA000040300200803002010030020110300207B
:101CB00012030020EC02002020300000000300206E
:101CC0000C0300203C0300203E03002000E06540A0
:101CD000E0FFEF400080464000002440000079C053
:101CE00000889340E80200201803002000408F4045
:101CF000EA020020200300203803002000210148D0
:101D000041707047246000400021014841707047D5
:101D10005C600040002101484170704764600040F1
:101D200000210148417070476060004000B5C0224A
:101D30009178F82211401C4A127811431B48EA2975
:101D400023D00ADC0A46E03A130003F011FA0A181D
:101D50001C20242A2A2A2A161A2AED291FD004DC3C
:101D6000EB2916D0EC291CD117E0F02903D0F82973
:101D700017D10F4815E00F4813E00D4811E00E4849
:101D80000FE00E480DE00E480BE00E4809E00E484B
:101D900007E00E4805E00E4803E00E4801E0034866
:101DA00000BF00BF00BD0000201C024040420F00E9
:101DB0000048E801006CDC0200366E010024F400EB
:101DC000001BB70000127A00808D5B0000093D0007
:101DD000C0C62D0080841E000146CA785006400E01
:101DE0007F2806D18A7880201040802801D10020E9
:101DF00070470120FCE71CB500200190012001ABD9
:101E0000242244210090022004F094FC1CBD000018
:101E10001CB5044601200C4908700CA00068019014
:101E2000012001AB372244210090022004F082FC03
:101E30000220234600224421009004F019FC0020D7
:101E4000014908701CBD00006803002081000000EB
:101E500038B50446012008490870062023460022B0
:101E600044210090022004F003FC054600200249B2
:101E70000870284638BD000068030020012105488D
:101E8000017705488088084303498880002003497A
:101E90000877704700610040601504400060004012
:101EA00008B50020164908701648808801210843AB
:101EB00014498880084640891349084011494881DF
:101EC00008460089104908400E49088108460089E3
:101ED000891508430B4908810020009005E000BFE8
:101EE00068460078401CC1B20091684600780E2810
:101EF000F5D904480089012108430249088108BD39
:101F0000E000002060150440FEFF000001210648AB
:101F10000170064880880221084304498880002017
:101F200003490870704700002061004060150440BC
:101F30002060004008B516488088022108431449F3
:101F4000888008464089134908401149488108465D
:101F50000089104908400E49088108460089491542
:101F600008430B4908810020009005E000BF684647
:101F70000078401CC1B20091684600780E28F5D95F
:101F800003480089022108430149088108BD000077
:101F900060150440FDFF00000548407C8021884317
:101FA0000349487400BF00BF00BF00BF00BF7047B7
:101FB000201A044038480078102108433649087038
:101FC0000020364908740121354801700020354948
:101FD0000870324948744B2088745320C8740846EE
:101FE000407C012108432D494874262008752E485D
:101FF000807C022108432C4988740846807C01219A
:102000000843294988742548007C0821084323494E
:1020100008740846007C04210843204908740846D7
:10202000007C802108431D4908740846007C40213B
:1020300008431A49087400211948017000BF1B4861
:10204000C07D042188431949C87519488079400822
:1020500040001749887116482030807940084000B8
:1020600013492031887100BF00BF1048C07D042192
:1020700088430E49C8750E488079022188430C496F
:1020800088710B482030807902218843084920312B
:10209000887100BF7047000020040240201A0440ED
:1020A0004061004040600040401B04406008044024
:1020B0000003044010B503480078002801D006F062
:1020C00073FA10BD0060004010B506480079002882
:1020D00001D006F015FA03484079002801D006F037
:1020E0003FFA10BD0060004010B50648007A002895
:1020F00001D006F017FA0348407A002801D006F014
:1021000035FA10BD0060004010B50648007B00287D
:1021100001D006F00DFA0348407B002801D006F0FC
:102120002BFA10BD0060004010B50648007C002866
:1021300001D006F003FA0348407C002801D006F0E5
:1021400021FA10BD0060004010B50648007D00284F
:1021500001D006F0F9F90348407D002801D006F0CF
:10216000D5F910BD0060004010B50648007E00287B
:1021700001D006F0EFF90348407E002801D006F0B8
:10218000CBF910BD0060004010B50348007F002867
:1021900001D004F01DFB10BD0060004010B50348E5
:1021A0000078002801D004F0EBFB10BD2060004057
:1021B00010B507480079002801D006F0BDFC04489E
:1021C000001D4078002801D0FFF798FD10BD0000E9
:1021D0002060004010B50348007A002801D006F0C6
:1021E00045FD10BD2060004010B50348007B00286D
:1021F00001D006F01BFD10BD2060004010B507485F
:10220000007C002801D006F08BFC04481030407898
:10221000002801D006F096FC10BD000020600040B0
:1022200010B50348007D002801D006F07BFD10BDED
:102230002060004010B50348007E002801D006F061
:102240002BFD10BD2060004010B50748007F00281E
:1022500001D006F06BFC04481C304078002801D007
:1022600006F076FC10BD00002060004010B5064866
:102270000078002801D004F0B7FF03484078002818
:1022800001D003F029F810BD4060004010B50348AC
:102290000079002801D006F061FC10BD40600040CC
:1022A00010B50348007A002801D006F05DFC10BD8F
:1022B0004060004010B50348007B002801D006F0C4
:1022C00059FC10BD4060004010B50348007C002858
:1022D00001D006F055FC10BD4060004010B5034829
:1022E000007D002801D002F06FFF10BD406000406B
:1022F00010B50748007E002801D006F0EDFB044829
:1023000018304078002801D006F042F910BD0000D6
:102310004060004010B50748007F002801D006F05B
:102320003DF904481C304078002801D0FFF7ECFC50
:1023300010BD00004060004010B50648007800283D
:1023400001D002F047FF03484078002801D0FFF792
:10235000E7FC10BD6060004010B507480079002818
:1023600001D002F03DFF0448001D4078002801D054
:10237000FFF7D0FC10BD00006060004010B50348BE
:10238000007A002801D006F001FC10BD606000401A
:1023900010B50348007B002801D006F021FC10BDD9
:1023A0006060004010B50348007C002801D006F0B2
:1023B0001DFC10BD6060004010B50348007D002882
:1023C00001D006F001FC10BD6060004010B503486C
:1023D000007E002801D006F0FDFB10BD60600040CB
:1023E00010B50348007F002801D006F0D5FF10BDCE
:1023F0006060004070B500F009FA7D21C9000F4807
:102400000068FEF7FAF805462C46601E0C49884223
:1024100000D90CE0601E0B4948610321081F00F041
:1024200051F80020074988610720086100BF00F0CB
:10243000EDF900200449086070BD0000000500208F
:10244000FFFFFF0000E000E054020020C206D20EB1
:1024500001219140014A11607047000080E200E0D4
:10246000C206D20E01219140014A1160704700005E
:1024700080E200E0C206D20E01219140014A1160C3
:102480007047000080E200E0C206D20E01219140B8
:10249000014A11607047000080E100E0C206D20EE0
:1024A00001219140014A11607047000000E100E005
:1024B000C206D20E01219140014A1160704700000E
:1024C00000E100E010B5002819DA1A4A03071B0FD3
:1024D000083B9B089B00D2588307DC0EFF23A340D8
:1024E0009A438B071B0E8407E40EA3401A43114B3B
:1024F0000407240F083CA408A4001A5118E00E4A4F
:1025000003231B02D21883089B00D2588307DC0EDA
:10251000FF23A3409A438B071B0E8407E40EA340BE
:102520001A43054B032424021B198408A4001A51E2
:1025300010BD00001CED00E000E100E0F0B50C462D
:1025400015460123A340D9B22A462B0002F010FE03
:1025500006042C54787E9EBD5D4B1B5C8B435C4E09
:1025600033545B4B603B192676019B191B5C0B4374
:10257000574E603E19277F01F6193354544B203BC8
:102580001B5C8B43524E203E3354514B103B1B5C23
:102590008B434F4E103E33544D4B303B1B5C8B43B3
:1025A0004B4E303E335490E0494B1B5C8B43484EBE
:1025B0003354474B603B192676019B191B5C0B4338
:1025C000434E603E19277F01F6193354404B203BA0
:1025D0001B5C8B433E4E203E33543D4B103B1B5CFB
:1025E0008B433B4E103E3354394B303B1B5C0B430B
:1025F000374E303E335468E0354B1B5C8B43344ED2
:102600003354334B603B192676019B191B5C0B43FB
:102610002F4E603E19277F01F61933542C4B203B77
:102620001E5C0E431E542A4B103B1E5C8E431E54F0
:10263000274B303B1B5C8B43254E303E335444E0EC
:10264000234B1B5C0B43224E33543EE0204B1E5C5D
:102650008E431E541E4B603B192676019B191B5C52
:102660008B431B4E603E19277F01F6193354184BDC
:10267000203B1B5C8B43164E203E3354144B103BC7
:102680001B5C8B43124E103E33541EE0104B1B5C00
:102690008B430F4E33540E4B603B192676019B192A
:1026A0001B5C8B430A4E603E19277F01F619335499
:1026B000074B203B1B5C8B43054E203E3354044BA1
:1026C000103B1E5C0E431E5400BF00BFF0BD000057
:1026D00060000440704700000349086000BF0249E1
:1026E00009680029FBD170477002002010B500F086
:1026F00001F810BD10B538480068401C3649086024
:102700000120364908707D21C90033480068FDF773
:1027100074FF002904D132480068401C3049086029
:1027200030480088401C2F4908802F480068002846
:1027300004D02D480068401E2B4908602B480068D3
:10274000002804D029480068401E2849086028480D
:102750000068002804D026480068401E244908600C
:1027600024480068002804D022480068401E2149FF
:10277000086021480068002804D01F480068401EF7
:102780001D4908601D480068002804D01B480068E7
:10279000401E1A4908601A480068002804D01848EA
:1027A0000068401E1649086016480068002804D0DA
:1027B00014480068401E1349086000BF12480321F6
:1027C000090240184079022148400F4903221202B1
:1027D0008918487100BF10BD54020020510200202A
:1027E0006C020020C0040020740200208C02002033
:1027F000C802002070020020FC02002064030020B8
:1028000050030020800400200000044010B5FFF7B2
:102810008DFA0149086010BD0005002010B5802028
:102820001B4948711A201A49203908722B20487216
:102830003C2088724D20C872002016494860FFF77E
:1028400075FA154908600020C0431449086014490E
:1028500008601448144908601149032212028918BB
:1028600048600F49891888600D498918C8600C496B
:10287000891808610A4989184861094989188861D5
:1028800007498918C861AC200849487010BD00008C
:102890002004024000B001400005002080E200E07A
:1028A00000E100E0C0C0C0C000E400E00010024051
:1028B0000E4A927E01231A430C4B9A760C4A1278E8
:1028C000FE231A400A4B1A7001230A4A137200228F
:1028D000094B1A72064A9070402802D11022074B09
:1028E000DA704A1E024BC0331A807047000802405B
:1028F00040220440606100406060004020040240CB
:102900000020064908720021054801720548007838
:1029100001210843034908707047000060600040CF
:10292000606100404022044006480078FE210840D3
:10293000044908700121044801720020034908720B
:102940007047000040220440606100406060004029
:10295000F8B505460E466A463146284600F0BEFAEE
:102960000446002C1FD10320104988800846C088E7
:1029700000090001C8800846C088694609780843F4
:102980000A49C880684640784006000C0849088219
:10299000684640784006000C48820448408803217D
:1029A0000843024948802046F8BD00002011044039
:1029B0000013044070B505460E463D4800780421DA
:1029C00008433B49087003203A49C880222039490E
:1029D0002039088238480883672040023749088236
:1029E0003748007C012108433549087407203149E4
:1029F00020394881FF2023304882324848836720AD
:102A000040022E4948822B48008901210843294968
:102A100008810846808A2C49084026498882084651
:102A20004089012108432349488100BF2748007F8E
:102A30002021084325490877254840780421084388
:102A40002349487022482030407804218843204997
:102A5000203148701F48407C042188431D49487438
:102A60001C4820304078042188431A49203148709E
:102A700000BF00BF1548007F202108431349087795
:102A80001348203040780221084311492031487012
:102A9000104820304078022188430E492031487088
:102AA00000BF31462846FFF753FF0446204670BD5D
:102AB0002004024020110440A780000000130440BD
:102AC0006004044097400000FEFF000060080440DE
:102AD000000304404000044000BF04484088202117
:102AE00008400028F9D00248807C7047001104405B
:102AF000001304400449087400BF04490988602297
:102B000011400029F9D1704700130440001104401E
:102B1000F8B505460E466A463146284600F0DEF90D
:102B20000446002C16D10C200B498880684600789A
:102B3000C880684640784006000C0849888068468E
:102B400040784006000CC880034840880C210843A8
:102B5000014948802046F8BD20110440401304403C
:102B600070B505460E463F480078042108433D49AC
:102B700008703D4880880C2108433B49888001212A
:102B80003A480175017601770020394908750876C1
:102B90000877222034492039888236488883672084
:102BA0004002354988803548007C04210843334978
:102BB000087407202C492039C881FF202330C8829F
:102BC0002F48C883672040022B49C88026480089C7
:102BD00004210843244908810846808A294908407D
:102BE0002149888208464089042108431E494881BA
:102BF00000BF254800780421084323490870224873
:102C000020300078042188431F49203108701F4874
:102C1000007C042188431D4908741C48203000783A
:102C20000421884319492031087000BF00BF1648AD
:102C300020300078022108431349203108701348DE
:102C4000203000780221884310492031087000BFED
:102C500031462846FFF75CFF044600F019F820468D
:102C600070BD00002004024020110440206100409B
:102C7000206000409780000040130440600404403E
:102C800097400000FBFF00000003044040000440A8
:102C900010B510480089042108430E4908810846F0
:102CA0004089042108430B494881084640880C218B
:102CB00008430849488000200749087508760D2018
:102CC000FFF7C4FB0E20FFF7C1FB0021034801758D
:102CD000017610BD201104402060004020610040BA
:102CE000F8B505460E466A463146284600F0F6F825
:102CF0000446002C16D103200B49888068460078D2
:102D0000C880684640784006000C0849088168463B
:102D100040784006000C488103484088032108435E
:102D2000014948802046F8BD601504404017044022
:102D300070B505460E4647480078082108434549C6
:102D40000870454880880321084343498880012151
:102D5000424801774148203001700171002040490C
:102D600008773F4920310870087122203A492039FC
:102D700008823C480883672040023B4908813B4861
:102D8000007C102108433949087407203249203952
:102D90004881FF202330488235484883672040021D
:102DA000314948812C480089012108432A4908817A
:102DB0000846808A2F49084027498882084640896A
:102DC000012108432449488100BF2B48C07D0221CE
:102DD00088432949C875294840780821084327496C
:102DE0004870264820304078082188432349203104
:102DF00048702348407C0821884321494874204872
:102E000020304078082188431D492031487000BF98
:102E100000BF1948C07D022188431749C87517486B
:102E2000203040781021084314492031487014485C
:102E3000203040781021884311492031487000BF6C
:102E400031462846FFF74CFF044600F01BF82046A9
:102E500070BD000020040240601504400061004085
:102E60000060004097800000401704406004044068
:102E700097400000FEFF000060080440000304408B
:102E80004000044010B51248008901210843104950
:102E9000088108464089012108430D4948810846B8
:102EA0004088032108430A494880002009490877DF
:102EB0000849203108700720FFF7C8FA0820FFF7FB
:102EC000C5FA00210448017703482030017010BD85
:102ED000601504400060004000610040F7B58AB012
:102EE0001646642400200390029001900B98000283
:102EF000059005990A98FDF780FB401C049002E0BC
:102F00000398401C0390012003998840049988424B
:102F1000F6D3039D3EE06800274A115A0A98FDF750
:102F20006CFB0690022732E0791C0698FDF765FBE2
:102F3000410807917D22D2000799514308460B9919
:102F4000FDF75BFB7D21C900401A0A214843089028
:102F50000898211E01DB0A4600E04A42002801DBF6
:102F6000034600E043429A4202DD089C0197029525
:102F7000201E01DB014600E04142142906DA3570CB
:102F800077700020099009980DB0F0BD7F1C802F4C
:102F9000CAD36D1C102DBED3201E01DB014600E0FC
:102FA0004142142903DB02983070019870700020B0
:102FB00009900998E8E700009C9500000021017045
:102FC00041708170C170002284210A5485210A5405
:102FD00086210A547047000000B50548FFF7EEFF50
:102FE0000448FFF7EBFF0448FFF7E8FF00BD0000CF
:102FF000180A00201F0B0020260C0020FFB589B006
:103000000F4615461E46002F02D01298022802DAFB
:1030100001200DB0F0BD29880998814254DD28882F
:103020006988884250DA3068FDF7EBFF039102901F
:103030007068FDF7E6FF01910090039B029AFDF78F
:1030400016FD079106902888FDF7DBFF039102909B
:103050000998FDF7D6FF01910090039B029AFDF7B6
:1030600006FD05910490079B069AFDF7CDFF5E4A89
:1030700003C22888FDF7C5FF059104906888FDF715
:10308000C0FF03910290059B049AFDF7F0FC0246F5
:103090000B4607910690544903C9FDF70BFD524AB0
:1030A00003C23068FDF7ADFF079106904E480CC88B
:1030B0000698FDF7CFFC4C4A03C24B4903C9FDF704
:1030C0001DFF38600020A4E7002486E06000295A34
:1030D000601C4000285A814204DBA0003058386050
:1030E000032096E76000295A0998814204DBA0007A
:1030F0003058386000208CE76000295A09988142D6
:103100005EDA601C4000295A0998814258DBA10010
:103110007058FDF776FF03910290611C890070588A
:10312000FDF76FFF01910090039B029AFDF79FFC52
:10313000079106906100685AFDF763FF03910290C2
:103140000998FDF75EFF01910090039B029AFDF73D
:103150008EFC05910490079B069AFDF755FF224AC5
:1031600003C26100685AFDF74CFF05910490611C91
:103170004900685AFDF745FF03910290059B049AA8
:10318000FDF775FC02460B4607910690164903C9E8
:10319000FDF790FC144A03C2A1007058FDF731FFFF
:1031A0000791069010480CC80698FDF753FC0E4A8C
:1031B00003C20D4903C9FDF7A1FE3860002028E7CE
:1031C0001298801EA04206DC1298401E80003058E3
:1031D000386000201DE7601CC4B21298401EA04257
:1031E00000DD73E7042014E7C80400200021164A1C
:1031F0001170164A1170002008E04100144A515A1B
:10320000144A914200D103E0411CC8B20B28F4DB00
:1032100000BF002803D100210F4A116011E00B28E4
:1032200007D10E49896A0E4A1288891A0A4A116022
:1032300007E08100094A5158094A1288891A064A4A
:103240001160084908707047AB040020AC040020EE
:1032500048140020FFFF0000B00400207414002078
:10326000B4040020AA04002070B5D0484079D049A9
:103270000880084600780006000C0880CB480079DA
:1032800009884018CA490880C848C079C9490880D7
:10329000084600780006000C0880C4488079098838
:1032A0004018C4490880C149C97AC34A11801146EF
:1032B00009780906090C1180BC49897A1288891895
:1032C000BD4A1180B949487B010208B2B749097B60
:1032D000091808B2B9490860B449487C010208B22B
:1032E000B249097C091808B2B5490860AF49C97DDF
:1032F000B44A11601146096809021160AB49897D21
:1033000012688918AF4A11601146096809021160F4
:10331000A649497D12688918AA4A116011460968B0
:1033200009021160A149097D12688918A54A116036
:103330009E49C97EA44A11601146096809021160BC
:103340009A49897E126889189F4A11601146096856
:10335000090211609549497E126889189A4A1160DC
:1033600011460968090211609049097E126889189E
:10337000954A11608D48203040789449088008466D
:1033800000780006000C0880884820300078098802
:1033900040188E49088085482030C0788C490880C4
:1033A000084600780006000C0880804820308078AD
:1033B00009884018864908807C4820304079854932
:1033C0000880084600780006000C08807748203006
:1033D0000079098840187F490880084600884028FD
:1033E00001DD4020088000207B4908707B4908608F
:1033F0006E482030C0797A49088008460078000677
:10340000000C088069482030807909884018744988
:10341000088008460088182812D008460088192815
:103420000ED0084600881B280AD0084600881C28B1
:1034300006D0084600881D2802D00020C04308801E
:1034400000201AE041002931584A515C4200654B86
:10345000995241001A46515C0906090C42009952E2
:1034600041001A46525A41004831504B595C51189C
:1034700042005C4B9952411CC8B20B28E2DB002091
:103480001AE041004931494A515C4200564B995279
:1034900041001A46515C0906090C4200995241004C
:1034A0001A46525A41004831404B595C511842006B
:1034B0004D4B9952411CC8B20B28E2DB494909889F
:1034C0004A4A914202D10021494A1170002007E086
:1034D0004100454A515A8200464B9950411CC8B29E
:1034E0000B28F5DB052009E08100424A51580A22E9
:1034F000514382003F4B9950411CC8B20B28F3DB6B
:103500002A486030407A3C49088008460078000626
:10351000000C088025486030007A09884018364938
:103520000880FFF763FE002410E0A000334946182E
:10353000002507E0A000703040191C49085C705558
:10354000681CC5B2042DF5DB601CC4B2082CECDB92
:1035500016488030407C2A490880084600780006DA
:10356000000C088011488030007C098840182449EC
:10357000088000240AE0A000204946183046FEF7E3
:103580002BFC002800D103E0601CC4B2042CF2DB49
:1035900000BF042C03D101201A49088004E0002058
:1035A000184908801649088070BD000048130020A3
:1035B000680200206A020020900400209404002089
:1035C000980400209C040020A0040020A6040020F1
:1035D000A4040020A8040020C2040020C404002089
:1035E0007A040020481400205E140020FFFF000031
:1035F000AA04002074140020B4040020A0140020A9
:10360000BC040020BE040020FEB50024002002906F
:103610001EE01649029847183D682E46F0B2019008
:10362000134901980855641C3004000E019001985C
:103630000855641C3002000E019001980855641C66
:10364000300E019001980855641C0298001D0290EC
:103650000298FF28DDD9FFF707FE044F3D682E468C
:10366000024FF0373D6800950020FEBD000250007B
:1036700048130020F3B582B00D4600200190029857
:10368000030001F075FD0933061115203333242F93
:103690003300012168182038C67F80203040002880
:1036A00001D00120019028E001210020019024E0B8
:1036B000022168182038C67F80203040002801D0C1
:1036C0000120019019E000200190022115E0042161
:1036D00068182038C67F80203040002801D00120A3
:1036E00001900AE000200190042106E000200190F2
:1036F00000210027384604B0F0BD00BF0027019824
:10370000002816D1002211E000240BE06818801A6E
:103710002038C07F802323411840002800D01FE0BC
:10372000601CC4B2082CF1DB501CC2B28A42EBDB35
:1037300015E0002211E000240BE06818801A203800
:10374000C07F802323411840002800D108E0601C7E
:10375000C4B2082CF1DB501CC2B28A42EBDB00BFC2
:10376000C806070ED006000E00900098381AC7B29F
:10377000082C01DA381BC7B201983818C0B2BAE772
:10378000FFB581B00446002020E0611E15460D41C2
:10379000EB07DB0F0146C5172D0F6D182D112D01FD
:1037A000461B651EAE1B05116F00049DED5B354188
:1037B000ED07ED0F0095009DAB4204D05100029D36
:1037C00069408AB201E051040A0C401C0A998842FF
:1037D000DBD30349A1401046884305B0F0BD00008B
:1037E000FFFF000038B500BF38A0FCF753FD00BF55
:1037F00000BF3948FCF74EFD00BF00BF3C2000F081
:1038000079FB80003549401844883C2000F072FB69
:1038100080003249401845882246294630A0FCF7EE
:1038200039FD00BF3C2000F065FB80002B494018AB
:103830004088002832D100BF36A0FCF72BFD00BF26
:1038400001F070FC01F0CAF900243F200001394B5F
:10385000394A3A4900901020FFF792FF044600BF12
:1038600037A0FCF717FD00BF00F03EFA00F0FEF9AC
:1038700021467E2000F076FA00F0AAF800F0C6F8A3
:103880007E211648E03001771C3044803248C487DE
:1038900000F0DCF93220FEF71FFF04E000BF2FA08C
:1038A000FCF7F8FC00BF3220FEF716FF00BF032133
:1038B00033A0FCF7EFFC00BF01F0E2F901F086F95C
:1038C00001F08CF901F07AF938BD00000A45373073
:1038D000335F496E69743B00289B0000481200204A
:1038E0000A4E6F77204D625265675B313331305D30
:1038F000203D20434D5B307833435D203D203078C0
:1039000046464645203D20307825303458203D201D
:1039100025642E000A5772697465205370656369C7
:103920006669656420434D20557365722064617437
:10393000612E000090100020FFFF000005800000B5
:103940000A5772697465206E657720435243313699
:1039500020646174613B0000501000200A4E6F74B7
:103960002077726974652053706563696669656460
:1039700020434D205573657220646174612E0000F0
:103980000A496E6974207479706520697320256412
:103990002E00000008B50C48007800280ED14E20FB
:1039A0000A4908700020487088700220009008467C
:1039B0000278431C6C21012002F0BCFE0120024968
:1039C0000870002008BD0000CE020020740E002008
:1039D00008B50C48007800280ED14E200A4908701E
:1039E0000020487088700220009008460278431C2E
:1039F0006C21012002F09EFE012002490870002087
:103A000008BD0000CD020020740E002008B50C484F
:103A1000007800280FD122200A490870A22048709F
:103A2000622088700220009008460278431C6C21B6
:103A3000012002F07FFE012001490870002008BD2E
:103A4000CC020020740E0020F8B506460C46002774
:103A5000304601F006F8012837D100F045F94E2034
:103A60001B490870084646704C2088700220009060
:103A700008460278431C6C21012002F05BFE4820BE
:103A800013490870002504E0FF2012494855681CBE
:103A9000C5B20A2DF8DB022000900D4802780D4BCC
:103AA0006C21012002F0E4FD00280DD10948407886
:103AB000208020780006000C2080208805490978A5
:103AC00040182080012700E000273846F8BD00009C
:103AD000740E0020940E002038B56946222000F0B4
:103AE00081F80446012C03D16846008833490880D8
:103AF0006946262000F076F80446012C03D168467A
:103B000000882F4908806946282000F06BF8044699
:103B1000012C03D1684600882A49088069462A207A
:103B200000F060F80446012C03D16846008826495D
:103B3000088069462E2000F055F80446012C03D178
:103B400068460088214908806946302000F04AF81C
:103B50000446012C03D1684600881D490880694647
:103B6000322000F03FF80446012C03D1684600885B
:103B7000184908806946362000F034F80446012CC4
:103B800003D168460088144908806946382000F04F
:103B900029F80446012C03D1684600880F490880A3
:103BA0006946462000F01EF80446012C03D1684601
:103BB00000880B490880002038BD0000B4020020B6
:103BC000B6020020B8020020BA020020BC02002089
:103BD000BE020020C0020020C2020020C402002059
:103BE000C6020020F8B506460C46304600F055FFE8
:103BF000012825D113480670002504E0FF20124952
:103C00004855681CC5B20A2DF8DB022000900D480B
:103C100002780D4B6C21012002F02AFD00280DD105
:103C200009484078208020780006000C20802088F9
:103C300005490978401820800120F8BD0020FCE7E4
:103C40000020FAE7740E0020940E002010B5064CF8
:103C50002146222000F0C0F8FFF79CFEFFF7B8FED7
:103C6000FFF7D4FE10BD000069B1000008B51C4884
:103C7000007801282FD14E201A490870BD204870C5
:103C8000982088700220009008460278431C6C211E
:103C9000012002F04FFD4E2012490870BF204870ED
:103CA000252088700220009008460278431C6C2171
:103CB000012002F03FFD4E200A490870D8204870CC
:103CC000362088700220009008460278431C6C2140
:103CD000012002F02FFD00200149087008BD0000FE
:103CE000CD020020740E002008B51C480078012881
:103CF0002FD122201A4908705A204870F720887066
:103D00000220009008460278431C6C21012002F03A
:103D100011FD222012490870C72048700C208870BD
:103D20000220009008460278431C6C21012002F01A
:103D300001FD22200A4908701E204870D220887098
:103D40000220009008460278431C6C21012002F0FA
:103D5000F1FC00200149087008BD0000CC020020E1
:103D6000740E002038B505460C46284600F086FE45
:103D700001282AD1FFF7B8FFFFF778FF4A2014493E
:103D800008704C702012887002200090084602785B
:103D9000431C6C21012002F0CDFC4E200C49087020
:103DA00008464570A32088700220009008460278DB
:103DB000431C6C21012002F0BDFC05200549086070
:103DC00000BF044800680028FBD1002038BD000077
:103DD000740E0020C802002038B505460C4628465F
:103DE00000F05BFE012810D1FFF77EFF0848057048
:103DF00001464C702012887002200090084602781C
:103E0000431C6C21012002F095FC002038BD00000D
:103E1000740E002010B5012200210720FEF78EFB52
:103E2000042201210720FEF789FB0422022107203A
:103E3000FEF784FB042207210120FEF77FFB00BF71
:103E40002A48032109024018407880210843274965
:103E5000032212028918487000BF042201210520A4
:103E6000FEF76CFB00BF214803210902401840798E
:103E7000022108431D49032212028918487100BF1C
:103E8000042206210D20FEF759FB00BF174803212D
:103E900009024018407B40210843144903221202C2
:103EA0008918487300BF042211460220FEF746FB22
:103EB00000BF0E48032109024018807810210843F2
:103EC0000A49032212028918887000BF00BF074800
:103ED00011464018407902218843044989184871E5
:103EE00000BF00200249086010BD0000000004402F
:103EF0007402002000B50346184600F0B2FD002809
:103F000001D1FF2000BD002207E090000549085CB8
:103F1000984200D103E0501CC2B2402AF5DB00BF3A
:103F20001046EFE7BC97000010B5FEF743F80020FD
:103F30002449087024490870244825490860402015
:103F40002449088000202449088024490870244816
:103F50002449086000202449088024490870244925
:103F600008702449087024490870244908800221F7
:103F7000234804F0B7FD2349087002212048801C23
:103F800004F0B0FD204908700221204804F0AAFD89
:103F90001F49087002211D48801C04F0A3FD1D4923
:103FA000087002211C4804F09DFD1C490870022184
:103FB0001948801C04F096FD194908700120194920
:103FC000088010BD2C0100202D010020401500208C
:103FD0003001002034010020360100203F01002084
:103FE00080150020380100203C0100203E01002007
:103FF00040010020D0040020D1040020D204002081
:10400000E1040020ED040020EE040020E50400207F
:10401000EF040020F0040020E9040020F104002057
:10402000F20400207C040020FEB5FE480078012840
:104030007ED1FD480088FD4988424ED1002501E02F
:10404000681CC5B2FA4800788542F9DB00260221D7
:10405000F84801F02FF90746F648801E01790291D1
:1040600002998F4201D0701CC6B20221F148C01CD7
:1040700001F020F90746EF48801EC07902900298AF
:10408000874201D0701CC6B2002E25D1E948801E9F
:10409000C078E9490871E748801E80784871E54892
:1040A000801E80798871E348801E4079C871E1489C
:1040B000801E84782402C078001984B2DF4804800E
:1040C000DC48801E447924028079001984B2DC48DF
:1040D00004800120DB49087000E3D3480088D349FD
:1040E000491C88427ED1002501E0681CC5B2D04839
:1040F00000788542F9DB00260221CE4801F0DAF88B
:104100000746CC48801E0179029102998F4201D066
:10411000701CC6B20221C748C01C01F0CBF807468C
:10412000C448801EC07902900298874203D000E004
:10413000E2E2701CC6B20221BE48801D01F0BAF84E
:104140000746BC48801E807A02900298874201D0C0
:10415000701CC6B20221B748093001F0ABF807461F
:10416000B448801E407B02900298874201D0701CA8
:10417000C6B20221AF480C3001F09CF80746AD48AA
:10418000801E007C02900298874201D0701CC6B24B
:104190000221A8480F3001F08DF80746A548801E7F
:1041A000C07C02900298874201D0701CC6B20221E6
:1041B000A048123001F07EF807469E48801E807DA0
:1041C00002900298874201D0701CC6B20221994821
:1041D000153001F06FF807469648801E407E029029
:1041E000029800E05AE0874201D0701CC6B2002E4F
:1041F00053D100208F49891E4C79240289790919ED
:104200008CB220B28C4A1473211251738E4908600B
:1042100000208849891ECC7A2402097B09198CB2B6
:1042200020B2147421125174884908600020814919
:10423000891E8C7B2402C97B09198CB22046947597
:104240002112D1757B49891E4C7C2402897C091975
:104250008CB2000400191475211251757C49086054
:1042600000207449891E0C7D2402497D09198CB2F5
:10427000204694762112D1766E49891ECC7D240287
:10428000097E09198CB200040019147621125176A6
:104290007049086001216B4A11701FE26248008872
:1042A0006249091D884249D1002501E0681CC5B258
:1042B0005F4800788542F9DB00260020054615E0BE
:1042C00069006A185B495018022100F0F3FF0746A5
:1042D000680029185748801C415C029102998F425E
:1042E00001D0701CC6B2681CC0B205460B2DE7DBBE
:1042F000002ED2D100251BE000BF69006918891C7F
:104300004C4A921E545C240269006918C91C515C15
:1043100009198CB2204669002831474B5C5422129F
:10432000690029315A5469004B4A5052691CCDB278
:104330000B2DE1DB0121434A1170CFE13A4800889F
:104340003A49491D884249D1002501E0681CC5B29F
:10435000374800788542F9DB00260020054615E045
:1043600069006A1833495018022100F0A3FF07467C
:10437000680029182F48801C415C029102998F42E5
:1043800001D0701CC6B2681CC0B205460B2DE7DB1D
:10439000002ED2D100251BE000BF69006918891CDE
:1043A000244A921E545C240269006918C91C515C9D
:1043B00009198CB22046690048311F4B5C54221207
:1043C000690049315A546900244A5052691CCDB2DF
:1043D0000B2DE1DB01211B4A11707FE1124800889F
:1043E0001249891D88424AD1002501E0681CC5B2E6
:1043F0000F4800788542F9DB002602210D4800F0C5
:1044000059FF07460B48801E0179029102998F429D
:1044100001D0701CC6B2002E8FD100200549891E24
:104420008C781DE0D0040020F804002088110000E2
:10443000D4040020C2150020481300206802002088
:104440006A020020720300209404002098040020D7
:104450009C040020A0040020481400205E140020CA
:104460002402C97809198CB22046C9498C702212DD
:10447000CA70C84908800121C74A11702EE1C74897
:104480000088C74988422CD1002501E0681CC5B2CC
:10449000C44800788542F9DB00260221C24800F0BA
:1044A00009FF0746C048801E0079029002988742A3
:1044B00001D0701CC6B2002E8FD10020BA49891ECF
:1044C0008C782402C97809198CB22046B04A203A67
:1044D00094722112D172B54908800121AE4A11703F
:1044E000FCE0AE480088AE49891C88422CD10025EA
:1044F00001E0681CC5B2AB4800788542F9DB0026B4
:104500000221A94800F0D6FE0746A748801E01797F
:10451000029102998F4201D0701CC6B2002EADD11B
:104520000020A149891E8C782402C97809198CB20F
:104530002046974940310C7222124A729C490880E9
:104540000121954A1170C9E0944800889449091DD9
:1045500088422BD1002501E0681CC5B29148007843
:104560008542F9DB002602218F4800F0A3FE0746B2
:104570008D48801E0179029102998F4201D0701CF2
:10458000C6B2002EACD100208749891E8C78240247
:10459000C97809198CB220467D490C7122124A71E2
:1045A0008449088001217C4A117097E07B4800888B
:1045B0007B49491D88422BD1002501E0681CC5B20A
:1045C000784800788542F9DB00260221764800F021
:1045D00071FE07467448801E007902900298874257
:1045E00001D0701CC6B2002E78D100206E49891E01
:1045F0008C782402C97809198CB2204664490C7061
:1046000022124A706C4908800121634A117065E0EA
:1046100062480088694988424FD1002501E0681C42
:10462000C5B2604800788542F9DB02215E4804F09B
:1046300059FA019002215C4800F03CFE0090594874
:104640000078401E5849891E095C0198814233D187
:104650005548801E807800282ED15348801EC0788F
:10466000182813D05048801EC07819280ED04E4804
:10467000801EC0781B2809D04B48801EC0781C289B
:1046800004D04948801EC0781D2805D14648801EA8
:10469000C0784B49088003E00020C04348490880A7
:1046A000474801783A4881714548008801123848E6
:1046B000C17101203849087010E0384800883F492E
:1046C000491F88420AD1002501E0681CC5B235485F
:1046D00000788542F9DB01203A49088000203A49F8
:1046E00008703A4908700870394908802B490880D9
:1046F00038490880384908703848007801281FD1A7
:104700003748007801281BD136480078002817D197
:10471000002501E0681CC5B2334800888542F9DBFA
:1047200000202F4908703148314908604020314944
:10473000088000202C490880294908702749087002
:1047400026480078012822D12548007801281ED16A
:104750002448007801281AD127490968274A881A6D
:10476000002501E0691CCDB28542FBD300211B4A24
:1047700011702249204A11604021214A11800021F4
:10478000184A11701F4A1170174A118000BFFEBDF0
:1047900068130020A404002072030020F804002005
:1047A0008F110000D4040020C215002090040020C6
:1047B000B4040020A8040020A6040020083600004D
:1047C0007A0400207C040020FC040020F304002074
:1047D000F6040020FA040020D00400202D0100205F
:1047E0003F0100203E01002036010020401500203E
:1047F0003001002034010020380100208015002005
:104800003C0100204001002010B5012000F0CCFA4E
:10481000FEF7E8FF10BD000000280DD100BF0E49D3
:104820000322120289184978202291430A4A03235D
:104830001B02D21851700DE000BF0749032212027B
:104840008918497820221143034A03231B02D218F6
:10485000517000BF704700000000044000280DD1D7
:1048600000BF0E4903221202891849781022914391
:104870000A4A03231B02D21851700DE000BF0749FA
:10488000032212028918497810221143034A032394
:104890001B02D218517000BF704700000000044096
:1048A00010B5012204211046FDF748FE10BD10B5D9
:1048B000042211460120FDF741FE10BD05480321E9
:1048C00009024018407810210840002800D17047A4
:1048D0000120FCE70000044000280DD100BF0E4974
:1048E000032212028918C978490849000A4A032399
:1048F0001B02D218D1700DE000BF0749032212023B
:104900008918C97801221143034A03231B02D218D4
:10491000D17000BF704700000000044000280DD196
:1049200000BF0E490322120289184979490849003B
:104930000A4A03231B02D21851710DE000BF074938
:10494000032212028918497901221143034A0323E1
:104950001B02D218517100BF7047000000000440D4
:1049600010B5012200210520FDF7E8FD10BD10B5AE
:10497000042200210520FDF7E1FD10BD05480321BB
:10498000090240184079C007C00F002800D17047C5
:104990000120FCE70000044000280DD100BF0E49B3
:1049A000032212028918C979202291430A4A03235B
:1049B0001B02D218D1710DE000BF07490322120279
:1049C0008918C97920221143034A03231B02D218F4
:1049D000D17100BF704700000000044000280DD1D5
:1049E00000BF0E49032212028918C979102291438F
:1049F0000A4A03231B02D218D1710DE000BF0749F8
:104A0000032212028918C97910221143034A032391
:104A10001B02D218D17100BF704700000000044093
:104A200010B5012204210720FDF788FD10BD10B547
:104A3000042211460720FDF781FD10BD0548032122
:104A400009024018C07910210840002800D17047A1
:104A50000120FCE70000044000E0401E0028FCD1DB
:104A600070470146C807C00F002801D000207047DA
:104A70007E2901DD0020FAE70120F8E70146C8079A
:104A8000C00F002801D000207047202903DB7E29B9
:104A900001DC0120F8E70020F6E70146C807C00F57
:104AA000002801D000207047202901D0242901D1FD
:104AB0000020F8E7382903DD462901DA0020F2E773
:104AC0004A2903DD4E2901DA0020ECE7AA2903DD9B
:104AD000E42901DA0020E6E7E42901DD0020E2E72D
:104AE0000120E0E7024601208002824252DB324888
:104AF00082424FDC0120800282420BDB2E483E388E
:104B0000824207DC01208002101A4006000E087065
:104B10000120704741200001824203DB22200870FF
:104B20000120F6E724483C3882420CDB2248333827
:104B3000824208DC20483C38101A13304006000E30
:104B400008700120E5E71C48323882420ADB801CED
:104B5000824207DC801E101A23304006000E0870C7
:104B60000120D6E714482F3882420CDB1248401E41
:104B7000824208DC10482F38101A27304006000EF9
:104B800008700120C5E70C48824213DBE42008705E
:104B90000120BEE70520000282420BDB0648F2300E
:104BA000824207DC05200002101A4006000E087041
:104BB0000120AEE70020ACE74D040000002000BF5C
:104BC00001E0411CC8B24028FBDB7047002000BF59
:104BD00001E0411CC8B24E28FBDB704738B5002409
:104BE00000BFFFF781F800251CE02846FFF739FFDA
:104BF000002800D114E00020C043009069462846F8
:104C0000FEF722FF01280AD1A0001A490D54684678
:104C10000088A100174A89184880601CC4B200BFF0
:104C2000A81CC5B2F02DE0DB002410E0A000114963
:104C3000401881786000104A1154A0000D494018B6
:104C4000408801126000401C1154601CC4B2402C0A
:104C5000ECDB002408E0A000064940184088610011
:104C6000064A5052601CC4B2402CF4DBFEF7CEFE64
:104C700038BD0000481200209010002010100020C5
:104C800038B5002400251CE02846FFF706FF002861
:104C900000D114E00020C043009069462846FEF78A
:104CA000A1FF01280AD1A0000E490D5468460088D2
:104CB000A1000C4A89184880601CC4B200BFA81C1F
:104CC000C5B2F02DE0DB002408E0A0000549401843
:104CD00040886100044A5052601CC4B24E2CF4DB80
:104CE00038BD000010110020740F002070B505467B
:104CF00028480088012804DC01202749087028463C
:104D000070BD2648007823490988884217DA23486D
:104D100001780078401C214A1070480020490D524B
:104D20002048006840191F4908601046007819495A
:104D30000988884225D101201749087021E01848C8
:104D4000008818490968081A16490860002408E014
:104D5000601C40001249085A6100114A5052601C00
:104D6000C4B20C480088401EA042F1DC60000C492F
:104D70000D520C48006840190A4908600120064994
:104D800008700648017807480068FBF736FC80B2D7
:104D9000B6E70000A804002084040020C20400201C
:104DA000C0140020C404002010B50446012C14D106
:104DB00004220521FDF7C2FB042211460120FDF764
:104DC000BDFB0020FFF728FD0120FFF725FD0A208D
:104DD000FFF742FE0120FFF71FFD022C15D1042230
:104DE00000210320FDF7AAFB042200210520FDF786
:104DF000A5FB0020FFF770FD0120FFF76DFD0A20E5
:104E0000FFF72AFE0120FFF767FD032C15D10422CE
:104E100005210720FDF792FB042211460720FDF72C
:104E20008DFB0020FFF7B8FD0120FFF7B5FD0A203C
:104E3000FFF712FE0120FFF7AFFD10BDF3B583B001
:104E40006C480088002804D06A4800886A49884273
:104E500004D100210498018005B0F0BD654909889E
:104E60000398401A00B2009000266448006802903F
:104E700002A90720FEF7FEFB074669460320FEF75E
:104E8000F9FB05467819202805DB0298801202906C
:104E900030460A30C6B202A90720FEF7EBFB0746F0
:104EA00069460320FEF7E6FB05467819202805DB56
:104EB00002988012029030460A30C6B26A4600213B
:104EC000515E02984843029002A90720FEF7D2FBE8
:104ED000074669460320FEF7CDFB054678192028D2
:104EE00005DB02988012029030460A30C6B202A951
:104EF0000720FEF7BFFB074669460320FEF7BAFB13
:104F000005467819202805DB029880120290304669
:104F10000A30C6B26A460021515E029848430290A8
:104F200002A90720FEF7A6FB074669460320FEF705
:104F3000A1FB05467819202805DB02988012029013
:104F400030460A30C6B202A90720FEF793FB074697
:104F500069460320FEF78EFB05467819202805DBFD
:104F600002988012029030460A30C6B2694600228A
:104F70008A5E0298504302901E20811B02980841CD
:104F800002901F48046868460021415E204648435D
:104F90000446A41268460021415E20464843044668
:104FA000A412184800680190694600228A5E0198A0
:104FB00050430190019880120190029824180198A2
:104FC0002418114800680190019824180F48844261
:104FD00003DB0146049801803EE70C48C04384424D
:104FE00003DC41420498018036E721B20498018035
:104FF00000BF31E790040020FFFF0000A004002064
:105000009C0400209804002094040020FF7F0000EE
:1050100070B505460E46002D04D0012D21D0022D7D
:1050200063D13EE0314633480068FDF7C3FC0446D7
:10503000802C01D100BFFEE700202F4908720873C1
:105040000A20FDF717FA0B20FDF714FA00212B4870
:10505000017201730A20FDF72BFA0B20FDF728FAE5
:1050600044E0E121490223480068FDF779FD044648
:10507000802C01D100BFFEE700201F49087508768B
:105080000D20FDF7F7F90E20FDF7F4F900211B487C
:10509000017501760D20FDF70BFA0E20FDF708FAD9
:1050A00024E0E121490213480068FDF741FE04466F
:1050B000802C01D100BFFEE700200F49203908777E
:1050C0000D4908700720FDF7D5F90820FDF7D2F942
:1050D00000210A4820380177084801700720FDF7B1
:1050E000E7F90820FDF7E4F900E000BF00BF002069
:1050F00070BD0000000500202060004020610040DD
:1051000010B54B20C0010549086008460168002021
:10511000FFF77EFF00200249086010BD84020020D6
:105120008C020020F8B50024FEF7DEFDFEF79EFDA0
:10513000202414E02046FFF7A1FC01280DD12046D1
:10514000FEF7D8FE0546A80008490E5CA8004018E6
:10515000478839463046FEF705FE601CC4B27E2CF7
:10516000E8DBFEF735FCFEF751FCF8BDBC9700000C
:1051700030B47446641E2578641CAB4204D3635D6E
:105180005B00E31830BC18471D46F8E730380A28A2
:1051900001D201207047002070470000002803D092
:1051A0000449054A116202E00121034A116200BF6D
:1051B000FEE70000AD0B00000080024010B5044681
:1051C000E0B2FDF797FC10BD00200149087570475B
:1051D0004060004000200149087070476060004056
:1051E000002001490871704760600040F8B504462E
:1051F0000D4616462B4622463A210320009601F022
:1052000037FAF8BDF8B504460D4616462B46224639
:105210003A210320009601F08DFAF8BD08B533203D
:105220000090012269461B20FFF7ECFF08BD08B57E
:10523000012269461046FFF7D9FF01226946002086
:10524000FFF7D4FF00210091012269461820FFF7E3
:10525000D9FF40210091012269461920FFF7D2FFB2
:1052600077210091012269461C20FFF7CBFF162110
:105270000091012269461D20FFF7C4FF0021009123
:10528000012269461F20FFF7BDFF08BD08B5B62003
:105290000090012269467E20FFF7B4FF6520044993
:1052A000086000BF024800680028FBD108BD00006C
:1052B0006403002010B50246FF2004E01378434049
:1052C000044CE05C521C0B464C1EA1B2002BF5D1E5
:1052D00010BD0000BC9800000021014841707047DB
:1052E0004060004010B5002408480078012806D12D
:1052F00007480068804700200449087000E0062441
:10530000012004490870204610BD00009A010020C9
:10531000A0010020DC020020F0B585B006460D4655
:1053200000200190288805284AD170780002039057
:10533000B078039908430390F0780402307904436D
:10534000012C3ADB7D200001844236DA374600200A
:105350002880012038707F1C2888401C2880600726
:10536000400F002808D02046E117490F0918C9103E
:10537000491CC9B2029106E02046E117490F0918FD
:105380004905090E0291029838707F1C2888401C3C
:105390002880002322463846039900F045FC0090FF
:1053A0000098002804D0009803F07CFB019009E0ED
:1053B000298802980818288004E00320019001E061
:1053C00003200190019805B0F0BDF0B585B0064608
:1053D0000D46002001902888052849D170780002E8
:1053E0000390B078039908430390F0780402307971
:1053F0000443012C39DB7D200001844235DA374635
:1054000000202880022038707F1C2888401C2880BB
:105410006007400F002808D02046E117490F0918FF
:10542000C910491CC9B2029106E02046E117490F94
:1054300009184905090E0291029838707F1C2888C6
:10544000401C288022463846039900F0F1FB00906A
:105450000098002804D0009803F024FB019009E094
:10546000298802980818288004E00320019001E0B0
:1054700003200190019805B0F0BDFEB505460C462D
:10548000002001902088052834D16878000202901D
:10549000A878029908430290E87806022E79012E36
:1054A00025DB7D2E23DC2F46002020800320387052
:1054B0007F1C2088401C20807006000E38707F1CE6
:1054C0002088401C2080002332463846029900F094
:1054D000B3FB00900098002804D0009803F0E2FA93
:1054E000019009E0208871004018208004E003202A
:1054F000019001E0032001900198FEBDFEB5054634
:105500000C46002001902088052834D168780002DC
:105510000290A878029908430290E8780602287958
:105520000643012E24DB7D2E22DA2F460020208028
:10553000042038707F1C2088401C20807006000EDC
:1055400038707F1C2088401C2080324638460299E3
:1055500001F056F800900098002804D0009803F05D
:10556000A1FA019009E0208871004018208004E031
:105570000320019001E0032001900198FEBDF0B5E9
:1055800087B004460D460020029028880A2863DB75
:10559000607800020690A078069908430690069865
:1055A000401C80B20690E0780602207906436079BC
:1055B00000020590A0790599084305900598401CC4
:1055C00080B20590E0790702207A0743607A049060
:1055D000012E3FDB7D2E3DDC012F3BDB792F39DCBB
:1055E00079000498814235D101233A4620460A3099
:1055F000059900F021FB01900198002822D1039425
:1056000028801720039C2070039C601C039028882E
:10561000401C28807006010E039801700398401CFE
:1056200003902888401C288000233246069903985E
:1056300000F002FB01900198002803D12888710036
:10564000401828800198002806D0019803F02AFA13
:10565000029001E003200290029807B0F0BD000024
:1056600070B505460C46064802880649681CFAF7DC
:1056700083FF03480088401C2080002070BD00008C
:1056800094010020F8090020FEB504460E460020D3
:1056900000903088052829D160780702A078074358
:1056A000207900281FD1E078FF2802D0E078002878
:1056B00019D1002069464871E078FF2802D1012005
:1056C000087102E000206946087101231A46394634
:1056D00001A800F0A9FA0546002D09D0284603F0DC
:1056E000E1F9009004E00320009001E00320009025
:1056F0000098FEBDF8B504460E46002000903088A4
:10570000052811D160780702A078074301231A46C3
:105710003946E01C00F090FA0546002D06D02846D8
:1057200003F0C0F9009001E0032000900098F8BD5C
:10573000F0B585B005460E4600200190308805285A
:105740003CDD687800020390A87803990843039031
:10575000E878040228790443687902906007400FD2
:10576000002807D02046E117490F0918C910491C25
:10577000CFB205E02046E117490F091849050F0E81
:10578000012C18DB7B200001844214DC0298874244
:1057900011D101232246A81D039900F045FA00907B
:1057A0000098002804D0009803F07CF9019007E0ED
:1057B0000520308004E00320019001E003200190E7
:1057C000019805B0F0BDFEB504460E4600200090DD
:1057D0003088062829DB607800020290A0780299C0
:1057E00008430290E0780502207905436079019032
:1057F000012D17DB782D15DC6806010E019881421A
:1058000010D101232A46A01D029900F015FA07467F
:10581000002F04D0384603F045F9009007E005203A
:10582000308004E00320009001E003200090009805
:10583000FEBD0000F8B505460C4616461F46002082
:105840000090002C03D0012C01DBF72C02DD02209C
:10585000009037E01C480470002D20D11B481C49E3
:1058600008601C481C4908601C481D4908601D4808
:105870001D49086000201D4908601D481D49086039
:105880001D481E4908601E481E4908603A463146B8
:105890000D480078069B00F0DFF8009002E002203F
:1058A000009000BF00BF009800280BD103F04EFB12
:1058B000002802D10320009004E013480570012065
:1058C000124908700098F8BD98010020FD5B0000A7
:1058D000A0010020195C0000A40100205D5B000015
:1058E0009C010020A95A0000A8010020AC01002062
:1058F00005900000B0010020E5910000B4010020F7
:105900002D910000B8010020990100209A0100208B
:1059100038B5002545480078002801D0062038BD5C
:10592000684603F001FB01287DD168460078002815
:1059300006D0012805D002281AD0032872D170E0C1
:1059400070E03B4A3B493C483C4B1B689847054646
:10595000002D0CD13848007839490978884203D0A5
:1059600035480078002802D1022003F0F7FA59E008
:1059700030480068007833490870012032490870C7
:10598000002418E0E0003149085C002800D114E050
:10599000E0002E49085C2B49097888420AD1E000D2
:1059A0002A494018224942682248006890472649FF
:1059B000087002E0641C102CE4DB00BF1E48007875
:1059C00000282CD020480078002819D00020184941
:1059D00008801C4800788021084315490A880988F6
:1059E000491C134B198013490968885416480278DA
:1059F000184601880088401C18800E4800684254F0
:105A000013480078012800D100BF094802880948DE
:105A100001680B4800780F4B1B689847054601E06A
:105A200001E000BF00BF002079E700009A010020DC
:105A30004A0200204402002048020020A801002061
:105A400098010020490200204C020020C4010020DF
:105A5000990100209C010020F8B50E4614461F460F
:105A6000002000903B4608222146304603F089FA88
:105A7000012802D00320009011E04B200002844254
:105A800001D9232504E061000648FAF7B6FD054672
:105A9000A8B203F081FA012801D0032000900098F9
:105AA000F8BD0000A07F1700F8B504460D46164665
:105AB00000200090002712480088FF2800DC04E046
:105AC000A72210A11AA0FAF719FD0D480088042892
:105AD00013DB0B480188204803F048F900280CD15B
