:020000040000FA
:10000000C820002051010000590100005B010000E0
:1000100000000000000000000000000000000000E0
:1000200000000000000000000000000015090000B2
:1000300000000000000000000F010000190900008E
:10004000DD040000F104000011050000310500008E
:10005000510500007105000091050000B105000088
:10006000C5050000D9050000F90500000D060000D7
:100070002106000041060000550600006906000048
:1000800089060000A9060000BD060000D106000098
:10009000E5060000F90600000D0700002D0700002E
:1000A0004D0700006D0700008D070000A10700004C
:1000B000B5070000C9070000DD070000F1070000D8
:1000C000EF3FE9FF0348854600F0CCF800480047C1
:1000D000F52C0000C8200020084B19680868203063
:1000E00080F30988022080F31488BFF36F8F3FBC30
:1000F000AE4608BC04BC62B618470000E800002009
:10010000EFF3108072B6704780F310887047EFF3FA
:1001100009800E4B1A6820381060F0C044464D46E6
:1001200056465F46F0C008B572B603F097FD62B65A
:100130000CBC116808681030F0C8A046A946B24649
:10014000BB4680F309882038F0C81847E800002033
:100150001648804716480047FEE7FEE7FEE7FEE741
:10016000FEE7FEE7FEE7FEE7FEE7FEE7FEE7FEE767
:10017000FEE7FEE7FEE7FEE7FEE7FEE7FEE7FEE757
:10018000FEE7FEE7FEE7FEE7FEE7FEE7FEE7FEE747
:10019000FEE7FEE7FEE7FEE7FEE7FEE7FEE7FEE737
:1001A000FEE7FEE7FEE7FEE7FEE700009909000034
:1001B000C500000030B50B46014600202022012476
:1001C00009E00D46D5409D4205D31D469540491B8B
:1001D0002546954040191546521E002DF1DC30BDD4
:1001E00003460B439B0703D009E008C9121F08C050
:1001F000042AFAD203E00B780370401C491C521EFB
:10020000F9D27047F0B51FB40646002082B005460B
:100210004024019100901BE0019922460F46304690
:1002200000F042F8049A059B801A994110D31046B9
:100230001946224600F028F8361A8F4101972246C7
:1002400001200021009F00F01FF838184D41009058
:100250002046641E0028DFDC019B009829463246B8
:1002600007B0F0BD064C0125064E05E0E36807CC5B
:100270002B430C3C98471034B442F7D3FFF726FFCA
:10028000C8440000E844000010B5202A04DB014601
:10029000203A9140002010BD914020239C1A034633
:1002A000E3401943904010BD10B5202A04DB0846F6
:1002B000203AD040002110BD0B46D340D04020242E
:1002C000A21A91400843194610BD70B58C180578E4
:1002D000401C6B075B0F01D10378401C2A1106D12B
:1002E0000278401C03E006780E70401C491C5B1E1F
:1002F000F9D12B0705D40023521E0DD40B70491CD5
:10030000FAE70378401CCB1A921C03E01D780D70AD
:10031000491C5B1C521EF9D5A142D8D3002070BDE8
:1003200001490020487170472060004001490020C9
:10033000487770474060004001490020487170478D
:1003400060600040014900204870704760600040D4
:1003500000B5C02080781949C0080978C000014361
:1003600017484201EA2921D009DCE0390B0001F0ED
:1003700053FC0A171B1F230E0E0E0E13190EED2928
:1003800005D005DCEB2915D0EC2900D10D4800BDC6
:10039000F02903D0F829FAD1104600BD0A4800BD63
:1003A0000A4800BD0A4800BD0A4800BD0A4800BD11
:1003B0000A4800BD0A4800BD0A4800BD201C024092
:1003C00040420F0080841E00006CDC0200366E018B
:1003D0000024F400001BB70000127A00808D5B003F
:1003E00000093D00C0C62D000549012008770549D8
:1003F0008A8802438A8004490020087770470000F9
:1004000000610040601504400060004018B51148CC
:10041000002303741048818801221143818041899F
:1004200091434181018991430181018984152143CF
:10043000018169460B7004E000BF6B461978491CC6
:100440001970694609780E29F6D90189114301818D
:1004500018BD00000000002060150440054901207F
:1004600008700548818802221143818003490020D9
:100470000870704720610040601504402060004013
:1004800008B50E4881880222114381804189914339
:1004900041810189914301810189431519430181FA
:1004A00000216B46197019780E2903D800BF1978FE
:1004B000491CF7E701891143018108BD601504401B
:1004C0000548417C4906490E417400BF00BF00BF8A
:1004D00000BF00BF70470000201A044010B5034859
:1004E0000078002801D002F0FFFB10BD0060004042
:1004F00010B5064C2079002801D002F0A1FB6079EC
:10050000002801D002F0CCFB10BD000000600040CC
:1005100010B5064C207A002801D002F0A3FB607AC7
:10052000002801D002F0C2FB10BD000000600040B6
:1005300010B5064C207B002801D002F099FB607BAF
:10054000002801D002F0B8FB10BD000000600040A0
:1005500010B5064C207C002801D002F08FFB607C97
:10056000002801D002F0AEFB10BD0000006000408A
:1005700010B5064C207D002801D002F085FB607D7F
:10058000002801D002F062FB10BD000000600040B6
:1005900010B5064C207E002801D002F07BFB607E67
:1005A000002801D002F058FB10BD000000600040A0
:1005B00010B50348007F002801D001F037FE10BDC0
:1005C0000060004010B503480078002801D001F019
:1005D000B1FE10BD2060004010B5064C2079002807
:1005E00001D003F0DDF86079002801D0FFF798FE14
:1005F00010BD00002060004010B50348007A0028BC
:1006000001D003F03FF910BD2060004010B5034851
:10061000007B002801D003F00BF910BD20600040E2
:1006200010B5064C207C002801D003F0ADF8607CAA
:10063000002801D003F0BAF810BD0000206000408F
:1006400010B50348007D002801D003F06BF910BD00
:100650002060004010B50348007E002801D003F060
:100660002DF910BD2060004010B5064C207F0028F9
:1006700001D003F08FF8607F002801D003F09CF8D0
:1006800010BD00002060004010B5064C2078002806
:1006900001D002F09DF96078002801D001F024FD1E
:1006A00010BD00004060004010B5034800790028EC
:1006B00001D003F087F810BD4060004010B503483A
:1006C000007A002801D003F083F810BD406000409C
:1006D00010B50348007B002801D003F07FF810BD5F
:1006E0004060004010B50348007C002801D003F0B2
:1006F0007BF810BD4060004010B50348007D002825
:1007000001D001F0DFFC10BD4060004010B5064C88
:10071000207E002801D003F031F8607E002801D04F
:1007200002F0D6FA10BD00004060004010B5064C43
:10073000207F002801D002F0D1FA607F002801D08C
:10074000FFF7F4FD10BD00004060004010B5064CFE
:100750002078002801D001F0BBFC6078002801D08F
:10076000FFF7F0FD10BD00006060004010B5064CC2
:100770002079002801D001F0B1FC6079002801D077
:10078000FFF7DAFD10BD00006060004010B50348BF
:10079000007A002801D003F02DF810BD6060004001
:1007A00010B50348007B002801D003F035F810BDD8
:1007B0006060004010B50348007C002801D003F0C1
:1007C00031F810BD6060004010B50348007D00287E
:1007D00001D003F015F810BD6060004010B503486B
:1007E000007E002801D003F011F810BD60600040C9
:1007F00010B50348007F002801D001F07BFC10BD3C
:100800006060004010B500F0BFF800F0BDF802498C
:100810000020486010BD000060010020C106C90E24
:1008200001208840014908607047000080E200E034
:10083000C106C90E012088400149086070470000C8
:1008400080E200E0C106C90E01208840014908602D
:100850007047000000E100E070B501238B402B4C95
:100860002A4ED9B22A4D294B203C403E8619041904
:100870004519C018130001F0CFF906040D1C2C30E7
:100880003C2B02788A43027028780843287020782D
:10089000884316E002788A4302702878084328705B
:1008A000207888432070207C88432074307C084363
:1008B0000DE002788A430270287808432870207877
:1008C00008432070207C88432074307C8843307437
:1008D00070BD02780A43027070BD02788A430270CC
:1008E000287888432870207888432070207C8843AB
:1008F0000AE002788A4302702878884328702078BA
:1009000088432070207C0843207470BD6000044040
:10091000200304407047000010B5FFF7F1FB0446C8
:1009200003F026FC002803D001200449000748609A
:100930002046FFF7E9FB00F003F810BD00ED00E0F2
:100940000C490868401C08600B49012008700B49DD
:100950000868002801D0401E08600949086800287E
:1009600001D0401E086007490868002801D0401ED9
:100970000860704764010020600100206C010020C5
:1009800074010020B001002010B5FFF7E1FC01491F
:10099000086010BDB401002010B5144980204871D2
:1009A00012481A21203801722B2141723C21817298
:1009B0004D21C1720E4900204860FFF7C9FC0D4966
:1009C000086000200C49C04308600C4908600D49CC
:1009D0000B48086048608860C860086148618861A9
:1009E000C8610949AC20487010BD000020040240D5
:1009F00000B00140B401002080E200E000E100E02E
:100A0000C0C0C0C000E400E00010024038B56A4633
:100A100000F0F6F9002814D10A4903248C80CA8812
:100A200012091201CA80CA886B461B781A43CA8011
:100A30006B465A78044B52021A825A824A882243E1
:100A40004A8038BD2011044000130440F8B58646A2
:100A500028488C460178042631430170264A032039
:100A6000D080254B2220203B1882244818836727FA
:100A700023487F02078223490D7C012425430D74FE
:100A800007215981FF21233159821F495983478208
:100A9000108920431081908AA0439082508920437E
:100AA00050811A48017F202421430177184A517848
:100AB00031435170164920314A78FB231A404A705D
:100AC000144D6A7C1A406A74124A203255781D40CF
:100AD0005570037F234303774878022318434870F7
:100AE0005078FD210840507061467046FFF78EFF38
:100AF000F8BD00002004024020110440978000004F
:100B00000013044060040440974000006008044063
:100B1000000304404000044003490874034801886E
:100B20004906890FFBD170470013044000110440AF
:100B300038B56A4600F064F900280ED1074A0C2443
:100B4000948069460978D18069464978044B490206
:100B50009980D98051882143518038BD20110440AB
:100B600040130440F8B584462A48027804231A4307
:100B70000270294A90880C2420439080274C012041
:100B8000207520762077264C00202075207620774F
:100B9000214C2220203CA0822248A0836726224F9D
:100BA0007602BE802148057C1D4305740720E08144
:100BB000FF202330E0821E48E083FE801089184326
:100BC0001081908A98439082508918435081194827
:100BD00002781A430270174820300278FB231A402B
:100BE0000270154A147C1C401474134A2032147885
:100BF0001C40147003780224234303701078FD23F3
:100C0000184010706046FFF793FF044600F016F896
:100C10002046F8BD2004024020110440206100401D
:100C200020600040978000004013044060040440AE
:100C300097400000000304404000044010B50D48F8
:100C4000028904210A43028142890A434281418880
:100C50000C221143418008480024047504760D20BD
:100C6000FFF7DCFD0E20FFF7D9FD0448047504767C
:100C700010BD0000201104402060004020610040B1
:100C800038B56A4600F0BCF800280ED1074A0324A4
:100C9000948069460978D18069464978044B4902B5
:100CA0001981598151882143518038BD6015044014
:100CB00040170440F8B58446334800780825324A86
:100CC00028431070314A9088032318439080304B9A
:100CD0000120187703462E4820300370012303714A
:100CE0002C4B002018772B4B203318701871274B92
:100CF0002220203B1882284818836726274F760237
:100D00003E812748047C10231C4304741F48072499
:100D100020384481FF2423344482224C44837E8142
:100D20001089012420431081908AA0439082508929
:100D3000204350811C4AD07DFD263040D0751B4C8D
:100D4000607828436070194C20346078F72528407B
:100D500060701748477C2F404774154F20377878CC
:100D600028407870D07D3040D0756078184360702E
:100D70007878EF22104078706046FFF781FF0446D4
:100D800000F018F82046F8BD200402406015044029
:100D90000061004000600040978000004017044060
:100DA00060040440974000006008044000030440D1
:100DB0004000044010B50F48028901210A43028116
:100DC00042890A43428141880322114341800A48F3
:100DD000002404770848203004700720FFF71EFD28
:100DE0000820FFF71BFD05480477044820300470F5
:100DF00010BD00006015044000600040006100402C
:100E0000F7B582B003980025010264262F460095AD
:100E10000298FFF7CFF90122401C00E06D1C11463B
:100E2000A9408142FAD334E021496800095A029866
:100E3000FFF7C0F902240190611C0198FFF7BAF98D
:100E40007D214008C90048430399FFF7B3F97D218C
:100E5000C900401A0A214843002E01DB314600E058
:100E60007142021E00DA4242914202DD06462746E6
:100E70000095002E01DB304600E07042142804DAB1
:100E800004980570049844700FE0641C802CD3D340
:100E90006D1C102DC8D3002E00DA7642142E04DB10
:100EA00004990098087004984770002005B0F0BDC0
:100EB0004C4400000021017041708170C17080308D
:100EC000017141718171704700B50548FFF7F2FF6C
:100ED0000448FFF7EFFF0448FFF7ECFF00BD0000F8
:100EE000981600209F170020A61800201CB50D4C56
:100EF0000DA0216800F080FE104A10460C384168B1
:100F000001920091036880220D48216803F0CEF819
:100F10000146012803D00BA000F06EFE1CBD0FA0FF
:100F2000FAE700006C4400000A43726561746520B2
:100F30005461736B3A2025733B0000008C01002044
:100F4000ED1A000009437265617465204E472C203C
:100F500072746E203D2025643B00000009437265D9
:100F6000617465204F4B2C2072746E203D202564E7
:100F70003B000000F0B5044600208C46671E1AE0D6
:100F80001146F940CD0701114E00C117090F09188C
:100F900009090901411AED0F9E5B611A491ECE40F5
:100FA000F107C90F8D4203D051006246514000E065
:100FB00051008AB2401C05998842E1D3024910468B
:100FC000A1408843F0BD0000FFFF000038B518A025
:100FD00000F012FE19A000F00FFE00F099FC00F0E6
:100FE000DDFB21A000F008FE2CA000F005FE354C32
:100FF000354B002081004200091949889954090A9B
:10100000D218401CC0B251704028F3D33F200001D9
:1010100000902D4B2D4A2E491020FFF7ABFF0446C0
:101020002CA000F0E9FD214635A000F0E5FD38BD1B
:101030000A453730335F496E69743B000A313A2004
:101040004669727374205265616420616C6C205231
:101050006567697374657220616E6420434D206416
:101060006174613B000000000A323A2057726974D3
:10107000652053706563696669656420434D20553A
:1010800073657220646174612C204E6F20746869EE
:101090007320616374696F6E3B0000000A333A206D
:1010A0005265616420616C6C20434D206461746101
:1010B0002C204E6F207468697320616374696F6EB1
:1010C0003B000000C61B00200E1A0020FFFF00009E
:1010D000058000000A343A205772697465206E65F5
:1010E0007720435243313620646174612C204E6F67
:1010F000207468697320616374696F6E3B0000003F
:101100000A43616C63756C61746520746865204383
:1011100052433136206F662061626F7665206461CC
:101120007461206973203078253034582E0A00000D
:1011300038B50A4CA07800280BD1094B4E221A7002
:1011400058709870022000906C2101205B1C01F007
:101150003BF80120A070002038BD00009401002061
:10116000CD19002038B50A4C607800280BD1094B06
:101170004E221A7058709870022000906C21012045
:101180005B1C01F021F801206070002038BD0000D8
:1011900094010020CD19002038B50B4C2078002890
:1011A0000DD10A4B22221A70A2205870622098702A
:1011B000022000906C2101205B1C01F005F8012049
:1011C0002070002038BD000094010020CD190020BF
:1011D00010B52A4C2AA0A169491CA16100F00CFDA0
:1011E000A069012822D12BA000F006FDFFF7A0FF87
:1011F000FFF7B8FFFFF7D0FF00F08AFB00F0CEFA50
:1012000000F014F9A18A2EA000F0F6FCA18833A00A
:1012100000F0F2FC218A35A000F0EEFC618A3AA0D1
:1012200000F0EAFCE18A3EA000F0E6FC00F0FEF8E7
:10123000E18841A000F0E0FC218942A000F0DCFC44
:10124000618943A000F0D8FCA18944A000F0D4FC3F
:10125000E18945A000F0D0FCA18846A000F0CCFCBC
:10126000218A47A000F0C8FC618A4BA000F0C4FCB2
:10127000E18A4DA000F0C0FC10BD000094010020E8
:101280000A453730335F4C6F6F70436E742C2564A2
:101290002C2000000A353A2046697273742052658A
:1012A000616420616C6C205265676973746572209B
:1012B000616E6420434D20646174613B0000000056
:1012C0000A453730335F4368697056657273696FDA
:1012D0006E2C3078253034582C0000000A45373009
:1012E000335F434D442C25642C0000000A45373001
:1012F000335F5374617475735F73796E632C3078E8
:10130000253034582C0000000A453730335F5374C1
:10131000617475732C3078253034582C000000002F
:101320000A453730335F434D5F5374617475732CD6
:101330003078253034582C00094144435F54432C05
:1013400025642C00094144435F542C25642C000083
:10135000094144435F532C25642C00000944535039
:101360005F542C25642C0000094453505F532C25F6
:10137000642C000009434D442C25642C000000001F
:10138000095374617475735F73796E632C307825BB
:101390003034582C00000000095374617475732CAC
:1013A0003078253034582C0009434D5F53746174F4
:1013B00075732C3078253034582C0000F8B50D4664
:1013C0000646002200F0CCF9012821D100F0B6F841
:1013D000144C4E22227066704C20A0700226631CB2
:1013E0006C210120009600F0EFFE482222700020C0
:1013F0000D4CFF212154401CC0B20A28FAD30A4BDD
:101400006C210120009600F087FE002802D0002207
:101410001046F8BD607800022880217840182880A6
:101420000122F5E7CD190020ED19002038B56946F5
:10143000222000F05BF82C4C012802D1684600887D
:10144000A0806946262000F051F8012802D16846A4
:101450000088E0806946282000F048F8012802D181
:1014600068460088208169462A2000F03FF801285C
:1014700002D168460088608169462E2000F036F867
:10148000012802D168460088A0816946302000F01A
:101490002DF8012802D168460088E0816946322093
:1014A00000F024F8012802D16846008820826946AD
:1014B000362000F01BF8012802D1684600886082BF
:1014C0006946382000F012F8012802D168460088E9
:1014D000A0826946462000F009F8012802D168463A
:1014E0000088E082002038BD9401002038B50D4608
:1014F000024600F03DF9012812D10E480023027087
:101500000D4CFF20E0545B1CDBB20A2BFAD3022007
:101510000090094B6C21012000F0FEFD002801D055
:10152000002038BD6078000228802178401828808B
:10153000012038BDCD190020ED190020F8B5174F56
:101540003878012826D1164C222525705A20607043
:10155000F720A0700226631C2A466C210120009609
:1015600000F032FE2570C72060700C20A070631C54
:101570002A466C210120009600F026FE25701E20D0
:101580006070D220A070631C2A466C210120009656
:1015900000F01AFE00203870F8BD00009401002011
:1015A000CD19002010B5012200210720FFF754F9C2
:1015B000042201210720FFF74FF90422022107200E
:1015C000FFF74AF9042207210120FFF745F9094CEA
:1015D0008021607804220843607001210520FFF714
:1015E0003BF960790221084360710349002048609B
:1015F00010BD0000000304406801002010B5012068
:1016000000F00EFA022000F00BFA032000F008FAB6
:10161000FFF7DCFC10BD000010B503484188491CF1
:101620004180FFF7D5FD10BD78010020054A002854
:10163000517803D02020014351707047DF200140D2
:10164000FAE7000000030440054A0028517803D05F
:101650001020014351707047EF200140FAE700006D
:101660000003044010B5012204211046FFF7F4F8EE
:1016700010BD10B5042211460120FFF7EDF810BD92
:1016800003484078C00601D400207047012070470D
:1016900000030440054A0028D17803D0012001430B
:1016A000D170704748084000D07070470003044074
:1016B000054A0028517903D0012001435171704738
:1016C00048084000507170470003044010B50122E3
:1016D00000210520FFF7C0F810BD10B5042200213D
:1016E0000520FFF7B9F810BD02484079C00700D0C7
:1016F0000120704700030440054A0028D17903D037
:1017000020200143D1717047DF200140FAE700003B
:1017100000030440054A0028D17903D0102001437A
:10172000D1717047EF200140FAE700000003044048
:1017300010B5012204210720FFF78EF810BD10B567
:10174000042211460720FFF787F810BD0348C0792F
:10175000C00601D4002070470120704700030440F8
:10176000C10701D17E2801D90020704701207047B0
:10177000C1070FD120280DD024280BD001463939BC
:101780000D2907D31239032904D36039392901D32C
:10179000E42801D90020704701207047FEB50027DA
:1017A0002AA000F029FAFFF7C9FE304E304D002480
:1017B0002046FFF7D5FF00280BD06846868001A998
:1017C0002046FFF7FBFD012837D0214629A000F075
:1017D00013FAA41CE4B2F02CEAD3FFF7DDFC2DA031
:1017E00000F00AFA0024A00041194A88295C32A0BE
:1017F00000F002FA641CE4B2402CF4D334A000F0F0
:10180000FBF9354B00208100420049194988995461
:10181000090AD218401CC0B251704028F3D33F20AF
:10182000000100902C4B32462C491020FFF7A2FB00
:1018300001462BA000F0E0F9FEBDB8002C54401981
:10184000694689887F1C4180FFB2C2E70A0A453792
:101850003033205265616420616C6C20434D20461A
:10186000726F6D2050726F62652E2000FFFF0000C6
:10187000C61B00200A453730332E313120434D5BE3
:101880003078253032585D2C204572726F72312CC1
:10189000000000000A453730335F434D44617461F6
:1018A0005B4445465F434D5F444154415F4E554D57
:1018B0005D203D200A7B00000A202020207B30781C
:1018C000253032582C203078253034587D2C0000BB
:1018D0000A7D3B0A000000000E1A0020058000006F
:1018E0000A43616C63756C6174652074686520439C
:1018F00052433136206F662061626F7665206461E5
:101900007461206973203078253034582E0A000025
:10191000F8B500251BA000F06FF9244F244E0024D9
:101920002046FFF725FF00280BD068460780694650
:101930002046FFF7DBFD01281AD021461DA000F04C
:101940005BF9A41CE4B2F02CEAD323A000F054F914
:101950000024A00081194A88315C29A000F04CF9CC
:10196000641CE4B24E2CF4D32BA000F045F9F8BD72
:10197000A80034548019694609886D1C4180EDB275
:10198000DFE700000A0A45373033205265616420E2
:10199000616C6C207265676973746572732046723E
:1019A0006F6D2050726F62652E200000FFFF0000F7
:1019B0008E1A00200A453730332E313120526567A8
:1019C00069737465725B3078253032585D2C204520
:1019D00072726F72312C00000A453730335F5265E6
:1019E00067446174615B4445465F5245475F4441CB
:1019F00054415F4E554D5D203D200A7B00000000A4
:101A00000A202020207B3078253032582C20307856
:101A1000253034587D2C00000A7D3B0A0000000070
:101A200010B50446012814D104220521FEF714FF45
:101A3000042211460120FEF70FFF0020FFF7F6FDFC
:101A40000120FFF7F3FD0A21491EFDD10120FFF718
:101A5000EDFD022C15D1042200210320FEF7FCFE2F
:101A6000042200210520FEF7F7FE0020FFF712FEFA
:101A70000120FFF70FFE0A21491EFDD10120FFF7CB
:101A800009FE032C15D1042205210720FEF7E4FEF0
:101A9000042211460720FEF7DFFE0020FFF72CFE90
:101AA0000120FFF729FE0A20401EFDD10120FFF78B
:101AB00023FE10BD10B506A000F09EF80AA000F0AD
:101AC0009BF8FFF713FA08A000F096F810BD00008D
:101AD0000A52756E205573725F5461736B5F437267
:101AE0006561746528293B000A000000FFF786FD48
:101AF000074C08A0A16800F07FF87D25ED00A168E3
:101B0000491CA160FFF788FD284602F015F8F6E7AA
:101B1000800100200A5461736B5F493243532052A5
:101B2000756E436E74203D2025643B0070B50246FF
:101B30002848E12100244902274D284E0068002A48
:101B400004D0012A16D0022A28D12AE0FEF77EFF0F
:101B500080280ED02C722C730A20FEF769FE0B2011
:101B6000FEF766FE347234730A20FEF76BFE0B201C
:101B700012E0FEE7FEF7F6FF802811D02C752C76D8
:101B80000D20FEF755FE0E20FEF752FE347534761A
:101B90000D20FEF757FE0E20FEF754FE002070BD0C
:101BA000FEE7FFF787F8802812D00B48203804772B
:101BB0002C700720FEF73CFE0820FEF739FE074890
:101BC0002038047734700720FEF73CFE0820E3E756
:101BD000FEE70000B40100202060004020610040CA
:101BE00010B5E12149020020FFF7A0FF01490020C4
:101BF000486010BD700100200FB410B503A9044B5C
:101C0000044A029800F024F810BC08BC04B018473D
:101C100001210000D000002030B47446641E2578F5
:101C2000641CAB4200D21D46635D5B00E31830BC10
:101C3000184702E008C8121F08C1002AFAD17047ED
:101C40007047002001E001C1121F002AFBD170473C
:101C5000FFB591B00F460546002606E025280AD0BC
:101C6000149A139990476D1C761C28780028F5D19A
:101C7000304615B0F0BD002400940121F34A0294CF
:101C800000E004436D1C2B780846203B984010422E
:101C9000F7D128782A280ED0022128780246303A37
:101CA000092A15D8009A0A235A43303A80180C435F
:101CB0006D1C0090F1E701CF0090002805DA0120AB
:101CC00040030443009840420090022004436D1CEE
:101CD00028782E2815D10420044368786D1C2A2802
:101CE0000AD101CF6D1C02900BE002990A225143E8
:101CF000303940186D1C0290287801463039092986
:101D0000F3D928786C2810D006DC4C281AD0682823
:101D10000ED06A2817D104E0742813D07A2812D183
:101D200010E00120400504430CE00121090501E019
:101D3000032109050C436978814203D10120000584
:101D400024186D1C6D1C287803906E281ED00CDCA6
:101D5000632831D004DC00288AD0582811D1B2E0A1
:101D600064287BD069280CD178E073282DD004DC5E
:101D70006F2870D0702804D1A7E075286CD078281F
:101D80006BD0149A13999047761C62E06002400F62
:101D9000022807D003280AD0042838680AD0066031
:101DA0003F1D56E03868F11706604160F8E7386873
:101DB0000680F5E70670F3E7387869460874002076
:101DC000487404A80390012003E0386803900020C1
:101DD000C0433F1D61070FD5002101E00199491C57
:101DE000029A0191914213DA8142F7DB019A039939
:101DF000895C0029F2D10BE0002101E00199491C26
:101E000001918142FADB019A0399895C0029F5D19D
:101E100001990098139A401A00902146149B00F0F3
:101E20003BF901998019461807E003980399007857
:101E3000491C0391149A139990470198401E0190F0
:101E4000401CF2D12146149B139A009800F014F91B
:101E500086196D1C09E741E033E034E00A200021D7
:101E6000049005916002410F022905D001CFC217ED
:101E70009446032905D007E0FF1DFF08FF0003CFAC
:101E800006E000B2C2179446042902D140B2C1173D
:101E90008C4600226146944506DA0A4600214042FB
:101EA00091418C462D2102E0210504D52B216A4663
:101EB0001176012103E0E10701D02021F7E701912C
:101EC00054E00A200BE0102009E0102004900021CB
:101ED0000420044308200591029003E0082000211B
:101EE000059104906002410F022905D001CF002224
:101EF0009446032906D006E0FF1DFF08FF0003CF2C
:101F00008C4603E080B2042900D1C0B200210191C7
:101F100021072BD50399702906D0049A1021059B1F
:101F20004A401A4305D00EE040216A46117601214D
:101F300008E06146014306D030216A4611760399D4
:101F4000517602210191049A0821059B4A401A43C7
:101F50000CD16146014301D1610707D530216A46A2
:101F60001176012101910299491E02910399582984
:101F700004D037A103910FA90F910DE039A1F9E722
:101F80006146059B049AFEF73DF9039B8C469B5CDA
:101F90000F9A521E0F92137061460143F0D10F98B1
:101FA00007A9081A20300390600704D50120000417
:101FB0008443029801E0012002900399884201DDE8
:101FC000401A00E00020411802900198091800987A
:101FD000401A0090E00306D42146149B139A0098FF
:101FE00000F05AF886190020049008E006A9085C61
:101FF000149A139990470498401C761C04900199F8
:102000008842F3DBE0030CD52146149B139A009819
:1020100000F042F8861904E0149A30201399904792
:10202000761C0299481E02900029F5DC08E00F9802
:102030000F990078491C0F91149A13999047761CB8
:102040000399481E03900029F1DCFBE609280100F2
:10205000303132333435363738396162636465661E
:1020600000000000303132333435363738394142E0
:102070004344454600000000F8B5044600251E46CE
:102080001746880404D405E039462020B0476D1C6B
:10209000641EF9D52846F8BDFFB50446002581B079
:1020A0001E46C80301D5302700E02027880404D548
:1020B00005E038460399B0476D1C641EF9D52846E3
:1020C00005B0F0BD01490020087570474060004030
:1020D00001490020087070476060004001490020FD
:1020E00008717047606000400149002048707047E7
:1020F0004060004001490020087770476060004060
:1021000010B50446C0B2FEF707FD0A2C02D10D201F
:10211000FEF702FD204610BDFFB581B000240A9FE6
:102120001E462546002F08D0002E06D0254882786E
:1021300048000090002A03D014E0012005B0F0BD53
:10214000019800F0A1FB0098C1B2019800F0A2FA3A
:10215000002800D001240399019800F09BFA002880
:1021600000D0641C019800F08FFB0098401CC1B2A5
:10217000019800F08FFA002800D0641C1420401E43
:10218000FDD1012F0FD900257F1E0AE07119012210
:10219000019800F057F9002801D0641CE4B26D1CCE
:1021A000EDB2BD42F2DB71190022019800F04AF94C
:1021B000002801D0641CE4B2019800F0A8FB20467E
:1021C000BCE7000090010020FFB581B00A9F002508
:1021D0001E460C46002F15D0002E13D0019800F09B
:1021E00053FB6006010E019800F054FA002800D05D
:1021F00001250399019800F04DFA002800D06D1CCC
:1022000000240CE0012005B0F0BD315D019800F024
:1022100041FA002801D06D1CEDB2641CE4B2BC424E
:10222000F3D3019800F073FB2846ECE7F8B5374983
:102230000888374B800702D51888002862D10888A3
:10224000C00702D0188800285CD1324F38780124AA
:10225000C007314A002811D01888002809D02F491A
:10226000086804781472401C08601888401E1880A2
:1022700048E0FEF7CBF82A4804713FE03878FF23A6
:10228000450722482030002D1BDB858825438580AB
:102290000D8BAD04AD0C0D830D8B0126B6033543BC
:1022A0000D834188214341803978042421433970CA
:1022B0001C490988012924D14189490849004181E3
:1022C0001FE019490988174D2E88B1421AD2167A93
:1022D000164F39680E70491C396013490E88761CF8
:1022E0000E800F882E88761EB742E5D00888298890
:1022F000884206D1FEF78AF809484471FEF774F85F
:1023000000E013720A4900200877F8BD4015044028
:102310004A0000201000002040170440B0000020B8
:10232000C60000204E0000204C000020B400002019
:1023300000600040F8B539494888394B800702D51C
:102340001888002865D14888C00702D0188800285E
:102350005FD1344E3078344AC00712D01888002834
:1023600009D03249086804789472401C08601888C3
:10237000401E18804DE0FEF783F82D49012088713A
:1023800043E03078FF23440724482030002C1ADB38
:10239000848802273C4384804C8BA404A40C4C8387
:1023A0004C8B7D032C434C834188394341803178E9
:1023B0000424214331701F490988012928D141890A
:1023C000B943418124E01C4C21881A4E3588A9422A
:1023D0001FD2957A194F39680D70491C39602188D0
:1023E000491C218025883188491E8D4204D14489A9
:1023F00002218C4344810BE020883188884207D138
:10240000FEF73EF80A490120C871FEF727F800E000
:1024100093720B4900200870F8BD0000401504407D
:10242000500000201100002040170440B800002098
:10243000C60000205400002052000020BC000020F4
:1024400020600040F8B5924F14460D46064601281C
:1024500044D100207870FFF7E9F81420401EFDD128
:10246000FFF700F90020387078784000787001207C
:10247000FFF7DCF81420401EFDD1FFF701F9012819
:1024800002D17878401C78703220401EFDD1FFF7D1
:10249000CDF81420401EFDD13878401CC0B23870F1
:1024A0000828E1D3FFF7E5F878782870002C18D0D9
:1024B0000020FFF7BBF80A20401EFDD1FFF7C4F84B
:1024C0000A20401EFDD10120FFF7B0F84620401E33
:1024D000FDD1FFF7ABF81E20401EFDD1022E18D013
:1024E0005CE00020FFF7A2F80A20401EFDD1012089
:1024F000FFF7AAF80A20401EFDD10120FFF796F849
:102500004620401EFDD1FFF791F81E20401EFDD150
:10251000E4E700207870FFF7BDF81420401EFDD1DD
:10252000FFF7D4F8002038707878400078700120E8
:10253000FFF7B0F81420401EFDD1FFF7D5F80128B1
:1025400002D17878401C78703220401EFDD1FFF710
:10255000A1F81420401EFDD13878401CC0B238705C
:102560000828E1D3FFF7B9F878782870002C18D044
:102570000020FFF78FF80A20401EFDD1FFF798F8E2
:102580000A20401EFDD10120FFF784F84620401E9E
:10259000FDD1FFF77FF81E20401EFDD1032E18D07D
:1025A0005CE00020FFF776F80A20401EFDD10120F4
:1025B000FFF77EF80A20401EFDD10120FFF76AF8E0
:1025C0004620401EFDD1FFF765F81E20401EFDD1BC
:1025D000E4E700267E703046FFF78EF81420401E98
:1025E000FDD1FFF7A5F83E707878400078700120A3
:1025F000FFF782F81420401EFDD1FFF7A7F801284D
:1026000002D17878401C78703220401EFDD1FFF74F
:1026100073F81420401EFDD13878401CC0B23870C9
:102620000828E1D3FFF78BF878782870002C17D0B2
:102630000020FFF761F80A20401EFDD1FFF76AF87D
:102640000A20401EFDD10120FFF756F84620401E0B
:10265000FDD1FFF751F81E20401EFDD10020F8BD2E
:102660000020FFF749F80A20401EFDD10120FFF7A6
:1026700051F80A20401EFDD10120FFF73DF8462009
:10268000401EFDD1FFF738F81E20401EFDD1E5E7C2
:102690009001002010B50B4600218022794C0128C2
:1026A00004D002284FD003287ED0DBE06270217076
:1026B0006078184000D00120FEF7C6FF0A20401EB7
:1026C000FDD10120FEF7B2FF4620401EFDD1FEF7EE
:1026D000ADFF1420401EFDD1607840086070207866
:1026E000401CC0B220700828E2D3FEF7BBFF0A20CE
:1026F000401EFDD10120FEF799FF1420401EFDD1A0
:10270000FEF7BEFF012806D0FEF7BAFF00280ED064
:10271000FEF7AFFF13E00020FEF788FFFEF7A9FFEA
:102720001E20401EFDD10120FEF78EFF9AE0002002
:10273000FEF77CFFFEF79DFF1E20401EFDD101200D
:10274000FEF782FF9BE0627021706078184000D035
:102750000120FEF7ADFF0A20401EFDD10120FEF74B
:1027600099FF4620401EFDD1FEF794FF1420401E25
:10277000FDD16078400860702078401CC0B22070A5
:102780000828E2D3FEF7A2FF0A20401EFDD1012057
:10279000FEF780FF1420401EFDD1FEF7A5FF0128A3
:1027A00008D0FEF7A1FF00E01CE000280ED0FEF7E5
:1027B00094FF13E00020FEF76DFFFEF78EFF1E2052
:1027C000401EFDD10120FEF773FF4BE00020FEF715
:1027D00061FFFEF782FF1E20401EFDD10120FEF7A3
:1027E00067FF4CE0627021706078184000D00120D3
:1027F000FEF790FF0A20401EFDD10120FEF77CFF6E
:102800004620401EFDD1FEF777FF1420401EFDD16B
:102810006078400860702078401CC0B220700828A2
:10282000E2D3FEF785FF0A20401EFDD10120FEF70E
:1028300063FF1420401EFDD1FEF788FF012806D05B
:10284000FEF784FF00280FD0FEF779FF14E0002088
:10285000FEF752FFFEF773FF1E20401EFDD1012040
:10286000FEF758FF012010BD0020FEF745FFFEF7E0
:1028700066FF1E20401EFDD10120FEF74BFF002009
:1028800010BD00009001002000B50346012811D1C1
:10289000FEF7DAFE0120FEF7C9FE1420401EFDD12E
:1028A000FEF7D2FE1E20401EFDD1FEF7BFFE142112
:1028B000491EFDD1022B14D10120FEF7F9FE0120A3
:1028C000FEF7E8FE1421491EFDD10020FEF7F0FEC0
:1028D0001E21491EFDD10020FEF7DCFE1421491EF9
:1028E000FDD1032B12D10120FEF714FF0120FEF7CA
:1028F00003FF1420401EFDD1FEF70CFF1E20401EDA
:10290000FDD1FEF7F9FE1420401EFDD100BD00B53B
:102910000346012813D10A20401EFDD1FEF794FE84
:102920000A20401EFDD10120FEF780FE0A20401E35
:10293000FDD10120FEF788FE4620401EFDD1022B6E
:1029400014D10A21491EFDD10020FEF7B1FE0A2153
:10295000491EFDD10120FEF79DFE0A21491EFDD131
:102960000120FEF7A5FE4621491EFDD1032B13D100
:102970000A20401EFDD1FEF7CDFE0A20401EFDD1EB
:102980000120FEF7B9FE0A20401EFDD10120FEF70E
:10299000C1FE4620401EFDD100BD00000548017C5F
:1029A0000122114301740448417CC907FCD003484B
:1029B00002707047201A0440401B0440D6000020DB
:1029C0000248017C2022114301747047201A044000
:1029D00010B5074900200870FDF772FD0548407CDE
:1029E000C00902D000F008F810BD00F08BF810BD4F
:1029F00040600040401B0440F8B53948817C394CA8
:102A0000490602D42188002922D137490978384E55
:102A10000F063368354920255A1C002F25DB304826
:102A2000407C400714D530480078802738432E4F2B
:102A300038702B48477C3F070ED50D7C08273D4357
:102A40000D741BE01978017432602088401E2080CC
:102A5000F8BDFFF7A3FFF8BD087C042210430874FB
:102A6000087CF722104008742BE0477C3F0709D50B
:102A7000417C490702D421880029ECD12188002912
:102A8000E7D0DFE71B4A14881B4B1E88B4421CD2D8
:102A9000067C1A4C20680670401C20601088401C80
:102AA000108010881A8890420BD1087CFB221040BD
:102AB0000874087C284308740A7C082002430A74BE
:102AC000F8BD087C28430874F8BD0B7C0122134331
:102AD0000B74417CC907FCD009480270F8BD0000A6
:102AE000401B0440DC000020D4000020201A0440D9
:102AF000E4000020DA000020D8000020E0000020E0
:102B0000D7000020F8B5444E707C0122C107434D28
:102B10004348002912D0017CEF2319400174287822
:102B2000000609D52878400701D53E48027028786C
:102B3000800701D53C4802702A70F8BD29783B4BCC
:102B40000F061C682021631C002F29DB324E767C87
:102B5000F60623D5067C10273E43067480262E7089
:102B60002D4E757C2D0710D5057C08273D43057437
:102B70002AE02E482178317403602888401E28807E
:102B8000F8BD027C0A430274F8BD027C04231A4398
:102B90000274027CF7231A400274F2E7802010E0EE
:102BA000777C3F0717D51D4D2D7804273D431B4FDC
:102BB0003D70757C6D0707D41D4D2D88002D03D009
:102BC0000220FFF7FDFEF8BD194D2F88002FD0D150
:102BD000144B1A70D5E72B78022423432B70154C25
:102BE0002388154F3D88AB42CBD2357C134E3368DA
:102BF0001D705B1C336023885B1C238023883C880A
:102C0000A342BED1037C082423430374037C0B43FB
:102C1000037405480270F8BD401B0440D500002035
:102C2000201A0440D6000020D7000020E400002035
:102C3000DC000020DA000020D8000020E0000020A6
:102C400001490020087170470060004001490020E0
:102C50004875704700600040014900204876704781
:102C60000060004001490020087270470060004089
:102C700001490020087370470060004001490020AE
:102C800008747047006000400149002008757047D3
:102C90000060004001490020087670470060004055
:102CA0000149002048717047006000400149002040
:102CB0004872704700600040014900204873704727
:102CC00000600040014900204874704700600040E7
:102CD00001490020487670474060004001490020CB
:102CE0000877704740600040014900200870704735
:102CF00000600040FDF786FDFEF7E6F8FEF752FCA7
:102D0000FEF76EFF2FA0FEF777FF33A0FEF774FFEC
:102D10003BA0FEF771FF4348FEF76EFF42A0FEF7AF
:102D20006BFF474947A0FEF767FF47A0FEF764FF28
:102D300053A0FEF761FF5CA0FEF75EFF68A16BA0E9
:102D4000FEF75AFF70A173A0FEF756FF78A0FEF7BA
:102D500053FF00220123114676A0FEF74DFF00220B
:102D6000012311467BA0FEF747FF71A0FEF744FF49
:102D700080A0FEF741FF854E85A03168FEF73CFF3D
:102D8000854D86A06968FEF737FF00242C70FEF79A
:102D900091FE7D21C9003068FDF70CFA8449401E80
:102DA00088420BD88349486183480722C3691B02C4
:102DB0001B0A4D042B43C3618C610A6100F00CFFB8
:102DC000FEE700000A50726F6772616D2052756EE7
:102DD0006E696E672E2E2E000A4D43555F436F724B
:102DE000653A202020202020202020202020417211
:102DF0006D20436F727465782D4D302B2E000000CE
:102E00000A4D43555F56656E6465723A2020202056
:102E1000202020202020436D73656D69636F6E2E26
:102E200000000000704400000A435F4C616E67754B
:102E30006167652056657273696F6E3A20200000E5
:102E4000DD0C030025642C000A4944455F4E616D8A
:102E5000653A2020202020202020202020204152C0
:102E60004D2D4D444B2056352E31352E202020201F
:102E70002875566973696F6E2056352E31352900D5
:102E80000A436F6D70696C65725F4E616D653A20C3
:102E900020202020202041726D63632E65786520FC
:102EA00056352E30352E00000A50726F6A656374F5
:102EB0005F4E616D653A2020202020202020424175
:102EC000543332413233375F4672656552544F5343
:102ED000207472616E73706C616E742E000000005D
:102EE0004A616E2031372032303235000A436F6D2F
:102EF00070696C696E6720446174653A20202020F7
:102F0000202025733B00000031383A33323A333603
:102F1000000000000A436F6D70696C696E67205491
:102F2000696D653A20202020202025733B00000099
:102F30000A0000000A4669726D7761726520566565
:102F40007273696F6E3A2020202025642D25642D30
:102F500025643B000A48617264776172652056659A
:102F60007273696F6E3A2020202025642D25642D10
:102F700025643B000A4D43555F535953434C4B3A2C
:102F8000202020202020202020200000B40100202C
:102F900025642E0A00000000600100204D63755F6B
:102FA00054696D657374616D702C25642C0A000082
:102FB000FFFFFF0000E000E004ED00E0F8B5134E75
:102FC0000F46F56804463068001D00F0C7FC601C21
:102FD00007D1002F05D031680D48091D00F00EFD06
:102FE000F8BD30682C1944603168AC4204D2F06BF3
:102FF000091D00F0EBFCF8BDB06B091D00F0E6FC0C
:10300000B06A8442F7D2B462F8BD0000E800002044
:1030100010030020F8B5054600F0FCFC294EB0680E
:10302000401CB0603068284F002803D07069002829
:1030300026D02BE03560B068012827D10024142069
:103040006043C01900F0B4FC641C0A2CF7D31E487E
:10305000C83000F0ADFC1C48DC3000F0A9FC1A4878
:10306000F03000F0A5FC194800F0A2FC174814301D
:1030700000F09EFC15483C38B0631430F06305E066
:103080003068E96AC06A884200D83560706A401CBE
:103090007062E86A3169884200D93061142148437E
:1030A000C019291D00F0AAFC00F0C0FC70690028BE
:1030B00006D03068E96AC06A884201D200F0FCFCA0
:1030C000F8BD0000E8000020F8010020FC0200200C
:1030D00038B500F09FFC114C206800281AD1104828
:1030E00000F066FC0E48143000F062FC0C48E06012
:1030F00014300B4B20610020843B1A46009048326C
:103100000C21052000F0EEFD2060002802D005A172
:1031100000F0DEFC00F08AFC38BD00002801002031
:1031200070060020546D72510000000010B5026C52
:103130000C46002A0CD0C1688B18C36081688B4292
:1031400001D2194601E00168C1602046FDF748F848
:1031500010BDF8B5856B174604460026026C002AA0
:1031600011D0002F19D0E068FDF73AF8E168206C23
:10317000091AE1602268914202D2A168081AE0604F
:10318000022F17D019E02068002816D1A06801F09E
:103190004DF806460020A0600FE06068FDF720F8BB
:1031A000216C606840186060A168884205D320687F
:1031B000606002E0002D00D06D1E6D1CA5633046DE
:1031C000F8BD10B504464030407A002805D00128EB
:1031D00006D0022807D072B6FEE7206B00F034FC60
:1031E000204600F031FC10BD01210E4809034207C2
:1031F00005D0C01DC0080B4AC000821A891A0A4BAC
:103200000022411805C30839C908C900203B1960CC
:103210004A600A600A1A06C09A600120C0075A6014
:103220005861704798060020580100200F4E104D3D
:10323000F71FFD3F11E000F0EDFBF068C468201DB2
:1032400000F08CFBA868401EA8606868401E68609B
:1032500000F0ECFB2046FFF7B4FF68680028EAD1D5
:1032600038680128F9D900F027FCF6E7FC020020B5
:10327000E800002010B503460298002906D002603D
:10328000C3630164012100F04DFD10BD0060F7E74C
:10329000FFB581B00C9C9000236B001F1818C60866
:1032A0000A9DF600700701D072B6FEE72246203272
:1032B00000290DD0002027180B5C20373B750B5CD4
:1032C000002B02D0401C0528F5D30020107601E029
:1032D000002010750A2D00D30925E5620027276418
:1032E000201DE56300F06FFB2046183000F06BFBFB
:1032F00024610A20401B6462A0614820676407556E
:103300003046049A019900F029FA20600B980028B1
:1033100000D0046005B0F0BD30B5114900E01146A1
:103320000A688242FBD34B685C18844203D1406830
:1033300018184860084643681C18944209D1084C84
:10334000183C2468A24209D052689A1842600A6860
:1033500012680260814200D0086030BD0460F9E765
:103360005801002070B5002441600B4D006191426E
:1033700006D8D11A8269914206D2011D286907E058
:103380009A4203D2994201D3012403E0011DE86867
:1033900000F01CFB204670BD2801002010B504463B
:1033A00000F038FBA06B002804D0002400F03EFBA6
:1033B000204610BD0124F9E7F0B585B00125344E53
:1033C0005CE00198002859DB039C6069002802D06A
:1033D000201D00F0C3FA04A800F0C0F802460198CE
:1033E0000300FEF719FC0A060606282E3F060628EB
:1033F0002E4B274620373879284338710298A16927
:10340000034641182046FFF7ADFF002836D0216A59
:10341000204688473879400730D500200090029830
:10342000A169002342181946204600F0E5FF002854
:1034300024D172B6FEE72034207940084000207184
:103440001CE0204620300179294301710298A061D7
:10345000002805D0811813462046FFF783FF0DE0B2
:1034600072B6FEE7214620310879820703D4204650
:1034700000F0EAFA02E0400840000871002201A9C9
:10348000306800F060FD00289BD105B0F0BD000061
:1034900028010020FEB50F46054600F0D7FB01A825
:1034A00000F05CF804460198002802D000F022FFEA
:1034B000FEBD214E002F10D030690068002838D0A2
:1034C0000027291B3A46306800F014FB00F012FF79
:1034D0000028EDD100F0F0FAFEBDA542F1D800F0D1
:1034E00009FFF0682746C068C468201D00F036FA5E
:1034F000214620310879420714D5A0692B4641198D
:103500003A462046FFF72EFF00280ED00020034643
:10351000014600902A46204600F06EFF002804D1A4
:1035200072B6FEE7400840000871216A20468847CD
:10353000FEBD0127C5E70000280100200648816B79
:103540000968002904D0816BC968096881627047E5
:103550000021C943FAE70000E800002070B50546E5
:1035600000F000FE064E0446B068844203D200F02C
:1035700009F8012000E0002028602046B46070BDFA
:1035800028010020F8B5174E21E0C068C46805681E
:10359000201D00F0E3F9216A204688472420005DC1
:1035A000400714D5A0694019A84206D9246160607B
:1035B000211DF06800F00AFA09E0002003460146E8
:1035C00000902A46204600F017FF002807D0F06838
:1035D00001680029D9D13169F1603061F8BD72B656
:1035E000FEE700002801002003480068401C72B676
:1035F00000D0FEE7FEE700003C010020094CE06837
:103600000168002908D00021002907D00020FFF719
:1036100041FFFFF7D1FEF2E70121F5E7C06800683E
:10362000F5E7000028010020F8B5044600F0F2F9A3
:103630002646403605257557274624370BE0606A35
:1036400000280AD0384600F023FE002801D000F000
:1036500093FA6D1E6DB2002DF1DC0027FF437771E8
:1036600000F0E4F900F0D6F9042575572046103033
:1036700000900BE0206900280AD0009800F008FEB6
:10368000002801D000F078FA6D1E6DB2002DF1DC3B
:10369000377100F0CBF9F8BDF8B50446002600F00C
:1036A000D5FA2D4F3868002801D1FFF79DFD7869C4
:1036B000044248D1002C46D025460835A54242D9BF
:1036C00068070BD06907490F0820401A4019A84223
:1036D00039D90546400701D072B6FEE7002D32D039
:1036E000786885422FD81C4918310846046801E0E3
:1036F000214604466068A84202D220680028F7D11B
:10370000386884421FD00E682068086060680836F8
:10371000411B102908D96019420701D072B6FEE793
:1037200041606560FFF7F8FD61687868401A78606D
:10373000BA68904200D2B86078690143002003C49F
:10374000F868401CF86000F0D5FD700701D072B633
:10375000FEE73046F8BD00004001002010B501240E
:10376000031F24061C601B1F1960191F024B0B60EE
:10377000143940380A6010BDE935000001490020C5
:103780000876704740600040014900200874704787
:103790002060004001490020087770472060004009
:1037A0000149002008717047206000400149002055
:1037B00048747047206000400149002048777047F6
:1037C00020600040014900200871704740600040BF
:1037D0000149002008727047406000400149002004
:1037E000087370474060004001490020087470472A
:1037F000406000400149002008727047606000404E
:1038000001490020087570476060004001490020B0
:1038100008767047606000400149002008737047D7
:1038200060600040014900200874704760600040FB
:1038300018B51048002202730F4841886B464907AB
:10384000490F1970197841811878002800D018782C
:103850000A48807C18701B7809488479C11D63541C
:103860008179491CC9B28171802900D182710121FD
:10387000017118BD20600040001104400013044095
:103880001817002010B50A480022027209498878EA
:10389000CB7898420AD20B1D074CC35C2374401CA2
:1038A000C0B28870802800D38A7010BD4A7010BDE5
:1038B0002060004098160020001304401CB51349F6
:1038C000002008761248C1886A464907490F1170DE
:1038D0001178C1811078002800D010780D488079C7
:1038E00010710D4B18880D490A88904268460BD913
:1038F00004790B4A10680470401C10600888401C52
:103900000880188808881CBD00791CBD2060004014
:10391000001104404013044028000020260000202D
:103920007800002010B5094900200875084908886A
:10393000002809D0074A10680378074C2371401CFF
:1039400010600888401E088010BD00002060004004
:10395000C4000020C0000020401304404368826877
:1039600001699A60836842685A604A68824201D15C
:1039700082684A60002202610868401E0860086888
:1039800070470000034B03601846F03808603C2085
:103990001060704714040020034B03600348086064
:1039A0005020106070470000A00500206004002037
:1039B0000146083100224160D243C160826001614A
:1039C00000210160704700210161704730B50C682B
:1039D000621C02D00246083202E0026904E01A4684
:1039E00053681D68A542FAD953684B6099608A6094
:1039F000516008610168491C016030BD42684A603D
:103A000093688B6093685960916008610168491CF4
:103A10000160704772B604480168491CBFF34F8FBC
:103A2000BFF36F8F016070473C01002005490868B3
:103A3000002804D0401E086000D162B6704772B6FC
:103A4000FEE700003C01002070B500281DD00446B0
:103A50000E4D083C60686969084201D172B6FEE704
:103A60002268002A01D072B6FEE78843606000F049
:103A7000EDF860686968401868602046FFF74CFC04
:103A80002869401C286100F035FC70BD4001002011
:103A900010B5074C00202061A06106487D21C900B7
:103AA0000068FCF787FB401E60610720206110BDA5
:103AB00000E000E0B4010020012004490007486054
:103AC000BFF34F8FBFF36F8F7047000000ED00E032
:103AD00010B5074B0022D4001C59002C03D0521CF7
:103AE000082AF8D310BDD2009950D118486010BDF3
:103AF000B801002070B515460E460446FFF78AFF50
:103B000020464030042282560021521C00D101710F
:103B100005228256521C00D14171FFF787FFA06B2E
:103B2000002805D120462A463146243000F03CF8D2
:103B30002046FFF779FD70BD10B502000FD009488F
:103B4000406B002801D072B6FEE700F07FF800213C
:103B50001046FFF733FA00F0CDFB002801D1FFF744
:103B6000ABFF10BDE800002002490A6A0260C96884
:103B700041607047E800002001490120C86170479A
:103B8000E800002010B50C46002809D00549096856
:103B90001831FFF71BFF01212046FFF70FFA10BD78
:103BA00072B6FEE7E800002070B514460D46002806
:103BB0000DD0084909681831FFF720FF002C01D00B
:103BC0000025ED4321462846FFF7F8F970BD72B68F
:103BD000FEE70000E800002030B587B016480390EB
:103BE000F038049005AA04A903A8FFF7CBFE00252E
:103BF000049903980095019102902B460FA111485A
:103C0000059A00F07CFA104C0028E06203D000F026
:103C1000C7FB012802D0401C0CD008E072B600207F
:103C2000C043A06201206061E56000F043F8206BB2
:103C300007B030BD72B6FEE71404002049444C457D
:103C4000000000002D320000E80000200248416B17
:103C5000491C416370470000E800002010B5134B79
:103C6000586B002802D00120D86110BD0020D86117
:103C700018690F4902E0002815D0401E1422424363
:103C80008A58002AF7D01422424351184A680C4639
:103C9000526808344A60A24201D152684A60D16831
:103CA0001960186110BD72B6FEE70000E800002040
:103CB000F801002010B50948016AFF2212041143DF
:103CC0000162016A120211430162FFF7E1FE044939
:103CD00000200860FCF700FA002010BD00ED00E0B5
:103CE0003C010020F8B5069D002806D0002B06D028
:103CF000002A08D0002904D009E072B6FEE772B6A7
:103D0000FEE772B6FEE7002901D072B6FEE748244E
:103D10001C46012640339E712B460094FFF7AAFAF9
:103D20002046F8BD70B50D46040026D0FFF772FEA0
:103D3000216CE06B484321684118A1600021A16318
:103D400021686160E06B216C401E48432168224677
:103D500041180020C0434032E1601071507120468C
:103D60001030002D0BD0FFF723FE20462430FFF744
:103D70001FFEFFF75BFE012070BD72B6FEE72169F2
:103D80000029F6D000F084FA0028F2D0FFF794FE64
:103D9000EFE7FFB5002583B01E460446002803D098
:103DA0000498002802D006E072B6FEE7206C0028D6
:103DB00001D072B6FEE7022E04D1E06B012801D0DB
:103DC00072B6FEE700F0BEF9002804D1059800287D
:103DD00001D072B6FEE7FFF71DFEA06BE16B8842D3
:103DE00007D3022E05D00598002817D0002D18D033
:103DF0001BE0324620460499FFF7ABF9616A0029BF
:103E000003D02046243000F043FA002801D0FFF709
:103E100053FEFFF70BFE012007B0F0BDFFF706FED3
:103E200022E06846FFF7A0FE0125FFF7FFFDFFF740
:103E30000DFFFFF7EFFD2046403004214156491C9D
:103E400000D1017105214156491C00D14171FFF794
:103E5000EDFD05A9684600F0F9F8002806D02046D7
:103E6000FFF7E2FB00F046FA0020D5E7FFF7D2FDAE
:103E7000A06BE16B884201D1012700E00027FFF72A
:103E8000D5FD002F0ED0204610300599FFF77AFEA1
:103E90002046FFF7C9FB00F02DFA00289BD1FFF761
:103EA0000BFE98E72046FFF7BFFB00F023FA92E7EE
:103EB000FFB581B01E46040003D00298002802D04E
:103EC00006E072B6FEE7206C002801D072B6FEE76D
:103ED000022E04D1E06B012801D072B6FEE7FCF798
:103EE0000FF90090A06BE16B884208D3022E06D038
:103EF00000240098FCF708F9204605B0F0BD2046E4
:103F00004030052545570746A06B324620460299AA
:103F1000FFF71FF9681C05D07F2D12D06D1C7D7135
:103F20000124E6E7606A0028FAD02046243000F039
:103F3000AFF90028F4D003980028F1D001210160E6
:103F4000EEE772B6FEE7F7B5002582B0044600281A
:103F500003D00398002802D006E072B6FEE7206C7A
:103F6000002801D072B6FEE700F0ECF80026002829
:103F700004D10498002801D072B6FEE7FFF74AFD8D
:103F8000A76B002F15D020460399FFF7CFF87F1EAF
:103F9000A7632069002807D02046103000F078F988
:103FA000002801D0FFF788FDFFF740FD012005B094
:103FB000F0BD0498002802D0002D03D006E0FFF7E2
:103FC00035FD27E06846FFF7CFFD0125FFF72EFD01
:103FD000FFF73CFEFFF71EFD20464030042141560E
:103FE000491C00D1067105214156491C00D146717A
:103FF000FFF71CFD04A9684600F028F800282046B9
:104000000AD0FFF711FB00F075F92046FFF7C6F95B
:104010000028B3D00020CAE7FFF7C0F900280ED06F
:10402000204624300499FFF7ADFD2046FFF7FCFA47
:1040300000F060F90028A1D1FFF73EFD9EE7204681
:10404000FFF7F2FA00F056F998E70000F8B50C46D1
:10405000050014D0002C14D0FFF7DCFC124EF168E0
:104060006B682068CA1A471C0DD02F68366AB742A1
:104070000BD08B4209D801250020206010E072B6D9
:10408000FEE772B6FEE700250AE0904205D9801AE5
:1040900020602846FFF768FDF5E700200125206035
:1040A000FFF7C4FC2846F8BDE8000020FFB585B046
:1040B000164690000F9FFFF7EFFA05001CD04C202A
:1040C000FFF7EAFA040014D00020492125630855BF
:1040D0000E9900910390019702943246089B06992D
:1040E0000598FFF7D5F82046FEF794FF012009B0A8
:1040F000F0BD2846FFF7A8FC0020C043F7E7F0B565
:1041000085B007460B9D0C9C0A98002D15D0002CFD
:1041100015D04C262563022549263555002504AEC9
:1041200000900196039502943846FFF7B1F82046B7
:10413000FEF770FF049805B0F0BD72B6FEE772B6E8
:10414000FEE7000006484169002904D0406B0028C2
:1041500003D0002070470120704702207047000004
:10416000E80000200148C06870470000E800002017
:10417000F8B52C4F0026786B002804D0B869401C95
:10418000B8613046F8BDFD686D1CFD600ED1B86B9E
:104190000068002801D072B6FEE7B86BF96BB9630E
:1041A000F863386A401C3862FFF7C8F9B86A85427C
:1041B0000AD3B86B0068002814D0B86BC068C46814
:1041C0006068854211D2B86238681421C06A4843D9
:1041D00015490858012800D90126F8690028D0D0CF
:1041E0000126CEE70020C043EDE7201DFFF7B6FB18
:1041F000A06A002803D020461830FFF7AFFBE06A22
:104200003969884200D93861142148430649401869
:10421000211DFFF7F3FBE06A3968C96A8842C8D3F9
:104220000126C6E7E8000020F801002070B504462A
:104230000020002C25D0144D29688C4201D072B684
:10424000FEE7216C00291DD0491E2164E36BE26A60
:104250009A4216D0002914D1201DFFF77FFBE06B96
:104260000A21E062081AA061E06A2969884200D93F
:1042700028611421484305494018211DFFF7BEFB62
:10428000012070BD72B6FEE7E8000020F8010020B2
:1042900070B5C068C468002C0BD0204618300646A4
:1042A000FFF75CFB114D686B002804D031461048C5
:1042B0000FE072B6FEE7201DFFF750FBE06A2969A8
:1042C000884200D92861142148430949F03940182F
:1042D000211DFFF793FBE06A2968C96A884202D969
:1042E0000120E86170BD002070BD0000E8000020E2
:1042F000E8020020F8B5284D0024686B2746002806
:1043000008D0FFF787FB686B401E6863686B002866
:1043100002D03CE072B6FEE7A868012600281BD157
:1043200035E0C068C46820461830FFF717FB201D31
:10433000FFF714FBE06A2969884200D9286114213B
:10434000484316494018211DFFF758FBE06A2968C9
:10435000C96A884200D3EE611048F0300168002934
:10436000DFD1002C01D0FFF7E9F8AC69002C08D0B0
:10437000FFF7FEFE002800D0EE61641EF8D1002099
:10438000A861E869002802D00127FFF795FBFFF735
:104390004DFB3846F8BD0000E8000020F801002081
:1043A00010B586B0FEF794FE0F4C2068002819D097
:1043B00000200390049005AA04A903A8FFF7ECFAD3
:1043C0000220039A0499009002920191002307A110
:1043D0000848059AFFF793FE6060002802D001208C
:1043E00006B010BD72B6FEE728010020546D7220A1
:1043F00053766300FD350000FEB51D4603460020E0
:10440000089E002B13D0104C2768002F0ED002936B
:104410000192009106290FDAFFF794FE022808D0D6
:1044200000231A4669462068FFF7B3FCFEBD72B64A
:10443000FEE700233246F5E700232A466946384660
:10444000FFF736FDFEBD000028010020010002003C
:10445000040008001000200040008000000100025D
:10446000000400080010002000400080BC44000050
:104470000A4D43555F4E616D653A20202020202073
:104480002020202020204241543332413233374B08
:104490004834304E422E202020202020284B453208
:1044A000344E412F333246502F34304E422F343861
:1044B00046412F3634464229000000005461736B98
:1044C0005F49324353000000E84400000000002030
:1044D000B8010000CA02000004450000B801002035
:1044E000101F0000421C00009AFF0101FFD10223AF
:1044F000091AAA01013C3206137C01F32001EB01E9
:044500000112011291
:04000005000000C532
:00000001FF
