:020000040000FA
:10000000700500206901000071010000730100000B
:1000100000000000000000000000000000000000E0
:100020000000000000000000000000007B01000054
:1000300000000000000000007F010000210A000015
:10004000890400009D040000BD040000DD040000E0
:10005000FD0400001D0500003D0500005D050000D9
:100060007105000085050000A9050000BD05000020
:10007000D1050000F5050000090600001D0600007E
:1000800041060000610600007506000089060000B8
:100090009D060000B1060000C5060000E90600004C
:1000A0000D0700002D070000510700006507000044
:1000B000790700008D070000A1070000B5070000C8
:1000C000EF3FE9FF00F002F800F03EF80CA030C866
:1000D000083824182D18A246671EAB4654465D46C4
:1000E000AC4201D100F030F87E460F3E0FCCB64650
:1000F0000126334200D0FB1AA246AB4633431847D1
:10010000E40C0000040D0000103A02D378C878C156
:10011000FAD8520701D330C830C101D504680C6049
:10012000704700000023002400250026103A01D368
:1001300078C1FBD8520700D330C100D50B6070479F
:100140001FB51FBD10B510BD00F0FEF81146FFF73A
:10015000F7FF00F0CDFD00F016F903B4FFF7F2FF52
:1001600003BC00F01BF900001948804719480047FC
:10017000FEE7FEE7FEE7FEE7FEE7FEE7FEE7FEE757
:10018000FEE7FEE7FEE7FEE7FEE7FEE7FEE7FEE747
:10019000FEE7FEE7FEE7FEE7FEE7FEE7FEE7FEE737
:1001A000FEE7FEE7FEE7FEE7FEE7FEE7FEE7FEE727
:1001B000FEE7FEE7FEE7FEE7FEE7FEE7FEE7FEE717
:1001C000FEE7000004480549054A064B7047000059
:1001D000550A0000C50000007000002070050020D6
:1001E0007001002070010020002203098B422CD3F3
:1001F000030A8B4211D300239C464EE003460B4377
:100200003CD4002243088B4231D303098B421CD3D8
:10021000030A8B4201D394463FE0C3098B4201D3CA
:10022000CB01C01A524183098B4201D38B01C01A02
:10023000524143098B4201D34B01C01A5241030979
:100240008B4201D30B01C01A5241C3088B4201D328
:10025000CB00C01A524183088B4201D38B00C01AD5
:10026000524143088B4201D34B00C01A5241411AFC
:1002700000D201465241104670475DE0CA0F00D0DF
:100280004942031000D34042534000229C460309D8
:100290008B422DD3030A8B4212D3FC22890112BA5E
:1002A000030A8B420CD3890192118B4208D3890136
:1002B00092118B4204D389013AD0921100E089094E
:1002C000C3098B4201D3CB01C01A524183098B422F
:1002D00001D38B01C01A524143098B4201D34B0118
:1002E000C01A524103098B4201D30B01C01A52417B
:1002F000C3088B4201D3CB00C01A524183088B4202
:1003000001D38B00C01A5241D9D243088B4201D38A
:100310004B00C01A5241411A00D201466346524175
:100320005B10104601D34042002B00D54942704774
:1003300063465B1000D3404201B50020C046C04672
:1003400002BD704770477047754600F023F8AE460F
:10035000050069465346C008C000854618B020B560
:10036000FFF730FF60BC00274908B6460026C0C52D
:10037000C0C5C0C5C0C5C0C5C0C5C0C5C0C5403D5D
:1003800049008D4670470446C046C0462046FFF7E8
:10039000E4FE0000004870471000002001491820CA
:1003A000ABBEFEE7260002007047000000210148B6
:1003B000417070472460004000210148417070473F
:1003C0005C6000400021014841707047646000405B
:1003D00000210148417070476060004000B5C022B4
:1003E0009178F82211401C4A127811431B48EA29DF
:1003F00023D00ADC0A46E03A130000F0E1FB0A18B9
:100400001C20242A2A2A2A161A2AED291FD004DCA5
:10041000EB2916D0EC291CD117E0F02903D0F829DC
:1004200017D10F4815E00F4813E00D4811E00E48B2
:100430000FE00E480DE00E480BE00E4809E00E48B4
:1004400007E00E4805E00E4803E00E4801E00348CF
:1004500000BF00BF00BD0000201C024040420F0052
:100460000048E801006CDC0200366E010024F40054
:10047000001BB70000127A00808D5B0000093D0070
:10048000C0C62D0080841E0010B5034800780028E7
:1004900001D000F027FC10BD0060004010B50648F8
:1004A0000079002801D000F0C9FB034840790028FA
:1004B00001D000F0F3FB10BD0060004010B506480D
:1004C000007A002801D000F0CBFB0348407A0028D6
:1004D00001D000F0E9FB10BD0060004010B50648F7
:1004E000007B002801D000F0C1FB0348407B0028BE
:1004F00001D000F0DFFB10BD0060004010B50648E1
:10050000007C002801D000F0B7FB0348407C0028A5
:1005100001D000F0D5FB10BD0060004010B50648CA
:10052000007D002801D000F0ADFB0348407D00288D
:1005300001D000F089FB10BD0060004010B50648F6
:10054000007E002801D000F0A3FB0348407E002875
:1005500001D000F07FFB10BD0060004010B50348E3
:10056000007F002801D000F057FB10BD0060004064
:1005700010B503480078002801D000F053FB10BDEF
:100580002060004010B507480079002801D000F035
:10059000D5FB0448001D4078002801D0FFF706FF76
:1005A00010BD00002060004010B50348007A00280C
:1005B00001D000F011FC10BD2060004010B50348D0
:1005C000007B002801D000F001FC10BD206000403D
:1005D00010B50748007C002801D000F0A3FB0448B8
:1005E00010304078002801D000F0AEFB10BD0000B4
:1005F0002060004010B50348007D002801D000F0C5
:1006000085FB10BD2060004010B50348007E002827
:1006100001D000F081FB10BD2060004010B50748FC
:10062000007F002801D000F083FB04481C30407894
:10063000002801D000F08EFB10BD000020600040BB
:1006400010B506480078002801D000F0F1FA034800
:100650004078002801D000F0D3FA10BD406000407F
:1006600010B503480079002801D000F079FB10BDD7
:100670004060004010B50348007A002801D000F027
:1006800075FB10BD4060004010B50348007B00289A
:1006900001D000F071FB10BD4060004010B5034870
:1006A000007C002801D000F06DFB10BD40600040D0
:1006B00010B50348007D002801D000F08FFA10BD6E
:1006C0004060004010B50748007E002801D000F0CF
:1006D00017FB044818304078002801D000F0F6FAE3
:1006E00010BD00004060004010B50748007F0028A2
:1006F00001D000F0F1FA04481C304078002801D005
:10070000FFF75AFE10BD00004060004010B50648DB
:100710000078002801D000F067FA034840780028EC
:1007200001D0FFF755FE10BD6060004010B50748CE
:100730000079002801D000F05DFA0448001D4078DF
:10074000002801D0FFF73EFE10BD000060600040B1
:1007500010B50348007A002801D000F019FB10BD45
:100760006060004010B50348007B002801D000F015
:1007700021FB10BD6060004010B50348007C0028DC
:1007800001D000F01DFB10BD6060004010B50348B3
:10079000007D002801D000F001FB10BD606000402A
:1007A00010B50348007E002801D000F0FDFA10BD0E
:1007B0006060004010B50348007F002801D000F0C1
:1007C00025FA10BD6060004070B500F03BF97D2156
:1007D000C9000C480068FFF707FD05462C46601E5F
:1007E0000949884200D90CE0601E0849486103218C
:1007F000081F00F00DF800200449886107200861F7
:1008000000BF70BD0C000020FFFFFF0000E000E013
:1008100010B5002819DA1A4A03071B0F083B9B087A
:100820009B00D2588307DC0EFF23A3409A438B071B
:100830001B0E8407E40EA3401A43114B0407240F38
:10084000083CA408A4001A5118E00E4A03231B0216
:10085000D21883089B00D2588307DC0EFF23A340E5
:100860009A438B071B0E8407E40EA3401A43054BE3
:10087000032424021B198408A4001A5110BD00008F
:100880001CED00E000E100E0F0B50C461546012348
:10089000A340D9B22A462B0000F092F906042C544A
:1008A000787E9EBD5D4B1B5C8B435C4E33545B4B33
:1008B000603B192676019B191B5C0B43574E603E2B
:1008C00019277F01F6193354544B203B1B5C8B4393
:1008D000524E203E3354514B103B1B5C8B434F4ECA
:1008E000103E33544D4B303B1B5C8B434B4E303EE4
:1008F000335490E0494B1B5C8B43484E3354474B79
:10090000603B192676019B191B5C0B43434E603EEE
:1009100019277F01F6193354404B203B1B5C8B4356
:100920003E4E203E33543D4B103B1B5C8B433B4EB5
:10093000103E3354394B303B1B5C0B43374E303E3B
:10094000335468E0354B1B5C8B43344E3354334B8C
:10095000603B192676019B191B5C0B432F4E603EB2
:1009600019277F01F61933542C4B203B1E5C0E4394
:100970001E542A4B103B1E5C8E431E54274B303BAB
:100980001B5C8B43254E303E335444E0234B1B5CB1
:100990000B43224E33543EE0204B1E5C8E431E54CC
:1009A0001E4B603B192676019B191B5C8B431B4E2B
:1009B000603E19277F01F6193354184B203B1B5C0E
:1009C0008B43164E203E3354144B103B1B5C8B4321
:1009D000124E103E33541EE0104B1B5C8B430F4EE7
:1009E00033540E4B603B192676019B191B5C8B43DD
:1009F0000A4E603E19277F01F6193354074B203BFE
:100A00001B5C8B43054E203E3354044B103B1E5C55
:100A10000E431E5400BF00BFF0BD00006000044044
:100A2000AC200649487006480068002804D00448F5
:100A30000068401E02490860704700000010024034
:100A40000000002010B5FFF7C9FC0149086010BD87
:100A50000C00002010B580201B4948711A201A494B
:100A6000203908722B2048723C2088724D20C872B1
:100A7000002016494860FFF7B1FC154908600020C6
:100A8000C0431449086014490860144814490860B8
:100A9000114903221202891848600F498918886099
:100AA0000D498918C8600C49891808610A498918D4
:100AB000486109498918886107498918C861AC20CB
:100AC0000849487010BD00002004024000B00140F9
:100AD0000C00002080E200E000E100E0C0C0C0C0E7
:100AE00000E400E00010024010B5012200210720C0
:100AF000FFF7CAFE042201210720FFF7C5FE0422EA
:100B000002210720FFF7C0FE00200149086010BD48
:100B10000000002027480068002840D17D20C00048
:100B2000244908602448007800281CD100BF2348CD
:100B3000032109024018C079022188431F4903227A
:100B400012028918C87100BF00BF1C481146401826
:100B5000C0790421084319498918C87100BF0120D0
:100B6000154908701BE000BF144803210902401812
:100B7000C079022108431149032212028918C87161
:100B800000BF00BF0D4811464018C07904218843BA
:100B90000A498918C87100BF00200749087000BFC2
:100BA0000648032109024018C079C007C00F002879
:100BB000F6D070470000002008000020000004402C
:100BC00030B47446641E2578641CAB4204D3635D64
:100BD0005B00E31830BC18471D46F8E700200149C8
:100BE0000875704740600040002001490870704758
:100BF000606000400020014908717047606000405B
:100C000000210148417070474060004000200149C8
:100C100008777047606000400020014908777047FE
:100C200000600040002001490870704720600040CB
:100C300000200149087070474060004000200149D1
:100C400008717047006000400021014841757047FD
:100C5000006000400021014841767047006000407C
:100C600000200149087270470060004000200149DF
:100C70000873704700600040002001490874704705
:100C80000060004000200149087570470060004086
:100C900000200149087670470060004000210148AB
:100CA0004171704700600040002101484172704767
:100CB000006000400021014841737047006000401F
:100CC0000021014841747047006000400021014844
:100CD0004170704758600040002001490877704714
:100CE00040600040002001490870704700600040EB
:100CF000FFF76AFDFFF7F8FE00BFFFF70BFFFCE709
:100D000000200149087670474060004000200149FA
:100D10000875704720600040002001490876704740
:100D200020600040002001490874704720600040A6
:100D300000200149087770472060004000200149E9
:100D400008717047206000400021014841707047E1
:100D50003060004000210148417070473C60004015
:100D6000002001490871704740600040002001499F
:100D700008727047406000400020014908737047C6
:100D80004060004000200149087470474060004006
:100D9000002001490872704760600040002001494E
:100DA0000875704760600040002001490876704770
:100DB0006060004000200149087370476060004097
:100DC000002001490874704760600040002001491C
:100DD0000873704720600040002001490872704786
:100DE00020600040040E0000000000201000000001
:100DF00008010000140E0000100000206005000033
:100E000024010000000000000000000000000000BD
:040E100000000000DE
:04000005000000C532
:00000001FF
