:020000040000FA
:10000000501800209D010000A5010000A70100007C
:1000100000000000000000000000000000000000E0
:10002000000000000000000000000000AF01000020
:100030000000000000000000B3010000712D00006E
:100040007526000089260000A9260000C9260000A8
:10005000E9260000092700002927000049270000A1
:100060005D2700007127000095270000A9270000E8
:10007000BD270000E1270000F52700000928000047
:100080002D2800004D280000612800007528000080
:10009000892800009D280000B1280000D528000014
:1000A000F9280000192900003D290000512900000D
:1000B00065290000792900008D290000A129000090
:1000C000EF3FE9FF00F002F800F03DF80CA030C867
:1000D000083824182D18A246671EAB4654465D46C4
:1000E000AC4201D100F02FF87E460F3E0FCCB64651
:1000F0000126334200D0FB1AA246AB4633431847D1
:1001000030EB000050EB0000002300240025002607
:10011000103A01D378C1FBD8520700D330C100D5C3
:100120000B60704710B5642902D100F0ADF810BD26
:10013000782902D100F0DEF810BD002010BD1FB5F7
:100140001FBD10B510BD01F0CFFA1146FFF7F7FF44
:100150000CF008FD01F0E7FA03B4FFF7F2FF03BC6F
:1001600007F04AFA70B505460C46164602E00FCC79
:100170000FC5103E102EFAD2082E02D303CC03C5B1
:10018000083E042E07D301CC01C5361F03E02178B9
:100190002970641C6D1C761EF9D270BD1948804709
:1001A00019480047FEE7FEE7FEE7FEE7FEE7FEE749
:1001B000FEE7FEE7FEE7FEE7FEE7FEE7FEE7FEE717
:1001C000FEE7FEE7FEE7FEE7FEE7FEE7FEE7FEE707
:1001D000FEE7FEE7FEE7FEE7FEE7FEE7FEE7FEE7F7
:1001E000FEE7FEE7FEE7FEE7FEE7FEE7FEE7FEE7E7
:1001F000FEE7FEE7FEE7000004480549054A064B16
:1002000070470000B92E0000C50000005013002008
:100210005018002050140020501400200FB405493D
:1002200010B503AA029801F09DF910BC08BC04B0F7
:10023000184700002401002070B504468569006855
:10024000C10601D5302600E02026C00707D070BDCA
:1002500062683046A1689047206A401C20626D1E8B
:10026000F6D570BD70B5044685690078C00707D122
:1002700070BD6268A16820209047206A401C2062FF
:100280006D1EF6D570BD0000F7B500257529106804
:10029000009914A611D0C046C046002802DA404298
:1002A00011A608E0009909688A0701D50FA602E0A7
:1002B000490704D50EA6012501E0C046C046009FAF
:1002C0000024243704E001F073F930313955641CFF
:1002D0000028F8D12B4632462146009801F0E9F873
:1002E000FEBD0000000000002D0000002B000000FB
:1002F0002000000070B504460D4621461068C04637
:10030000C0462188090502D50F4A7A4402E00E4A08
:100310007A440E3223460021243305E00607000903
:10032000360F965D5E54491C0028F7D120780023D3
:10033000000705D5702D03D0002901D0022311320A
:10034000204601F0B6F870BD2EE70000F3B5044674
:10035000002081B020622046E168884700287DD0D7
:10036000252802D06268A16883E0454F00257F44BC
:100370002046E16888472028064608DB312E06D251
:10038000B81920380078002801D00543F0E7A80705
:1003900001D5042085430020E0610746A0612A2E94
:1003A0000AD0304607F020F9002827D0B8000019FD
:1003B000303E0090866119E00298BA00121902C816
:1003C000916102902046E1688847012F064617D1C7
:1003D000E06900281FDA202085431CE000980A21EC
:1003E0008069484300998019303888612046E16867
:1003F0008847064607F0F8F80028EFD1012F0AD009
:100400002E2E08D12046E168884706462020054365
:100410007F1C022FC3DBA069002803DA4042A061E1
:1004200001200543E80701D010208543002E24D089
:1004300030464138192803D80120C0020543203630
:10044000204625603146029A1546FFF76BFE0028CC
:100450000CD0012807D0ED1DE80800E00DE0C00039
:100460000830029077E72D1D029574E762683046E8
:10047000A1689047206A401C6CE7206AFEBD00001E
:10048000F2E600000EB5044615460E4612A001F035
:1004900085F8204601F082F815A001F07FF830467B
:1004A00001F07CF814A001F079F86C460020E072AD
:1004B0000A20A0720A3407E00A21284600F06BF8EF
:1004C00030310546641E2170002DF5DC204601F018
:1004D00065F801F05BF800002A2A2A206173736531
:1004E0007274696F6E206661696C65643A20000001
:1004F0002C2066696C6520002C206C696E652000DC
:10050000F8B5042A2CD3830712D00B78491C03704A
:10051000401C521E83070BD00B78491C0370401CF3
:10052000521E830704D00B78491C0370401C521ED6
:100530008B079B0F05D0C91ADF002023DE1B08C9DB
:100540000AE0FFF70FFEF8BD1D4608C9FD401C4636
:10055000B4402C4310C0121F042AF5D2F308C91A64
:10056000521EF0D40B78491C0370401C521EEAD472
:100570000B78491C0370401C012AE4D409780170EF
:10058000F8BD002203098B422CD3030A8B4211D3FE
:1005900000239C464EE003460B433CD40022430814
:1005A0008B4231D303098B421CD3030A8B4201D304
:1005B00094463FE0C3098B4201D3CB01C01A52419C
:1005C00083098B4201D38B01C01A524143098B42EC
:1005D00001D34B01C01A524103098B4201D30B01D5
:1005E000C01A5241C3088B4201D3CB00C01A5241FA
:1005F00083088B4201D38B00C01A524143088B42BF
:1006000001D34B00C01A5241411A00D20146524157
:10061000104670475DE0CA0F00D04942031000D376
:100620004042534000229C4603098B422DD3030ACB
:100630008B4212D3FC22890112BA030A8B420CD3DB
:10064000890192118B4208D3890192118B4204D304
:1006500089013AD0921100E08909C3098B4201D384
:10066000CB01C01A524183098B4201D38B01C01ABE
:10067000524143098B4201D34B01C01A5241030935
:100680008B4201D30B01C01A5241C3088B4201D3E4
:10069000CB00C01A524183088B4201D38B00C01A91
:1006A0005241D9D243088B4201D34B00C01A524168
:1006B000411A00D20146634652415B10104601D3F5
:1006C0004042002B00D54942704763465B1000D37F
:1006D000404201B50020C046C04602BD7047704789
:1006E000704700000246C80FC00781434B0030B579
:1006F0004B405B009B0D20D01923DB06C91801235A
:100700001B05994220DB0324A40704251346AB40B4
:100710000BD3002B04D1EB0613409B00E34204D41F
:1007200001246407002312195941FF231B05994234
:100730000BD2C9000143500F09E0CB0204D501439D
:100740000803024305D0054830BDFF21C905084311
:1007500030BD084607210905884330BD0000C07F31
:10076000F0B50C46871A9C410D46861A9D4103D26E
:10077000C01BA141D21963410D0D1F0DC94EEC1BC9
:10078000AE435CD07F057F0D0026002F51D02D0594
:10079000AC46A943DD020123ED0A1B051D432023BE
:1007A0001B1B24D41746E740381871412F46E740F9
:1007B000CC199D402818314661410C0D27D1614468
:1007C0009A4013D50023401C594152000ED14008D5
:1007D000400001224B005205D34207D305204007B9
:1007E000C14201D5B04900E0B0493046F0BD6B00D0
:1007F000002A00D001229A181F23203C1B1B01D580
:10080000002302E0E540281871410C0DD7D00124E7
:1008100024050919C407CD0740084908E40F2843F7
:100820006144002CD5D00024401C61419A40D0D1B5
:10083000CDE76A05520DD9D1C90FC907D5E79C4D3F
:100840004E00002801D0012400E0002434195F008C
:10085000002A01D0012600E00026BE19954FAC42C7
:100860000CD8AE420AD8B44206D001256D05EC4240
:10087000BCD010461946F0BD9942FCD00020394644
:10088000F0BDF0B51FB40C460F46811A9F412546B6
:10089000861A9D4106D20125ED076F40401ABC41E2
:1008A00052187B41210D1E0D8D1BAC467D4D8D4395
:1008B0007ED075056D0D7CD00D05AE46AC431B0397
:1008C0001B0B794D52429D41202366469B1B14D33E
:1008D0001746F740381800260090744160462F46AE
:1008E0000741E41900989D402818664116D47146C6
:1008F00071189A4025D5012320E093182A466A41B1
:100900005200002B00D0521C1E23203E9B1B002BAC
:1009100061DD3541EE1728186641E8D500187641AB
:100920005B1C9A4000D3401C4B05F3181524E34090
:1009300010D3002B52D071467118D30FC01802D3B8
:10094000491C05B0F0BD0123DB079A42F9D14008EC
:100950004000F6E701225205B21801D1002853D019
:100960000123CC0ADB029943891E002A08D1020C1C
:1009700003D0020C0004103902E0024600202039A6
:100980000023550B05D112020823550B01D152014A
:100990000D23550C01D112011B1DD50C01D1920064
:1009A0009B1C150D01D152005B1C2025EE1A01E0A5
:1009B0002CE022E00546F54015439840CA1AE107AD
:1009C00069181305C918002ABBDA03204007081864
:1009D000C10FC9070FE071466118B2E7F10740087F
:1009E0000843711071444A000CD001235B059A4200
:1009F000A7D2C90FC9070020A3E74905490D26D191
:100A0000002001E00028F4D100219AE7284D66007B
:100A1000002801D0012100E0002171185F00002AA8
:100A200001D0012600E00026BE19224FA94210D8AD
:100A3000AE420ED8B14208D001256D05E94206D07C
:100A40001946A802414010467BE79C4201D021464E
:100A500077E70020394674E710B50C465C4005D5B1
:100A60000124E4076340FFF70CFF10BDFFF778FE99
:100A700010BD30B40C465C4004D50124E40763404B
:100A800030BC6DE630BCFCE670B50124E407614083
:100A90000D465D4002D4FFF763FE70BD6340FFF773
:100AA000F0FE70BDFF0700000000F0FF0000F07FC7
:100AB0000000E0FF0000F87FF0B5F94D0C091E09B9
:100AC0002C402E402F468BB0A7437DD0B543FCD0A1
:100AD000002E7AD0002CFCD00D465D40ED0F254352
:100AE000AC1BFF25AD0464190894C502440DC9026E
:100AF0002143500DDC0204430120C007014304439D
:100B0000D2020191200C110C00958C460104234661
:100B10008B430A9161460904E24D8A430991010A17
:100B20007D4449198039097805464D4301266D18E1
:100B3000F605751B6943C90C640B891C4C4364188A
:100B4000B5012C1B250C2E04B4434C434D43210C02
:100B5000691889090591009DE90701D00121C9079C
:100B600004912C4601996708CD072F434C08059D39
:100B7000E10B4D432D0C29466646754302950D4603
:100B800045432E46029D7D1BB44100950D465D43B5
:100B900001942C0C2F040D465543AE462D0C3D43BD
:100BA000029503947546049C2D04641B049406D29C
:100BB000029C039D641C002675410395029401ACC0
:100BC00070CC009F7D1B01E03EE162E1B44109046D
:100BD0000095079101940599A4086143090C0C46FE
:100BE0004443650BE7040C4666467443A646640B13
:100BF0003C43039502947446049DE4042C1B049426
:100C000006D2029C039D641C002675410395029444
:100C100001AC70CC009F7D1BB44101940C465C4339
:100C20000095650FE7000C465443A646640F3C430D
:100C3000039502947446049DE4002C1B049406D290
:100C4000029C039D641C002675410395029401AC2F
:100C500070CC009F7D1BB441AE09AF06049DC90056
:100C6000AD092F43049DA406AD060495079D3443AA
:100C700069180791059DE10B4D432D0C29466646E9
:100C8000754302950D4645432E46029D7D1BB4419A
:100C900000950D465D4301942C0C2F040D465543E1
:100CA000AE462D0C3D43029503947546049C2D04DD
:100CB000641B049406D2029C039D641C00267541AB
:100CC0000395029401AC70CC009F7D1BB44101944C
:100CD0008C050694079C890A611800950791019C70
:100CE0000599A4086143090C0D464543680BEF04C0
:100CF0000D46644665436C0B3C43049FED047D1B2D
:100D0000AC4602D20025641C6841009E019D371B41
:100D100085410846584301950C46460FC50054438B
:100D2000600F28436546E4002C1B02D20025401CBE
:100D30006E41019D3F1AB5412846BD0980062843F2
:100D40008446A009BF064E020699A40676180743FA
:100D5000079D002068410A99079019430020099BCC
:100D600000906046FF1913434041E20F64003A438C
:100D7000A4460446D71A8C41A04203D90120009012
:100D800020463A46C70F941840416246D20F22438C
:100D9000644664000494009CBE466400D71AA446CE
:100DA000044602978C417746002F01D1A04204D916
:100DB0006046401C8446029A2046C40FA6469418FA
:100DC0004041049A0546D20F224364466400D31A78
:100DD0008D417146002901D1A84202D928461A4600
:100DE000641C10430122002800D016436102002039
:100DF000079B891904465C410223002C02DB491839
:100E000013466441089DCE0A2D145D194B056705F4
:100E1000E10A2C050D1908993E43C9076940002BCA
:100E200008D0934006D30022761C5141002B01D1FB
:100E3000760876001C4A002D43DB154241D0AA43B8
:100E40003FD030460BB0F0BD06180D464D41174C53
:100E50007642AC411AD395181C465C41134A6D4248
:100E6000A24113D3012252054C00D4420AD15C00A6
:100E7000D4420BD04B4002D592021143E2E7490025
:100E80004908DFE75940C90FC90718E000200849A1
:100E9000D8E7054801420DD10342F7D0F2E7000040
:100EA0000000FF0751DF00000000F07F0000E0FFBE
:100EB0000000F87F114859400143C0124140002012
:100EC000C0E70123089A9B069A4205DC03225207D9
:100ED0008918C90FC907B5E7052252078918074ABB
:100EE0001143D2125140ADE770B515461C4602467B
:100EF0000B4628462146FFF7DFFD70BDFFFFFF7F51
:100F000030B50346CA02400D1043164D164C0A1563
:100F100002D02043002A06DBAA1A002A12DDD040A4
:100F2000FF2A0BDC30BD5205520D01D140004008B4
:100F3000AA1A07D4D0404042FF2A01DD002030BD6C
:100F40000028FCDD4A00002B01D0012000E0002039
:100F5000101801225205D042F0D8C817C043604093
:100F600030BD00001E040000000000800346CA02DD
:100F7000400D10B510430A1504D00124E4072043A6
:100F8000002A05DB0A4CA21A04D4D040FF2A00DD57
:100F9000002010BD4A00002B01D0012000E00020FD
:100FA000101801225205D042F2D8C817C04310BD14
:100FB0001E0400001F22030C02D10F22000402D0E5
:100FC000030E03D004E00020014670470002083AF7
:100FD000030F01D10001121F830F01D18000921E67
:100FE000002801DB4000521E120551184205C012B4
:100FF000411810467047C10FC90700D04042012276
:1010000092071143D6E701218907D3E7F0B58B4C4E
:101010000F09254689B0BD437BD01D092646AE4346
:10102000FAD00E465E402740F60F3E43254071D071
:1010300024012142FBD0FF24AD19A4042D1B0395EC
:1010400001252D05DB02DB0AC9022B43C90A29430E
:101050001E010901040F130F050121431701880B1D
:10106000820391432D098C46A90B1E438A039543A5
:10107000B30B9A0396433F09BA0B9403A743029616
:101080002E467E430497B6464E19D7190C46019654
:10109000544305977E43371B7646BF1B3601B64641
:1010A000BE0B361900967646BC043719009C01D356
:1010B000641C00946400002F01D001263443029E7A
:1010C000049F754366467E430496760034196E008D
:1010D00034190094029C019E1C196643751BAE4690
:1010E000069465464519059C05956C43594375461C
:1010F0000891691A0191049E01465143A41B049171
:10110000611A009C0791E10605D061090122114393
:1011100002E072E06EE06109089D00272C0A2D06AE
:101120006918049D7C412A0A2D066918019D6241B7
:10113000AC0DAD026D185441079A910D92025519EC
:101140006141029A644658435443069B059A5A43A8
:10115000121A131B9A0E9B015B187A41010B0005B2
:10116000C3185141220A200644195A419A4200D21A
:10117000491C01204002814203D315230226F64375
:1011800002E014230326F6432020C51AA94017467F
:10119000AF40DA400A4320460399D8400914731837
:1011A00019055118039A3843D2075140AC4009D071
:1011B0000122944006D30022401C5141002C01D151
:1011C000400840001E4A934212D30122039892061F
:1011D000904207DB0520400709181A480143C01256
:1011E000414004E0032040070818C10FC907002050
:1011F00009B0F0BD0020F107FAE705180C464C4194
:1012000011486D42A04115D394181A465A410E4810
:10121000644290410ED301204A004005824209D326
:101220005A00824206D35940C90F084AC907002014
:101230001143DDE700200649DAE700000000FF0760
:10124000FE070000FFFFFF7F0000E0FF0000F07FCF
:101250000000F87F0121C9050123411842001B0647
:10126000D3185B0E0AD0C1100722D2068918400796
:101270005242D14201D5520089187047090208D55F
:101280000146002A03D0C10FC9070020704710464D
:101290007047420202D00020024970470721090529
:1012A0000143F4E70000F87FF0B5FF252D04C609DF
:1012B000C209FF2704462E400137CB093E43484070
:1012C0002A402B400746002A6BD0002B69D0AA4247
:1012D00067D0AB4265D0002800DA32460125ED0523
:1012E00029432C4309022002090AD21A4B0C7F24FD
:1012F000E31A434C000A7C44E35C7D242404121965
:1013000014145B00A218884201D3521C00E0400074
:1013100049420C465C4324115C43DB016415E3182D
:10132000040A5C43C502200D0C4644436419250A97
:101330005D432303EC0C0D46654300030019EB18D5
:101340004C42A34201D35B18401CD4052018002B4B
:1013500007D05B00C91804D3401C002901D1400804
:1013600040003F2189048A4209D3002A08DC110683
:10137000090F04D0032149074018C00FC007F0BD72
:1013800001224100120689187F2252069142F6D2AC
:1013900005214907C84201D59010F0BDFF20C005C6
:1013A000F0BD002F00DA32461648AA4207D2AB42FF
:1013B00005D21902090E17D0F80FC007F0BDFF259E
:1013C00063002D06AB42F9D84900A942F6D8AB42DA
:1013D00001D1A942F2D0A94201D1002101E061006E
:1013E0004908D0050843F0BD1102090EFBD0FF20CB
:1013F0000243D005F0BD0A460146104654E70000FE
:10140000FBD700000000C07F10B501469E240002FB
:10141000CA15A307002A02D01843002A04DBA21A27
:10142000002A0CDDD04010BD1206120E01D1400082
:101430004008A21A03D4D04040420028F3DDFF2226
:1014400048001206904201D9002010BDC817C043C1
:10145000584010BD1F22030C02D10F2200041CD0E3
:10146000030E01D10002083A030F01D10001121F3F
:10147000830F01D18000921E002801DB4000521E24
:10148000D2055118021251181922904004D3491C58
:10149000002801D14908490008467047C10FC90713
:1014A00000D04042012292071143D3E7012189076E
:1014B000D0E7FFB504460D4681B024300090216886
:1014C000880604D51022E0699143216000E00120E4
:1014D000A84201DD471B00E000270498A1697A19A2
:1014E0001018081AA0612078C00602D42046FEF722
:1014F000A3FE002608E003986268A168805D90471B
:10150000206A401C761C206204988642F3DB207817
:10151000C0060AD52046FEF78FFE06E06268A16885
:1015200030209047206A401C206238467F1E0028E9
:10153000F4DC07E000986268A168405D9047206A8B
:10154000401C206228466D1E0028F3DC2046FEF772
:1015500089FE2078000602D5022005B0F0BD0120EA
:10156000FBE70000084B70B50D467B4400F081F8A6
:101570000446284608F01EF9002802D00020C04387
:1015800070BD204670BD00004F820000002000F0BA
:1015900083F8FEF7D6FD012006F02EF810B50446BC
:1015A00002E0641C06F038F820780028F9D110BD5C
:1015B00001468008081A02091018020A1018020CC5
:1015C0001018C008820012185200891A01E0401C4D
:1015D0000A390A29FBD27047F8B5224C4E00069D05
:1015E000A6420AD8A64201D1002806D15E00A64232
:1015F00003D8A6420AD1002A08D00D24240425428B
:101600002CD02946002000F04DF8F8BD0C461C43B4
:101610000CD4994202D0EFF30080F8BD904202D082
:10162000EFF30080F8BDEFF30080F8BD0924240734
:10163000E5008B4206D0EFF30080A043591A06D292
:10164000284304E0101A05D3EFF30080A04380F391
:101650000088F8BDEFF30080A043F1E7009500F0AB
:1016600039F8F8BD0000E0FF01694A1C0261087802
:10167000704700B58FB00291002105910549019393
:1016800079440391114604906846FEF75FFE0FB05F
:1016900000BD0000E5FFFFFF10B500F051F800F0BD
:1016A00048F810BDCA0211D54A03520F002A04D0CF
:1016B000C803C043012188407047054AEFF3008109
:1016C00008010009104380F300887047002070472C
:1016D0000000003010B500200249029A00F048F8DE
:1016E00010BD00000000F87F754600F071F8AE46AE
:1016F000050069465346C008C000854618B020B5AD
:10170000FEF77AFD60BC00274908B6460026C0C532
:10171000C0C5C0C5C0C5C0C5C0C5C0C5C0C5403DA9
:1017200049008D4670470446C046C0462046FEF735
:1017300013FD10B5002801D005F05EFF10BD0000BC
:1017400010B5002102A000F047F8012010BD0000F4
:10175000534947414252543A2041626E6F726D6163
:101760006C207465726D696E6174696F6E00000043
:1017700010B50C461107090F092904D00A290AD00F
:1017800008290CD104E011460820FFF78BFF06E082
:10179000510606D501E0510601D50120C0072146BA
:1017A00010BDD10607D501010909CC084907000E73
:1017B0000006044309E0410F20024907000A0143E3
:1017C000200E00061D22D14101430846E7E7000034
:1017D00000487047EC12002070B505460C460A2000
:1017E00000E06D1C05F018FF002D06D028780028B9
:1017F000F7D102E0641C05F00FFF002C02D0207826
:101800000028F7D10A2005F007FF70BD70B58C18CD
:101810000578401C6B075B0F01D10378401C2A112F
:1018200006D10278401C03E00678401C0E70491C6B
:101830005B1EF9D12B0705D40023521E0DD40B706B
:10184000491CFAE70378401CCB1A921C03E01D7870
:101850000D70491C5B1C521EF9D5A142D8D3002043
:1018600070BD000010B50121284801752848007896
:10187000202108432649087000202649087026497F
:101880000875152001F026F900BF24488078012151
:1018900008432249887008468078022108431F497E
:1018A000887008468078042108431C4988700846DF
:1018B00080780821084319498870084680781021EB
:1018C0000843164988700846807820210843134948
:1018D000887000BF28200F490870002088700846D3
:1018E0008078887008468078082108430949887004
:1018F000002008718871FF20C87200208872084695
:101900000078012108430349087010BD4061004080
:101910002004024000500440406000406000044049
:1019200010B504460B48047200200B4908751520B9
:1019300001F0D0F80021094801750648807980112E
:10194000032805D003480078802108430149087026
:1019500010BD000000500440406000404061004065
:1019600070B5002405F0E2FE05F0B1FE05F0A6FE1C
:101970000546002D01D0601CC4B2204670BD000099
:1019800070B500240025B8480078030005F01EFE5D
:1019900009061D3A5983FEFDFCFBFA00032005F001
:1019A000DBFB0120B04908700520B0490860002029
:1019B000AF490870AF4908700120AF490870002096
:1019C000AE490870AE4908704AE1A848006800288E
:1019D00017D10122A64905F059FEA5480078A02894
:1019E00009D10220A04908700A20A04908600020FF
:1019F000A149087005E000209B49087001209E491C
:101A000008702DE199480068002819D1FFF7A8FF58
:101A10000446002C09D00020934908700A209349FD
:101A200008600120944908700AE003208E4908707C
:101A300032208E4908600020924908708E49087053
:101A40000EE18A480068002824D101228E49032033
:101A500005F01CFE04468B480078401C894908703C
:101A600089480078602808D104207F490870002048
:101A70007E490860834908700CE032207B49086089
:101A800080480078322805DD012077490870002061
:101A90007C490870E4E075480068002877D1062288
:101AA0007A49042005F0F2FD0446002C70D17849F3
:101AB00008607648807809684018754908600846CB
:101AC0000068000208607148407809684018704951
:101AD000086008460068000208606C4800780968E1
:101AE00040186B4908600846006880110860084685
:101AF00000686849884206DA08466549086001209E
:101B00005F4908700EE0624800686349884206DD5C
:101B100008465F49086001205949087002E000202A
:101B2000574908705A480068FFF765FA5B4A03C2D4
:101B30000A2157480068FEF72EFD59490880002009
:101B40005349086051484079096840185049086075
:101B500008460068000208604C480079096840188F
:101B60004B49086008460068000208604748C07892
:101B70000968401846490860084600680121C905FF
:101B8000884206E06BE069E067E065E063E061E001
:101B900041E006DB3E480068FF21090608433C4956
:101BA000086040493A480068FEF7F5FC384908608B
:101BB000084600683C49884206DA0846344908600D
:101BC00001202E4908700EE03148006837498842EC
:101BD00006DD08462E49086001202849087002E009
:101BE0000020264908702A48008831490880284882
:101BF0000068FFF700FA2F4A03C200222E4B2D493E
:101C000003C9FEF759FF2B4A03C200201D49087083
:101C10001949087007E01B480078401C19490870F2
:101C200001201549087017480078322809DD022084
:101C30000D4908700A200D490860002011490870FC
:101C400008E0032008490870C820084908600020FF
:101C50000C49087004E003E002E001E000E000BF8E
:101C600000BF284670BD00000C03002010030020B8
:101C700015030020160300201E0300201F03002070
:101C80002003002014030020170300201803002065
:101C9000080300203075000048E80100E802002039
:101CA000060300209A19000070FEFFFF5203000097
:101CB00004030020F002002000002440F8B50026B4
:101CC00000200090FB480078030005F07FFC090627
:101CD0001FF9709BF8F7F6F5F900F748006800283F
:101CE00013D1022005F038FA0120F24908700520CE
:101CF000F14908600020F1490860F1490860F149A4
:101D00000870F1490870F149087041E2EA4800683A
:101D100000284BD1EE4800F05BFBED480078E74926
:101D200008600846006800020860E94840780968D1
:101D30004018E2490860E748E1490860DF48006868
:101D400003210903884218D1DD480068E14988422F
:101D500013D10320D74908700520D7490860002017
:101D6000DD490870D7490870DC490880DC490870F3
:101D7000DC490870DC49087018E00020CD49087083
:101D80000A20CD490860D4480078401CD249087028
:101D900008460078202806DD7D20C000C64908607E
:101DA0000020CD4908700120C6490870F0E1C24802
:101DB0000068002825D100F0FEFA0646002E0BD15F
:101DC0000420BC4908700A20BB4908600020C249B1
:101DD0000870BC49087014E00A20B7490860BE4882
:101DE0000078401CBC49087008460078202805DDB2
:101DF0000120B04908700020B74908700120B1499E
:101E00000870C5E1AC48006800287DD1B04800F0FA
:101E1000FFFA0646002E78D100BFB4490860AC48EE
:101E2000007808600846006800020860A84840780A
:101E300009684018AD49086008460088AC49088028
:101E40001421AB480088FEF7A6FBA9490880084684
:101E50000088A8490880A5480068FFF7CCF8044628
:101E60000D460022A44B20462946FFF7CFF8044632
:101E70000D460022A14B20462946FEF71DFE0446D2
:101E80000D4600229E4B20462946FEF7F2FD0446F1
:101E90000D4600229B4B20462946FFF7B7F8044623
:101EA0000D460022984B204629460CF03FFA08D2F6
:101EB00001208549087012E068E166E158E156E1C9
:101EC00065E10022914B204629460CF061FA03D2CD
:101ED00001207D49087002E000207B4908702046FF
:101EE0002946FFF70DF800B2894908800020085EF6
:101EF000884908800022834B20462946FEF7DCFDF6
:101F0000854A03C2002001E030E121E17749086001
:101F10006F48C078086008460068000208606C4896
:101F20000079096840187149086008460068FFF7A1
:101F300062F804460D460022784B20462946FFF7FA
:101F400065F804460D4600226C4B20462946FEF7F4
:101F5000B3FD04460D4600221346204629460CF0E8
:101F6000E5F905D2002425460120584908700FE004
:101F700000226A4B204629460CF00AFA05D20024BA
:101F8000664D01205149087002E000204F49087059
:101F900020462946FEF7EAFF614908800846008886
:101FA00000B26049088000225C4B20462946FEF7BB
:101FB00083FD5D4A03C220462946FEF7D7FF5B49F1
:101FC000086006203B490870BE203B49086000209D
:101FD000414908703B4908704048008853490988C6
:101FE00040183E4908803E480078401C3C49087033
:101FF0000846007805285CDB012707E078004C499B
:10200000095A781C40004A4A11527F1E002FF5DA07
:102010003348017831480088FEF7BDFA444908800A
:1020200000202F4908702D4908802F480078032888
:1020300004DA2D480078401C2B4908702A480078A3
:10204000032836DB00203B490880401E3A490880BF
:10205000002718E078003649085A3649098888422E
:1020600004DD78003249085A324908807800304946
:10207000085A31490988884204DA78002C49085AFC
:102080002D4908807F1C032FE4DB2A4800882A4959
:102090000988401A2949088029480078012853D125
:1020A000084600882749098888424DDD01200D49EE
:1020B00008704CE0B8020020BC020020C4020020DE
:1020C000C8020020D0020020D1020020D20200204D
:1020D000AC02002020300000C0020020CE0500200D
:1020E000D0050020CB050020CA050020CC0200202E
:1020F000FC020020FE02002000E06540E0FFEF400F
:102100000080464000002440000079C000B08D40AF
:10211000A802002060050020D802002000408F4067
:10212000AA02002078050020E0020020F80200202A
:10213000C4050020D2050020D4050020C0050020E1
:10214000CC050020C20500200020134908700DE0D6
:102150000320124908706420114908601148007872
:10216000401C1049087001200F49087010E00FE072
:102170000B480068002807D1032008490870002098
:10218000074908600749087002E001E000E000BF6D
:1021900000BF0098F8BD0000CB050020B802002069
:1021A000BC020020C0020020D00200200021014813
:1021B0004170704724600040002101484170704721
:1021C0005C6000400021014841707047646000403D
:1021D00000210148417070476060004000B5C02296
:1021E0009178F82211401C4A127811431B48EA29C1
:1021F00023D00ADC0A46E03A130005F0E7F90A1892
:102200001C20242A2A2A2A161A2AED291FD004DC87
:10221000EB2916D0EC291CD117E0F02903D0F829BE
:1022200017D10F4815E00F4813E00D4811E00E4894
:102230000FE00E480DE00E480BE00E4809E00E4896
:1022400007E00E4805E00E4803E00E4801E00348B1
:1022500000BF00BF00BD0000201C024040420F0034
:102260000048E801006CDC0200366E010024F40036
:10227000001BB70000127A00808D5B0000093D0052
:10228000C0C62D0080841E00FEB504460D463748AA
:10229000008800280CD036480088002808D035482F
:1022A0000088002804D0334800883349884203D18D
:1022B000002032490860FEBD20462946FEF712FA8A
:1022C0002F4908602F492E480068FEF7EDFF2E4980
:1022D000086028480088FFF7E9F806462A480168A0
:1022E00030460CF027F92949086008460068FEF7D7
:1022F000B1FF06460022264BFEF7DEFB019100905F
:10230000FEF7F0F91E490860224800681E4908607F
:10231000204948681A4909680CF0B4F81B4908605C
:1023200008460168184800680CF066F8164908600D
:102330001348016800680CF0A5F8144908601548B6
:102340008168124800680CF09DF810490860084642
:1023500001680D4800680CF04FF80B49086008460A
:102360000068064908600120A5E70000F00400208D
:10237000F2040020EE040020FFFF0000F40400201F
:10238000FC0400200000204100050020040500207E
:102390000088C3405C1100200146CA785006400EF8
:1023A0007F2806D18A7880201040802801D1002023
:1023B00070470120FCE71CB500200190012001AB13
:1023C000242244210090022007F068FA1CBD00007E
:1023D0001CB5044601200C4908700CA0006801904F
:1023E000012001AB372244210090022007F056FA69
:1023F0000220234600224421009007F0EDF900203E
:10240000014908701CBD0000280300208100000065
:1024100038B50446012008490870062023460022EA
:1024200044210090022007F0D7F905460020024918
:102430000870284638BD0000280300200121054807
:1024400001770548808808430349888000200349B4
:10245000087770470061004060150440006000404C
:1024600008B50020164908701648808801210843E5
:102470001449888008464089134908401149488119
:1024800008460089104908400E490881084600891D
:10249000891508430B4908810020009005E000BF22
:1024A00068460078401CC1B20091684600780E284A
:1024B000F5D904480089012108430249088108BD73
:1024C000E000002060150440FEFF000001210648E6
:1024D0000170064880880221084304498880002052
:1024E00003490870704700002061004060150440F7
:1024F0002060004008B5164880880221084314492E
:102500008880084640891349084011494881084697
:102510000089104908400E4908810846008949157C
:1025200008430B4908810020009005E000BF684681
:102530000078401CC1B20091684600780E28F5D999
:1025400003480089022108430149088108BD0000B1
:1025500060150440FDFF00000548407C8021884351
:102560000349487400BF00BF00BF00BF00BF7047F1
:10257000201A044038480078102108433649087072
:102580000020364908740121354801700020354982
:102590000870324948744B2088745320C874084628
:1025A000407C012108432D494874262008752E4897
:1025B000807C022108432C4988740846807C0121D4
:1025C0000843294988742548007C08210843234989
:1025D00008740846007C0421084320490874084612
:1025E000007C802108431D4908740846007C402176
:1025F00008431A49087400211948017000BF1B489C
:10260000C07D042188431949C8751948807940085C
:1026100040001749887116482030807940084000F2
:1026200013492031887100BF00BF1048C07D0421CC
:1026300088430E49C8750E488079022188430C49A9
:1026400088710B4820308079022188430849203165
:10265000887100BF7047000020040240201A044027
:102660004061004040600040401B0440600804405E
:102670000003044010B503480078002801D00AF098
:102680006BFA10BD0060004010B5064800790028C4
:1026900001D00AF00DFA03484079002801D00AF071
:1026A00037FA10BD0060004010B50648007A0028D7
:1026B00001D00AF00FFA0348407A002801D00AF04E
:1026C0002DFA10BD0060004010B50648007B0028C0
:1026D00001D00AF005FA0348407B002801D00AF037
:1026E00023FA10BD0060004010B50648007C0028A9
:1026F00001D00AF0FBF90348407C002801D00AF021
:1027000019FA10BD0060004010B50648007D002891
:1027100001D00AF0F1F90348407D002801D00AF009
:10272000CDF910BD0060004010B50648007E0028BD
:1027300001D00AF0E7F90348407E002801D00AF0F2
:10274000C3F910BD0060004010B50348007F0028A9
:1027500001D007F0F1F810BD0060004010B503484B
:102760000078002801D007F0BFF910BD20600040BC
:1027700010B507480079002801D00BF059F904483A
:10278000001D4078002801D0FFF710FD10BD0000AB
:102790002060004010B50348007A002801D00BF0FB
:1027A000F1F910BD2060004010B50348007B0028FF
:1027B00001D00BF0B7F910BD2060004010B50748FC
:1027C000007C002801D00BF027F904481030407835
:1027D000002801D00BF032F910BD0000206000404D
:1027E00010B50348007D002801D00BF027FA10BD7A
:1027F0002060004010B50348007E002801D00BF097
:10280000D7F910BD2060004010B50748007F0028B0
:1028100001D00BF007F904481C304078002801D0A3
:102820000BF012F910BD00002060004010B5064802
:102830000078002801D007F08BFD0348407800287D
:1028400001D004F099FF10BD4060004010B503486E
:102850000079002801D00BF0FDF810BD4060004069
:1028600010B50348007A002801D00BF0F9F810BD2C
:102870004060004010B50348007B002801D00BF0F9
:10288000F5F810BD4060004010B50348007C0028FA
:1028900001D00BF0F1F810BD4060004010B50348C6
:1028A000007D002801D004F0BDFE10BD4060004056
:1028B00010B50748007E002801D00BF089F80448C5
:1028C00018304078002801D00AF03AF910BD000015
:1028D0004060004010B50748007F002801D00AF092
:1028E00035F904481C304078002801D0FFF764FC1B
:1028F00010BD00004060004010B506480078002878
:1029000001D004F0B7FE03484078002801D0FFF75B
:102910005FFC10BD6060004010B5074800790028DA
:1029200001D004F0ADFE0448001D4078002801D01D
:10293000FFF748FC10BD00006060004010B5034880
:10294000007A002801D00BF09DF810BD60600040B7
:1029500010B50348007B002801D00BF0BDF810BD76
:102960006060004010B50348007C002801D00BF0E7
:10297000B9F810BD6060004010B50348007D002824
:1029800001D00BF09DF810BD6060004010B5034809
:10299000007E002801D00BF099F810BD6060004067
:1029A00010B50348007F002801D00BF023FC10BDB8
:1029B00060600040F0B585B004460D460026002258
:1029C000214B204629460BF0E3FC39D800BF00BF5D
:1029D0000395029420462946039B029AFEF716FBB4
:1029E00003910290194A1A4B03990298FEF70EFBC5
:1029F00003910290174A184B20462946FEF706FB22
:102A000001910090019B009A03990298FEF724F827
:102A100003910290114A124B03990298FEF71CF899
:102A2000039102900A210F480088FDF7B4FD074684
:102A300003990298FEF79AFA874200D3012600BF55
:102A4000304605B0F0BD000000804640C6A7001823
:102A5000CFA0A13F2997C62FBC2218C0D0622992CF
:102A6000AF477140AA02002070B500F01DFA7D2129
:102A7000C9000F480068FDF784FD05462C46601E1E
:102A80000C49884200D90CE0601E0B4948610321C3
:102A9000081F00F05BF800200749886107200861E3
:102AA00000BF00F001FA00200449086070BD00007A
:102AB0007C060020FFFFFF0000E000E02C02002069
:102AC000C206D20E01219140014A116070470000F8
:102AD00080E200E0C206D20E01219140014A11605D
:102AE0007047000080E200E0C206D20E0121914052
:102AF000014A11607047000080E200E0C206D20E79
:102B000001219140014A11607047000080E200E01D
:102B1000C206D20E01219140014A116070470000A7
:102B200080E100E0C206D20E01219140014A11600D
:102B30007047000000E100E0C206D20E0121914082
:102B4000014A11607047000000E100E010B5002864
:102B500019DA1A4A03071B0F083B9B089B00D2583F
:102B60008307DC0EFF23A3409A438B071B0E8407C9
:102B7000E40EA3401A43114B0407240F083CA40899
:102B8000A4001A5118E00E4A03231B02D21883082E
:102B90009B00D2588307DC0EFF23A3409A438B0788
:102BA0001B0E8407E40EA3401A43054B03242402A2
:102BB0001B198408A4001A5110BD00001CED00E090
:102BC00000E100E0F0B50C4615460123A340D9B260
:102BD0002A462B0004F0FAFC06042C54787E9EBD95
:102BE0005D4B1B5C8B435C4E33545B4B603B192647
:102BF00076019B191B5C0B43574E603E19277F01E2
:102C0000F6193354544B203B1B5C8B43524E203EF1
:102C10003354514B103B1B5C8B434F4E103E33548F
:102C20004D4B303B1B5C8B434B4E303E335490E05E
:102C3000494B1B5C8B43484E3354474B603B192632
:102C400076019B191B5C0B43434E603E19277F01A5
:102C5000F6193354404B203B1B5C8B433E4E203EC9
:102C600033543D4B103B1B5C8B433B4E103E335467
:102C7000394B303B1B5C0B43374E303E335468E0DE
:102C8000354B1B5C8B43344E3354334B603B19261E
:102C900076019B191B5C0B432F4E603E19277F0169
:102CA000F61933542C4B203B1E5C0E431E542A4B0A
:102CB000103B1E5C8E431E54274B303B1B5C8B43EA
:102CC000254E303E335444E0234B1B5C0B43224ED5
:102CD00033543EE0204B1E5C8E431E541E4B603B23
:102CE000192676019B191B5C8B431B4E603E1927EE
:102CF0007F01F6193354184B203B1B5C8B43164E57
:102D0000203E3354144B103B1B5C8B43124E103E41
:102D100033541EE0104B1B5C8B430F4E33540E4B51
:102D2000603B192676019B191B5C8B430A4E603E63
:102D300019277F01F6193354074B203B1B5C8B434B
:102D4000054E203E3354044B103B1E5C0E431E5474
:102D500000BF00BFF0BD00006000044003490860F0
:102D600000BF024909680029FBD1704748020020D2
:102D700010B53D480068401C3B49086001203B49B4
:102D800008707D21C90038480068FDF7FAFB00296A
:102D900004D137480068401C354908603548008830
:102DA000401C3449088034480068002804D0324868
:102DB0000068401E3049086030480068002804D090
:102DC0002E480068401E2D4908602D4800680028E4
:102DD00004D02B480068401E294908602948006833
:102DE000002804D027480068401E2649086026486D
:102DF0000068002804D024480068401E224908606A
:102E000022480068002804D020480068401E1F495E
:102E100008601F480068002804D01D480068401E54
:102E20001B4908601B480068002804D01948006846
:102E3000401E1849086018480068002804D0164849
:102E40000068401E1449086014480088012809D110
:102E5000134800881349884204DA11480088401C4E
:102E60000F49088010BD00002C020020290200201C
:102E7000440200201A0500204C02002064020020B9
:102E80008C02002048020020BC0200202403002005
:102E90001003002040040020700600207A06002065
:102EA00078060020FFFF000010B5FFF797F90149F1
:102EB000086010BD7C06002010B580201B494871B9
:102EC0001A201A49203908722B2048723C20887237
:102ED0004D20C872002016494860FFF77FF9154958
:102EE00008600020C0431449086014490860144871
:102EF00014490860114903221202891848600F49D9
:102F0000891888600D498918C8600C4989180861BA
:102F10000A49891848610949891888610749891847
:102F2000C861AC200849487010BD00002004024070
:102F300000B001407C06002080E200E000E100E0FB
:102F4000C0C0C0C000E400E0001002400E4A927E03
:102F500001231A430C4B9A760C4A1278FE231A402E
:102F60000A4B1A7001230A4A13720022094B1A7283
:102F7000064A9070402802D11022074BDA704A1E90
:102F8000024BC0331A8070470008024040220440C0
:102F9000606100406060004020040240002006495B
:102FA0000872002105480172054800780121084394
:102FB0000349087070470000606000406061004095
:102FC0004022044006480078FE2108400449087069
:102FD0000121044801720020034908727047000073
:102FE000402204406061004060600040F8B5054642
:102FF0000E466A463146284600F0BEFA0446002CCA
:103000001FD10320104988800846C08800090001AC
:10301000C8800846C0886946097808430A49C880BC
:10302000684640784006000C0849088268464078A7
:103030004006000C488204484088032108430249A6
:1030400048802046F8BD00002011044000130440D1
:1030500070B505460E463D480078042108433B49BB
:10306000087003203A49C880222039492039088253
:103070003848088367204002374908823748007C77
:103080000121084335490874072031492039488116
:10309000FF202330488232484883672040022E496F
:1030A00048822B48008901210843294908810846A4
:1030B000808A2C4908402649888208464089012197
:1030C00008432349488100BF2748007F2021084347
:1030D000254908772548407804210843234948704A
:1030E000224820304078042188432049203148700C
:1030F0001F48407C042188431D4948741C482030E7
:103100004078042188431A492031487000BF00BF2D
:103110001548007F202108431349087713482030C1
:10312000407802210843114920314870104820306E
:103130004078022188430E492031487000BF314653
:103140002846FFF753FF0446204670BD2004024086
:1031500020110440A78000000013044060040440D4
:1031600097400000FEFF0000600804400003044098
:103170004000044000BF0448408820210840002847
:10318000F9D00248807C70470011044000130440CD
:103190000449087400BF04490988602211400029CD
:1031A000F9D170470013044000110440F8B50546FA
:1031B0000E466A463146284600F0DEF90446002CE9
:1031C00016D10C200B49888068460078C880684674
:1031D00040784006000C08498880684640784006E0
:1031E000000CC880034840880C21084301494880EE
:1031F0002046F8BD201104404013044070B5054638
:103200000E463F480078042108433D4908703D4878
:1032100080880C2108433B49888001213A48017588
:103220000176017700203949087508760877222051
:1032300034492039888236488883672040023549DE
:1032400088803548007C04210843334908740720EE
:103250002C492039C881FF202330C8822F48C883D9
:10326000672040022B49C880264800890421084372
:10327000244908810846808A2949084021498882D2
:1032800008464089042108431E49488100BF25485B
:103290000078042108432349087022482030007830
:1032A000042188431F49203108701F48007C0421F5
:1032B00088431D4908741C48203000780421884345
:1032C00019492031087000BF00BF1648203000782F
:1032D0000221084313492031087013482030007838
:1032E0000221884310492031087000BF314628462A
:1032F000FFF75CFF044600F019F8204670BD00009F
:103300002004024020110440206100402060004061
:103310009780000040130440600404409740000080
:10332000FBFF0000000304404000044010B51048BB
:103330000089042108430E49088108464089042178
:1033400008430B494881084640880C210843084936
:10335000488000200749087508760D20FFF7B0FB6C
:103360000E20FFF7ADFB002103480175017610BD6B
:10337000201104402060004020610040F8B505465F
:103380000E466A463146284600F0F6F80446002C00
:1033900016D103200B49888068460078C8806846AB
:1033A00040784006000C084908816846407840068D
:1033B000000C4881034840880321084301494880A4
:1033C0002046F8BD601504404017044070B505461E
:1033D0000E4647480078082108434549087045488B
:1033E00080880321084343498880012142480177AE
:1033F00041482030017001710020404908773F4961
:1034000020310870087122203A49203908823C484E
:103410000883672040023B4908813B48007C10211B
:103420000843394908740720324920394881FF2070
:10343000233048823548488367204002314948811B
:103440002C480089012108432A4908810846808ABE
:103450002F490840274988820846408901210843AE
:103460002449488100BF2B48C07D02218843294957
:10347000C8752948407808210843274948702648DC
:103480002030407808218843234920314870234860
:10349000407C0821884321494874204820304078E6
:1034A000082188431D492031487000BF00BF1948DA
:1034B000C07D022188431749C875174820304078DD
:1034C00010210843144920314870144820304078B6
:1034D0001021884311492031487000BF31462846E9
:1034E000FFF74CFF044600F01BF8204670BD0000BB
:1034F000200402406015044000610040006000406C
:10350000978000004017044060040440974000008A
:10351000FEFF000060080440000304404000044037
:1035200010B5124800890121084310490881084656
:103530004089012108430D494881084640880321FC
:1035400008430A4948800020094908770849203182
:1035500008700720FFF7B4FA0820FFF7B1FA00213E
:103560000448017703482030017010BD6015044005
:103570000060004000610040F7B58AB01646642440
:1035800000200390029001900B980002059005998D
:103590000A98FCF7F6FF401C049002E00398401CD8
:1035A000039001200399884004998842F6D3039D33
:1035B0003EE06800274A115A0A98FCF7E2FF06909D
:1035C000022732E0791C0698FCF7DBFF41080791DF
:1035D0007D22D2000799514308460B99FCF7D1FF91
:1035E0007D21C900401A0A21484308900898211EED
:1035F00001DB0A4600E04A42002801DB034600E006
:1036000043429A4202DD089C01970295201E01DB8D
:10361000014600E04142142906DA35707770002037
:10362000099009980DB0F0BD7F1C802FCAD36D1C86
:10363000102DBED3201E01DB014600E041421429BB
:1036400003DB02983070019870700020099009988F
:10365000E8E700001CE60000002101704170817065
:10366000C170002284210A5485210A5486210A54FB
:103670007047000000B50548FFF7EEFF0448FFF76C
:10368000EBFF0448FFF7E8FF00BD0000A0070020A3
:10369000A7080020AE090020F8B5FE4800880328DE
:1036A0007ED1FD480088401CFB490880FB4800781B
:1036B000012801D1FA490880FA48007802280DDA79
:1036C000F9490020085EF74909784900F74A505245
:1036D000F4480078401CF349087011E0002408E029
:1036E000601C4000F149085A6100F04A5052601CC9
:1036F000C4B2012CF4DBEC490020085EEB494880A1
:10370000E848007802285CDBE948EA490880401C68
:10371000E949088000241BE06000E449085EE549AF
:1037200000228A5E904204DA6000E049085AE149CA
:1037300008806000DD49085EDF4900228A5E904211
:1037400004DD6000D949085ADB490880601CC4B216
:10375000022CE1DBD7490020085ED84900228A5EAE
:10376000904204DCD3490020085ED4490880D24945
:103770000020085ED24900228A5E904204DBCE49D6
:103780000020085ECE490880CB480088C9490988D6
:10379000401A00B2CB490880084600883C2100E06E
:1037A000FEE3484300B2C74908800020085EC649CE
:1037B00000228A5E904204DDC2490020085EC249B0
:1037C0000880C248007802280DDAC1490020085E4E
:1037D000BE4909784900BF4A5052BC480078401C95
:1037E000BA49087011E0002408E0601C4000B949A3
:1037F000085A6100B74A5052601CC4B2012CF4DB75
:10380000B3490020085EB3494880B04800780228D8
:103810005ADBA748B0490880401CB0490880002402
:103820001BE06000AB49085EAB4900228A5E904213
:1038300004DA6000A749085AA74908806000A54932
:10384000085EA64900228A5E904204DD6000A1491C
:10385000085AA2490880601CC4B2022CE1DB9E49D0
:103860000020085E9E4900228A5E904204DC9A494C
:103870000020085E9A49088098490020085E99490E
:1038800000228A5E904204DB94490020085E95493C
:1038900008809248008890490988401A00B29249ED
:1038A0000880084600883C21484300B28E490880C1
:1038B0000020085E8D4900228A5E904204DD8A491C
:1038C0000020085E894908808948008802280CDAAF
:1038D00088480068864909888900874A505084488A
:1038E0000088401C8249088010E0002408E0601C29
:1038F000800081490858A1007F4A5050601CC4B222
:10390000012CF4DB7B4800687B49486078480088DC
:10391000022847DB79487A49086008460068404237
:10392000784908607448406873490968401A7649C4
:1039300008600846006872490968884203DD012072
:10394000724908700DE0704800686E490968884245
:1039500004DA0020C0436D49087002E000206B4982
:1039600008706B4900200856684900228A56504367
:10397000012805D167480088401C6649088002E09C
:1039800000206449088063480088634909888842A8
:1039900003DD60480088604908805C4900200856C3
:1039A0005B4908705D4800685D4988420BDA5B48F6
:1039B000006850490968401858490860594800682B
:1039C000401C58490860584800885849884204DA21
:1039D00055480088401C5449088055480078002804
:1039E00022D15148008808281ED14E4801684B4812
:1039F0000068FCF7D0FD4F490860084600684E4952
:103A00000988884206DC4C480088404249490968D8
:103A1000884203DD01204949087005E0002047493C
:103A2000087001204249087041480078002803D1FD
:103A300014204349088003E0FF202D3040490880CE
:103A4000154800883E490988884222DB1B4800212E
:103A5000415E962978DB1A490020085EFF215F311C
:103A6000884271DC18490020085E364900228A5ECF
:103A7000904269DA1A490020085EFF212D31884200
:103A8000E8DB18490020085EAF2189008842E8DCA5
:103A90005BE0C6E2500500203C0500204005002008
:103AA0004205002066050020600500206205002018
:103AB000FF7F0000680500206A0500206C050020DB
:103AC0006E05002070050020740500207E05002092
:103AD000780500207A05002080050020820500205E
:103AE0008405002086050020880500208C05002024
:103AF0008E05002074040020900500207E04000044
:103B0000A0050020A4050020A8050020980500209D
:103B1000990500209A0500209C05002044050020FE
:103B20000000FF7F48050020AE05002060EA00008D
:103B3000AC050020B405002058050020B005002089
:103B40003E05002072050020B9E1FD490020085E15
:103B5000FC4900228A5E90428BDAFB4800880328E9
:103B600087DAFA480168FA480068FCF714FDF94959
:103B70000860F94800780A280BDA08460168F64818
:103B800002780078401CF44B18709000F34A1150F2
:103B900010E0002408E0601C8000F0490858A100F3
:103BA000EE4A5050601CC4B2092CF4DBE9480068AE
:103BB000EA494862E84800780A2875DBE848007856
:103BC000401CE7490870E7480788E74800880090EC
:103BD00000240CE0A000E1490858B84204DDA00030
:103BE00009580098814200DB03E0601CC4B20A2C33
:103BF000F0DB00BF0A2C6DD10025002605E0B000E7
:103C0000D64908584519701CC6B20A2EF7DB0A219E
:103C10002846FCF7C0FC0546D4480088062825DA6B
:103C200028B2D24909884900D14A5052CF48008869
:103C30004000D430CF4A15542804010ECB480088E8
:103C40004000D5301154C9480088401CC74908803D
:103C5000084601781046C0308174C44800880112BB
:103C60001046C030C1740120C3490870C3480078B1
:103C700000280CD10120C2490870C2480078401CBD
:103C8000C0490870B348008800B2BF490880BF48E7
:103C90000088032818D1B5480088002814DD0021C9
:103CA000BB4A116000200AE0B9E04100B04A515E11
:103CB000B74A12688918B64A1160411CC8B2AB49AC
:103CC00009888842F1DB02E00020B1490860002049
:103CD000A34908700A2C74DAA3480088404207B24E
:103CE000A0480088404200B2009000240CE0A000F0
:103CF0009A490858B84204DDA0000958009881424A
:103D000000DB03E0601CC4B20A2CF0DB00BF0A2C0D
:103D10006DD10025002605E0B000904908584519EE
:103D2000701CC6B20A2EF7DB0A212846FCF733FCCA
:103D300005468E480088062825DA28B28B4909886E
:103D400049008B4A5052894800884000D430894A43
:103D500015542804010E854800884000D5301154C0
:103D600082480088401C8149088008460178104636
:103D7000C03081747D48008801121046C030C17483
:103D800001207D4908707D48007800280CD1012071
:103D90007B4908707B480078401C7A4908706D4860
:103DA000008800B27849088078480088032818D134
:103DB0006E480088002814DD0021754A116000203B
:103DC0000AE014E041006A4A515E714A126889189B
:103DD0006F4A1160411CC8B2644909888842F1DB0E
:103DE00002E000206A49086000205D4908706348CD
:103DF0000078002813D15A480078002810D10120FB
:103E00005E490870002405E00020A100534A50508C
:103E1000601CC4B20A2CF7DB00204F490870DBE0BD
:103E20005C480088FF212D318842F8DB012053498E
:103E3000087000204A490870002405E00020A10015
:103E4000464A5050601CC4B20A2CF7DB002042499D
:103E5000087002204A4908704F480078401C4E49BB
:103E600008703C48008800B24749088045480178FE
:103E70004048E0300170484801783E48E0304170E9
:103E8000407846490880084600780006000C088003
:103E90003848E030007809884018404908803A489E
:103EA00001783448E0308170374800880004010E02
:103EB0003048E030C17001202F4908708CE00024A8
:103EC00007E00020A100254A505023490870601CDB
:103ED000C4B20A2CF5DB2948007800287CD12D4893
:103EE0000088FF212D31884276DB012023490870AC
:103EF00000201B490870002405E00020A100174A9B
:103F00005050601CC4B20A2CF7DB00201249087024
:103F100002201B49087020480078401C1E49087088
:103F20000C48008800B218490880164801781148EA
:103F3000E0300170184801780E48E030417030E000
:103F40008C0500208A0500209C05002048050020E3
:103F5000440500204C0500203A050020E81100200F
:103F6000B005002058050020560500205A05002005
:103F700010120020CC0F002032030020AC050020DE
:103F8000BE050020B9050020BC050020500500201A
:103F90005C050020AE050020B8050020BA05002011
:103FA00040E0407839490880084600780006000C57
:103FB0000880374800780988401834490880354817
:103FC000017833488170334800880004010E30487E
:103FD000C170012030490870002030490880304805
:103FE00030490880401C3049088000202F49088053
:103FF0002B482F490880401C2E49088000202E495C
:1040000008802E4908802E4908702E4908702E49D4
:1040100008802E4908802E4908802E4908602E49C4
:10402000086032E000202D4908701C4908802849AA
:1040300008802849086028490860294908702949EA
:10404000088029490880164816490880401C1649EE
:1040500008800020254908801449088024490870F8
:1040600024490880244908800D4811490880401CD3
:10407000104908800020214908800F49088001204C
:104080001F49087000201F490870F8BDBA050020BC
:10409000AC100020BC0500203203002042050020A7
:1040A000FF7F00006C0500206E05002074050020D5
:1040B00084050020860500208C0500208E05002048
:1040C00099050020980500209A0500209C050020F5
:1040D0003C05002044050020480500203A0500204A
:1040E00066050020680500206A0500207005002094
:1040F0007E05002080050020820500208805002024
:10410000AC050020B005002010B5FDF7ABFB012089
:104110000C49087000200C4908600C4908600C48E4
:104120000C4908600C480D49086000200C490860E3
:104130000520FDF7F5FB0220024908700A2003491B
:10414000086010BD680600206C0600207006002084
:104150007406002050010020760600205401002043
:104160005801002010B522480078030003F02EFA11
:104170000604070A1A2C3D3EFFF7C6FF36E0FFF79C
:10418000C3FF33E01B480068002803D00320184910
:10419000087006E018480068002802D10120144980
:1041A000087023E0002013490860042010490870BB
:1041B0000A201149086011480088142803DD1048BE
:1041C00000881049088011E00B48006800280BD1D6
:1041D0000520FDF7A5FB00200649086002200449E0
:1041E000087014200449086000E000BF00BF10BD43
:1041F0006806002058010020700600207806002084
:104200007606002016050020FFB589B00F4615463A
:104210001E46002F02D101200DB0F0BD12980228D9
:1042200003DA002038600120F6E70021695E099872
:10423000814259DD0020285E0221695E884253DAFE
:104240003068FCF7E0FE039102907068FCF7DBFE3B
:1042500001910090039B029AFCF70BFC07910690DA
:104260000020285EFCF7C7FE039102900998FCF736
:10427000C2FE01910090039B029AFCF7FAFB0591A4
:104280000490079B069AFCF7C1FE5F4A03C2002018
:10429000285EFCF7B0FE059104900220285EFCF732
:1042A000AAFE03910290059B049AFCF7E2FB0246EA
:1042B0000B4607910690544903C9FCF7FDFB524A8F
:1042C00003C23068FCF79FFE079106904E480CC869
:1042D0000698FCF7C1FB4C4A03C24B4903C9FCF7E3
:1042E0000FFE3860002097E7002486E06000295E1A
:1042F000601C4000285E814204DBA000305838601A
:10430000032089E76000295E0998814204DBA00050
:104310003058386000207FE76000295E09988142AC
:104320005EDA601C4000295E0998814258DBA100DA
:104330007058FCF768FE03910290611C8900705868
:10434000FCF761FE01910090039B029AFCF791FB40
:10435000079106906100685EFCF74DFE03910290A4
:104360000998FCF748FE01910090039B029AFCF724
:1043700080FB05910490079B069AFCF747FE224AB2
:1043800003C26100685EFCF736FE05910490611C73
:104390004900685EFCF72FFE03910290059B049A8A
:1043A000FCF767FB02460B4607910690164903C9C6
:1043B000FCF782FB144A03C2A1007058FCF723FEED
:1043C0000791069010480CC80698FCF745FB0E4A6A
:1043D00003C20D4903C9FCF793FD386000201BE7B9
:1043E0001298801EA04206DC1298401E80003058B1
:1043F0003860002010E7601CC4B21298401EA04232
:1044000000DD73E7042007E7280500200021154A96
:104410001170002008E04100134A515A134A91429A
:1044200000D103E0411CC8B20B28F4DB00BF002818
:1044300003D100210E4A116011E00B2807D10D496C
:10444000896A0D4A1288891A094A116007E08100B9
:10445000084A5158084A1288891A054A11600749C2
:104460000870704730050020E2100020FFFF0000B8
:10447000340500201011002052040020B204002056
:10448000F8B5F8484079F8490880084600780006F1
:10449000000C0880F348007909884018F249088028
:1044A000F048C079F1490880084600780006000C01
:1044B0000880EC48807909884018EC490880E94870
:1044C000C07AEB490880084600780006000C088096
:1044D000E448807A09884018E5490880E148467B2D
:1044E000300206B2DF48007B801906B2E148066060
:1044F000DC48467C300206B2DA48007C801906B2FD
:10450000DD480660D748C07DDC4908600846006881
:1045100000020860D348807D09684018D7490860C8
:104520000846006800020860CE48407D09684018CF
:10453000D24908600846006800020860C948007D4A
:1045400009684018CD490860C648C07ECC4908605B
:104550000846006800020860C248807E096840186A
:10456000C74908600846006800020860BD48407EF0
:1045700009684018C24908600846006800020860DF
:10458000B848007E09684018BD490860B548203029
:104590004078BC490880084600780006000C088076
:1045A000B0482030007809884018B6490880AD48E6
:1045B0002030C078B4490880084600780006000C16
:1045C0000880A8482030807809884018AE490880C3
:1045D000A44820304079AD4908800846007800069C
:1045E000000C08809F482030007909884018A749AE
:1045F000088008460088402802DD4020088006E048
:10460000A2480088012802DA0120A0490880002081
:104610009F4908709F49086092482030C0799E49A0
:104620000880084600780006000C08808D4820307D
:104630008079098840189849088008460088182819
:1046400012D00846008819280ED0084600881B287A
:104650000AD0084600881C2806D0084600881D2875
:1046600002D00020C043088000241AE060002930F6
:104670007C49085C6100894A505260001146085C20
:104680000006000C6100505260001146095A60009B
:104690002830744A105C08186100804A5052601C2F
:1046A000C4B20B2CE2DB00241AE0600049306D49F3
:1046B000085C61007A4A505260001146085C0006AE
:1046C000000C6100505260001146095A60004830E9
:1046D000644A105C08186100714A5052601CC4B2F0
:1046E0000B2CE2DB002408E060006C49085A00B2A1
:1046F00061006C4A5052601CC4B20B2CF4DB0024E5
:1047000007E060006649085AA100674A5050601CE3
:10471000C4B20B2CF5DB052409E0A000624908585F
:104720000A214843A100604A5050601CC4B20B2CBF
:10473000F3DB4C486030407A5C49088008460078DA
:104740000006000C088047486030007A098840184D
:104750005649088043486030C07A55490880084669
:104760000078000200B208803E486030807A0988F4
:10477000401800B24E4908803A486030407B4D49AD
:10478000088008460078000200B208803548603092
:10479000007B0988401800B246490880FFF736FEC2
:1047A000002410E0A00044494718002507E0A000BD
:1047B000703040192B49085C7855681CC5B2042D2F
:1047C000F5DB601CC4B2082CECDB26488030407C52
:1047D0003A490880084600780006000C0880214805
:1047E0008030007C098840183449088000240AE0A1
:1047F000A000314947183846FDF7CEFD002800D10A
:1048000003E0601CC4B2042CF2DB00BF042C03D113
:1048100001202B49088004E000202949088027490D
:10482000088004240AE0A000234947183846FDF711
:10483000B3FD002800D103E0601CC4B2062CF2DBFB
:1048400000BF062C03D101201E49088002E0002091
:104850001C490880002445E0A0001B49471800259A
:104860003CE00000CC0F002040020020420200206B
:10487000980400209C040020A0040020A404002030
:10488000A8040020AE040020AC040020B0040020E6
:104890001C050020200500203A040020CC10002038
:1048A000E2100020F8100020101100205204002017
:1048B000EA040020EC0400203C110020B404002095
:1048C000D0040020D20400205C110020A000983009
:1048D0004019FE49085C7855681CC5B2042DF5DB0B
:1048E000601CC4B2032CB7DBF848A0304079F8490B
:1048F0000880084600780006000C0880F348A030C5
:10490000007909884018F2490880F048A030C07941
:10491000F0490880084600780006000C0880EB4843
:10492000A030807909884018EA49088000240AE00C
:10493000A000E94947183846FDF72EFD002800D1B0
:1049400003E0601CC4B2032CF2DB00BF032C03D1D4
:104950000120E249088004E00020E0490880DD49A8
:104960000880DA48A030407ADD490880084600789F
:10497000000200B20880D548A030007A09884018AB
:1049800000B2D7490880D148A030407FD54908807F
:10499000084600780006000C0880CC48A030007F54
:1049A00009884018CF490880084600887D21C90041
:1049B000884203DD0020CC49087002E00120CA498A
:1049C00008700020C9490880C9490870C9490870A1
:1049D000C9490870BD48C0304078C84908800846B9
:1049E00000780006000C0880B848C03000780988BC
:1049F0004018C249088008460088002805D00846AB
:104A000000887D21C900884203DD0020BC49087070
:104A100002E00120BA4908700020BA490870052058
:104A2000B94908800020B9490880A848C030407AB8
:104A3000B7490880084600780006000C0880A348A3
:104A4000C030007A09884018B14908809F48C030BA
:104A5000C07AB0490880084600780006000C08803B
:104A60009A48C030807A09884018AA490880974837
:104A7000C030407BA8490880084600780006000C3A
:104A800008809248C030007B09884018A2490880FD
:104A90008E48C030C07BA1490880084600780002DB
:104AA00000B208808948C030807B0988401800B275
:104AB0009A4908808548C030407C9949088008465A
:104AC0000078000200B208808048C030007C09886D
:104AD000401800B2924908807C48C030C07C91499F
:104AE0000880084600780006000C08807748C0302F
:104AF000807C098840188B4908807448C030407D0C
:104B00008949088008460078000200B208800846FB
:104B100001886E48C030007D081800B282490880C4
:104B20006A48C030C07D488008468078000200B2E4
:104B30004880084641886548C030807D081800B22A
:104B4000794948806148C030407E888008460079B5
:104B5000000200B28880084681885C48C030007E30
:104B6000081800B2704988805848C030C07EC8809C
:104B700008468079000200B2C8800846C1885348C0
:104B8000C030807E081800B26749C8804F48C030E6
:104B9000407F08810846007A000200B2088108467A
:104BA00001894A48C030007F081800B25E49088178
:104BB0004648C030C07F48810846807A000200B273
:104BC0004881084641894148C030807F081800B2BA
:104BD000554948813D48E0300078544908703B48C9
:104BE000E0304078524908703848E0304078514908
:104BF0000880084600780006000C08803348E03042
:104C00000078098840184B4908803048E030C07867
:104C10004949088008460078000200B208802B4805
:104C2000E03080780988401800B2434908803D4848
:104C300000884249884202D100203A4908803B4816
:104C400000783E49884202D100203849087038482F
:104C500000783A49884202D1002035490870364927
:104C60000020085E3549884202D100203249088080
:104C700027480088012802D00020254908802748BD
:104C8000008800281ED02548008880B22B49884221
:104C900018D023480088002814D02148008880B20A
:104CA00088420FD01C48008800280BD01A48008882
:104CB000884207D017480088002803D0154800888C
:104CC00088423FD100201E4908803EE0CC0F0020E2
:104CD000EE040020F00400205C110020F20400200B
:104CE00014050020C2050020CC050020CE050020C0
:104CF000D0050020CB050020CA0500208C04002030
:104D00008F0400208E0400209004002092040020D4
:104D1000520500205605002058050020720500208D
:104D20008A0500205A05002010120020B905002035
:104D3000B8050020BA050020BC050020FFFF0000D8
:104D40005405002002203A49088039480088394932
:104D500009884018384908800846008803281BD174
:104D600036480088002817DD34480088062813DC00
:104D70000021334A1160002009E04100314A515EB0
:104D80002F4A126889182E4A1160411CC8B22B495B
:104D900009888842F1DB02E00020294908600020F0
:104DA000294908702949088029490880294908604B
:104DB000294908602949087029490880294908803B
:104DC00029482A490880401C29490880002029498F
:104DD00008802949088029490870294908802949FB
:104DE0000880214828490880401C28490880002064
:104DF0002749088027490880274908602749086013
:104E000000BF00BF26480321090240184079022153
:104E100088432349032212028918487100BF00BF4A
:104E200001202049087000201F490860F8BD0000DB
:104E30005405002052050020500500205A0500208E
:104E40005C050020101200203A05002042050020D9
:104E50003C05002044050020480500206605002090
:104E6000680500206A050020FF7F00006C05002017
:104E70006E05002070050020740500207E050020CE
:104E80008005002082050020840500208605002082
:104E9000880500208C050020E4050020E80500209E
:104EA00000000440E0050020EC050020FEB50024D1
:104EB000002002901AE027490298081801900198F2
:104EC00005682E46F7B224480755641C3004070EC7
:104ED00021480755641C3002070E1F480755641C03
:104EE000370E0755641C0298001D02900298FF2897
:104EF000E1D90024002002901AE0184902984018D5
:104F00000190019805682E46F7B213480755641CB6
:104F10003004070E10480755641C3002070E0E4877
:104F20000755641C370E0755641C0298001D02903B
:104F30000298FF28E1D9FFF7A3FA084801900198E9
:104F400005682E460548F0300190019805680095E7
:104F50000020FEBD34030020CC0F002000025000D2
:104F6000F3B582B00D46002001900298030002F0D4
:104F70002DFB0933061115203333242F3300012173
:104F800068182038C67F80203040002801D00120DA
:104F9000019028E001210020019024E002216818FE
:104FA0002038C67F80203040002801D001200190A9
:104FB00019E000200190022115E004216818203832
:104FC000C67F80203040002801D0012001900AE0F7
:104FD00000200190042106E000200190002100271C
:104FE000384604B0F0BD00BF00270198002816D154
:104FF000002211E000240BE06818801A2038C07FDE
:10500000802323411840002800D01FE0601CC4B258
:10501000082CF1DB501CC2B28A42EBDB15E0002207
:1050200011E000240BE06818801A2038C07F80232C
:1050300023411840002800D108E0601CC4B2082CAD
:10504000F1DB501CC2B28A42EBDB00BFC806070E80
:10505000D006000E00900098381AC7B2082C01DA6A
:10506000381BC7B201983818C0B2BAE7FFB581B093
:105070000446002020E0611E15460D41EB07DB0FC2
:105080000146C5172D0F6D182D112D01461B651EEC
:10509000AE1B05116F00049DED5B3541ED07ED0F73
:1050A0000095009DAB4204D05100029D69408AB238
:1050B00001E051040A0C401C0A998842DBD30349E1
:1050C000A1401046884305B0F0BD0000FFFF00007E
:1050D00038B500BF3AA0FBF7A1F800BF01F0A2FF6E
:1050E00001F04EFF00BF3948FBF798F800BF00BF42
:1050F0003C2000F087FB80003549401844883C2064
:1051000000F080FB8000324940184588224629463D
:1051100030A0FBF783F800BF3C2000F073FB800059
:105120002B4940184088002832D100BF36A0FBF739
:1051300075F800BF02F024FA01F022FF00243F209E
:105140000001394B394A3A4900901020FFF78EFF91
:10515000044600BF37A0FBF761F800BF00F03EFA3D
:1051600000F0FEF921467E2000F076FA00F0AAF861
:1051700000F0C6F87E211648E03001771C304480EC
:105180003248C48700F0DCF93220FDF7E7FD04E087
:1051900000BF2FA0FBF742F800BF3220FDF7DEFD75
:1051A00000BF032133A0FBF739F800BF01F03AFF3D
:1051B00001F0DEFE01F0E4FE01F0D2FE38BD000099
:1051C0000A453730335F496E69743B00E8EB0000F5
:1051D000CA0E00200A4E6F77204D625265675B3120
:1051E0003331305D203D20434D5B307833435D20CB
:1051F0003D20307846464645203D203078253034E5
:1052000058203D2025642E000A577269746520538A
:10521000706563696669656420434D2055736572E6
:1052200020646174612E0000120D0020FFFF000059
:10523000058000000A5772697465206E6577204307
:105240005243313620646174613B0000D20C00206F
:105250000A4E6F74207772697465205370656369B4
:105260006669656420434D205573657220646174DE
:10527000612E00000A496E69742074797065206996
:10528000732025642E00000008B50C480078002823
:105290000ED14E200A490870002048708870022004
:1052A000009008460278431C6C21012004F0F6FAB5
:1052B000012002490870002008BD00009202002071
:1052C000F50A002008B50C48007800280ED14E20C1
:1052D0000A49087000204870887002200090084633
:1052E0000278431C6C21012004F0D8FA0120024905
:1052F0000870002008BD000091020020F50A00207F
:1053000008B50C48007800280FD122200A490870FF
:10531000A22048706220887002200090084602781F
:10532000431C6C21012004F0B9FA012001490870E6
:10533000002008BD90020020F50A0020F8B50646BE
:105340000C460027304601F05EFD012837D100F001
:1053500045F94E201B490870084646704C2088705D
:105360000220009008460278431C6C21012004F0C2
:1053700095FA482013490870002504E0FF201249DF
:105380004855681CC5B20A2DF8DB022000900D4874
:1053900002780D4B6C21012004F01EFA00280DD17B
:1053A00009484078208020780006000C2080208862
:1053B0000549097840182080012700E00027384679
:1053C000F8BD0000F50A0020150B002038B569462D
:1053D000222000F081F80446012C03D168460088A1
:1053E000334908806946262000F076F80446012CEF
:1053F00003D1684600882F4908806946282000F0BC
:105400006BF80446012C03D1684600882A490880BD
:1054100069462A2000F060F80446012C04D1684651
:10542000008800B22549088069462E2000F054F813
:105430000446012C03D1684600882149088069464A
:10544000302000F049F80446012C03D1684600885A
:105450001C4908806946322000F03EF80446012CC1
:1054600003D168460088184908806946362000F054
:1054700033F80446012C03D168460088134908809C
:105480006946382000F028F80446012C03D168460C
:1054900000880F4908806946462000F01DF8044640
:1054A000012C03D1684600880A490880002038BDD5
:1054B000780200207A0200207C0200207E02002078
:1054C0008002002082020020840200208602002048
:1054D000880200208A020020F8B506460C463046B5
:1054E00001F0ADFC012825D113480670002504E029
:1054F000FF2012494855681CC5B20A2DF8DB02206E
:1055000000900D4802780D4B6C21012004F064F9E5
:1055100000280DD109484078208020780006000C32
:105520002080208805490978401820800120F8BD96
:105530000020FCE70020FAE7F50A0020150B002008
:1055400010B5064C2146222000F0C0F8FFF79CFE63
:10555000FFF7B8FEFFF7D4FE10BD000069B10000F0
:1055600008B51C48007801282FD14E201A49087030
:10557000BD2048709820887002200090084602786C
:10558000431C6C21012004F089F94E201249087057
:10559000BF204870252088700220009008460278BD
:1055A000431C6C21012004F079F94E200A4908704F
:1055B000D820487036208870022000900846027873
:1055C000431C6C21012004F069F900200149087096
:1055D00008BD000091020020F50A002008B51C4813
:1055E000007801282FD122201A4908705A204870CB
:1055F000F72088700220009008460278431C6C2136
:10560000012004F04BF9222012490870C72048708D
:105610000C2088700220009008460278431C6C2100
:10562000012004F03BF922200A4908701E2048702E
:10563000D22088700220009008460278431C6C211A
:10564000012004F02BF900200149087008BD00007A
:1056500090020020F50A002038B505460C46284681
:1056600001F0DEFB01282AD1FFF7B8FFFFF778FF32
:105670004A20144908704C70201288700220009053
:1056800008460278431C6C21012004F007F94E20E3
:105690000C49087008464570A320887002200090CD
:1056A00008460278431C6C21012004F0F7F805201D
:1056B0000549086000BF044800680028FBD10020AD
:1056C00038BD0000F50A00208C02002038B50546E0
:1056D0000C46284601F0B3FB012810D1FFF77EFFEE
:1056E0000848057001464C70201288700220009016
:1056F00008460278431C6C21012004F0CFF80020FA
:1057000038BD0000F50A002010B501220021072055
:10571000FDF758FA042201210720FDF753FA04226D
:1057200002210720FDF74EFA042207210120FDF790
:1057300049FA00BF2E480321090240184078802111
:1057400008432B49032212028918487000BF012028
:105750002849088000202849088028490860042238
:1057600001210520FDF72EFA00BF2148032109027F
:1057700040184079022108431D490322120289186A
:10578000487100BF042206210D20FDF71BFA00BF5F
:105790001748032109024018407B4021084314495F
:1057A000032212028918487300BF04221146022006
:1057B000FDF708FA00BF0E4803210902401880785F
:1057C000102108430A49032212028918887000BF79
:1057D00000BF074811464018407902218843044918
:1057E0008918487100BF00200549086010BD0000FD
:1057F000000004407A0600207806002058010020AE
:105800004C02002000B50346184601F0FCFA0028BF
:1058100001D1FF2000BD002207E090000549085C8F
:10582000984200D103E0501CC2B2402AF5DB00BF11
:105830001046EFE73CE80000FEB506460F460021A3
:105840000C460D461B480088002803D01A480088E3
:10585000002803D10020014603B0F0BD174886425E
:1058600024DD3046FBF7C7FB04460D461449486962
:10587000FBF7F0FC22462B4601910090FBF7C6FB9C
:1058800004460D4600220F4B20462946FBF714F92B
:1058900004460D460A490869FBF7DCFC22462B4604
:1058A00001910090FBF7D8F804460D4620462946A2
:1058B000D2E70000D2040020B40400202602000039
:1058C0003C11002000002440F8B504460D46334842
:1058D0000088002803D032480088002802D1002028
:1058E0000146F8BD2F490868FBF7B4FC2E4A03C2F5
:1058F0002C494868FBF7AEFC064622462B46FBF7D0
:1059000085FB2A4A03C2294827490CC803C9FBF76B
:10591000A3F8254A03C222462B4620462946FBF718
:1059200075FB224A03C21F498868FBF793FC0646B1
:105930001E480CC83046FBF769FB1C4A03C21B48D3
:1059400019490CC803C9FBF787F8174A03C2224656
:105950002B4620462946FBF759FB144A03C213483D
:105960000CC820462946FBF751FB104A03C20D49DB
:10597000C868FBF76FFC06460C480CC83046FBF7BE
:1059800045FB0A4A03C2094807490CC803C9FBF78B
:1059900063F8054A03C2044903C9A2E7D004002002
:1059A000B40400203C110020B8040020C0040020F2
:1059B00010B5FCF7DFFD0020254908702549087067
:1059C00025482649086040202549088000202549AF
:1059D0000880254908702548254908600020254988
:1059E000088025490870254908702549087025490F
:1059F0000870254908800221244807F0EFFF244958
:105A0000087002212148801C07F0E8FF2149087036
:105A10000221214807F0E2FF2049087002211E48B8
:105A2000801C07F0DBFF1E49087002211A48001D88
:105A300007F0D4FF1B49087002211748801D07F0AA
:105A4000CDFF1949087001201849088010BD0000D9
:105A50002C0100202D0100201C120020300100200C
:105A600034010020360100203F0100205C1200209C
:105A7000380100203C0100203E01002040010020B0
:105A800038060020390600203A060020490600208A
:105A900055060020560600204D060020570600201F
:105AA00058060020590600205A0600203C04002019
:105AB000FCB5FE480078012801D000F0E9FFFC4861
:105AC00000882321C90188422ED1002401E0601CF6
:105AD000C4B2F84800788442F9DB00260221F64877
