:020000040000FA
:10000000881A00209D010000A5010000A701000042
:1000100000000000000000000000000000000000E0
:10002000000000000000000000000000AF01000020
:100030000000000000000000B30100009533000044
:10004000912C0000A52C0000C52C0000E52C000020
:10005000052D0000252D0000452D0000652D000018
:10006000792D00008D2D0000B12D0000C52D000060
:10007000D92D0000FD2D0000112E0000252E0000BE
:10008000492E0000692E00007D2E0000912E0000F8
:10009000A52E0000B92E0000CD2E0000F12E00008C
:1000A000152F0000352F0000592F00006D2F000084
:1000B000812F0000952F0000A92F0000BD2F000008
:1000C000EF3FE9FF00F002F800F03DF80CA030C867
:1000D000083824182D18A246671EAB4654465D46C4
:1000E000AC4201D100F02FF87E460F3E0FCCB64651
:1000F0000126334200D0FB1AA246AB4633431847D1
:1001000094DC0000B4DC000000230024002500265D
:10011000103A01D378C1FBD8520700D330C100D5C3
:100120000B60704710B5642902D100F0ADF810BD26
:10013000782902D100F0DEF810BD002010BD1FB5F7
:100140001FBD10B510BD01F051FB1146FFF7F7FFC1
:100150000BF054FB01F069FB03B4FFF7F2FF03BCA3
:1001600007F006FC70B505460C46164602E00FCCBB
:100170000FC5103E102EFAD2082E02D303CC03C5B1
:10018000083E042E07D301CC01C5361F03E02178B9
:100190002970641C6D1C761EF9D270BD1948804709
:1001A00019480047FEE7FEE7FEE7FEE7FEE7FEE749
:1001B000FEE7FEE7FEE7FEE7FEE7FEE7FEE7FEE717
:1001C000FEE7FEE7FEE7FEE7FEE7FEE7FEE7FEE707
:1001D000FEE7FEE7FEE7FEE7FEE7FEE7FEE7FEE7F7
:1001E000FEE7FEE7FEE7FEE7FEE7FEE7FEE7FEE7E7
:1001F000FEE7FEE7FEE7000004480549054A064B16
:100200007047000081350000C500000088150020FF
:10021000881A002088160020881600200FB405498F
:1002200010B503AA029801F0E5F910BC08BC04B0AF
:10023000184700002401002070B504468569006855
:10024000C10601D5302600E02026C00707D070BDCA
:1002500062683046A1689047206A401C20626D1E8B
:10026000F6D570BD70B5044685690078C00707D122
:1002700070BD6268A16820209047206A401C2062FF
:100280006D1EF6D570BD0000F7B500257529106804
:10029000009914A611D0C046C046002802DA404298
:1002A00011A608E0009909688A0701D50FA602E0A7
:1002B000490704D50EA6012501E0C046C046009FAF
:1002C0000024243704E001F0BBF930313955641CB7
:1002D0000028F8D12B4632462146009801F031F92A
:1002E000FEBD0000000000002D0000002B000000FB
:1002F0002000000070B504460D4621461068C04637
:10030000C0462188090502D50F4A7A4402E00E4A08
:100310007A440E3223460021243305E00607000903
:10032000360F965D5E54491C0028F7D120780023D3
:10033000000705D5702D03D0002901D0022311320A
:10034000204601F0FEF870BD92D80000F3B50446D7
:10035000002081B020622046E168884700287DD0D7
:10036000252802D06268A16883E0454F00257F44BC
:100370002046E16888472028064608DB312E06D251
:10038000B81920380078002801D00543F0E7A80705
:1003900001D5042085430020E0610746A0612A2E94
:1003A0000AD0304607F0DCFA002827D0B800001940
:1003B000303E0090866119E00298BA00121902C816
:1003C000916102902046E1688847012F064617D1C7
:1003D000E06900281FDA202085431CE000980A21EC
:1003E0008069484300998019303888612046E16867
:1003F0008847064607F0B4FA0028EFD1012F0AD04B
:100400002E2E08D12046E168884706462020054365
:100410007F1C022FC3DBA069002803DA4042A061E1
:1004200001200543E80701D010208543002E24D089
:1004300030464138192803D80120C0020543203630
:10044000204625603146029A1546FFF76BFE0028CC
:100450000CD0012807D0ED1DE80800E00DE0C00039
:100460000830029077E72D1D029574E762683046E8
:10047000A1689047206A401C6CE7206AFEBD00001E
:1004800056D800000EB5044615460E4612A001F0DF
:10049000CDF8204601F0CAF815A001F0C7F83046A3
:1004A00001F0C4F814A001F0C1F86C460020E0721D
:1004B0000A20A0720A3407E00A21284600F09CF8BE
:1004C00030310546641E2170002DF5DC204601F018
:1004D000ADF801F0A3F800002A2A2A2061737365A1
:1004E0007274696F6E206661696C65643A20000001
:1004F0002C2066696C6520002C206C696E652000DC
:10050000F8B5042A2CD3830712D00B78491C03704A
:10051000401C521E83070BD00B78491C0370401CF3
:10052000521E830704D00B78491C0370401C521ED6
:100530008B079B0F05D0C91ADF002023DE1B08C9DB
:100540000AE0FFF70FFEF8BD1D4608C9FD401C4636
:10055000B4402C4310C0121F042AF5D2F308C91A64
:10056000521EF0D40B78491C0370401C521EEAD472
:100570000B78491C0370401C012AE4D409780170EF
:10058000F8BD01E004C0091F0429FBD28B0701D587
:100590000280801CC90700D00270704700290BD070
:1005A000C30702D00270401C491E022904D38307EE
:1005B00002D50280801C891EE3E70022EEE70022BC
:1005C000DFE70378C2781946437812061B02194305
:1005D0008378C0781B04194311430902090A0006F5
:1005E00008437047002203098B422CD3030A8B4235
:1005F00011D300239C464EE003460B433CD400221B
:1006000043088B4231D303098B421CD3030A8B422C
:1006100001D394463FE0C3098B4201D3CB01C01AFA
:10062000524183098B4201D38B01C01A52414309C5
:100630008B4201D34B01C01A524103098B4201D3B3
:100640000B01C01A5241C3088B4201D3CB00C01A20
:10065000524183088B4201D38B00C01A5241430898
:100660008B4201D34B00C01A5241411A00D20146BD
:100670005241104670475DE0CA0F00D04942031056
:1006800000D34042534000229C4603098B422DD3A5
:10069000030A8B4212D3FC22890112BA030A8B424D
:1006A0000CD3890192118B4208D3890192118B429C
:1006B00004D389013AD0921100E08909C3098B4221
:1006C00001D3CB01C01A524183098B4201D38B0164
:1006D000C01A524143098B4201D34B01C01A524107
:1006E00003098B4201D30B01C01A5241C3088B424C
:1006F00001D3CB00C01A524183088B4201D38B0037
:10070000C01A5241D9D243088B4201D34B00C01AC0
:100710005241411A00D20146634652415B101046D5
:1007200001D34042002B00D54942704763465B101D
:1007300000D3404201B50020C046C04602BD70470C
:10074000704770470246C80FC00781434B0030B561
:100750004B405B009B0D20D01923DB06C9180123F9
:100760001B05994220DB0324A40704251346AB4054
:100770000BD3002B04D1EB0613409B00E34204D4BF
:1007800001246407002312195941FF231B059942D4
:100790000BD2C9000143500F09E0CB0204D501433D
:1007A0000803024305D0054830BDFF21C9050843B1
:1007B00030BD084607210905884330BD0000C07FD1
:1007C000F0B50C46871A9C410D46861A9D4103D20E
:1007D000C01BA141D21963410D0D1F0DC94EEC1B69
:1007E000AE435CD07F057F0D0026002F51D02D0534
:1007F000AC46A943DD020123ED0A1B051D4320235E
:100800001B1B24D41746E740381871412F46E74098
:10081000CC199D402818314661410C0D27D1614407
:100820009A4013D50023401C594152000ED1400874
:10083000400001224B005205D34207D30520400758
:10084000C14201D5B04900E0B0493046F0BD6B006F
:10085000002A00D001229A181F23203C1B1B01D51F
:10086000002302E0E540281871410C0DD7D0012487
:1008700024050919C407CD0740084908E40F284397
:100880006144002CD5D00024401C61419A40D0D155
:10089000CDE76A05520DD9D1C90FC907D5E79C4DDF
:1008A0004E00002801D0012400E0002434195F002C
:1008B000002A01D0012600E00026BE19954FAC4267
:1008C0000CD8AE420AD8B44206D001256D05EC42E0
:1008D000BCD010461946F0BD9942FCD000203946E4
:1008E000F0BDF0B51FB40C460F46811A9F41254656
:1008F000861A9D4106D20125ED076F40401ABC4182
:1009000052187B41210D1E0D8D1BAC467D4D8D4334
:100910007ED075056D0D7CD00D05AE46AC431B0336
:100920001B0B794D52429D41202366469B1B14D3DD
:100930001746F740381800260090744160462F464D
:100940000741E41900989D402818664116D4714665
:1009500071189A4025D5012320E093182A466A4150
:100960005200002B00D0521C1E23203E9B1B002B4C
:1009700061DD3541EE1728186641E8D5001876414B
:100980005B1C9A4000D3401C4B05F3181524E34030
:1009900010D3002B52D071467118D30FC01802D358
:1009A000491C05B0F0BD0123DB079A42F9D140088C
:1009B0004000F6E701225205B21801D1002853D0B9
:1009C0000123CC0ADB029943891E002A08D1020CBC
:1009D00003D0020C0004103902E002460020203946
:1009E0000023550B05D112020823550B01D15201EA
:1009F0000D23550C01D112011B1DD50C01D1920004
:100A00009B1C150D01D152005B1C2025EE1A01E044
:100A10002CE022E00546F54015439840CA1AE1074C
:100A200069181305C918002ABBDA03204007081803
:100A3000C10FC9070FE071466118B2E7F10740081E
:100A40000843711071444A000CD001235B059A429F
:100A5000A7D2C90FC9070020A3E74905490D26D130
:100A6000002001E00028F4D100219AE7284D66001B
:100A7000002801D0012100E0002171185F00002A48
:100A800001D0012600E00026BE19224FA94210D84D
:100A9000AE420ED8B14208D001256D05E94206D01C
:100AA0001946A802414010467BE79C4201D02146EE
:100AB00077E70020394674E710B50C465C4005D551
:100AC0000124E4076340FFF70CFF10BDFFF778FE39
:100AD00010BD30B40C465C4004D50124E4076340EB
:100AE00030BC6DE630BCFCE670B50124E407614023
:100AF0000D465D4002D4FFF763FE70BD6340FFF713
:100B0000F0FE70BDFF0700000000F0FF0000F07F66
:100B10000000E0FF0000F87FF0B5F94D0C091E0958
:100B20002C402E402F468BB0A7437DD0B543FCD040
:100B3000002E7AD0002CFCD00D465D40ED0F2543F1
:100B4000AC1BFF25AD0464190894C502440DC9020D
:100B50002143500DDC0204430120C007014304433C
:100B6000D2020191200C110C00958C460104234601
:100B70008B430A9161460904E24D8A430991010AB7
:100B80007D4449198039097805464D4301266D1881
:100B9000F605751B6943C90C640B891C4C4364182A
:100BA000B5012C1B250C2E04B4434C434D43210CA2
:100BB000691889090591009DE90701D00121C9073C
:100BC00004912C4601996708CD072F434C08059DD9
:100BD000E10B4D432D0C29466646754302950D46A3
:100BE00045432E46029D7D1BB44100950D465D4355
:100BF00001942C0C2F040D465543AE462D0C3D435D
:100C0000029503947546049C2D04641B049406D23B
:100C1000029C039D641C002675410395029401AC5F
:100C200070CC009F7D1B01E03EE162E1B44109040C
:100C30000095079101940599A4086143090C0C469D
:100C40004443650BE7040C4666467443A646640BB2
:100C50003C43039502947446049DE4042C1B0494C5
:100C600006D2029C039D641C0026754103950294E4
:100C700001AC70CC009F7D1BB44101940C465C43D9
:100C80000095650FE7000C465443A646640F3C43AD
:100C9000039502947446049DE4002C1B049406D230
:100CA000029C039D641C002675410395029401ACCF
:100CB00070CC009F7D1BB441AE09AF06049DC900F6
:100CC000AD092F43049DA406AD060495079D34434A
:100CD00069180791059DE10B4D432D0C2946664689
:100CE000754302950D4645432E46029D7D1BB4413A
:100CF00000950D465D4301942C0C2F040D46554381
:100D0000AE462D0C3D43029503947546049C2D047C
:100D1000641B049406D2029C039D641C002675414A
:100D20000395029401AC70CC009F7D1BB4410194EB
:100D30008C050694079C890A611800950791019C0F
:100D40000599A4086143090C0D464543680BEF045F
:100D50000D46644665436C0B3C43049FED047D1BCC
:100D6000AC4602D20025641C6841009E019D371BE1
:100D700085410846584301950C46460FC50054432B
:100D8000600F28436546E4002C1B02D20025401C5E
:100D90006E41019D3F1AB5412846BD098006284392
:100DA0008446A009BF064E020699A406761807439A
:100DB000079D002068410A99079019430020099B6C
:100DC00000906046FF1913434041E20F64003A432C
:100DD000A4460446D71A8C41A04203D901200090B2
:100DE00020463A46C70F941840416246D20F22432C
:100DF000644664000494009CBE466400D71AA4466E
:100E0000044602978C417746002F01D1A04204D9B5
:100E10006046401C8446029A2046C40FA646941899
:100E20004041049A0546D20F224364466400D31A17
:100E30008D417146002901D1A84202D928461A469F
:100E4000641C10430122002800D0164361020020D8
:100E5000079B891904465C410223002C02DB4918D8
:100E600013466441089DCE0A2D145D194B05670594
:100E7000E10A2C050D1908993E43C9076940002B6A
:100E800008D0934006D30022761C5141002B01D19B
:100E9000760876001C4A002D43DB154241D0AA4358
:100EA0003FD030460BB0F0BD06180D464D41174CF3
:100EB0007642AC411AD395181C465C41134A6D42E8
:100EC000A24113D3012252054C00D4420AD15C0046
:100ED000D4420BD04B4002D592021143E2E74900C5
:100EE0004908DFE75940C90FC90718E00020084941
:100EF000D8E7054801420DD10342F7D0F2E70000E0
:100F00000000FF0755D000000000F07F0000E0FF68
:100F10000000F87F114859400143C01241400020B1
:100F2000C0E70123089A9B069A4205DC0322520778
:100F30008918C90FC907B5E7052252078918074A5A
:100F40001143D2125140ADE770B515461C4602461A
:100F50000B4628462146FFF7DFFD70BDFFFFFF7FF0
:100F600030B50346CA02400D1043164D164C0A1503
:100F700002D02043002A06DBAA1A002A12DDD04044
:100F8000FF2A0BDC30BD5205520D01D14000400854
:100F9000AA1A07D4D0404042FF2A01DD002030BD0C
:100FA0000028FCDD4A00002B01D0012000E00020D9
:100FB000101801225205D042F0D8C817C043604033
:100FC00030BD00001E040000000000800346CA027D
:100FD000400D10B510430A1504D00124E407204346
:100FE000002A05DB0A4CA21A04D4D040FF2A00DDF7
:100FF000002010BD4A00002B01D0012000E000209D
:10100000101801225205D042F2D8C817C04310BDB3
:101010001E0400001F22030C02D10F22000402D084
:10102000030E03D004E00020014670470002083A96
:10103000030F01D10001121F830F01D18000921E06
:10104000002801DB4000521E120551184205C01253
:10105000411810467047C10FC90700D04042012215
:1010600092071143D6E701218907D3E7F0B58B4CEE
:101070000F09254689B0BD437BD01D092646AE43E6
:10108000FAD00E465E402740F60F3E43254071D011
:1010900024012142FBD0FF24AD19A4042D1B03958C
:1010A00001252D05DB02DB0AC9022B43C90A2943AE
:1010B0001E010901040F130F050121431701880BBD
:1010C000820391432D098C46A90B1E438A03954345
:1010D000B30B9A0396433F09BA0B9403A7430296B6
:1010E0002E467E430497B6464E19D7190C460196F4
:1010F000544305977E43371B7646BF1B3601B646E1
:10110000BE0B361900967646BC043719009C01D3F5
:10111000641C00946400002F01D001263443029E19
:10112000049F754366467E430496760034196E002C
:1011300034190094029C019E1C196643751BAE462F
:10114000069465464519059C05956C4359437546BB
:101150000891691A0191049E01465143A41B049110
:10116000611A009C0791E10605D061090122114333
:1011700002E072E06EE06109089D00272C0A2D064E
:101180006918049D7C412A0A2D066918019D624157
:10119000AC0DAD026D185441079A910D920255198C
:1011A0006141029A644658435443069B059A5A4348
:1011B000121A131B9A0E9B015B187A41010B000552
:1011C000C3185141220A200644195A419A4200D2BA
:1011D000491C01204002814203D315230226F64315
:1011E00002E014230326F6432020C51AA94017461F
:1011F000AF40DA400A4320460399D84009147318D7
:1012000019055118039A3843D2075140AC4009D010
:101210000122944006D30022401C5141002C01D1F0
:10122000400840001E4A934212D3012203989206BE
:10123000904207DB0520400709181A480143C012F5
:10124000414004E0032040070818C10FC9070020EF
:1012500009B0F0BD0020F107FAE705180C464C4133
:1012600011486D42A04115D394181A465A410E48B0
:10127000644290410ED301204A004005824209D3C6
:101280005A00824206D35940C90F084AC9070020B4
:101290001143DDE700200649DAE700000000FF0700
:1012A000FE070000FFFFFF7F0000E0FF0000F07F6F
:1012B0000000F87F0121C9050123411842001B06E7
:1012C000D3185B0E0AD0C1100722D2068918400736
:1012D0005242D14201D5520089187047090208D5FF
:1012E0000146002A03D0C10FC907002070471046ED
:1012F0007047420202D000200249704707210905C9
:101300000143F4E70000F87FF0B5FF252D04C6097E
:10131000C209FF2704462E400137CB093E4348400F
:101320002A402B400746002A6BD0002B69D0AA42E6
:1013300067D0AB4265D0002800DA32460125ED05C2
:1013400029432C4309022002090AD21A4B0C7F249C
:10135000E31A434C000A7C44E35C7D242404121904
:1013600014145B00A218884201D3521C00E0400014
:1013700049420C465C4324115C43DB016415E318CD
:10138000040A5C43C502200D0C4644436419250A37
:101390005D432303EC0C0D46654300030019EB1875
:1013A0004C42A34201D35B18401CD4052018002BEB
:1013B00007D05B00C91804D3401C002901D14008A4
:1013C00040003F2189048A4209D3002A08DC110623
:1013D000090F04D0032149074018C00FC007F0BD12
:1013E00001224100120689187F2252069142F6D24C
:1013F00005214907C84201D59010F0BDFF20C00566
:10140000F0BD002F00DA32461648AA4207D2AB429E
:1014100005D21902090E17D0F80FC007F0BDFF253D
:1014200063002D06AB42F9D84900A942F6D8AB4279
:1014300001D1A942F2D0A94201D1002101E061000D
:101440004908D0050843F0BD1102090EFBD0FF206A
:101450000243D005F0BD0A460146104654E700009D
:10146000FFC800000000C07F10B501469E240002A6
:10147000CA15A307002A02D01843002A04DBA21AC7
:10148000002A0CDDD04010BD1206120E01D1400022
:101490004008A21A03D4D04040420028F3DDFF22C6
:1014A00048001206904201D9002010BDC817C04361
:1014B000584010BD0102C21504D00123DB071943B7
:1014C000002A0ADB9E239A1A02D40846D0407047AD
:1014D000FF2241001206914201D900207047C01737
:1014E000C04370471F22030C02D10F2200041CD0FE
:1014F000030E01D10002083A030F01D10001121FAF
:10150000830F01D18000921E002801DB4000521E93
:10151000D2055118021251181922904004D3491CC7
:10152000002801D14908490008467047C10FC90782
:1015300000D04042012292071143D3E701218907DD
:10154000D0E7FFB504460D4681B0243000902168F5
:10155000880604D51022E0699143216000E0012053
:10156000A84201DD471B00E000270498A1697A1911
:101570001018081AA0612078C00602D42046FEF791
:101580005BFE002608E003986268A168805D9047D2
:10159000206A401C761C206204988642F3DB207887
:1015A000C0060AD52046FEF747FE06E06268A1683D
:1015B00030209047206A401C206238467F1E002859
:1015C000F4DC07E000986268A168405D9047206AFB
:1015D000401C206228466D1E0028F3DC2046FEF7E2
:1015E00041FE2078000602D5022005B0F0BD0120A2
:1015F000FBE70000084B70B50D467B4400F0B3F8E4
:101600000446284608F078FD002802D00020C04398
:1016100070BD204670BD0000038B0000002000F06C
:10162000B5F8FEF78EFD012006F0A2F910B50446CC
:1016300002E0641C06F0ACF920780028F9D110BD56
:1016400001468008081A02091018020A1018020C34
:101650001018C008820012185200891A01E0401CBC
:101660000A390A29FBD27047F8B5224C4E00069D74
:10167000A6420AD8A64201D1002806D15E00A642A1
:1016800003D8A6420AD1002A08D00D2424042542FA
:101690002CD02946002000F07FF8F8BD0C461C43F2
:1016A0000CD4994202D0EFF30080F8BD904202D0F2
:1016B000EFF30080F8BDEFF30080F8BD09242407A4
:1016C000E5008B4206D0EFF30080A043591A06D202
:1016D000284304E0101A05D3EFF30080A04380F301
:1016E0000088F8BDEFF30080A043F1E7009500F01B
:1016F0006BF8F8BD0000E0FF10B5FF231B064400A7
:101700009C421DD84C009C421AD80346124A0B43F7
:1017100007D4401A02D3EFF3008010BDEFF300802E
:1017200010BD081A06D2EFF3008001219043C907CB
:10173000084302E0EFF30080904380F3008810BD7F
:101740000D231B041A4204D01146002000F024F897
:1017500010BD00F043F810BD0000009001694A1C64
:1017600002610878704700B58FB0029100210591A1
:101770000549019379440391114604906846FEF7A8
:10178000E5FD0FB000BD0000E5FFFFFF10B500F064
:1017900059F800F050F810BDCA0211D54A03520F93
:1017A000002A04D0C803C043012188407047054A7D
:1017B000EFF3008108010009104380F300887047AF
:1017C000002070470000003010B500200249029A46
:1017D00000F050F810BD00000000F87F10B502487E
:1017E00000F048F810BD00000000C07F754600F012
:1017F00071F8AE46050069465346C008C0008546EC
:1018000018B020B5FEF7F8FC60BC00274908B646C2
:101810000026C0C5C0C5C0C5C0C5C0C5C0C5C0C5FF
:10182000C0C5403D49008D4670470446C046C0468D
:101830002046FEF791FC10B5002801D006F098F87C
:1018400010BD000010B5002102A000F047F80120F3
:1018500010BD0000534947414252543A2041626E44
:101860006F726D616C207465726D696E6174696F01
:101870006E00000010B50C461107090F092904D0AD
:101880000A290AD008290CD104E011460820FFF7E4
:1018900083FF06E0510606D501E0510601D501207F
:1018A000C007214610BDD10607D501010909CC08A2
:1018B0004907000E0006044309E0410F20024907D2
:1018C000000A0143200E00061D22D14101430846B3
:1018D000E7E70000004870472415002070B5054672
:1018E0000C460A2000E06D1C06F052F8002D06D0D0
:1018F00028780028F7D102E0641C06F049F8002C93
:1019000002D020780028F7D10A2006F041F870BDF7
:1019100070B58C180578401C6B075B0F01D10378FC
:10192000401C2A1106D10278401C03E00678401CB6
:101930000E70491C5B1EF9D12B0705D40023521EE3
:101940000DD40B70491CFAE70378401CCB1A921C8B
:1019500003E01D780D70491C5B1C521EF9D5A14295
:10196000D8D3002070BD000010B5012128480175B2
:10197000284800782021084326490870002026497D
:10198000087026490875152001F0B6FB00BF2448F1
:101990008078012108432249887008468078022116
:1019A00008431F49887008468078042108431C4971
:1019B00088700846807808210843194988700846CD
:1019C00080781021084316498870084680782021C5
:1019D00008431349887000BF28200F490870002071
:1019E0008870084680788870084680780821084307
:1019F00009498870002008718871FF20C872002092
:101A0000887208460078012108430349087010BD18
:101A1000406100402004024000500440406000400B
:101A20006000044010B504460B48047200200B49C6
:101A30000875152001F060FB002109480175064872
:101A400080798011032805D003480078802108435D
:101A50000149087010BD0000005004404060004083
:101A60004061004070B5002406F024F906F0F3F858
:101A700006F0E8F80546002D01D0601CC4B22046EF
:101A800070BD000070B500240025B948007803003F
:101A900005F058FF09061D3A5983FEFDFCFBFA00CC
:101AA000032005F019FE0120B14908700520B14955
:101AB00008600020B0490870B04908700120B049A2
:101AC00008700020AF490870AF4908704DE1A9487F
:101AD0000068002817D10122A74906F09BF8A64804
:101AE0000078A02809D10220A14908700A20A14944
:101AF00008600020A249087005E000209C49087099
:101B000001209F49087030E19A480068002819D1E7
:101B1000FFF7A8FF0446002C09D000209449087064
:101B20000A20944908600120954908700AE00320C2
:101B30008F49087032208F4908600020934908704F
:101B40008F49087011E18B480068002824D10122D8
:101B50008F49032006F05EF804468C480078401C4C
:101B60008A4908708A480078602808D10420804992
:101B7000087000207F490860844908700CE032201A
:101B80007C49086081480078322805DD01207849C9
:101B9000087000207D490870E7E07648006800285A
:101BA00077D106227B49042006F034F80446002C45
:101BB00070D179490860774880780968401876497B
:101BC00008600846006800020860724840780968AA
:101BD00040187149086008460068000208606D48B6
:101BE0000078096840186C49086008460068801150
:101BF0000860084600686949884206DA084666496E
:101C000008600120604908700EE06348006864497C
:101C1000884206DD08466049086001205A4908707C
:101C200002E00020584908705B4800685D49086080
:101C30000A2159480068FEF7DFFC5B490880084626
:101C400001885A480AF038FE00205349086051487C
:101C50004079096840185049086008460068000249
:101C600008604C480079096840184B4908600846EC
:101C70000068000208604748C07809684018464973
:101C800008600846006806E06EE06CE06AE068E024
:101C900066E064E044E00121C905884206DB3E4875
:101CA0000068FF21090608433B49086040493A485B
:101CB0000068FEF7A1FC38490860084600683D4905
:101CC000884206DA08463449086001202D49087028
:101CD0000EE0314800683849884206DD08462E4942
:101CE000086001202749087002E00020254908709B
:101CF000294800883149088027480068FFF7ABF978
:101D00002F4A03C200222F4B2D4903C9FEF704FFBF
:101D10002B4A03C200201D4908701949087007E0CA
:101D20001A480078401C19490870012014490870AD
:101D300016480078322809DD02200D4908700A2073
:101D40000C49086000201149087008E00320084988
:101D50000870C8200749086000200C49087004E09A
:101D600003E002E001E000E000BF00BF284670BDD4
:101D7000F4020020F8020020FD020020FE020020F4
:101D8000060300200703002008030020FC020020B7
:101D9000FF02002000030020F00200203075000048
:101DA00048E80100D4020020EE020020D9130020F0
:101DB0009A19000070FEFFFF52030000EC020020A1
:101DC000D802002000002440FEB5002001900090C1
:101DD000FE480078030005F0B5FD09061FFB709C66
:101DE000FAF9F8F7FB00FA480068002813D102203E
:101DF00005F072FC0120F54908700520F4490860DF
:101E00000020F4490860F4490860F4490870F44976
:101E10000870F4490870B0E2ED48006800284BD122
:101E2000F14800F0B9FBF0480078EA49086008463C
:101E3000006800020860EC48407809684018E549ED
:101E40000860EA48E4490860E248006803210903A1
:101E5000884218D1E0480068E449884213D1032041
:101E6000DA4908700520DA4908600020E049087066
:101E7000DA490870DF490880DF490870DF490870D7
:101E8000DF49087018E00020D04908700A20D049C6
:101E90000860D7480078401CD5490870084600788B
:101EA000202806DD7D20C000C94908600020D049F7
:101EB00008700120C94908705FE2C5480068002821
:101EC00026D100F05CFB0190019800280BD1042082
:101ED000BE4908700A20BE4908600020C449087045
:101EE000BE49087014E00A20B9490860C04800786B
:101EF000401CBF49087008460078202805DD0120F5
:101F0000B24908700020BA4908700120B34908702E
:101F100033E2AF48006800287DD1B34800F05CFB95
:101F200001900198002877D100BFB6490860AE48FB
:101F3000007808600846006800020860AA484078F7
:101F400009684018AF49086008460088AE49088013
:101F50001421AD480088FEF74FFBAB4908800846C6
:101F60000088AA490880A7480068FFF774F804466B
:101F70000D460022A64B20462946FFF777F8044677
:101F80000D460022A34B20462946FEF7C5FD044618
:101F90000D460022A04B20462946FEF79AFD044636
:101FA0000D4600229D4B20462946FFF75FF8044668
:101FB0000D4600229A4B204629460BF013F908D211
:101FC00001208749087012E0D5E1D3E1C5E1C3E102
:101FD000D2E10022934B204629460BF035F903D27B
:101FE00001207F49087002E000207D4908702046EA
:101FF0002946FEF7B5FF00B28B4908800022874BC7
:1020000020462946FEF788FD06460F460022824BF1
:102010003046394601E09EE18FE1FEF74DFD064670
:102020000F4600227B4B30463946FFF71FF8064625
:102030000F460022764B30463946FEF76DFD0646C8
:102040000F4630463946FEF7C1FF7849088076488A
:10205000008881B276480AF02FFC73490020085EA0
:10206000744908800846008881B273480AF024FC4D
:1020700000226A4B20462946FEF74EFD0646FEF733
:1020800061FB6E49086000205E4908605648C078D0
:102090000860084600680002086053480079096833
:1020A00040185849086008460068FEF7D4FF044607
:1020B0000D460022624B20462946FEF7D7FF044614
:1020C0000D460022534B20462946FEF725FD0446C7
:1020D0000D4600221346204629460BF083F805D210
:1020E0000024254601203F4908700FE00022544B90
:1020F000204629460BF0A8F805D20024504D0120B7
:102100003849087002E00020364908702046294608
:10211000FEF75CFF4B4908800022404B20462946D1
:10212000FEF7FAFC06460F460022474B304639467A
:10213000FEF7C2FC06460F460022364B30463946B3
:10214000FEF794FF06460F460022404B30463946C4
:10215000FEF7E2FC06460F4630463946FEF736FFEC
:102160003B490880374801883148C01C0AF0A4FB6D
:102170003448008800B2374908800846008881B298
:102180002D48C01C0AF098FB00222D4B2046294602
:10219000FEF7C2FC0646FEF7D5FA2F490860204636
:1021A0002946FEF713FF2D490860062007490870ED
:1021B000BE200749086000200D49087007490870D3
:1021C0000C48008825490988401849E0B0020020E1
:1021D000B4020020BC020020C0020020C80200207F
:1021E000C9020020CA020020A40200202030000002
:1021F000B802002076050020780500207305002035
:1022000072050020C4020020E4020020E602002043
:1022100000E06540E0FFEF400080464000002440C1
:10222000000079C000B08D40A00200208A05002087
:10223000D313002008050020D8140020CC02002071
:1022400000408F40A20200200000184000405F4084
:102250008C05002020050020D0020020E002002094
:102260004749088047480078401C4649087008469E
:102270000078052860DB012607E070004249095A12
:10228000701C4000404A1152761E002EF5DA3D487F
:1022900001783B480088FEF7AFF93B4908800020F1
:1022A000384908703649088038480078032804DA2D
:1022B00036480078401C35490870344800780328B7
:1022C0003ADB002032490880401E3249088000264F
:1022D00018E070002C49085A2D490988884204DD0D
:1022E00070002949085A2A49088070002649085A6E
:1022F00028490988884204DA70002349085A254988
:102300000880761C032EE4DB2148008821490988D7
:10231000401A2149088021480078012809D108463F
:1023200000881F490988884203DD01201D49087083
:1023300002E000201B4908700DE003201A490870D4
:1023400064201A4908601A480078401C184908702F
:1023500001201849087010E00FE0144800680028B8
:1023600007D1032010490870002010490860104967
:10237000087002E001E000E000BF00BF0098FEBD71
:1023800076050020780500206C05002072050020ED
:102390007A0500207C0500206805002074050020D7
:1023A0006A05002073050020B0020020B40200205E
:1023B000B8020020C8020020002101484170704787
:1023C0002460004000210148417070475C6000407B
:1023D00000210148417070476460004000210148BD
:1023E000417070476060004000B5C0229178F822CB
:1023F00011401C4A127811431B48EA2923D00ADCF9
:102400000A46E03A130005F09DFA0A181C20242A17
:102410002A2A2A161A2AED291FD004DCEB2916D005
:10242000EC291CD117E0F02903D0F82917D10F4867
:1024300015E00F4813E00D4811E00E480FE00E487C
:102440000DE00E480BE00E4809E00E4807E00E488C
:1024500005E00E4803E00E4801E0034800BF00BF5E
:1024600000BD0000201C024040420F000048E8016F
:10247000006CDC0200366E010024F400001BB70083
:1024800000127A00808D5B0000093D00C0C62D005F
:1024900080841E00F0B585B00746002529480088D5
:1024A00000284BD028480088002847D027480088BB
:1024B000002843D025480088254988423ED0002482
:1024C00000263846FFF732F8044622492046FEF738
:1024D0001BFF06461D480088FFF730F83146039081
:1024E0000AF0B0FF06463046FEF7E4FE00221A4B23
:1024F00001910090FEF710FB03910290FEF722F984
:1025000004461648056826460146486831460AF0E2
:1025100015FF294603900AF0CBFE054621463046BA
:102520000AF00CFF06460D49886831460AF006FF9E
:10253000294603900AF0BCFE054600BF284605B0B8
:10254000F0BD0000B4040020B6040020B204002056
:10255000FFFF0000000020410088C3401812002047
:102560000146CA785006400E7F2806D18A7880201E
:102570001040802801D1002070470120FCE71CB5E5
:1025800000200190012001AB242244210090022070
:1025900007F026FE1CBD00001CB5044601200C49B6
:1025A00008700CA000680190012001AB3722442183
:1025B0000090022007F014FE02202346002244214E
:1025C000009007F0ABFD0020014908701CBD000021
:1025D000100300208100000038B50446012008499E
:1025E000087006202346002244210090022007F0B4
:1025F00095FD0546002002490870284638BD0000B8
:1026000010030020134908700021134A1180134A57
:102610001180134A1170134A1170134A1180134A22
:102620001180134A117000BF00BF12490322120229
:1026300089184979022291430E4A03231B02D218BA
:10264000517100BF00BF00210B4A11600B4A11708D
:1026500070470000A0050020A2050020A40500206E
:10266000A6050020A7050020A8050020AA05002037
:10267000AC05002000000440980500208E050020D5
:102680002848007801284BD127480078002847DDEA
:1026900026480021415E962911DA25490020085E6E
:1026A0004B21C90088420ADD22480088224988421D
:1026B0000ADA20480088401C1E49088004E00020F7
:1026C0001E4908701B4908801A4800881C4909687F
:1026D000884202D901201949087018480078012859
:1026E0000FD118480088FF21F531884209DD1648CE
:1026F0000068401E154908600120154908701549F9
:1027000008701348007801280AD10E480088FF217C
:10271000F531884204DC00200D4908700D4908702D
:1027200070470000A00500208F050020A2050020B2
:10273000A8050020AA050020FFFF0000A605002034
:102740009C050020A4050020940500209805002089
:10275000A70500208E050020F0B51FB48CB00446FC
:102760000D4600BF00BF00BF00BF00BF22462B4682
:1027700020462946FEF77AFC22462B46039102901A
:10278000FEF774FC06460F462E492F480691079027
:1027900032463B4607990698FEF768FC079106907B
:1027A00022462B4620462946FEF760FC06460F4689
:1027B000264827490991089032463B4609990898CE
:1027C000FEF754FC0991089026462F4621482249DD
:1027D0000B910A9032463B460B990A98FEF746FC4D
:1027E0000B910A901D4E1E4F06A80FC8FEF771F9F7
:1027F000019100900B9B0A9AFEF75EF932463B4628
:1028000003910290FEF758F905910490179B169AD0
:102810000F990E98FEF72AFC06460F460022114B30
:1028200030463946FEF778F90B910A900B9B0A9ACD
:1028300005990498FEF71AFC06460F4630463946BD
:1028400011B0F0BDE025DD3B0F93453F8069AC58EA
:102850005760933FCA7F924C987AEC3FB20FB22CEC
:1028600098C80440D0BCF840F7B584B004460D4683
:1028700000BF00BF22462B4620462946FEF7F6FB46
:102880000391029006998868C96801910090039BA2
:10289000029AFEF7EBFB06460F46069803C822464F
:1028A0002B4601910090FEF7E1FB03910290304628
:1028B0003946039B029AFEF7FFF806460F46064A82
:1028C000064B30463946FEF7F7F806460F463046C7
:1028D000394607B0F0BD00009A99999999F0A8C0BF
:1028E00070B58AB005460E46144600BF00BF00BF53
:1028F0002A46334628463146FEF7B8FB0791069034
:10290000616A206A03910290079B069AFEF7AEFB6C
:1029100009910890E169A0692A4633460391029023
:10292000FEF7A4FB07910690079B069A0999089861
:10293000FEF7C2F80391029061692069019100904D
:10294000039B029AFEF7B8F8059104900599049844
:102950000AB070BDF0B58BB004460D4616461F4652
:1029600000BF00BF00BF00BF099508941298C16A5C
:10297000806A01910090119B109AFEF7AAF80791C6
:10298000069030463946079B069AFEF76FFB059185
:102990000490059B049A09990898FEF79AF8039108
:1029A0000290039902980BB0F0BD0000F0B51FB47F
:1029B00088B000BF00BF00BF00BF139912980191FB
:1029C000009008A80FC8FFF7C7FE04460D46204632
:1029D0002946FEF7FBFA1A4908801A4A1A4B204684
:1029E00029460AF0FFFB01D200242546174A20465B
:1029F0002946FFF739FF07910690144A20462946D9
:102A0000FFF76EFF0591049010480290099908980D
:102A100001910090059B049A07990698FFF79AFF89
:102A200006460F460A4A0B4B304639460AF0DAFB97
:102A300001D200263746304639460DB0F0BD0000C1
:102A4000B00400208195438B6CE7BB3F80040020DD
:102A5000FCA9F1D24D62503F01210548017705489C
:102A6000808808430349888000200349087770471D
:102A700000610040601504400060004008B500207F
:102A80001649087016488088012108431449888037
:102A90000846408913490840114948810846008981
:102AA000104908400E4908810846008989150843E5
:102AB0000B4908810020009005E000BF68460078BF
:102AC000401CC1B20091684600780E28F5D9044830
:102AD0000089012108430249088108BDE000002067
:102AE00060150440FEFF0000012106480170064801
:102AF0008088022108430449888000200349087027
:102B000070470000206100406015044020600040D4
:102B100008B5164880880221084314498880084671
:102B200040891349084011494881084600891049E5
:102B300008400E49088108460089491508430B4999
:102B400008810020009005E000BF68460078401C26
:102B5000C1B20091684600780E28F5D90348008973
:102B6000022108430149088108BD000060150440A6
:102B7000FDFF00000548407C8021884303494874DC
:102B800000BF00BF00BF00BF00BF7047201A044055
:102B9000384800781021084336490870002036492B
:102BA0000874012135480170002035490870324908
:102BB00048744B2088745320C8740846407C012117
:102BC00008432D494874262008752E48807C022130
:102BD00008432C4988740846807C01210843294910
:102BE00088742548007C0821084323490874084656
:102BF000007C04210843204908740846007C802199
:102C000008431D4908740846007C402108431A49BE
:102C1000087400211948017000BF1B48C07D0421C1
:102C200088431949C87519488079400840001749F8
:102C300088711648203080794008400013492031BF
:102C4000887100BF00BF1048C07D042188430E4931
:102C5000C8750E488079022188430C4988710B4859
:102C6000203080790221884308492031887100BFD3
:102C70007047000020040240201A044040610040D8
:102C800040600040401B04406008044000030440D2
:102C900010B503480078002801D008F0A9FD10BD48
:102CA0000060004010B506480079002801D008F007
:102CB0004BFD03484079002801D008F075FD10BD98
:102CC0000060004010B50648007A002801D008F0E6
:102CD0004DFD0348407A002801D008F06BFD10BD7F
:102CE0000060004010B50648007B002801D008F0C5
:102CF00043FD0348407B002801D008F061FD10BD72
:102D00000060004010B50648007C002801D008F0A3
:102D100039FD0348407C002801D008F057FD10BD64
:102D20000060004010B50648007D002801D008F082
:102D30002FFD0348407D002801D008F00BFD10BD99
:102D40000060004010B50648007E002801D008F061
:102D500025FD0348407E002801D008F001FD10BD8C
:102D60000060004010B50348007F002801D007F044
:102D700085FA10BD0060004010B5034800780028B7
:102D800001D007F053FB10BD2060004010B507488C
:102D90000079002801D009F0A7FD0448001D407803
:102DA000002801D0FFF708FB10BD000020600040A4
:102DB00010B50348007A002801D009F03FFE10BD8D
:102DC0002060004010B50348007B002801D009F0C6
:102DD00005FE10BD2060004010B50748007C0028AB
:102DE00001D009F075FD044810304078002801D06A
:102DF00009F080FD10BD00002060004010B50348C0
:102E0000007D002801D009F075FE10BD2060004053
:102E100010B50348007E002801D009F025FE10BD42
:102E20002060004010B50748007F002801D009F05D
:102E300055FD04481C304078002801D009F060FDA1
:102E400010BD00002060004010B506480078002842
:102E500001D007F01FFF03484078002801D004F09C
:102E60004FFF10BD4060004010B5034800790028B6
:102E700001D009F04BFD10BD4060004010B5034883
:102E8000007A002801D009F047FD10BD40600040E5
:102E900010B50348007B002801D009F043FD10BDA8
:102EA0004060004010B50348007C002801D009F0C4
:102EB0003FFD10BD4060004010B50348007D002874
:102EC00001D004F06BFD10BD4060004010B5074814
:102ED000007E002801D009F0E9FC04481830407851
:102EE000002801D008F078FC10BD000040600040D0
:102EF00010B50748007F002801D008F073FC044893
:102F00001C304078002801D0FFF75CFA10BD0000AB
:102F10004060004010B506480078002801D004F059
:102F20006DFE03484078002801D0FFF757FA10BD26
:102F30006060004010B507480079002801D004F017
:102F400063FE0448001D4078002801D0FFF740FAD6
:102F500010BD00006060004010B50348007A0028F2
:102F600001D009F0EBFC10BD6060004010B50348D3
:102F7000007B002801D009F00BFD10BD606000400F
:102F800010B50348007C002801D009F007FD10BDF2
:102F90006060004010B50348007D002801D009F0B2
:102FA000EBFC10BD6060004010B50348007E0028B7
:102FB00001D009F0E7FC10BD6060004010B5034887
:102FC000007F002801D00AF071F810BD6060004059
:102FD000F1B584B000200290244904980AF006FA62
:102FE00041D800BF00BF0498FEF764F904460D46BF
:102FF0000498FEF75FF9064622462B46FEF736F8A0
:1030000004460D461A4A1B4B20462946FEF72EF869
:1030100004460D460498FEF74DF90646164A174B2E
:10302000FEF724F80191009020462946019B009A62
:10303000FDF742FD04460D46114A124B2046294633
:10304000FDF73AFD04460D460A210F480088FDF7BA
:10305000D3FA064620462946FDF7B8FF864201D33B
:103060000120029000BF029805B0F0BD000034427C
:10307000C6A70018CFA0A13F2997C62FBC2218C011
:10308000D0622992AF477140A202002070B500F0D3
:103090006FFA7D21C9000F480068FDF7A3FA0546C5
:1030A0002C46601E0C49884200D90CE0601E0B497A
:1030B00048610321081F00F05BF800200749886180
:1030C0000720086100BF00F053FA0020044908609F
:1030D00070BD000038070020FFFFFF0000E000E0A7
:1030E00024020020C206D20E01219140014A116043
:1030F0007047000080E200E0C206D20E012191403C
:10310000014A11607047000080E200E0C206D20E62
:1031100001219140014A11607047000080E200E007
:10312000C206D20E01219140014A11607047000091
:1031300080E200E0C206D20E01219140014A1160F6
:103140007047000080E100E0C206D20E01219140EC
:10315000014A11607047000000E100E0C206D20E93
:1031600001219140014A11607047000000E100E038
:1031700010B5002819DA1A4A03071B0F083B9B08F1
:103180009B00D2588307DC0EFF23A3409A438B0792
:103190001B0E8407E40EA3401A43114B0407240FAF
:1031A000083CA408A4001A5118E00E4A03231B028D
:1031B000D21883089B00D2588307DC0EFF23A3405C
:1031C0009A438B071B0E8407E40EA3401A43054B5A
:1031D000032424021B198408A4001A5110BD000006
:1031E0001CED00E000E100E0F0B50C4615460123BF
:1031F000A340D9B22A462B0004F0A4FB06042C54A9
:10320000787E9EBD5D4B1B5C8B435C4E33545B4BA9
:10321000603B192676019B191B5C0B43574E603EA1
:1032200019277F01F6193354544B203B1B5C8B4309
:10323000524E203E3354514B103B1B5C8B434F4E40
:10324000103E33544D4B303B1B5C8B434B4E303E5A
:10325000335490E0494B1B5C8B43484E3354474BEF
:10326000603B192676019B191B5C0B43434E603E65
:1032700019277F01F6193354404B203B1B5C8B43CD
:103280003E4E203E33543D4B103B1B5C8B433B4E2C
:10329000103E3354394B303B1B5C0B43374E303EB2
:1032A000335468E0354B1B5C8B43344E3354334B03
:1032B000603B192676019B191B5C0B432F4E603E29
:1032C00019277F01F61933542C4B203B1E5C0E430B
:1032D0001E542A4B103B1E5C8E431E54274B303B22
:1032E0001B5C8B43254E303E335444E0234B1B5C28
:1032F0000B43224E33543EE0204B1E5C8E431E5443
:103300001E4B603B192676019B191B5C8B431B4EA1
:10331000603E19277F01F6193354184B203B1B5C84
:103320008B43164E203E3354144B103B1B5C8B4397
:10333000124E103E33541EE0104B1B5C8B430F4E5D
:1033400033540E4B603B192676019B191B5C8B4353
:103350000A4E603E19277F01F6193354074B203B74
:103360001B5C8B43054E203E3354044B103B1E5CCC
:103370000E431E5400BF00BFF0BD000060000440BB
:103380000349086000BF024909680029FBD1704762
:103390004002002010B561480068401C5F49086089
:1033A00001205F4908707D21C9005C480068FDF775
:1033B00019F9002904D15B480068401C594908608C
:1033C00059480088401C584908805848006800281F
:1033D00004D056480068401E5449086054480068AC
:1033E000002804D052480068401E514908605148E6
:1033F0000068002804D04F480068401E4D4908600E
:103400004D480068002804D04B480068401E4A49D7
:1034100008604A480068002804D048480068401EF8
:103420004649086046480068002804D044480068BF
:10343000401E4349086043480068002804D04148C2
:103440000068401E3F4908603F480068002804D0DB
:103450003D480068401E3C4908603C480068002820
:1034600004D03A480068401E38490860384800884F
:10347000012809D1374800883749884204DA35489D
:103480000088401C3349088034480068401C334998
:1034900008603348007801282ED132480068096856
:1034A00088420FD100BF00BF2F48032109024018F6
:1034B0004079022188432C4903221202891848715D
:1034C00000BF29E02948006824490968884223D8B8
:1034D00000BF00BF2448032109024018407902219F
:1034E00008432149032212028918487100BF00BF16
:1034F00000201A4908600FE000BF00BF1A480321EE
:103500000902401840790221884317490322120218
:103510008918487100BF00BF10BD000024020020C0
:10352000210200203C020020C204002044020020AE
:103530005C0200208402002040020020B40200202F
:103540000C030020F8020020280400202C07002093
:103550003607002034070020FFFF000098050020F8
:103560008E050020900500200000044094050020F6
:1035700010B5FEF739FF0149086010BD380700207B
:1035800010B580201B4948711A201A492039087249
:103590002B2048723C2088724D20C87200201649AA
:1035A0004860FEF721FF154908600020C043144918
:1035B000086014490860144814490860114903223E
:1035C0001202891848600F49891888600D498918C6
:1035D000C8600C49891808610A4989184861094975
:1035E0008918886107498918C861AC200849487062
:1035F00010BD00002004024000B001403807002048
:1036000080E200E000E100E0C0C0C0C000E400E0F3
:10361000001002400E4A927E01231A430C4B9A7608
:103620000C4A1278FE231A400A4B1A7001230A4AE8
:1036300013720022094B1A72064A9070402802D178
:103640001022074BDA704A1E024BC0331A807047B3
:103650000008024040220440606100406060004079
:10366000200402400020064908720021054801722A
:10367000054800780121084303490870704700009D
:1036800060600040606100404022044006480078CD
:10369000FE210840044908700121044801720020FD
:1036A00003490872704700004022044060610040F6
:1036B00060600040F8B505460E466A463146284629
:1036C00000F0BEFA0446002C1FD103201049888068
:1036D0000846C08800090001C8800846C0886946BD
:1036E000097808430A49C880684640784006000CBB
:1036F00008490882684640784006000C4882044821
:10370000408803210843024948802046F8BD000054
:10371000201104400013044070B505460E463D4894
:103720000078042108433B49087003203A49C880C7
:10373000222039492039088238480883672040020E
:10374000374908823748007C01210843354908740D
:103750000720314920394881FF20233048823248F0
:103760004883672040022E4948822B480089012166
:103770000843294908810846808A2C49084026497F
:10378000888208464089012108432349488100BFB7
:103790002748007F2021084325490877254840789D
:1037A00004210843234948702248203040780421EE
:1037B00088432049203148701F48407C04218843B9
:1037C0001D4948741C4820304078042188431A4918
:1037D0002031487000BF00BF1548007F20210843FA
:1037E00013490877134820304078022108431149D3
:1037F00020314870104820304078022188430E491B
:103800002031487000BF31462846FFF753FF044679
:10381000204670BD2004024020110440A780000013
:10382000001304406004044097400000FEFF0000C5
:1038300060080440000304404000044000BF044806
:103840004088202108400028F9D00248807C704739
:1038500000110440001304400449087400BF0449E7
:103860000988602211400029F9D1704700130440F3
:1038700000110440F8B505460E466A463146284612
:1038800000F0DEF90446002C16D10C200B4988808C
:1038900068460078C880684640784006000C0849B1
:1038A0008880684640784006000CC88003484088FD
:1038B0000C210843014948802046F8BD20110440EE
:1038C0004013044070B505460E463F480078042179
:1038D00008433D4908703D4880880C2108433B4916
:1038E000888001213A480175017601770020394925
:1038F00008750876087722203449203988823648AE
:10390000888367204002354988803548007C04213F
:1039100008433349087407202C492039C881FF2007
:103920002330C8822F48C883672040022B49C880B3
:103930002648008904210843244908810846808AD2
:1039400029490840214988820846408904210843C2
:103950001E49488100BF25480078042108432349B7
:103960000870224820300078042188431F49203104
:1039700008701F48007C042188431D4908741C48B6
:10398000203000780421884319492031087000BF95
:1039900000BF164820300078022108431349203127
:1039A00008701348203000780221884310492031E4
:1039B000087000BF31462846FFF75CFF044600F060
:1039C00019F8204670BD0000200402402011044078
:1039D00020610040206000409780000040130440B8
:1039E0006004044097400000FBFF00000003044017
:1039F0004000044010B510480089042108430E49D6
:103A0000088108464089042108430B49488108463B
:103A100040880C2108430849488000200749087560
:103A200008760D20FFF75EFB0E20FFF75BFB002101
:103A300003480175017610BD20110440206000404C
:103A400020610040F8B505460E466A4631462846D4
:103A500000F0F6F80446002C16D103200B498880AC
:103A600068460078C880684640784006000C0849DF
:103A70000881684640784006000C48810348408829
:103A800003210843014948802046F8BD60150440E1
:103A90004017044070B505460E4647480078082197
:103AA0000843454908704548808803210843434935
:103AB000888001214248017741482030017001711E
:103AC0000020404908773F492031087008712220C2
:103AD0003A49203908823C480883672040023B4924
:103AE00008813B48007C10210843394908740720AD
:103AF000324920394881FF202330488235484883A5
:103B000067204002314948812C480089012108433F
:103B10002A4908810846808A2F4908402749888217
:103B200008464089012108432449488100BF2B48A9
:103B3000C07D022188432949C87529484078082159
:103B40000843274948702648203040780821884398
:103B50002349203148702348407C0821884321496B
:103B60004874204820304078082188431D4920317E
:103B7000487000BF00BF1948C07D02218843174923
:103B8000C875174820304078102108431449203167
:103B90004870144820304078102188431149203162
:103BA000487000BF31462846FFF74CFF044600F03E
:103BB0001BF8204670BD0000200402406015044040
:103BC0000061004000600040978000004017044002
:103BD0006004044097400000FEFF000060080440BD
:103BE000000304404000044010B512480089012140
:103BF00008431049088108464089012108430D49BE
:103C0000488108464088032108430A49488000202B
:103C1000094908770849203108700720FFF762FA40
:103C20000820FFF75FFA002104480177034820309D
:103C3000017010BD6015044000600040006100404C
:103C4000F7B58AB0164664240020039002900190D4
:103C50000B980002059005990A98FCF7C3FC401CDC
:103C6000049002E00398401C0390012003998840CF
:103C700004998842F6D3039D3EE06800274A115A12
:103C80000A98FCF7AFFC0690022732E0791C0698F0
:103C9000FCF7A8FC410807917D22D2000799514307
:103CA00008460B99FCF79EFC7D21C900401A0A21A9
:103CB000484308900898211E01DB0A4600E04A426A
:103CC000002801DB034600E043429A4202DD089CE3
:103CD00001970295201E01DB014600E041421429B4
:103CE00006DA357077700020099009980DB0F0BDA4
:103CF0007F1C802FCAD36D1C102DBED3201E01DB6C
:103D0000014600E04142142903DB0298307001981B
:103D10007070002009900998E8E700002CD5000099
:103D20000021017041708170C170002284210A5409
:103D300085210A5486210A547047000000B50548C1
:103D4000FFF7EEFF0448FFF7EBFF0448FFF7E8FF3B
:103D500000BD00005C080020630900206A0A002002
:103D6000F8B5FC48008803287ED1FB480088401C39
:103D7000F9490880F9480078012801D1F8490880FC
:103D8000F848007802280DDAF7490020085EF54966
:103D900009784900F54A5052F2480078401CF14930
:103DA000087011E0002408E0601C4000EF49085A48
:103DB0006100EE4A5052601CC4B2012CF4DBEA49A7
:103DC0000020085EE9494880E648007802286ADB5E
:103DD000E748E8490880401CE749088000241BE0C8
:103DE0006000E249085EE34900228A5E904204DAFC
:103DF0006000DE49085ADF4908806000DB49085E40
:103E0000DD4900228A5E904204DD6000D749085AED
:103E1000D9490880601CC4B2022CE1DBD5490020DE
:103E2000085ED64900228A5E904204DCD149002017
:103E3000085ED2490880D0490020085ED04900229F
:103E40008A5E904204DBCC490020085ECC490880A1
:103E5000C9480088C7490988401A00B2C949088082
:103E6000084600883C2100E0CEE3484300B2C54943
:103E700008800846008881B2C34808F01DFDC1498A
:103E80000020085EC14900228A5E90420BDDBD49D8
:103E90000020085EBD4908800846008881B2BA4803
:103EA000801F08F009FDBA48007802280DDAB949E8
:103EB0000020085EB64909784900B74A5052B44814
:103EC0000078401CB249087011E0002408E0601C32
:103ED0004000B149085A6100AF4A5052601CC4B258
:103EE000012CF4DBAB490020085EAB494880A848B0
:103EF0000078022869DB9E48A8490880401CA84930
:103F0000088000241BE06000A349085EA34900224A
:103F10008A5E904204DA60009F49085A9F490880EF
:103F200060009D49085E9E4900228A5E904204DD41
:103F300060009949085A9A490880601CC4B2022C52
:103F4000E1DB96490020085E964900228A5E904295
:103F500004DC92490020085E9249088090490020C4
:103F6000085E914900228A5E904204DB8C49002061
:103F7000085E8D4908808A48008888490988401A67
:103F800000B28A490880084600883C21484300B2B4
:103F9000864908800846008881B27B48C01C08F02A
:103FA0008BFC82490020085E814900228A5E904293
:103FB0000BDD7E490020085E7D49088008460088A8
:103FC00081B27148C01E08F077FC7A480088022848
:103FD0000CDA79480068774909888900774A505097
:103FE00074480088401C7349088010E0002408E0F1
:103FF000601C800071490858A100704A5050601C34
:10400000C4B2012CF4DB6C4800686C494860694814
:104010000088022847DB6A486A4908600846006849
:104020004042694908606548406864490968401A27
:10403000664908600846006862490968884203DDED
:104040000120634908700DE0604800685E49096816
:10405000884204DA0020C0435D49087002E0002075
:104060005B4908705B4900200856594900228A566E
:104070005043012805D158480088401C5649088003
:1040800002E00020544908805348008853490988B9
:10409000884203DD50480088504908804C49002080
:1040A00008564C4908704E4800684E4988420BDA61
:1040B0004B480068404909684018494908604A4827
:1040C0000068401C484908604848008848498842C0
:1040D00004DA46480088401C444908804548007876
:1040E00000282FD14148008808282BD13E4801687C
:1040F0003B480068FCF780FA3F49086008460068C2
:104100003E490968884205DD3B4800683C4909682A
:1041100088420DDB394800684042374909688842C7
:104120000ADD37480068404233490968884203DAAB
:1041300001203449087005E0002032490870012050
:104140002C4908702B48007800285FD114202E4994
:1041500008805FE0EC040020D8040020DC0400208C
:10416000DE0400200E050020080500200A050020BE
:10417000FF7F00001005002012050020140500201C
:104180001605002018050020E41400201C0500205E
:1041900026050020200500202205002028050020FB
:1041A0002A0500202C0500202E05002030050020C7
:1041B0003405002036050020540400203805002076
:1041C0007E040000480500204C050020500500201A
:1041D0004005002041050020420500204405002044
:1041E000E00400200000FF7FE404002056050020CA
:1041F00060EA0000540500205C050020FC0400205B
:10420000F804002058050020DA040020E120C00056
:10421000FE490880FE480088FC490988884271DB15
:10422000FC480021415E96296DDBFB490020085EB9
:10423000FF215F31884266DCF8490020085EF849BA
:1042400000228A5E90425EDAF6490020085EFF2175
:104250002D318842E8DBF4490020085EAF21890057
:104260008842E8DCF1490020085EF14900228A5EBC
:104270009042E8DAEF4800880328E4DAEE48016863
:10428000EE480068FCF7B8F9ED490860ED480078A1
:104290000A280BDA08460168EA4802780078401CD0
:1042A000E84B18709000E84A115010E0002408E034
:1042B000601C8000E4490858A100E34A5050601C8B
:1042C000C4B2092CF4DBDE480068DF494862DD48EF
:1042D00000780A2877DBDD480078401CDB4908704D
:1042E000DB480768DB480068009000240EE0A0006F
:1042F000D5490858B84204DDA00009580098814209
:1043000002DB05E02BE267E1601CC4B20A2CEEDBA5
:1043100000BF0A2C6DD10025002605E0B000CA4977
:1043200008584519701CC6B20A2EF7DB0A21284628
:10433000FCF762F90546C8480088062825DA28B245
:10434000C54909884900C54A5052C3480088400001
:10435000D430C34A15542804010EBF4800884000D9
:10436000D5301154BC480088401CBB490880084621
:1043700001781046C0308174B74800880112104699
:10438000C030C1740120B7490870B74800780028D0
:104390000CD10120B5490870B5480078401CB449DB
:1043A0000870A748008800B2B2490880B248008867
:1043B000032818D1A8480088002814DD0021AF4A3E
:1043C000116000200AE0B7E04100A44A515EAB4A08
:1043D00012688918A94A1160411CC8B29E4909880F
:1043E0008842F1DB02E00020A449086000209749E0
:1043F00008700A2C72DA97480068474294480068AF
:104400004042009000240CE0A0008F490858B842B8
:1044100004DDA00009580098814200DB03E0601C25
:10442000C4B20A2CF0DB00BF0A2C6DD10025002697
:1044300005E0B000844908584519701CC6B20A2E20
:10444000F7DB0A212846FCF7D7F8054682480088A2
:10445000062825DA28B28049098849007F4A505247
:104460007D4800884000D4307D4A15542804010E50
:10447000794800884000D530115477480088401CA6
:1044800075490880084601781046C030817472482A
:10449000008801121046C030C174012071490870B3
:1044A0007148007800280CD10120704908707048CC
:1044B0000078401C6E4908706148008800B26D4960
:1044C00008806D480088032818D1634800880028B8
:1044D00014DD0021694A116000200AE014E0410067
:1044E0005E4A515E654A12688918644A1160411C2F
:1044F000C8B2594909888842F1DB02E000205F49CF
:10450000086000205149087057480078002813D1EE
:104510004E480078002810D101205349087000242B
:1045200005E00020A100484A5050601CC4B20A2C8B
:10453000F7DB002043490870ECE051480088FF2178
:104540002D318842F8DB01204749087000203F499F
:104550000870002405E00020A1003B4A5050601C78
:10456000C4B20A2CF7DB00203649087002203F490C
:10457000087044480078401C424908703048008860
:1045800000B23C4908803A4801783548E030017073
:104590003C4801783248E030417040783A49088020
:1045A000084600780006000C08802D48E0300078AE
:1045B00009884018344908802E4801782848E0309E
:1045C00081702C4800880004010E2548E030C1703D
:1045D0000120244908709DE0002407E00020A1008C
:1045E000194A505017490870601CC4B20A2CF5DBF8
:1045F0001D48007800287DD121480088FF212D31F9
:10460000884277DB012041E0AAE00000DA040020C4
:10461000D804002014050020160500201C050020E9
:104620001A0500202C0500202E050020340500204E
:104630003205002044050020E4040020E0040020AE
:10464000E8040020D6040020B812002058050020FD
:10465000FC040020F804002000050020E0120020E7
:10466000881000201A030020540500206605002051
:104670006105002064050020EC04002004050020F2
:104680005605002060050020620500204E49087094
:1046900000204E490870002405E00020A1004C4A8B
:1046A0005050601CC4B20A2CF7DB00204949087046
:1046B00002204949087049480078401C4749087061
:1046C0004748008800B24749088047480178474872
:1046D000017042480178454841704078444908805B
:1046E000084600780006000C0880404800780988D9
:1046F000401800E00EE03E4908803A4801783B4807
:104700008170384800880004010E3848C1700120CB
:1047100038490870002038490880384838490880EE
:10472000401C384908800020374908803348374901
:104730000880401C364908800020364908803649E8
:10474000088036490870364908703649088036496D
:10475000088036490880364908603649086032E0EA
:1047600000201C49087024490880304908803049DD
:104770000860304908603049087030490880304985
:1047800008801E481E490880401C1E4908800020E1
:104790002C4908801C4908802B4908702B49088047
:1047A0002B490880154819490880401C1849088081
:1047B0000020284908801749088001200249087014
:1047C000002002490870F8BD54050020580500205B
:1047D000B8120020D60400206605002060050020E5
:1047E000E804002064050020610500206811002015
:1047F000620500201A030020DE040020FF7F000075
:1048000014050020160500201C0500202C050020A2
:104810002E0500203405002036050020410500202B
:10482000400500204205002044050020D804002057
:10483000E0040020E40400200E0500201005002004
:10484000120500201805002026050020280500205C
:104850002A0500203005002010B5FDF785F801205D
:104860000C49087000200C4908600C4908600C488D
:104870000C4908600C480D49086000200C4908608C
:104880000520FDF7CFF80220024908700A200349ED
:10489000086010BD24070020280700202C070020F6
:1048A0003007002048010020320700204C01002082
:1048B0005001002010B525480078030003F042F8AD
:1048C0000604070A1A314243FFF7C6FF3BE0FFF731
:1048D000C3FF38E01E480068002803D003201B49AE
:1048E000087006E01B480068002802D10120174923
:1048F000087028E000201649086004201349087059
:104900000A201449086014480088142808DD134858
:1049100000881349088008460188124807F0CCFF38
:1049200011E00C48006800280BD10520FDF77AF84B
:104930000020074908600220044908701420054936
:10494000086000E000BF00BF10BD00002407002089
:10495000500100202C0700203407002032070020DF
:10496000BE040020D01300200021154A1170002041
:1049700008E04100134A515A134A914200D103E022
:10498000411CC8B20B28F4DB00BF002803D1002172
:104990000E4A116011E00B2807D10D49896A0D4AB2
:1049A0001288891A094A116007E08100084A5158A3
:1049B000084A1288891A054A116007490870704729
:1049C000CC0400209E110020FFFF0000D004002036
:1049D000CC110020360400206A040020F8B500BF86
:1049E0000025002600BF00BFFE484079FE49088030
:1049F000084600780006000C0880FA48007909880B
:104A00004018F9490880F748C079F84908800846F5
:104A100000780006000C0880F24880790988401868
:104A2000F2490880EF48C17AF1484174090A81745B
:104A3000817C427C080210430006010CEC48417462
:104A4000090A8174817C427C08021043E549897A15
:104A5000401881B2E6484174090A81740746E1486A
:104A60000C300090002404E00098005D3855601C74
:104A7000C4B2102CF8DBDE48FDF772FD002815D01B
:104A8000DB48001DFDF76CFD00280FD0D84808302A
:104A9000FDF766FD002809D0D5480C30FDF760FD14
:104AA000002803D00120D249087402E00020D04938
:104AB0000874CC4820304078CE49088008460078F9
:104AC0000006000C0880C74820300078098840188C
:104AD000C8490880C3482030C078C74908800846C4
:104AE00000780006000C0880BE48203080780988D5
:104AF0004018C1490880BB4820304079BF49088030
:104B0000084600780006000C0880B648203000797E
:104B100009884018B949088008460088402802DD05
:104B20004020088006E0B5480088012802DA01200C
:104B3000B24908800020B2490870B2490860A9480B
:104B40002030C079B0490880084600780006000C83
:104B50000880A4482030807909884018AA49088034
:104B600008460088182812D00846008819280ED058
:104B7000084600881B280AD0084600881C2806D052
:104B8000084600881D2802D00020C0430880002469
:104B90001AE0600029309349085C61009B4A50523A
:104BA00060001146085C0006000C61005052600075
:104BB0001146095A600028308A4A105C08186100C2
:104BC000924A5052601CC4B20B2CE2DB00241AE063
:104BD000600049308349085C61008D4A5052600092
:104BE0001146085C0006000C61005052600011463E
:104BF000095A600048307B4A105C08186100844AFA
:104C00005052601CC4B20B2CE2DB002408E06000B0
:104C10007E49085A00B261007E4A5052601CC4B2FC
:104C20000B2CF4DB002407E060007949085AA1004E
:104C3000794A5050601CC4B20B2CF5DB052409E006
:104C4000A000754908580A214843A100724A5050F3
:104C5000601CC4B20B2CF3DB62486030407A6F49B1
:104C60000880084600780006000C08805D48603027
:104C7000007A09884018694908805A486030C07A2B
:104C80006749088008460078000200B2088055484D
:104C90006030807A0988401800B261490880514824
:104CA0006030407B5F49088008460078000200B20F
:104CB00008804C486030007B0988401800B2594990
:104CC0000880FFF751FE002410E0A0005649461866
:104CD000002507E0A000703040194249085C70557B
:104CE000681CC5B2042DF5DB601CC4B2082CECDBDB
:104CF0003C488030407C4D490880084600780006DA
:104D0000000C088037488030007C098840184749EB
:104D1000088001204649088000240EE0A000424996
:104D200046183046FDF71CFC002804D14049088095
:104D30003E49088003E0601CC4B2042CEEDB00BFD7
:104D400001203C49088004240CE0A00036494618A4
:104D50003046FDF705FC002802D13649088003E003
:104D6000601CC4B2082CF0DB00BF002410E0A000DF
:104D700031494618002507E0A0009830401919492C
:104D8000085C7055681CC5B2042DF5DB601CC4B20C
:104D9000032CECDB1348A0304079284908800846F2
:104DA00000780006000C08800E48A03000790988C1
:104DB0004018224908800B48A030C079204908805B
:104DC000084600780006000C08800648A03080796C
:104DD000098840181A49088001201A4908800024CF
:104DE0003FE0000088100020380200203A02002036
:104DF00024120020660400206404002068040020BF
:104E0000C4040020C80400202204002088110020CF
:104E10009E110020B4110020CC1100203604002087
:104E20007604002078040020F81100206C04002093
:104E3000700400207204002018120020B204002028
:104E4000B4040020B6040020A000FE4946183046F5
:104E5000FDF786FB002802D1FB49088003E0601CB7
:104E6000C4B2032CF0DB00BFF848407AF849088050
:104E700008460078000200B20880F448007A0988E9
:104E8000401800B2F2490880F048407FF14908809C
:104E9000084600780006000C0880EC48007F09886E
:104EA0004018EC490880084600887D21C9008842E6
:104EB00003DD0020E849087002E00120E64908709F
:104EC0000020E6490880E6490870E6490870E6498E
:104ED0000870DE4820304078E449088008460078B1
:104EE0000006000C0880D948203000780988401856
:104EF000DE49088008460088002805D0084600885A
:104F00007D21C900884203DD0020D949087002E0F4
:104F10000120D74908700020D6490870084600785B
:104F2000012806D1D448008801210843D2490880CD
:104F300005E0D1480088D1490840CF490880D048D1
:104F40000088CD490988884208D0CB480088CC49E0
:104F50000880C9480188CB4807F0AEFC0520CA4943
:104F600008800020C9490880B8482030407AC849E4
:104F70000880084600780006000C0880B3482030FE
:104F8000007A09884018C2490880B0482030C07AA9
:104F9000C0490880084600780006000C0880AB482D
:104FA0002030807A09884018BA490880084600886D
:104FB000B9490860A5482030407BB84908800846B8
:104FC00000780006000C0880A0482030007B09888B
:104FD0004018B249088008460088B14908609B48DB
:104FE0002030C07BAF49088008460078000200B23C
:104FF000088096482030807B0988401800B2A94973
:10500000088092482030407CA749088008460078F4
:10501000000200B208808D482030007C09884018CA
:1050200000B2A149088089482030C07C9F4908808F
:10503000084600780006000C088084482030807CF8
:10504000098840189949088080482030407D984957
:10505000088008460078000200B2088008460188EF
:105060007A482030007D081800B2914908807748BE
:105070002030C07D488008468078000200B2488019
:105080000846418871482030807D081800B2884960
:1050900048806E482030407E8880084600790002B3
:1050A00000B288800846818868482030007E081851
:1050B00000B27F49888065482030C07EC88008469D
:1050C0008079000200B2C8800846C1885F4820305D
:1050D000807E081800B27649C8805C482030407F46
:1050E00008810846007A000200B20881084601895A
:1050F00056482030007F081800B26D490881534897
:105100002030C07F48810846807A000200B2488182
:10511000084641894D482030807F081800B2644914
:1051200048814A484030007862490870474840301A
:105130004078614908704548403040785F490880B0
:10514000084600780006000C08804048403000788F
:1051500009884018594908803C484030C07858496F
:10516000088008460078000200B2088037484030C6
:1051700080780988401800B2514908804B4800885F
:105180003E49491C884202D10020484908804948CC
:1051900000783A49491C884202D1002045490870EC
:1051A000454800783549491C884202D100204249CF
:1051B000087043490020085E3049491C884202D1EA
:1051C00000203F49088032480088012802D0002092
:1051D0002F4908803348008800281FD031480088B4
:1051E00080B22649491C884218D02F4800880028E0
:1051F00014D02D48008880B288420FD027480088FC
:1052000000280BD025480088884207D02148008814
:10521000002803D01F480088884203D10020294974
:10522000088002E0022027490880264800881849A3
:10523000098840182449088008460088032860D15E
:105240001A4843E018120020B6040020281100205C
:10525000BA0400206A0500207405002076050020AD
:105260007805002073050020720500205A040020F4
:105270005D0400205C0400204C040020FEFF0000C0
:105280004E040020CD1300205E04002060040020A6
:10529000EE040020F2040020F8040020F4040020B2
:1052A000FC0400201A050020320500200005002023
:1052B000E01200206105002060050020620500204A
:1052C00064050020F0040020EC0400200088002881
:1052D00017DD5F480088062813DC00215D4A116055
:1052E000002009E041005C4A515E5A4A1268891860
:1052F000584A1160411CC8B2554909888842F1DBFF
:1053000002E00020534908600020544908705449C5
:105310000880544908805449086054490860544939
:1053200008705449088054490880544854490880FA
:10533000401C544908800020534908805349088084
:105340005349087053490880534908804B485349D2
:105350000880401C52490880002052490880524968
:1053600008805248407952490860084600680002A7
:1053700008604E480079096840184D4908604B485C
:10538000C0794C4908600846006800020860474838
:10539000807909684018474908604448407A46497E
:1053A000086008460068000208604048007A096802
:1053B0004018414908603E480068002816D03D4822
:1053C0000068002812D03A4800683A4909688842C3
:1053D0000CD8374800683949884207D035480068FA
:1053E000884203D034480068884203D10020344901
:1053F00008700CE02E4800682E490968884203D2E4
:1054000001202F49087002E002202D49087000BFDA
:1054100000BF2C480321090240184079022188432B
:105420002849032212028918487100BF00BF0020DA
:1054300025490860254908602549088008460088F4
:105440002449088022480188234807F035FAF8BD2E
:105450000005002004050020E0120020D6040020F2
:10546000DE040020D8040020E0040020E404002032
:105470000E0500201005002012050020FF7F00000F
:105480001405002016050020180500201C0500202A
:1054900026050020280500202A0500202C050020D4
:1054A0002E05002030050020340500206811002062
:1054B00090050020940500209C050020FFFF0000BF
:1054C0008F050020000004409805002048040020BB
:1054D0004C0400204E040020CD130020FEB5002413
:1054E000002002901AE028490298081801900198BB
:1054F00005682E46F7B225480755641C3004070E90
:1055000022480755641C3002070E20480755641CCA
:10551000370E0755641C0298001D02900298FF2860
:10552000E1D90024002002901AE01949029840189D
:105530000190019805682E46F7B214480755641C7F
:105540003004070E11480755641C3002070E0F483F
:105550000755641C370E0755641C0298001D029005
:105560000298FF28E1D9FFF739FA05F057FE0848FD
:105570000190019805682E460548F0300190019889
:10558000056800950020FEBD1C0300208810002047
:1055900000025000FFB581B00446002020E0611EEB
:1055A00015460D41EB07DB0F0146C5172D0F6D1892
:1055B0002D112D01461B651EAE1B05116F00049DAC
:1055C000ED5B3541ED07ED0F0095009DAB4204D03A
:1055D0005100029D69408AB201E051040A0C401C4E
:1055E0000A998842DBD30349A1401046884305B09D
:1055F000F0BD0000FFFF000038B500BF3AA0FAF789
:105600000DFE00BF01F0CEFF01F07AFF00BF394868
:10561000FAF704FE00BF00BF3C2000F087FB8000CB
:105620003549401844883C2000F080FB8000324916
:10563000401845882246294630A0FAF7EFFD00BF02
:105640003C2000F073FB80002B4940184088002864
:1056500032D100BF36A0FAF7E1FD00BF02F04CF9ED
:1056600001F04EFF00243F200001394B394A3A49EE
:1056700000901020FFF78EFF044600BF37A0FAF716
:10568000CDFD00BF00F03EFA00F0FEF921467E207D
:1056900000F076FA00F0AAF800F0C6F87E2116486D
:1056A000E03001771C3044803248C48700F0DCF9D8
:1056B0003220FDF765FE04E000BF2FA0FAF7AEFD33
:1056C00000BF3220FDF75CFE00BF032133A0FAF7D4
:1056D000A5FD00BF01F066FF01F00AFF01F010FF19
:1056E00001F0FEFE38BD00000A453730335F496ED9
:1056F00069743B004CDD0000860F00200A4E6F7776
:10570000204D625265675B313331305D203D20436F
:105710004D5B307833435D203D203078464646452A
:10572000203D20307825303458203D2025642E003F
:105730000A577269746520537065636966696564A8
:1057400020434D205573657220646174612E000002
:10575000CE0D0020FFFF0000058000000A5772698F
:105760007465206E6577204352433136206461743E
:10577000613B00008E0D00200A4E6F742077726925
:1057800074652053706563696669656420434D20C4
:105790005573657220646174612E00000A496E6958
:1057A0007420747970652069732025642E000000D0
:1057B00008B50C48007800280ED14E200A49087020
:1057C0000020487088700220009008460278431C30
:1057D0006C21012004F004FD012002490870002022
:1057E00008BD00008A020020B10B002008B50C485B
:1057F000007800280ED14E200A4908700020487019
:1058000088700220009008460278431C6C21012019
:1058100004F0E6FC012002490870002008BD0000E9
:1058200089020020B10B002008B50C480078002840
:105830000FD122200A490870A22048706220887087
:105840000220009008460278431C6C21012004F0DD
:10585000C7FC012001490870002008BD8802002013
:10586000B10B0020F8B506460C460027304601F083
:105870008AFD012837D100F045F94E201B490870F8
:10588000084646704C208870022000900846027836
:10589000431C6C21012004F0A3FC4820134908702C
:1058A000002504E0FF2012494855681CC5B20A2DA6
:1058B000F8DB022000900D4802780D4B6C2101208E
:1058C00004F02CFC00280DD1094840782080207875
:1058D0000006000C208020880549097840182080A7
:1058E000012700E000273846F8BD0000B10B00207A
:1058F000D10B002038B56946222000F081F804461B
:10590000012C03D168460088334908806946262067
:1059100000F076F80446012C03D1684600882F4930
:1059200008806946282000F06BF80446012C03D15A
:10593000684600882A49088069462A2000F060F8F5
:105940000446012C04D16846008800B2254908802D
:1059500069462E2000F054F80446012C03D1684615
:105960000088214908806946302000F049F8044643
:10597000012C03D1684600881C4908806946322002
:1059800000F03EF80446012C03D16846008818490F
:1059900008806946362000F033F80446012C03D114
:1059A00068460088134908806946382000F028F8C6
:1059B0000446012C03D1684600880F4908806946D7
:1059C000462000F01DF80446012C03D168460088EB
:1059D0000A490880002038BD7002002072020020B1
:1059E0007402002076020020780200207A02002053
:1059F0007C0200207E020020800200208202002023
:105A0000F8B506460C46304601F0D9FC012825D1F0
:105A100013480670002504E0FF2012494855681C11
:105A2000C5B20A2DF8DB022000900D4802780D4B1C
:105A30006C21012004F072FB00280DD10948407848
:105A4000208020780006000C2080208805490978F5
:105A5000401820800120F8BD0020FCE70020FAE774
:105A6000B10B0020D10B002010B5064C214622209E
:105A700000F0C0F8FFF79CFEFFF7B8FEFFF7D4FE7A
:105A800010BD000069B1000008B51C48007801286D
:105A90002FD14E201A490870BD2048709820887078
:105AA0000220009008460278431C6C21012004F07B
:105AB00097FB4E2012490870BF204870252088703F
:105AC0000220009008460278431C6C21012004F05B
:105AD00087FB4E200A490870D8204870362088700D
