:020000040000FA
:10000000781C0020150200001D0200001F020000E5
:1000100000000000000000000000000000000000E0
:10002000000000000000000000000000D92C0000CB
:1000300000000000000000009B010000F12C000007
:10004000A5260000B9260000D9260000F9260000E8
:1000500019270000392700005927000079270000E0
:100060008D270000A1270000C5270000D927000028
:10007000ED27000011280000252800003928000085
:100080005D2800007D28000091280000A5280000C0
:10009000B9280000CD280000E12800000529000053
:1000A00029290000492900006D290000812900004C
:1000B00095290000A9290000BD290000D1290000D0
:1000C000EF3FE9FF00F002F800F03DF80CA030C867
:1000D000083824182D18A246671EAB4654465D46C4
:1000E000AC4201D100F02FF87E460F3E0FCCB64651
:1000F0000126334200D0FB1AA246AB4633431847D1
:10010000B4C70000D4C70000002300240025002647
:10011000103A01D378C1FBD8520700D330C100D5C3
:100120000B60704710B5642902D100F0E9F810BDEA
:10013000782902D100F01AF910BD002010BD1FB5BA
:100140001FBD10B510BD01F00BFB1146FFF7F7FF07
:100150000AF004FE01F023FB03B4FFF7F2FF03BC37
:1001600006F090F9084B19680868203080F3098878
:10017000022080F31488BFF36F8F3FBCAE4608BCEB
:1001800004BC62B61847000060010020EFF3108045
:1001900072B6704780F310887047EFF309800E4BFA
:1001A0001A6820381060F0C044464D4656465F46F7
:1001B000F0C008B572B60BF005FC62B60CBC116855
:1001C00008681030F0C8A046A946B246BB4680F386
:1001D00009882038F0C818476001002070B505462E
:1001E0000C46164602E00FCC0FC5103E102EFAD278
:1001F000082E02D303CC03C5083E042E07D301CC3E
:1002000001C5361F03E021782970641C6D1C761E21
:10021000F9D270BD1948804719480047FEE7FEE74C
:10022000FEE7FEE7FEE7FEE7FEE7FEE7FEE7FEE7A6
:10023000FEE7FEE7FEE7FEE7FEE7FEE7FEE7FEE796
:10024000FEE7FEE7FEE7FEE7FEE7FEE7FEE7FEE786
:10025000FEE7FEE7FEE7FEE7FEE7FEE7FEE7FEE776
:10026000FEE7FEE7FEE7FEE7FEE7FEE7FEE700004B
:1002700004480549054A064B70470000392E000026
:10028000C500000078170020781C00207818002096
:10029000781800200FB4054910B503AA029801F0A0
:1002A0009DF910BC08BC04B01847000024010020D0
:1002B00070B5044685690068C10601D5302600E0A6
:1002C0002026C00707D070BD62683046A1689047FD
:1002D000206A401C20626D1EF6D570BD70B50446C4
:1002E00085690078C00707D170BD6268A1682020C9
:1002F0009047206A401C20626D1EF6D570BD00003C
:10030000F7B5002575291068009914A611D0C046CC
:10031000C046002802DA404211A608E000990968A8
:100320008A0701D50FA602E0490704D50EA60125CC
:1003300001E0C046C046009F0024243704E001F0DD
:1003400073F930313955641C0028F8D12B463246F8
:100350002146009801F0E9F8FEBD00000000000011
:100360002D0000002B0000002000000070B50446A6
:100370000D4621461068C046C0462188090502D5B1
:100380000F4A7A4402E00E4A7A440E322346002194
:10039000243305E006070009360F965D5E54491CBC
:1003A0000028F7D120780023000705D5702D03D051
:1003B000002901D002231132204601F0B6F870BDA9
:1003C0003AC30000F3B50446002081B02062204605
:1003D000E168884700287DD0252802D06268A1689E
:1003E00083E0454F00257F442046E1688847202868
:1003F000064608DB312E06D2B819203800780028CE
:1004000001D00543F0E7A80701D50420854300206B
:10041000E0610746A0612A2E0AD0304606F02AF88D
:10042000002827D0B8000019303E0090866119E0FE
:100430000298BA00121902C8916102902046E16840
:100440008847012F064617D1E06900281FDA2020CF
:1004500085431CE000980A2180694843009980196F
:10046000303888612046E1688847064606F002F881
:100470000028EFD1012F0AD02E2E08D12046E168A6
:1004800088470646202005437F1C022FC3DBA06956
:10049000002803DA4042A06101200543E80701D0AB
:1004A00010208543002E24D030464138192803D827
:1004B0000120C00205432036204625603146029ABD
:1004C0001546FFF72FFE00280CD0012807D0ED1DA0
:1004D000E80800E00DE0C0000830029077E72D1D2D
:1004E000029574E762683046A1689047206A401C14
:1004F0006CE7206AFEBD0000FEC200000EB5044697
:1005000015460E4612A001F085F8204601F082F84B
:1005100015A001F07FF8304601F07CF814A001F03E
:1005200079F86C460020E0720A20A0720A3407E0D5
:100530000A21284600F06BF830310546641E217010
:10054000002DF5DC204601F065F801F05BF80000B5
:100550002A2A2A20617373657274696F6E2066613E
:10056000696C65643A2000002C2066696C65200087
:100570002C206C696E652000F8B5042A2CD3830703
:1005800012D00B78491C0370401C521E83070BD0FD
:100590000B78491C0370401C521E830704D00B7853
:1005A000491C0370401C521E8B079B0F05D0C91AB3
:1005B000DF002023DE1B08C90AE0FFF70FFEF8BDAD
:1005C0001D4608C9FD401C46B4402C4310C0121FF4
:1005D000042AF5D2F308C91A521EF0D40B78491C2C
:1005E0000370401C521EEAD40B78491C0370401C57
:1005F000012AE4D409780170F8BD002203098B4276
:100600002CD3030A8B4211D300239C464EE00346B1
:100610000B433CD4002243088B4231D303098B4265
:100620001CD3030A8B4201D394463FE0C3098B429B
:1006300001D3CB01C01A524183098B4201D38B01F4
:10064000C01A524143098B4201D34B01C01A524197
:1006500003098B4201D30B01C01A5241C3088B42DC
:1006600001D3CB00C01A524183088B4201D38B00C7
:10067000C01A524143088B4201D34B00C01A524169
:10068000411A00D201465241104670475DE0CA0F40
:1006900000D04942031000D34042534000229C4600
:1006A00003098B422DD3030A8B4212D3FC2289010A
:1006B00012BA030A8B420CD3890192118B4208D3E0
:1006C000890192118B4204D389013AD0921100E042
:1006D0008909C3098B4201D3CB01C01A5241830956
:1006E0008B4201D38B01C01A524143098B4201D383
:1006F0004B01C01A524103098B4201D30B01C01AAE
:100700005241C3088B4201D3CB00C01A5241830827
:100710008B4201D38B00C01A5241D9D243088B427D
:1007200001D34B00C01A5241411A00D20146634620
:1007300052415B10104601D34042002B00D5494284
:10074000704763465B1000D3404201B50020C046AD
:10075000C04602BD70477047704700000246C80F90
:10076000C00781434B0030B54B405B009B0D20D050
:100770001923DB06C91801231B05994220DB03243A
:10078000A40704251346AB400BD3002B04D1EB0682
:1007900013409B00E34204D4012464070023121990
:1007A0005941FF231B0599420BD2C9000143500F49
:1007B00009E0CB0204D501430803024305D00548F4
:1007C00030BDFF21C905084330BD08460721090592
:1007D000884330BD0000C07FF0B50C46871A9C41AD
:1007E0000D46861A9D4103D2C01BA141D219634117
:1007F0000D0D1F0DC94EEC1BAE435CD07F057F0D68
:100800000026002F51D02D05AC46A943DD0201235F
:10081000ED0A1B051D4320231B1B24D41746E7406C
:10082000381871412F46E740CC199D4028183146B1
:1008300061410C0D27D161449A4013D50023401C1F
:10084000594152000ED14008400001224B00520590
:10085000D34207D305204007C14201D5B04900E08B
:10086000B0493046F0BD6B00002A00D001229A1832
:100870001F23203C1B1B01D5002302E0E540281864
:1008800071410C0DD7D0012424050919C407CD07E7
:1008900040084908E40F28436144002CD5D00024C7
:1008A000401C61419A40D0D1CDE76A05520DD9D1A3
:1008B000C90FC907D5E79C4D4E00002801D001247F
:1008C00000E0002434195F00002A01D0012600E076
:1008D0000026BE19954FAC420CD8AE420AD8B4429D
:1008E00006D001256D05EC42BCD010461946F0BD7E
:1008F0009942FCD000203946F0BDF0B51FB40C463B
:100900000F46811A9F412546861A9D4106D2012530
:10091000ED076F40401ABC4152187B41210D1E0D5E
:100920008D1BAC467D4D8D437ED075056D0D7CD005
:100930000D05AE46AC431B031B0B794D52429D4146
:10094000202366469B1B14D31746F7403818002611
:100950000090744160462F460741E41900989D407D
:100960002818664116D4714671189A4025D501237E
:1009700020E093182A466A415200002B00D0521CF6
:100980001E23203E9B1B002B61DD3541EE172818EE
:100990006641E8D5001876415B1C9A4000D3401CA4
:1009A0004B05F3181524E34010D3002B52D07146A9
:1009B0007118D30FC01802D3491C05B0F0BD012334
:1009C000DB079A42F9D140084000F6E701225205C0
:1009D000B21801D1002853D00123CC0ADB0299437D
:1009E000891E002A08D1020C03D0020C0004103921
:1009F00002E00246002020390023550B05D11202E7
:100A00000823550B01D152010D23550C01D11201C0
:100A10001B1DD50C01D192009B1C150D01D152005C
:100A20005B1C2025EE1A01E02CE022E00546F54093
:100A300015439840CA1AE10769181305C918002A16
:100A4000BBDA032040070818C10FC9070FE0714641
:100A50006118B2E7F10740080843711071444A0079
:100A60000CD001235B059A42A7D2C90FC907002009
:100A7000A3E74905490D26D1002001E00028F4D163
:100A800000219AE7284D6600002801D0012100E0EE
:100A9000002171185F00002A01D0012600E0002625
:100AA000BE19224FA94210D8AE420ED8B14208D08A
:100AB00001256D05E94206D01946A80241401046BD
:100AC0007BE79C4201D0214677E70020394674E756
:100AD00010B50C465C4005D50124E4076340FFF7E0
:100AE0000CFF10BDFFF778FE10BD30B40C465C4023
:100AF00004D50124E407634030BC6DE630BCFCE65D
:100B000070B50124E40761400D465D4002D4FFF753
:100B100063FE70BD6340FFF7F0FE70BDFF0700008D
:100B20000000F0FF0000F07F0000E0FF0000F87F11
:100B3000F0B5F94D0C091E092C402E402F468BB004
:100B4000A7437DD0B543FCD0002E7AD0002CFCD03A
:100B50000D465D40ED0F2543AC1BFF25AD04641928
:100B60000894C502440DC9022143500DDC02044320
:100B70000120C00701430443D2020191200C110C53
:100B800000958C46010423468B430A916146090473
:100B9000E24D8A430991010A7D4449198039097857
:100BA00005464D4301266D18F605751B6943C90CB2
:100BB000640B891C4C436418B5012C1B250C2E04B6
:100BC000B4434C434D43210C691889090591009D9C
:100BD000E90701D00121C90704912C460199670852
:100BE000CD072F434C08059DE10B4D432D0C2946A5
:100BF0006646754302950D4645432E46029D7D1B74
:100C0000B44100950D465D4301942C0C2F040D4614
:100C10005543AE462D0C3D43029503947546049C06
:100C20002D04641B049406D2029C039D641C0026C0
:100C300075410395029401AC70CC009F7D1B01E0CF
:100C40003EE162E1B44109040095079101940599E0
:100C5000A4086143090C0C464443650BE7040C46A9
:100C600066467443A646640B3C430395029474465F
:100C7000049DE4042C1B049406D2029C039D641C76
:100C8000002675410395029401AC70CC009F7D1B3A
:100C9000B44101940C465C430095650FE7000C4697
:100CA0005443A646640F3C43039502947446049D46
:100CB000E4002C1B049406D2029C039D641C0026B5
:100CC00075410395029401AC70CC009F7D1BB4412B
:100CD000AE09AF06049DC900AD092F43049DA406CB
:100CE000AD060495079D344369180791059DE10BF6
:100CF0004D432D0C29466646754302950D464543E6
:100D00002E46029D7D1BB44100950D465D43019426
:100D10002C0C2F040D465543AE462D0C3D43029539
:100D200003947546049C2D04641B049406D2029C13
:100D3000039D641C002675410395029401AC70CCA0
:100D4000009F7D1BB44101948C050694079C890A81
:100D5000611800950791019C0599A4086143090C4D
:100D60000D464543680BEF040D46644665436C0B26
:100D70003C43049FED047D1BAC4602D20025641C5D
:100D80006841009E019D371B8541084658430195E7
:100D90000C46460FC5005443600F28436546E400E7
:100DA0002C1B02D20025401C6E41019D3F1AB5410B
:100DB0002846BD09800628438446A009BF064E0286
:100DC0000699A40676180743079D002068410A99F2
:100DD000079019430020099B00906046FF191343B8
:100DE0004041E20F64003A43A4460446D71A8C41BE
:100DF000A04203D90120009020463A46C70F94181C
:100E000040416246D20F2243644664000494009C31
:100E1000BE466400D71AA446044602978C41774622
:100E2000002F01D1A04204D96046401C8446029A9A
:100E30002046C40FA64694184041049A0546D20F96
:100E4000224364466400D31A8D417146002901D1C2
:100E5000A84202D928461A46641C104301220028E1
:100E600000D0164361020020079B891904465C41AB
:100E70000223002C02DB491813466441089DCE0A68
:100E80002D145D194B056705E10A2C050D1908990C
:100E90003E43C9076940002B08D0934006D3002287
:100EA000761C5141002B01D1760876001C4A002D9A
:100EB00043DB154241D0AA433FD030460BB0F0BDD2
:100EC00006180D464D41174C7642AC411AD3951881
:100ED0001C465C41134A6D42A24113D301225205C4
:100EE0004C00D4420AD15C00D4420BD04B4002D516
:100EF00092021143E2E749004908DFE75940C90F70
:100F0000C90718E000200849D8E7054801420DD17B
:100F10000342F7D0F2E700000000FF075DBB0000CE
:100F20000000F07F0000E0FF0000F87F114859400A
:100F30000143C01241400020C0E70123089A9B06EC
:100F40009A4205DC032252078918C90FC907B5E781
:100F5000052252078918074A1143D2125140ADE7C2
:100F600070B515461C4602460B4628462146FFF73B
:100F7000DFFD70BDFFFFFF7F30B50346CA02400DA5
:100F80001043164D164C0A1502D02043002A06DBEA
:100F9000AA1A002A12DDD040FF2A0BDC30BD520510
:100FA000520D01D140004008AA1A07D4D040404257
:100FB000FF2A01DD002030BD0028FCDD4A00002BA7
:100FC00001D0012000E00020101801225205D0427B
:100FD000F0D8C817C043604030BD00001E040000B8
:100FE000000000800346CA02400D10B510430A15E8
:100FF00004D00124E4072043002A05DB0A4CA21A8E
:1010000004D4D040FF2A00DD002010BD4A00002B90
:1010100001D0012000E00020101801225205D0422A
:10102000F2D8C817C04310BD1E0400001F22030CD5
:1010300002D10F22000402D0030E03D004E00020EE
:10104000014670470002083A030F01D10001121F48
:10105000830F01D18000921E002801DB4000521E48
:10106000120551184205C012411810467047C10FB1
:10107000C90700D04042012292071143D6E701215F
:101080008907D3E7F0B58B4C0F09254689B0BD43DE
:101090007BD01D092646AE43FAD00E465E4027405F
:1010A000F60F3E43254071D024012142FBD0FF249E
:1010B000AD19A4042D1B039501252D05DB02DB0AC8
:1010C000C9022B43C90A29431E010901040F130F4A
:1010D000050121431701880B820391432D098C469A
:1010E000A90B1E438A039543B30B9A0396433F090A
:1010F000BA0B9403A74302962E467E430497B64646
:101100004E19D7190C460196544305977E43371B59
:101110007646BF1B3601B646BE0B3619009676469C
:10112000BC043719009C01D3641C00946400002F98
:1011300001D001263443029E049F754366467E43D8
:101140000496760034196E0034190094029C019EB6
:101150001C196643751BAE46069465464519059CE9
:1011600005956C43594375460891691A0191049E8F
:1011700001465143A41B0491611A009C0791E106AA
:1011800005D061090122114302E072E06EE06109BD
:10119000089D00272C0A2D066918049D7C412A0A07
:1011A0002D066918019D6241AC0DAD026D185441C8
:1011B000079A910D920255196141029A644658436B
:1011C0005443069B059A5A43121A131B9A0E9B010D
:1011D0005B187A41010B0005C3185141220A200611
:1011E00044195A419A4200D2491C012040028142CE
:1011F00003D315230226F64302E014230326F64305
:101200002020C51AA9401746AF40DA400A432046BD
:101210000399D8400914731819055118039A3843D3
:10122000D2075140AC4009D00122944006D300229D
:10123000401C5141002C01D1400840001E4A9342FD
:1012400012D3012203989206904207DB0520400743
:1012500009181A480143C012414004E00320400726
:101260000818C10FC907002009B0F0BD0020F10720
:10127000FAE705180C464C4111486D42A04115D3C0
:1012800094181A465A410E48644290410ED30120E8
:101290004A004005824209D35A00824206D359408F
:1012A000C90F084AC90700201143DDE7002006499D
:1012B000DAE700000000FF07FE070000FFFFFF7FE6
:1012C0000000E0FF0000F07F0000F87F0121C90569
:1012D0000123411842001B06D3185B0E0AD0C1102F
:1012E0000722D206891840075242D14201D5520046
:1012F00089187047090208D50146002A03D0C10F9A
:10130000C9070020704710467047420202D00020F3
:1013100002497047072109050143F4E70000F87FFF
:10132000F0B5FF252D04C609C209FF2704462E404B
:101330000137CB093E4348402A402B400746002A4C
:101340006BD0002B69D0AA4267D0AB4265D0002891
:1013500000DA32460125ED0529432C43090220021B
:10136000090AD21A4B0C7F24E31A434C000A7C442E
:10137000E35C7D242404121914145B00A218884233
:1013800001D3521C00E0400049420C465C4324114A
:101390005C43DB016415E318040A5C43C502200DBD
:1013A0000C4644436419250A5D432303EC0C0D46A7
:1013B000654300030019EB184C42A34201D35B18AC
:1013C000401CD4052018002B07D05B00C91804D39B
:1013D000401C002901D1400840003F2189048A4275
:1013E00009D3002A08DC1106090F04D0032149079C
:1013F0004018C00FC007F0BD012241001206891835
:101400007F2252069142F6D205214907C84201D5F2
:101410009010F0BDFF20C005F0BD002F00DA32466D
:101420001648AA4207D2AB4205D21902090E17D0BC
:10143000F80FC007F0BDFF2563002D06AB42F9D8B9
:101440004900A942F6D8AB4201D1A942F2D0A94243
:1014500001D1002101E061004908D0050843F0BD39
:101460001102090EFBD0FF200243D005F0BD0A4651
:101470000146104654E7000007B400000000C07F9A
:1014800010B501469E240002CA15A307002A02D007
:101490001843002A04DBA21A002A0CDDD04010BD3C
:1014A0001206120E01D140004008A21A03D4D04007
:1014B00040420028F3DDFF2248001206904201D985
:1014C000002010BDC817C043584010BD1F22030C98
:1014D00002D10F2200041CD0030E01D10002083AF1
:1014E000030F01D10001121F830F01D18000921E52
:1014F000002801DB4000521ED2055118021251187B
:101500001922904004D3491C002801D14908490000
:1015100008467047C10FC90700D040420122920718
:101520001143D3E701218907D0E7FFB504460D46F3
:1015300081B0243000902168880604D51022E0692B
:101540009143216000E00120A84201DD471B00E03B
:1015500000270498A1697A191018081AA061207848
:10156000C00602D42046FEF7A3FE002608E003983A
:101570006268A168805D9047206A401C761C2062EA
:1015800004988642F3DB2078C0060AD52046FEF791
:101590008FFE06E06268A16830209047206A401CF8
:1015A000206238467F1E0028F4DC07E0009862685D
:1015B000A168405D9047206A401C206228466D1E4D
:1015C0000028F3DC2046FEF789FE2078000602D5CD
:1015D000022005B0F0BD0120FBE70000084B70B50C
:1015E0000D467B4400F081F80446284606F07AFC5C
:1015F000002802D00020C04370BD204670BD00000E
:1016000007690000002000F083F8FEF79AFD012032
:1016100004F038FF10B5044602E0641C04F042FFF9
:1016200020780028F9D110BD01468008081A020967
:101630001018020A1018020C1018C00882001218A4
:101640005200891A01E0401C0A390A29FBD270476E
:10165000F8B5224C4E00069DA6420AD8A64201D1FA
:10166000002806D15E00A64203D8A6420AD1002A6D
:1016700008D00D24240425422CD02946002000F057
:101680004DF8F8BD0C461C430CD4994202D0EFF340
:101690000080F8BD904202D0EFF30080F8BDEFF378
:1016A0000080F8BD09242407E5008B4206D0EFF343
:1016B0000080A043591A06D2284304E0101A05D32B
:1016C000EFF30080A04380F30088F8BDEFF30080C3
:1016D000A043F1E7009500F039F8F8BD0000E0FF05
:1016E00001694A1C02610878704700B58FB0029109
:1016F0000021059105490193794403911146049015
:101700006846FEF75FFE0FB000BD0000E5FFFFFF7B
:1017100010B500F051F800F048F810BDCA0211D51C
:101720004A03520F002A04D0C803C0430121884055
:101730007047054AEFF3008108010009104380F368
:1017400000887047002070470000003010B500206E
:101750000249029A00F048F810BD00000000F87F2E
:10176000754600F071F8AE46050069465346C0085C
:10177000C000854618B020B5FEF77AFD60BC002792
:101780004908B6460026C0C5C0C5C0C5C0C5C0C54D
:10179000C0C5C0C5C0C5403D49008D467047044620
:1017A000C046C0462046FEF7D7FC10B5002801D041
:1017B00004F068FE10BD000010B5002102A000F08A
:1017C00047F8012010BD0000534947414252543AA6
:1017D0002041626E6F726D616C207465726D696E0E
:1017E0006174696F6E00000010B50C461107090F97
:1017F000092904D00A290AD008290CD104E011468D
:101800000820FFF78BFF06E0510606D501E05106E0
:1018100001D50120C007214610BDD10607D5010121
:101820000909CC084907000E0006044309E0410FEE
:1018300020024907000A0143200E00061D22D14163
:1018400001430846E7E700000048704714170020EE
:1018500070B505460C460A2000E06D1C04F022FE1F
:10186000002D06D028780028F7D102E0641C04F08F
:1018700019FE002C02D020780028F7D10A2004F0AD
:1018800011FE70BD70B58C180578401C6B075B0F9E
:1018900001D10378401C2A1106D10278401C03E0D4
:1018A0000678401C0E70491C5B1EF9D12B0705D42D
:1018B0000023521E0DD40B70491CFAE70378401C1C
:1018C000CB1A921C03E01D780D70491C5B1C521E44
:1018D000F9D5A142D8D3002070BD000010B5012178
:1018E00019480175194800782021084317490870E4
:1018F00000201749087017490875152001F0A8F84D
:1019000000BF15488078202108431349887000BF24
:1019100028200F4908700020887008468078887059
:10192000084680780821084309498870002008711A
:101930008871FF20C8720020887208460078012153
:1019400008430349087010BD406100402004024074
:1019500000500440406000406000044010B5044660
:101960000B48047200200B490875152001F070F82F
:10197000002109480175064880798011032805D0A7
:1019800003480078802108430149087010BD000019
:1019900000500440406000404061004070B50024A9
:1019A00004F00AFE04F0D9FD04F0CEFD0546002D3A
:1019B00001D0601CC4B2204670BD000070B5002488
:1019C0000025B8480078030004F046FD09061D3ADA
:1019D0005983FEFDFCFBFA00032004F003FB012009
:1019E000B04908700520B04908600020AF49087070
:1019F000AF4908700120AF4908700020AE49087057
:101A0000AE4908704AE1A8480068002817D10122B1
:101A1000A64904F081FDA5480078A02809D102203C
:101A2000A04908700A20A04908600020A149087058
:101A300005E000209B49087001209E4908702DE1B7
:101A400099480068002819D1FFF7A8FF0446002C28
:101A500009D00020934908700A20934908600120AA
:101A6000944908700AE003208E49087032208E499C
:101A700008600020924908708E4908700EE18A487B
:101A80000068002824D101228E49032004F044FD7F
:101A900004468B480078401C8949087089480078C2
:101AA000602808D104207F49087000207E49086022
:101AB000834908700CE032207B4908608048007838
:101AC000322805DD01207749087000207C49087024
:101AD000E4E075480068002877D106227A4904209E
:101AE00004F01AFD0446002C70D17849086076484D
:101AF0008078096840187549086008460068000247
:101B000008607148407809684018704908600846C4
:101B10000068000208606C480078096840186B494A
:101B20000860084600688011086008460068684937
:101B3000884206DA08466549086001205F49087056
:101B40000EE0624800686349884206DD08465F4946
:101B5000086001205949087002E0002057490870C8
:101B60005A480068FFF783FA5B4A03C20A215748C4
:101B70000068FEF74CFD5949088000205349086071
:101B80005148407909684018504908600846006883
:101B9000000208604C480079096840184B49086009
:101BA00008460068000208604748C0780968401885
:101BB00046490860084600680121C905884206E0D8
:101BC0006BE069E067E065E063E061E041E006DB6F
:101BD0003E480068FF21090608433C490860404927
:101BE0003A480068FEF713FD384908600846006867
:101BF0003C49884206DA08463449086001202E49EB
:101C000008700EE0314800683749884206DD084612
:101C10002E49086001202849087002E0002026496A
:101C200008702A4800883149088028480068FFF772
:101C30001EFA2F4A03C200222E4B2D4903C9FEF77C
:101C400077FF2B4A03C200201D490870194908700C
:101C500007E01B480078401C19490870012015490D
:101C6000087017480078322809DD02200D490870F5
:101C70000A200D49086000201149087008E003207F
:101C800008490870C8200849086000200C490870FD
:101C900004E003E002E001E000E000BF00BF2846EE
:101CA00070BD000064030020680300206D03002065
:101CB0006E030020760300207703002078030020C5
:101CC0006C0300206F0300207003002060030020DD
:101CD0003075000048E80100400300205E0300204A
:101CE0009A19000070FEFFFF520300005C03002001
:101CF0004803002000002440FEB500200190009021
:101D0000FD480078030004F0A7FB09061FF3689460
:101D1000F2F1F0EFF300F9480068002813D1022037
:101D200004F060F90120F44908700520F3490860C7
:101D30000020F3490860F3490860F3490870F3494B
:101D40000870F349087040E2EC480068002843D16D
:101D5000F04800F055FBEF480078E9490860084674
:101D6000006800020860EB48407809684018E449C0
:101D70000860E948E3490860E14800680321090375
:101D8000884210D1DF480068E34988420BD1032024
:101D9000D94908700520D94908600020DF4908703A
:101DA000D949087018E00020D34908700A20D349A7
:101DB0000860DA480078401CD84908700846007866
:101DC000202806DD7D20C000CC4908600020D349D2
:101DD00008700120CC490870F7E1C8480068002865
:101DE00026D100F000FB0190019800280BD10420BF
:101DF000C14908700A20C14908600020C74908701D
:101E0000C149087014E00A20BC490860C348007842
:101E1000401CC249087008460078202805DD0120D2
:101E2000B54908700020BD4908700120B649087006
:101E3000CBE1B248006800287ED1B64800F000FB34
:101E400001900198002878D100BFB5490860B148D9
:101E5000007808600846006800020860AD484078D5
:101E600009684018AE49086008460088AD490880F6
:101E70001421AC480088FEF7CAFBAA49088008462E
:101E80000088A9490880A6480068FFF7F0F80446D2
:101E90000D460022A54B20462946FFF7F3F80446DD
:101EA0000D460022A24B20462946FEF741FE04467D
:101EB0000D4600229F4B20462946FEF716FE04469B
:101EC0000D4600229C4B20462946FFF7DBF80446CE
:101ED0000D460022994B204629460AF069F808D29F
:101EE00001208A49087012E06DE16BE15DE15BE180
:101EF0006AE10022924B204629460AF08BF803D271
:101F000001208249087002E00020804908702046C4
:101F10002946FFF731F800B28A4908800022864B33
:101F200020462946FEF704FE874A03C200207C496A
:101F300008607848C07801E0DCE0CDE00860084641
:101F40000068000208607348007909684018744905
:101F5000086008460068FFF78AF804460D4600222C
:101F60007A4B20462946FFF78DF804460D4600229D
:101F70006F4B20462946FEF7DBFD04460D46002246
:101F80001346204629460AF013F805D200242546B8
:101F900001205F4908700FE000226C4B2046294663
:101FA0000AF038F805D20024684D0120584908701D
:101FB00002E000205649087020462946FFF712F833
:101FC000634908800022614B20462946FEF7B0FD98
:101FD000604A03C220462946FFF704F85E490860BC
:101FE000062045490870BE204449086000204B493E
:101FF00008704549087059480078012864D14A485A
:10200000008857490988401A00B256490880084696
:102010000026865F54480027C75F3046784306464F
:10202000B6125248008880195149088051480688E4
:1020300008460788F61B30B24F4908807643B6122F
:102040004E4806604E480768F71B4E480021415E27
:102050008F4238DB48480021415E002933DD0022F1
:10206000494B394903C909F0D5FF2CD80022474B09
:10207000354903C909F09CFF25D8454840490968FE
:10208000404A0023D35EC9183D4A116011460E68CC
:10209000404900228A5E314651430E46B61231B2A3
:1020A0003D4A1180364909880246118001460A7866
:1020B0003A490A76014609880A1238494A760121C6
:1020C000374A117000BF06E000202C4908603549EE
:1020D0000880314908800DE003200749087064201A
:1020E000064908600D480078401C0C490870012022
:1020F0000549087069E00000100300201403002067
:102100001C030020200300202803002029030020B6
:102110002A030020040300202030000018030020C0
:1021200024030020540300205603002000E06540F3
:10213000E0FFEF400080464000002440000079C0EE
:1021400000889340000300203003002000408F40AF
:102150000203002038030020500300206205002005
:10216000640500206E05002068050020660500203B
:102170007005002086050020760500207C050020E3
:10218000800500206A05002000002E4000804140AC
:10219000840500206C0500207A050020C81400206A
:1021A0008A030020780500200FE009480068002815
:1021B00007D1032007490870002005490860064937
:1021C000087002E001E000E000BF00BF0098FEBD23
:1021D00014030020100300201803002000210148F0
:1021E00041707047246000400021014841707047F1
:1021F0005C6000400021014841707047646000400D
:1022000000210148417070476060004000B5C02265
:102210009178F82211401C4A127811431B48EA2990
:1022200023D00ADC0A46E03A130004F015F90A1834
:102230001C20242A2A2A2A161A2AED291FD004DC57
:10224000EB2916D0EC291CD117E0F02903D0F8298E
:1022500017D10F4815E00F4813E00D4811E00E4864
:102260000FE00E480DE00E480BE00E4809E00E4866
:1022700007E00E4805E00E4803E00E4801E0034881
:1022800000BF00BF00BD0000201C024040420F0004
:102290000048E801006CDC0200366E010024F40006
:1022A000001BB70000127A00808D5B0000093D0022
:1022B000C0C62D0080841E00FEB504460D4637487A
:1022C000008800280CD036480088002808D03548FF
:1022D0000088002804D0334800883349884203D15D
:1022E000002032490860FEBD20462946FEF736FA36
:1022F0002F4908602F492E480068FFF711F82E4932
:10230000086028480088FFF70DF906462A4801684A
:10231000304609F051FF2949086008460068FEF779
:10232000D5FF06460022264BFEF702FC01910090E5
:10233000FEF714FA1E490860224800681E4908602A
:10234000204948681A49096809F0DEFE1B490860FF
:10235000084601681848006809F090FE16490860B0
:1023600013480168006809F0CFFE14490860154859
:1023700081681248006809F0C7FE104908600846E5
:1023800001680D48006809F079FE0B4908600846AD
:102390000068064908600120A5E700003C05002010
:1023A0003E0500203A050020FFFF00004005002008
:1023B00048050020000020414C0500205005002069
:1023C0000088C340B81500200146CA785006400E68
:1023D0007F2806D18A7880201040802801D10020F3
:1023E00070470120FCE71CB500200190012001ABE3
:1023F000242244210090022005F0E8FD1CBD0000CD
:102400001CB5044601200C4908700CA0006801901E
:10241000012001AB372244210090022005F0D6FDB7
:102420000220234600224421009005F06DFD00208B
:10243000014908701CBD00008003002081000000DD
:1024400038B50446012008490870062023460022BA
:1024500044210090022005F057FD05460020024966
:102460000870284638BD000080030020012105487F
:102470000177054880880843034988800020034984
:10248000087770470061004060150440006000401C
:1024900008B50020164908701648808801210843B5
:1024A00014498880084640891349084011494881E9
:1024B00008460089104908400E49088108460089ED
:1024C000891508430B4908810020009005E000BFF2
:1024D00068460078401CC1B20091684600780E281A
:1024E000F5D904480089012108430249088108BD43
:1024F000E000002060150440FEFF000001210648B6
:102500000170064880880221084304498880002021
:1025100003490870704700002061004060150440C6
:102520002060004008B516488088022108431449FD
:102530008880084640891349084011494881084667
:102540000089104908400E4908810846008949154C
:1025500008430B4908810020009005E000BF684651
:102560000078401CC1B20091684600780E28F5D969
:1025700003480089022108430149088108BD000081
:1025800060150440FDFF00000548407C8021884321
:102590000349487400BF00BF00BF00BF00BF7047C1
:1025A000201A044038480078102108433649087042
:1025B0000020364908740121354801700020354952
:1025C0000870324948744B2088745320C8740846F8
:1025D000407C012108432D494874262008752E4867
:1025E000807C022108432C4988740846807C0121A4
:1025F0000843294988742548007C08210843234959
:1026000008740846007C04210843204908740846E1
:10261000007C802108431D4908740846007C402145
:1026200008431A49087400211948017000BF1B486B
:10263000C07D042188431949C8751948807940082C
:1026400040001749887116482030807940084000C2
:1026500013492031887100BF00BF1048C07D04219C
:1026600088430E49C8750E488079022188430C4979
:1026700088710B4820308079022188430849203135
:10268000887100BF7047000020040240201A0440F7
:102690004061004040600040401B0440600804402E
:1026A0000003044010B503480078002801D008F06A
:1026B0004FFB10BD0060004010B5064800790028AF
:1026C00001D008F0F1FA03484079002801D008F061
:1026D0001BFB10BD0060004010B50648007A0028C2
:1026E00001D008F0F3FA0348407A002801D008F03E
:1026F00011FB10BD0060004010B50648007B0028AB
:1027000001D008F0E9FA0348407B002801D008F026
:1027100007FB10BD0060004010B50648007C002893
:1027200001D008F0DFFA0348407C002801D008F00F
:10273000FDFA10BD0060004010B50648007D00287D
:1027400001D008F0D5FA0348407D002801D008F0F8
:10275000B1FA10BD0060004010B50648007E0028A8
:1027600001D008F0CBFA0348407E002801D008F0E1
:10277000A7FA10BD0060004010B50348007F002894
:1027800001D005F071FC10BD0060004010B5034899
:102790000078002801D005F03FFD10BD206000400A
:1027A00010B507480079002801D008F053FF04480D
:1027B000001D4078002801D0FFF710FD10BD00007B
:1027C0002060004010B50348007A002801D008F0CE
:1027D000DBFF10BD2060004010B50348007B0028DF
:1027E00001D008F0B1FF10BD2060004010B50748CF
:1027F000007C002801D008F021FF04481030407808
:10280000002801D008F02CFF10BD0000206000401F
:1028100010B50348007D002801D009F011F810BD63
:102820002060004010B50348007E002801D008F069
:10283000C1FF10BD2060004010B50748007F002890
:1028400001D008F001FF04481C304078002801D076
:1028500008F00CFF10BD00002060004010B50648D5
:102860000078002801D006F00BF9034840780028D2
:1028700001D003F0C7FE10BD4060004010B5034812
:102880000079002801D008F0F7FE10BD406000403C
:1028900010B50348007A002801D008F0F3FE10BDFF
:1028A0004060004010B50348007B002801D008F0CC
:1028B000EFFE10BD4060004010B50348007C0028CA
:1028C00001D008F0EBFE10BD4060004010B5034899
:1028D000007D002801D003F0EBFD10BD40600040FA
:1028E00010B50748007E002801D008F083FE044898
:1028F00018304078002801D008F01EFA10BD000002
:102900004060004010B50748007F002801D008F063
:1029100019FA04481C304078002801D0FFF764FC05
:1029200010BD00004060004010B506480078002847
:1029300001D003F0E5FD03484078002801D0FFF7FF
:102940005FFC10BD6060004010B5074800790028AA
:1029500001D003F0DBFD0448001D4078002801D0C1
:10296000FFF748FC10BD00006060004010B5034850
:10297000007A002801D008F097FE10BD606000408A
:1029800010B50348007B002801D008F0B7FE10BD49
:102990006060004010B50348007C002801D008F0BA
:1029A000B3FE10BD6060004010B50348007D0028F4
:1029B00001D008F097FE10BD6060004010B50348DC
:1029C000007E002801D008F093FE10BD606000403A
:1029D00010B50348007F002801D009F04DFA10BD62
:1029E0006060004070B500F01FFA7D21C9000F48FB
:1029F0000068FDF702FE05462C46601E0C49884221
:102A000000D90CE0601E0B4948610321081F00F04B
:102A10005BF80020074988610720086100BF00F0CB
:102A200003FA00200449086070BD0000E0050020A2
:102A3000FFFFFF0000E000E06C020020C206D20EA3
:102A400001219140014A11607047000080E200E0DE
:102A5000C206D20E01219140014A11607047000068
:102A600080E200E0C206D20E01219140014A1160CD
:102A70007047000080E200E0C206D20E01219140C2
:102A8000014A11607047000080E200E0C206D20EE9
:102A900001219140014A11607047000080E100E08F
:102AA000C206D20E01219140014A11607047000018
:102AB00000E100E0C206D20E01219140014A1160FE
:102AC0007047000000E100E010B5002819DA1A4A4A
:102AD00003071B0F083B9B089B00D2588307DC0EA3
:102AE000FF23A3409A438B071B0E8407E40EA340E9
:102AF0001A43114B0407240F083CA408A4001A51E0
:102B000018E00E4A03231B02D21883089B00D258F8
:102B10008307DC0EFF23A3409A438B071B0E840719
:102B2000E40EA3401A43054B032424021B19840816
:102B3000A4001A5110BD00001CED00E000E100E00F
:102B4000F0B50C4615460123A340D9B22A462B0006
:102B500003F082FC06042C54787E9EBD5D4B1B5C0A
:102B60008B435C4E33545B4B603B192676019B19BB
:102B70001B5C0B43574E603E19277F01F6193354F7
:102B8000544B203B1B5C8B43524E203E3354514BE5
:102B9000103B1B5C8B434F4E103E33544D4B303B30
:102BA0001B5C8B434B4E303E335490E0494B1B5CD7
:102BB0008B43484E3354474B603B192676019B1993
:102BC0001B5C0B43434E603E19277F01F6193354BB
:102BD000404B203B1B5C8B433E4E203E33543D4BD1
:102BE000103B1B5C8B433B4E103E3354394B303B08
:102BF0001B5C0B43374E303E335468E0354B1B5C57
:102C00008B43344E3354334B603B192676019B196A
:102C10001B5C0B432F4E603E19277F01F61933547E
:102C20002C4B203B1E5C0E431E542A4B103B1E5C5B
:102C30008E431E54274B303B1B5C8B43254E303E4E
:102C4000335444E0234B1B5C0B43224E33543EE091
:102C5000204B1E5C8E431E541E4B603B1926760192
:102C60009B191B5C8B431B4E603E19277F01F61995
:102C70003354184B203B1B5C8B43164E203E335481
:102C8000144B103B1B5C8B43124E103E33541EE022
:102C9000104B1B5C8B430F4E33540E4B603B19267D
:102CA00076019B191B5C8B430A4E603E19277F01FE
:102CB000F6193354074B203B1B5C8B43054E203EDB
:102CC0003354044B103B1E5C0E431E5400BF00BF28
:102CD000F0BD000060000440704700000349086038
:102CE00000BF024909680029FBD170478802002013
:102CF00010B500F001F810BD10B53D480068401C4B
:102D00003B49086001203B4908707D21C9003848D3
:102D10000068FDF772FC002904D137480068401CA8
:102D20003549086035480088401C344908803448DB
:102D30000068002804D032480068401E304908600E
:102D400030480068002804D02E480068401E2D49F5
:102D500008602D480068002804D02B480068401EF9
:102D60002949086029480068002804D027480068DD
:102D7000401E2649086026480068002804D02448E0
:102D80000068401E2249086022480068002804D0DC
:102D900020480068401E1F4908601F48006800283E
:102DA00004D01D480068401E1B4908601B4800688D
:102DB000002804D019480068401E184908601848C7
:102DC0000068002804D016480068401E14490860B6
:102DD00000BF1448032109024018407902214840ED
:102DE0001049032212028918487100BF10BD00006B
:102DF0006C02002069020020840200208805002067
:102E00008C020020A4020020E002002088020020A2
:102E1000140300207C030020680300209804002095
:102E2000D80500200000044010B5FFF7EFF9014974
:102E3000086010BDE005002010B580201B494871D6
:102E40001A201A49203908722B2048723C208872B7
:102E50004D20C872002016494860FFF7D7F9154980
:102E600008600020C04314490860144908601448F1
:102E700014490860114903221202891848600F4959
:102E8000891888600D498918C8600C49891808613B
:102E90000A498918486109498918886107498918C8
:102EA000C861AC200849487010BD000020040240F1
:102EB00000B00140E005002080E200E000E100E019
:102EC000C0C0C0C000E400E0001002400E4A927E84
:102ED00001231A430C4B9A760C4A1278FE231A40AF
:102EE0000A4B1A7001230A4A13720022094B1A7204
:102EF000064A9070402802D11022074BDA704A1E11
:102F0000024BC0331A807047000802404022044040
:102F100060610040606000402004024000200649DB
:102F20000872002105480172054800780121084314
:102F30000349087070470000606000406061004015
:102F40004022044006480078FE21084004490870E9
:102F500001210448017200200349087270470000F3
:102F6000402204406061004060600040F8B50546C2
:102F70000E466A463146284600F0BEFA0446002C4A
:102F80001FD10320104988800846C088000900012D
:102F9000C8800846C0886946097808430A49C8803D
:102FA000684640784006000C084908826846407828
:102FB0004006000C48820448408803210843024927
:102FC00048802046F8BD0000201104400013044052
:102FD00070B505460E463D480078042108433B493C
:102FE000087003203A49C8802220394920390882D4
:102FF0003848088367204002374908823748007CF8
:103000000121084335490874072031492039488196
:10301000FF202330488232484883672040022E49EF
:1030200048822B4800890121084329490881084624
:10303000808A2C4908402649888208464089012117
:1030400008432349488100BF2748007F20210843C7
:1030500025490877254840780421084323494870CA
:10306000224820304078042188432049203148708C
:103070001F48407C042188431D4948741C48203067
:103080004078042188431A492031487000BF00BFAE
:103090001548007F20210843134908771348203042
:1030A00040780221084311492031487010482030EF
:1030B0004078022188430E492031487000BF3146D4
:1030C0002846FFF753FF0446204670BD2004024007
:1030D00020110440A7800000001304406004044055
:1030E00097400000FEFF0000600804400003044019
:1030F0004000044000BF04484088202108400028C8
:10310000F9D00248807C704700110440001304404D
:103110000449087400BF044909886022114000294D
:10312000F9D170470013044000110440F8B505467A
:103130000E466A463146284600F0DEF90446002C69
:1031400016D10C200B49888068460078C8806846F4
:1031500040784006000C0849888068464078400660
:10316000000CC880034840880C210843014948806E
:103170002046F8BD201104404013044070B50546B8
:103180000E463F480078042108433D4908703D48F9
:1031900080880C2108433B49888001213A48017509
:1031A00001760177002039490875087608772220D2
:1031B000344920398882364888836720400235495F
:1031C00088803548007C042108433349087407206F
:1031D0002C492039C881FF202330C8822F48C8835A
:1031E000672040022B49C8802648008904210843F3
:1031F000244908810846808A294908402149888253
:1032000008464089042108431E49488100BF2548DB
:1032100000780421084323490870224820300078B0
:10322000042188431F49203108701F48007C042175
:1032300088431D4908741C482030007804218843C5
:1032400019492031087000BF00BF164820300078AF
:1032500002210843134920310870134820300078B8
:103260000221884310492031087000BF31462846AA
:10327000FFF75CFF044600F019F8204670BD00001F
:1032800020040240201104402061004020600040E2
:103290009780000040130440600404409740000001
:1032A000FBFF0000000304404000044010B510483C
:1032B0000089042108430E490881084640890421F9
:1032C00008430B494881084640880C2108430849B7
:1032D000488000200749087508760D20FFF7AEFBEF
:1032E0000E20FFF7ABFB002103480175017610BDEE
:1032F000201104402060004020610040F8B50546E0
:103300000E466A463146284600F0F6F80446002C80
:1033100016D103200B49888068460078C88068462B
:1033200040784006000C084908816846407840060D
:10333000000C488103484088032108430149488024
:103340002046F8BD601504404017044070B505469E
:103350000E4647480078082108434549087045480B
:10336000808803210843434988800121424801772E
:1033700041482030017001710020404908773F49E1
:1033800020310870087122203A49203908823C48CF
:103390000883672040023B4908813B48007C10219C
:1033A0000843394908740720324920394881FF20F1
:1033B000233048823548488367204002314948819C
:1033C0002C480089012108432A4908810846808A3F
:1033D0002F4908402749888208464089012108432F
:1033E0002449488100BF2B48C07D022188432949D8
:1033F000C87529484078082108432749487026485D
:1034000020304078082188432349203148702348E0
:10341000407C082188432149487420482030407866
:10342000082188431D492031487000BF00BF19485A
:10343000C07D022188431749C8751748203040785D
:103440001021084314492031487014482030407836
:103450001021884311492031487000BF3146284669
:10346000FFF74CFF044600F01BF8204670BD00003B
:1034700020040240601504400061004000600040EC
:10348000978000004017044060040440974000000B
:10349000FEFF0000600804400003044040000440B8
:1034A00010B51248008901210843104908810846D7
:1034B0004089012108430D4948810846408803217D
:1034C00008430A4948800020094908770849203103
:1034D00008700720FFF7B2FA0820FFF7AFFA0021C3
:1034E0000448017703482030017010BD6015044086
:1034F0000060004000610040F7B58AB016466424C1
:1035000000200390029001900B980002059005990D
:103510000A98FDF772F8401C049002E00398401CE2
:10352000039001200399884004998842F6D3039DB3
:103530003EE06800274A115A0A98FDF75EF80690A7
:10354000022732E0791C0698FDF757F841080791E9
:103550007D22D2000799514308460B99FDF74DF89B
:103560007D21C900401A0A21484308900898211E6D
:1035700001DB0A4600E04A42002801DB034600E086
:1035800043429A4202DD089C01970295201E01DB0E
:10359000014600E04142142906DA357077700020B8
:1035A000099009980DB0F0BD7F1C802FCAD36D1C07
:1035B000102DBED3201E01DB014600E0414214293C
:1035C00003DB029830700198707000200990099810
:1035D000E8E70000A0C20000002101704170817086
:1035E000C170002284210A5485210A5486210A547C
:1035F0007047000000B50548FFF7EEFF0448FFF7ED
:10360000EBFF0448FFF7E8FF00BD0000F80A0020C8
:10361000FF0B0020060D002010B5FEF75FF901201A
:103620000C49087000200C4908600C4908600C48DF
:103630000C4908600C480D49086000200C490860DE
:103640000520FEF78BF90220024908701420034977
:10365000086010BDD0050020D4050020D80500204A
:10366000DC05002050010020DE0500205401002070
:103670005801002010B51F480078030002F0ECFE4E
:103680000604070A1A293738FFF7C6FF30E0FFF7AC
:10369000C3FF2DE018480068012803D10320154915
:1036A000087006E015480068002802D10120114981
:1036B00008701DE000201049086004200D490870C2
:1036C0007D20C0000D4908600D4800880D49088024
:1036D0000EE00A480068002808D10520FEF73EF9F0
:1036E00002200449087014200449086000E000BF6B
:1036F00000BF10BDD005002058010020D8050020D3
:10370000DE05002086050020FFB589B00F4615466E
:103710001E46002F02D01298022804DA00203860DA
:1037200001200DB0F0BD0021695E0998814259DD8C
:103730000020285E0221695E884253DA3068FDF776
:103740009EFC039102907068FDF799FC0191009036
:10375000039B029AFDF7C9F9079106900020285EA5
:10376000FDF785FC039102900998FDF780FC01911B
:103770000090039B029AFDF7B8F905910490079B0E
:10378000069AFDF77FFC5F4A03C20020285EFDF722
:103790006EFC059104900220285EFDF768FC039101
:1037A0000290059B049AFDF7A0F902460B4607918B
:1037B0000690544903C9FDF7BBF9524A03C2306869
:1037C000FDF75DFC079106904E480CC80698FDF782
:1037D0007FF94C4A03C24B4903C9FDF7CDFB386062
:1037E00000209EE7002486E06000295E601C400007
:1037F000285E814204DBA00030583860032090E747
:103800006000295E0998814204DBA00030583860CE
:10381000002086E76000295E099881425EDA601C1C
:103820004000295E0998814258DBA1007058FDF7DD
:1038300026FC03910290611C89007058FDF71FFC63
:1038400001910090039B029AFDF74FF907910690B2
:103850006100685EFDF70BFC039102900998FDF78B
:1038600006FC01910090039B029AFDF73EF9059139
:103870000490079B069AFDF705FC224A03C26100EB
:10388000685EFDF7F4FB05910490611C4900685ED9
:10389000FDF7EDFB03910290059B049AFDF725F9D6
:1038A00002460B4607910690164903C9FDF740F9F9
:1038B000144A03C2A1007058FDF7E1FB079106907E
:1038C00010480CC80698FDF703F90E4A03C20D49CB
:1038D00003C9FDF751FB3860002022E71298801ED3
:1038E000A04206DC1298401E80003058386000204C
:1038F00017E7601CC4B21298401EA04200DD73E7B7
:1039000004200EE7900500200021154A11700020C8
:1039100008E04100134A515A134A914200D103E092
:10392000411CC8B20B28F4DB00BF002803D10021E2
:103930000E4A116011E00B2807D10D49896A0D4A22
:103940001288891A094A116007E08100084A515813
:10395000084A1288891A054A116007490870704799
:103960009805002028150020FFFF00009C0500207E
:103970006C150020AA040020FE040020F8B5F848C9
:103980004079F8490880084600780006000C088055
:10399000F348007909884018F2490880F048C07956
:1039A000F1490880084600780006000C0880EC48C1
:1039B000807909884018EC490880E948C07AEB49C9
:1039C0000880084600780006000C0880E448807AE9
:1039D00009884018E5490880E148467B300206B274
:1039E000DF48007B801906B2E1480660DC48467C6F
:1039F000300206B2DA48007C801906B2DD48066063
:103A0000D748C07DDC4908600846006800020860AD
:103A1000D348807D09684018D74908600846006887
:103A200000020860CE48407D09684018D24908600D
:103A30000846006800020860C948007D096840180F
:103A4000CD490860C648C07ECC4908600846006879
:103A500000020860C248807E09684018C7490860B3
:103A60000846006800020860BD48407E09684018AA
:103A7000C24908600846006800020860B848007E35
:103A800009684018BD490860B54820304078BC49F5
:103A90000880084600780006000C0880B0482030F6
:103AA000007809884018B6490880AD482030C078B1
:103AB000B4490880084600780006000C0880A84831
:103AC0002030807809884018AE490880A44820300A
:103AD0004079AD49088008460078000200B20880AD
:103AE0009F48203000790988401800B2A649088014
:103AF00008460021415E402903DD4020A24908809C
:103B000007E0A1480021415E012902DA01209E4917
:103B1000088000209D4908709D4908609048203029
:103B2000C0799C490880084600780006000C08808F
:103B30008B482030807909884018964908800846CB
:103B40000088182812D00846008819280ED0084688
:103B500000881B280AD0084600881C2806D0084682
:103B600000881D2802D00020C043088000201AE0F1
:103B7000410029317A4A515C4200874B99524100F9
:103B80001A46515C0906090C4200995241001A4636
:103B9000525A41002831724B595C511842007E4BF9
:103BA0009952411CC8B20B28E2DB00201AE0410008
:103BB00049316B4A515C4200784B995241001A4698
:103BC000515C0906090C4200995241001A46525AAA
:103BD00041004831624B595C511842006F4B995279
:103BE000411CC8B20B28E2DB6B4909886C4A914240
:103BF00002D100216B4A1170002008E04100664AA2
:103C0000515A09B24200684B9952411CC8B20B2864
:103C1000F4DB002007E04100604A515A8200634B08
:103C20009950411CC8B20B28F5DB052009E0810042
:103C30005E4A51580A22514382005C4B9950411C04
:103C4000C8B20B28F3DB46486030407A58490880F8
:103C5000084600780006000C088041486030007A71
:103C60000988401852490880FFF74EFE002410E0F2
:103C7000A00050494718002507E0A0007030401907
:103C80003749085C7855681CC5B2042DF5DB601C0B
:103C9000C4B2082CECDB32488030407C46490880B6
:103CA000084600780006000C08802D488030007C13
:103CB000098840184049088000240AE0A0003D49D6
:103CC00047183846FEF780FB002800D103E0601C4F
:103CD000C4B2042CF2DB00BF042C03D1012037490D
:103CE000088004E00020354908803349088000241A
:103CF00010E0A00032494718002507E0A0009830E6
:103D000040191749085C7855681CC5B2042DF5DBCD
:103D1000601CC4B2032CECDB1148A0304079294967
:103D20000880084600780006000C08800C48A03087
:103D3000007909884018234908800948A030C079D3
:103D400021490880084600780006000C08800448D5
:103D5000A0308079098840181B490880002440E081
:103D6000281400208002002082020020E4040020A9
:103D7000E8040020EC040020F0040020F4040020FB
:103D8000FA040020F8040020FC0400208A0500202A
:103D90008C05002092040020281500203E150020EC
:103DA000FFFF0000FE040020541500206C150020C9
:103DB000AA040020981500200005002020050020FE
:103DC000B81500203A0500203C050020A0007149EC
:103DD00047183846FEF7F8FA002800D103E0601CC7
:103DE000C4B2032CF2DB00BF032C03D101206A49CB
:103DF000088004E000206849088068490880684815
:103E0000407A6849088008460078000200B20880BD
:103E10006348007A0988401800B262490880604807
:103E2000407C61490880084600780006000C088044
:103E30005B48007C098840185B4908805848C07C72
:103E40005A490880084600780006000C088054484B
:103E5000807C09884018554908805148407D544964
:103E6000088008460078000200B208804C48007DB7
:103E70000988401800B24E4908804948407D4D49A4
:103E8000088008460078000200B208804448007D9F
:103E90000988401800B2474908804148C07D46491A
:103EA000088008460078000200B208803C48807D07
:103EB0000988401800B2404908803948407E3F498F
:103EC0000880084600780006000C08803448007E10
:103ED00009884018394908800846008838498842CE
:103EE00008D034480021415E34480088FCF78FFB3D
:103EF000002902D00020314908802B480088002882
:103F00001AD0294800882E49884215D027480088B1
:103F1000002811D02548008888420DD02448008808
:103F2000002809D023490020085E2549884203D093
:103F300021480088002803D100202249087014E09D
:103F4000002001211F4A11701C4909881E4A116076
:103F500011460868184900228A5E01465143084606
:103F6000801201B2194A118000BF0D4820304078FC
:103F700017490880084600780006000C08800848A9
:103F80002030007809884018114908800020114924
:103F90000870F8BDB81500203E0500203C05002043
:103FA000C81400206005002064050020660500207C
:103FB000680500206A0500206C05002084050020AB
:103FC000FFFF000062050020800500207A05002028
:103FD000DC040020DE040020FEB5002604E01C48BE
:103FE000805D1C498855361DFF2EF8D90024002617
:103FF0001DE0194830180290029805682F46F8B263
:104000000190144901980855641C3804000E019071
:1040100001980855641C3802000E0190019808555B
:10402000641C380E019001980855641C361DFF2E43
:10403000DFD9FFF7A3FC08480290029805682F46D5
:104040000548F03002900298056800950020FEBDFA
:104050008B0300202814002000025000F3B582B02A
:104060000D46002001900298030002F0F5F9093393
:10407000061115203333242F33000121681820380E
:10408000C67F80203040002801D00120019028E028
:1040900001210020019024E0022168182038C67F09
:1040A00080203040002801D00120019019E000203C
:1040B0000190022115E0042168182038C67F802075
:1040C0003040002801D0012001900AE0002001903A
:1040D000042106E00020019000210027384604B0AA
:1040E000F0BD00BF00270198002816D1002211E082
:1040F00000240BE06818801A2038C07F80232341F9
:104100001840002800D01FE0601CC4B2082CF1DB6E
:10411000501CC2B28A42EBDB15E0002211E0002401
:104120000BE06818801A2038C07F80232341184094
:10413000002800D108E0601CC4B2082CF1DB501C40
:10414000C2B28A42EBDB00BFC806070ED006000EE3
:1041500000900098381AC7B2082C01DA381BC7B291
:1041600001983818C0B2BAE7FFB581B00446002004
:1041700020E0611E15460D41EB07DB0F0146C51718
:104180002D0F6D182D112D01461B651EAE1B05113F
:104190006F00049DED5B3541ED07ED0F0095009D2F
:1041A000AB4204D05100029D69408AB201E0510443
:1041B0000A0C401C0A998842DBD30349A1401046EF
:1041C000884305B0F0BD0000FFFF000038B500BF18
:1041D00038A0FCF75FF800BF00BF3948FCF75AF879
:1041E00000BF00BF3C2000F079FB8000354940183B
:1041F00044883C2000F072FB80003249401845881A
:104200002246294630A0FCF745F800BF3C2000F0CC
:1042100065FB80002B4940184088002832D100BF40
:1042200036A0FCF737F800BF02F0F0F801F0EAFD25
:1042300000243F200001394B394A3A4900901020B0
:10424000FFF792FF044600BF37A0FCF723F800BF3A
:1042500000F03EFA00F0FEF921467E2000F076FAEA
:1042600000F0AAF800F0C6F87E211648E030017789
:104270001C3044803248C48700F0DCF93220FEF75D
:104280002DFD04E000BF2FA0FCF704F800BF322092
:10429000FEF724FD00BF032133A0FBF7FBFF00BFA7
:1042A00001F002FE01F0A6FD01F0ACFD01F09AFD67
:1042B00038BD00000A453730335F496E69743B00F2
:1042C0006CC80000281300200A4E6F77204D625200
:1042D00065675B313331305D203D20434D5B307885
:1042E00033435D203D20307846464645203D203012
:1042F0007825303458203D2025642E000A577269F5
:1043000074652053706563696669656420434D2058
:104310005573657220646174612E00007011002075
:10432000FFFF0000058000000A5772697465206E67
:10433000657720435243313620646174613B00004D
:10434000301100200A4E6F74207772697465205313
:10435000706563696669656420434D2055736572B5
:1043600020646174612E00000A496E6974207479BA
:1043700070652069732025642E00000008B50C4884
:10438000007800280ED14E200A490870002048709D
:1043900088700220009008460278431C6C2101209E
:1043A00003F014FE012002490870002008BD00003F
:1043B000E6020020540F002008B50C4800780028C1
:1043C0000ED14E200A4908700020487088700220E3
:1043D000009008460278431C6C21012003F0F6FD92
:1043E000012002490870002008BD0000E5020020FD
:1043F000540F002008B50C48007800280FD1222067
:104400000A490870A220487062208870022000903B
:1044100008460278431C6C21012003F0D7FD0120DF
:1044200001490870002008BDE4020020540F00205C
:10443000F8B506460C460027304601F026FC012858
:1044400037D100F045F94E201B49087008464670E8
:104450004C2088700220009008460278431C6C2192
:10446000012003F0B3FD482013490870002504E043
:10447000FF2012494855681CC5B20A2DF8DB0220FE
:1044800000900D4802780D4B6C21012003F03CFD9B
:1044900000280DD109484078208020780006000CC3
:1044A000208020880549097840182080012700E0F5
:1044B00000273846F8BD0000540F0020740F00207C
:1044C00038B56946222000F081F80446012C03D15A
:1044D00068460088334908806946262000F076F84F
:1044E0000446012C03D1684600882F49088069469C
:1044F000282000F06BF80446012C03D168460088A0
:104500002A49088069462A2000F060F80446012CF8
:1045100004D16846008800B22549088069462E20EB
:1045200000F054F80446012C03D168460088214964
:1045300008806946302000F049F80446012C03D178
:10454000684600881C4908806946322000F03EF821
:104550000446012C03D16846008818490880694642
:10456000362000F033F80446012C03D16846008859
:10457000134908806946382000F028F80446012CC9
:1045800003D1684600880F4908806946462000F03C
:104590001DF80446012C03D1684600880A490880AA
:1045A000002038BDCC020020CE020020D002002026
:1045B000D2020020D4020020D6020020D80200201F
:1045C000DA020020DC020020DE020020F8B50646F8
:1045D0000C46304601F075FB012825D113480670C2
:1045E000002504E0FF2012494855681CC5B20A2D79
:1045F000F8DB022000900D4802780D4B6C21012061
:1046000003F082FC00280DD10948407820802078F2
:104610000006000C20802088054909784018208079
:104620000120F8BD0020FCE70020FAE7540F00202D
:10463000740F002010B5064C2146222000F0C0F86F
:10464000FFF79CFEFFF7B8FEFFF7D4FE10BD000099
:1046500069B1000008B51C48007801282FD14E2010
:104660001A490870BD204870982088700220009078
:1046700008460278431C6C21012003F0A7FC4E2061
:1046800012490870BF2048702520887002200090D1
:1046900008460278431C6C21012003F097FC4E2051
:1046A0000A490870D820487036208870022000908F
:1046B00008460278431C6C21012003F087FC00208F
:1046C0000149087008BD0000E5020020540F0020D9
:1046D00008B51C48007801282FD122201A490870FB
:1046E0005A204870F720887002200090084602780F
:1046F000431C6C21012003F069FC22201249087040
:10470000C72048700C20887002200090084602786C
:10471000431C6C21012003F059FC22200A49087037
:104720001E204870D220887002200090084602782F
:10473000431C6C21012003F049FC00200149087052
:1047400008BD0000E4020020540F002038B50546E3
:104750000C46284601F0A6FA01282AD1FFF7B8FF37
:10476000FFF778FF4A20144908704C7020128870B7
:104770000220009008460278431C6C21012003F0BF
:1047800025FC4E200C49087008464570A32088700F
:104790000220009008460278431C6C21012003F09F
:1047A00015FC05200549086000BF04480068002882
:1047B000FBD1002038BD0000540F0020E002002093
:1047C00038B505460C46284601F07BFA012810D181
:1047D000FFF77EFF0848057001464C702012887074
:1047E0000220009008460278431C6C21012003F04F
:1047F000EDFB002038BD0000540F002010B5012251
:1048000000210720FEF79CF9042201210720FEF772
:1048100097F9042202210720FEF792F904220721CA
:104820000120FEF78DF900BF2A4803210902401834
:1048300040788021084327490322120289184870D2
:1048400000BF042201210520FEF77AF900BF2148AC
:104850000321090240184079022108431D4903221F
:1048600012028918487100BF042206210D20FEF7AC
:1048700067F900BF1748032109024018407B402117
:1048800008431449032212028918487300BF042206
:1048900011460220FEF754F900BF0E480321090219
:1048A00040188078102108430A490322120289180F
:1048B000887000BF00BF07481146401840790221A8
:1048C000884304498918487100BF002002490860E4
:1048D00010BD0000000004408C02002000B503461B
:1048E000184601F0D2F9002801D1FF2000BD0022B6
:1048F00007E090000549085C984200D103E0501C95
:10490000C2B2402AF5DB00BF1046EFE7C0C400008A
:10491000FEB5074600210C460D461F4E19204001EA
:10492000874234DD3068401C002802D130680028FE
:104930002DD07068401C002802D17068002826D055
:104940003846FCF794FB04460D4613491039486974
:10495000FCF7BCFC22462B4601910090FCF792FB31
:1049600004460D4600220D4B20462946FCF7E0F890
:1049700004460D46084910390869FCF7A7FC224691
:104980002B4601910090FCF7A3F804460D46204603
:10499000294603B0F0BD0000A81500200000244007
:1049A000F8B504460D4633480088002803D0324845
:1049B0000088002802D100200146F8BD2F49086870
:1049C000FCF784FC2E4A03C22C494868FCF77EFCA5
:1049D000064622462B46FCF755FB2A4A03C22948C5
:1049E00027490CC803C9FCF773F8254A03C22246BD
:1049F0002B4620462946FCF745FB224A03C21F49A5
:104A00008868FCF763FC06461E480CC83046FCF775
:104A100039FB1C4A03C21B4819490CC803C9FCF7DF
:104A200057F8174A03C222462B4620462946FCF770
:104A300029FB144A03C213480CC820462946FCF738
:104A400021FB104A03C20D49C868FCF73FFC06462B
:104A50000C480CC83046FCF715FB0A4A03C209484B
:104A600007490CC803C9FCF733F8054A03C20449D7
:104A700003C9A2E7200500200005002098150020AA
:104A8000080500201005002010B5FDF78BFD002063
:104A900025490870254908702548264908604020A6
:104AA00025490880002025490880254908702548A7
:104AB00025490860002025490880254908702549B6
:104AC0000870254908702549087025490880022189
:104AD000244806F095FD2449087002212148801CD5
:104AE00006F08EFD214908700221214806F088FD5C
:104AF0002049087002211E48801C06F081FD1E49D5
:104B0000087002211A48001D06F07AFD1B49087042
:104B100002211748801D06F073FD19490870012015
:104B20001849088010BD00002C0100202D01002034
:104B300044160020300100203401002036010020FE
:104B40003F01002084160020380100203C01002095
:104B50003E01002040010020A0050020A10500200A
:104B6000A2050020B1050020BD050020BE050020E3
:104B7000B5050020BF050020C0050020C1050020AC
:104B8000C205002094040020FCB5FE4800780128EE
:104B900001D000F0CDFEFC480088FC4988427DD160
:104BA000002401E0601CC4B2F94800788442F9DBBB
:104BB000002600242BE006216143F64A88180221D2
:104BC00001F00EFD0746062021464143F148801CB6
:104BD000415C019101998F4201D0701CC6B206213F
:104BE00022464A43EB49C91C5018022101F0F8FC47
:104BF0000746062021464143E648401D415C01919D
:104C000001998F4201D0701CC6B2601CC4B2082C3E
:104C1000D1DB002E01D000F07DFE002460E0A0007A
:104C2000DD4940180090204606214843801DD9499F
:104C3000891E095C009801700098401C0090204675
:104C400006214843801DD349891E095CA0007030AD
:104C5000D24A1154204606214843401DCD49891EA1
:104C6000095C009801700098401C009020460621C5
:104C70004843401DC749891E095CA000713011548A
:104C8000204606214843C01CC249891E095C009881
:104C900001700098401C0090204600E026E00621AC
:104CA0004843C01CBB49891E095CA00072301154E6
:104CB000204606214843801CB649891E095C00989D
:104CC00001700098401C0090204606214843801C3B
:104CD000B049891E095CA00073301154601CC4B235
:104CE000082C9CDB0120AE49087094E7A648008898
:104CF000A649491C884231D1002401E0601CC4B29D
:104D0000A34800788442F9DB00260221A14801F083
:104D100067FC07469F48801E0179019101998F42E7
:104D200001D0701CC6B2002EDFD19A48801EC17817
:104D30009A48803001749748801E81789748803067
:104D400041749448801E85782D02C078401985B240
:104D5000944805800120924908705CE78A480088E1
:104D60008A49891C88427DD1002401E0601CC4B2BC
:104D7000874800788442F9DB002600242BE00621D6
:104D80006143844A8818022101F02AFC0746062064
:104D9000214641437F48801C415C019101998F422B
:104DA00001D0701CC6B2062122464A437949C91C6B
:104DB0005018022101F014FC074606202146414309
:104DC0007448401D415C019101998F4201D0701CD3
:104DD000C6B2601CC4B2032CD1DB002E85D10024E6
:104DE00060E0A0007049401800902046062148432A
:104DF000801D6849891E095C009801700098401C5C
:104E00000090204606214843801D6249891E095CA6
:104E1000A0009830614A1154204606214843401DA5
:104E20005C49891E095C009801700098401C009044
:104E3000204606214843401D5649891E095CA000B2
:104E400099301154204606214843C01C5149891EFF
:104E5000095C009801700098401C009020460621D3
:104E6000484300E024E0C01C4A49891E095CA000B8
:104E70009A301154204606214843801C4549891E1A
:104E8000095C009801700098401C009020460621A3
:104E90004843801C3F49891E095CA0009B30115487
:104EA000601CC4B2032C9CDB01203D490870B2E6B3
:104EB000354800883549C91C884231D1002401E0B9
:104EC000601CC4B2324800788442F9DB002602211B
:104ED000304801F085FB07462E48801E017901917C
:104EE00001998F4201D0701CC6B2002EDFD1294833
:104EF000801EC1782948A03081712648801E8178A3
:104F00002648A030C1712348801E85782D02C078C4
:104F1000401985B2254805800120214908707AE6AC
:104F2000194800881949491D884260D1002401E0D0
:104F3000601CC4B2164800788442F9DB00260221C6
:104F4000144801F04DFB07461248801E017901917B
:104F500001998F4201D0701CC6B202210D48C01CBD
:104F600001F03EFB07460B48801EC0790190019876
:104F7000874201D0701CC6B2002E98D10548801E11
:104F8000C07815E0A0050020C805002083110000AE
:104F9000A4050020C6160020981500202814002023
:104FA0008A03002000050020B81500203C050020E1
:104FB000FC490871FC4880784871FB488079887109
:104FC000F9484079C871F84885782D02C0784019B1
:104FD00085B2F6480580F44845792D02807940195C
:104FE00085B2F34805800120F249087013E6F248C3
:104FF0000088F24988427DD1002401E0601CC4B2DF
:10500000EF4800788442F9DB00260221E648801C44
:1050100001F0E6FA0746E4480179019101998F42CF
:1050200001D0701CC6B20221DF48401D01F0D8FA41
:105030000746DD48C07901900198874201D0701C75
:10504000C6B20221D848083001F0CAFA0746D6484D
:10505000807A01900198874201D0701CC6B202216B
:10506000D1480B3001F0BCFA0746CF48407B019095
:105070000198874201D0701CC6B20221CA480E3086
:1050800001F0AEFA0746C848007C019001988742BB
:1050900001D0701CC6B20221C348113001F0A0FA41
:1050A0000746C148C07C01900198874201D0701C1E
:1050B000C6B20221BC48143001F092FA0746BA4841
:1050C000807D01900198874201D0701CC6B20221F8
:1050D000B548173001F084FA0746B348407E019086
:1050E0000198874201D0701CC6B2002E7ED10020EC
:1050F000AD4900E04CE04D792D02897949198DB216
:1051000028B2A84A157329125173AE4908600020CD
:10511000A549CD7A2D02097B49198DB228B21574A3
:1051200029125174A849086000209F498D7B2D02E7
:10513000C97B49198DB2284695752912D1759A49AE
:105140004D7C2D02897C49198DB2000440191575DA
:10515000291251759D490860002093490D7D2D024B
:10516000497D49198DB2284695762912D1768E4906
:10517000CD7D2D02097E49198DB2000440191576A6
:10518000291251769249086001218A4A1170C1E3BF
:10519000894800888949C91C88424BD1002401E014
:1051A000601CC4B2864800788442F9DB00260020E7
:1051B000044616E0610062187B49891C50180221E0
:1051C00001F00EFA0746600021187748001D415C87
:1051D000019101998F4201D0701CC6B2601CC0B20F
:1051E00004460B2CE6DB002ED1D100E02BE200249C
:1051F0001AE000BF61006118891C6B4A555C2D02E2
:1052000061006118C91C515C49198DB228466100C2
:105210004831644B5D542A12610049315A5461008F
:105220006C4A5052611CCCB20B2CE2DB0121614A6A
:1052300011706FE3604800886049091D88424DD1B4
:10524000002401E0601CC4B25D4800788442F9DBB0
:1052500000260020044616E0610062185249891CAD
:105260005018022101F0BCF90746600021184E4891
:10527000001D415C019101998F4201D0701CC6B2A2
:10528000601CC0B204460B2CE6DB002ED1D10024FA
:105290001EE000BF61006118891C434A555C2D0265
:1052A00061006118C91C515C49198DB22846610022
:1052B00028313C4B5D542A12610029315A54610057
:1052C000454A505201B26200444B9952611CCCB223
:1052D0000B2CDEDB0121374A11701BE336480088B6
:1052E0003649491D88422BD1002401E0601CC4B21C
:1052F000334800788442F9DB002602212A48801CCA
:1053000001F06EF90746284800790190019887421C
:1053100001D0701CC6B2002E8BD1002022498D789E
:105320002D02C97849198DB228461E4920318D7049
:105330002A12CA702A49088001211E4A1170E9E226
:105340001D4800881D49891D88424DD1002401E077
:10535000601CC4B21A4800788442F9DB002602219E
:105360001148801C01F03CF907460F480179019172
:1053700001998F4201D0701CC6B2002EADD1002021
:1053800009498D782D02C97849198DB22846054AF8
:1053900095722912D172134908800121054A1170B2
:1053A000B8E2000028140020C4160020800200206B
:1053B000820200208A030020C80500208911000015
:1053C000A4050020E8040020EC040020F0040020E4
:1053D000F40400203E15002028150020541500205C
:1053E000F8040020E4040020FD480088FD498842BC
:1053F0002BD1002401E0601CC4B2FB480078844239
:10540000F9DB00260221F94801F0EAF80746F748DF
:10541000801E007901900198874201D0701CC6B2AD
:10542000002E8CD10020F149891E8D782D02C9787B
:1054300049198DB22846EE490D712A124A71ED497B
:1054400008800121EC4A117064E2E5480088E549D2
:10545000491C88422CD1002401E0601CC4B2E248FF
:1054600000788442F9DB00260221E04801F0B8F818
:105470000746DE48801E0179019101998F4201D0D3
:10548000701CC6B2002E8BD10020D849891E8D78A1
:105490002D02C97849198DB22846D54940390D7277
:1054A0002A124A72D54908800121D34A117031E28B
:1054B000CB480088CB49C91C88422DD1002401E08B
:1054C000601CC4B2C84800788442F9DB002602217F
:1054D000C64801F085F80746C448801E017901914D
:1054E00001998F4201D0701CC6B2002EACD10020B1
:1054F000BE49891E8D782D02C97849198DB228467A
:10550000BB4980390D712A124A7101B2BC4A11801F
:105510000121B94A1170FDE1B1480088B149091D66
:1055200088422CD1002401E0601CC4B2AE4800784F
:105530008442F9DB00260221AC4801F051F807460D
:10554000AA48801E0179019101998F4201D0701CF7
:10555000C6B2002EABD10020A449891E8D782D0241
:10556000C97849198DB22846A14980390D702A128F
:105570004A70A449088001219F4A1170CAE19848E5
:1055800000889849491D88422CD1002401E0601C04
:10559000C4B2954800788442F9DB00260221934882
:1055A00001F01EF807469148801E0079019001988D
:1055B000874201D0701CC6B2002EACD100208B49AE
:1055C000891E8D782D02C97849198DB228468849DF
:1055D0000D722A124A7201B28B4A11800121864A49
:1055E000117097E17E4800887E49113188422BD1A5
:1055F000002401E0601CC4B27B4800788442F9DBDF
:1056000000260221794800F0EBFF07467748801E0C
:105610000179019101998F4201D0701CC6B2002E10
:10562000ACD100207149891E8D782D02C9784919A5
:105630008DB228466E490D742A124A747349088047
:1056400001216D4A117065E1654800886549123194
:1056500088422BD1002401E0601CC4B2624800786B
:105660008442F9DB00260221604800F0B9FF0746BA
:105670005E48801E0179019101998F4201D0701C12
:10568000C6B2002EADD100205849891E8D782D025A
:10569000C97849198DB2284655498D742A12CA74A1
:1056A0005B4908800121544A117033E14C4800885D
:1056B0004C49133188422CD1002401E0601CC4B253
:1056C000494800788442F9DB00260221474800F06F
:1056D00087FF07464548801E007901900198874260
:1056E00001D0701CC6B2002EADD100203F49891EEA
:1056F0008D782D02C97849198DB228463C490D751F
:105700002A124A7501B2434A118001213A4A1170A6
:1057100000E1334800883349143188422CD10024F9
:1057200001E0601CC4B2304800788442F9DB0026F6
:1057300002212E4800F054FF07462C48801E0079B5
:1057400001900198874201D0701CC6B2002E12D180
:1057500000202649891E8D782D02C97849198DB2FD
:10576000284623490D752A124A7501B22A4A11802A
:105770000121214A1170CDE01948008819491531DD
:1057800088424DD1002401E0601CC4B21648007864
:105790008442F9DB00260221144800F021FF07466D
:1057A0001248801E0179019101998F4201D0701C2D
:1057B000C6B2002E12D100200C49891E8D782D0210
:1057C000C97849198DB2284609498D752A12CA75BA
:1057D00001B2124A11800121074A11709AE00000BB
:1057E000C805002090110000A4050020C616002066
:1057F000C81400203A0500208A030020AA040020D3
:10580000FC040020FA04002060050020640500204C
:1058100066050020680500206A0500206C05002050
:1058200069480088694988424DD1002401E0601C24
:10583000C4B2674800788442F9DB0026022165483B
:1058400000F0CEFE07466348801E00790190019863
:10585000874201D0701CC6B2002E5BD15D48801E0D
:105860008078002856D15B48801EC078182813D055
:105870005848801EC07819280ED05648801EC0781F
:105880001B2809D05348801EC0781C2804D05148DA
:10589000801EC0781D2805D14E48801EC0784E4914
:1058A000088003E00020C0434B4908804A48017843
:1058B0004A4881714848008801124848C171012056
:1058C0004749087026E0404800884049491F8842FF
:1058D0000BD1002401E0601CC4B23D480078844232
:1058E000F9DB01203F49088014E037480088374938
:1058F000891E88420ED1002401E0601CC4B23448E5
:1059000000788442F9DB01203749087019204001F2
:10591000364908600020364908703649087008701A
:10592000354908802849088034490880344908707E
:105930003448007801281FD13348007801281BD152
:1059400032480078002817D1002401E0601CC4B25E
:105950002F4800888442F9DB00202B4908702D482D
:105960002D49086040202D490880002028490880E2
:10597000254908702349087022480078012822D15F
:105980002148007801281ED12048007801281AD12A
:1059900023490968234A881A002401E0611CCCB21B
:1059A0008442FBD30021174A11701E491C4A116022
:1059B00040211D4A11800021144A11701B4A1170A8
:1059C000134A118000BFFCBDC80500200836000046
:1059D000A4050020C61600209204002048140020D0
:1059E0008A03002094040020680200206C0200203A
:1059F000CC050020C3050020C6050020CA050020F4
:105A0000A00500202D0100203F0100203E010020C4
:105A1000360100204416002030010020340100200F
:105A200038010020841600203C01002040010020A5
:105A300010B5012000F0D6FAFEF7C8FB10BD00003B
:105A400000280DD100BF0E4903221202891849789F
:105A5000202291430A4A03231B02D21851700DE001
:105A600000BF0749032212028918497820221143F6
:105A7000034A03231B02D218517000BF7047000075
:105A80000000044000280DD100BF0E49032212027D
:105A900089184978102291430A4A03231B02D2181D
:105AA00051700DE000BF074903221202891849789E
:105AB00010221143034A03231B02D218517000BF66
:105AC000704700000000044010B501220421104678
:105AD000FDF736F810BD10B5042211460120FDF780
