:020000040000FA
:1000000008060020D9000000E1000000E300000025
:1000100000000000000000000000000000000000E0
:10002000000000000000000000000000EB000000E5
:100030000000000000000000EF000000A905000023
:10004000690200007D0200009D020000BD02000068
:10005000DD020000FD0200001D0300003D03000062
:100060005103000065030000890300009D030000A8
:10007000B1030000D5030000E9030000FD03000008
:100080002104000041040000550400006904000040
:100090007D04000091040000A5040000C9040000D4
:1000A000ED0400000D0500003105000045050000CD
:1000B000590500006D050000810500009505000050
:1000C000EF3BE9FF0348854600F04EF80048004743
:1000D00045080000080600201648804716480047DB
:1000E000FEE7FEE7FEE7FEE7FEE7FEE7FEE7FEE7E8
:1000F000FEE7FEE7FEE7FEE7FEE7FEE7FEE7FEE7D8
:10010000FEE7FEE7FEE7FEE7FEE7FEE7FEE7FEE7C7
:10011000FEE7FEE7FEE7FEE7FEE7FEE7FEE7FEE7B7
:10012000FEE7FEE7FEE7FEE7FEE7FEE7FEE7FEE7A7
:10013000FEE70000D5050000C500000030B50B4605
:10014000014600202022012409E00D46D5409D42B1
:1001500005D31D469540491B254695404019154637
:10016000521E002DF1DC30BD064C0125064E05E087
:10017000E36807CC2B430C3C98471034B442F7D3C8
:10018000FFF7A4FFB4090000D409000000210148D2
:100190004170704724600040002101484170704761
:1001A0005C6000400021014841707047646000407D
:1001B00000210148417070476060004000B5C022D6
:1001C0009178F82211401C4A127811431B48EA2901
:1001D00023D00ADC0A46E03A130000F045FA0A1878
:1001E0001C20242A2A2A2A161A2AED291FD004DCC8
:1001F000EB2916D0EC291CD117E0F02903D0F829FF
:1002000017D10F4815E00F4813E00D4811E00E48D4
:100210000FE00E480DE00E480BE00E4809E00E48D6
:1002200007E00E4805E00E4803E00E4801E00348F1
:1002300000BF00BF00BD0000201C024040420F0074
:100240000048E801006CDC0200366E010024F40076
:10025000001BB70000127A00808D5B0000093D0092
:10026000C0C62D0080841E0010B503480078002809
:1002700001D000F0E1FA10BD0060004010B5064862
:100280000079002801D000F083FA03484079002863
:1002900001D000F0ADFA10BD0060004010B5064876
:1002A000007A002801D000F085FA0348407A00283F
:1002B00001D000F0A3FA10BD0060004010B5064860
:1002C000007B002801D000F07BFA0348407B002827
:1002D00001D000F099FA10BD0060004010B506484A
:1002E000007C002801D000F071FA0348407C00280F
:1002F00001D000F08FFA10BD0060004010B5064834
:10030000007D002801D000F067FA0348407D0028F6
:1003100001D000F043FA10BD0060004010B506485F
:10032000007E002801D000F05DFA0348407E0028DE
:1003300001D000F039FA10BD0060004010B503484C
:10034000007F002801D000F011FA10BD00600040CD
:1003500010B503480078002801D000F00DFA10BD58
:100360002060004010B507480079002801D000F057
:10037000CDFA0448001D4078002801D0FFF706FFA1
:1003800010BD00002060004010B50348007A00282E
:1003900001D000F009FB10BD2060004010B50348FB
:1003A000007B002801D000F0F9FA10BD2060004069
:1003B00010B50748007C002801D000F09BFA0448E3
:1003C00010304078002801D000F0A6FA10BD0000DF
:1003D0002060004010B50348007D002801D000F0E7
:1003E0007DFA10BD2060004010B50348007E002853
:1003F00001D000F079FA10BD2060004010B5074828
:10040000007F002801D000F07BFA04481C304078BF
:10041000002801D000F086FA10BD000020600040E6
:1004200010B506480078002801D000F0ABF9034869
:100430004078002801D000F08DF910BD40600040E8
:1004400010B503480079002801D000F071FA10BD02
:100450004060004010B50348007A002801D000F049
:100460006DFA10BD4060004010B50348007B0028C5
:1004700001D000F069FA10BD4060004010B503489B
:10048000007C002801D000F065FA10BD40600040FB
:1004900010B50348007D002801D000F03FF910BDE1
:1004A0004060004010B50748007E002801D000F0F1
:1004B0000FFA044818304078002801D000F0B0F955
:1004C00010BD00004060004010B50748007F0028C4
:1004D00001D000F0ABF904481C304078002801D06E
:1004E000FFF75AFE10BD00004060004010B50648FE
:1004F0000078002801D000F017F903484078002860
:1005000001D0FFF755FE10BD6060004010B50748F0
:100510000079002801D000F00DF90448001D407852
:10052000002801D0FFF73EFE10BD000060600040D3
:1005300010B50348007A002801D000F011FA10BD70
:100540006060004010B50348007B002801D000F037
:1005500019FA10BD6060004010B50348007C002807
:1005600001D000F015FA10BD6060004010B50348DE
:10057000007D002801D000F0F9F910BD6060004056
:1005800010B50348007E002801D000F0F5F910BD39
:100590006060004010B50348007F002801D000F0E3
:1005A000DFF810BD60600040AC200449487004488A
:1005B0000068401E024908607047000000100240B9
:1005C0000000002010B5FFF7F9FD0149086010BDDB
:1005D0000400002010B580201B4948711A201A49D8
:1005E000203908722B2048723C2088724D20C87236
:1005F000002016494860FFF7E1FD1549086000201A
:10060000C04314490860144908601448144908603C
:10061000114903221202891848600F49891888601D
:100620000D498918C8600C49891808610A49891858
:10063000486109498918886107498918C861AC204F
:100640000849487010BD00002004024000B001407D
:100650000400002080E200E000E100E0C0C0C0C073
:1006600000E400E00010024030B47446641E2578B7
:10067000641CAB4204D3635D5B00E31830BC1847D5
:100680001D46F8E710B5002819DB1A4A03231B02A0
:10069000D21883089B00D2588307DC0EFF23A340A7
:1006A0009A438B071B0E8407E40EA3401A43114B99
:1006B000032424021B198408A4001A5118E00E4ACE
:1006C00003071B0F083B9B089B00D2588307DC0ED7
:1006D000FF23A3409A438B071B0E8407E40EA3401D
:1006E0001A43054B0407240F083CA408A4001A5120
:1006F00010BD000000E100E01CED00E002E008C8D1
:10070000121F08C1002AFAD170477047002001E08B
:1007100001C1121F002AFBD17047000000200149CF
:10072000087570474060004000200149087070471C
:10073000606000400020014908717047606000401F
:100740000349086000BF024909680029FBD17047CE
:1007500000000020002101484170704740600040C7
:10076000002001490877704760600040002001497F
:10077000087770470060004000200149087070470A
:100780002060004000200149087070474060004030
:1007900000200149087170470060004000210148B5
:1007A0004175704700600040002101484176704764
:1007B000006000400020014908727047006000405E
:1007C0000020014908737047006000400020014983
:1007D00008747047006000400020014908757047A8
:1007E000006000400020014908767047006000402A
:1007F000002101484171704700600040002101481C
:100800004172704700600040002101484173704709
:1008100000600040002101484174704700600040C2
:100820000021014841707047586000400020014994
:100830000877704740600040002001490870704709
:10084000006000407D20C0001C490860FFF7BAFE30
:100850007D21C9001A480068FFF770FC05462C4648
:10086000601E1849884200D90CE0601E1649486194
:100870000321081FFFF706FF0020134988610720A6
:10088000086100BF02201149C87110482030C079AA
:10089000062188430D492031C8710EE0FA20FFF788
:1008A0004FFF0A48C079022148400849C8710846EC
:1008B000C079042148400549C871EFE700000020D5
:1008C00004000020FFFFFF0000E000E00003044000
:1008D000002001490876704740600040002001492F
:1008E0000875704720600040002001490876704775
:1008F00020600040002001490874704720600040DB
:10090000002001490877704720600040002001491D
:100910000871704720600040002101484170704715
:100920003060004000210148417070473C60004049
:1009300000200149087170474060004000200149D3
:1009400008727047406000400020014908737047FA
:10095000406000400020014908747047406000403A
:100960000020014908727047606000400020014982
:1009700008757047606000400020014908767047A4
:1009800060600040002001490873704760600040CB
:100990000020014908747047606000400020014950
:1009A00008737047206000400020014908727047BA
:1009B00020600040D4090000000000200800000072
:1009C000FC060000DC090000080000200006000012
:0C09D0000C070000000000000000000008
:04000005000000C532
:00000001FF
